:020000040800F2
:10000000CC2B0020EDAB0008E5900008F190000833
:10001000F990000801910008099100080000000013
:100020000000000000000000000000001191000826
:100030001D9100080000000029910008359100087A
:1000400045AC000845AC000845AC000845AC0008CC
:1000500045AC000845AC00089D91000845AC00087F
:10006000A991000845AC00080192000845AC0008C1
:1000700045AC000845AC000845AC000845AC00089C
:1000800045AC000845AC000845AC000845AC00088C
:1000900045AC000845AC000845AC000845AC00087C
:1000A00045AC000845AC000845AC000845AC00086C
:1000B00045AC000845AC000845AC000845AC00085C
:1000C00045AC000845AC000845AC000845AC00084C
:1000D00045AC000845AC000845AC000845AC00083C
:1000E00045AC000845AC000845AC000845AC00082C
:1000F00045AC000845AC000845AC000845AC00081C
:1001000045AC000845AC000845AC000845AC00080B
:1001100045AC000845AC000845AC000845AC0008FB
:1001200045AC000845AC000845AC000845AC0008EB
:1001300045AC000845AC000845AC000845AC0008DB
:1001400045AC000845AC000845AC000845AC0008CB
:1001500045AC000845AC000845AC000845AC0008BB
:1001600045AC000845AC000895920008859200084F
:10017000419200087592000845AC000845AC0008A3
:1001800045AC000845AC000810B5054C237833B9E0
:10019000044B13B10448AFF300800123237010BD5A
:1001A000980A0020000000006822020808B5064BEB
:1001B0001BB106480649AFF300800648036813B137
:1001C000054B03B1984708BD0000000068220208F3
:1001D0009C0A0020900A002000000000154B002B14
:1001E00008BF134B9D46A3F5803A00218B460F466E
:1001F0001348144A121A0DF0D1FF0F4B002B00D0F8
:1002000098470E4B002B00D0984700200021040097
:100210000D000D48002802D00C4811F0D5F80DF063
:10022000DFFA2000290008F00FFA0DF0C9FA00BF2C
:100230000000080000000220000000000000000094
:10024000980A0020D0230020C9130108B92801080A
:1002500080B586B000AFF860B9601346FB8000231C
:10026000FB75FB88F8680021BA6803F061FDFB7D2F
:1002700018461837BD4680BD80B586B000AFF8601F
:10028000B9601346FB800023FB75FA88FB68C3F84E
:100290009023FA88FB68C3F88C23FB68032283F859
:1002A0001121FB88F8680021BA6803F001FDFB7D8D
:1002B00018461837BD4680BD80B586B000AFF860DF
:1002C000B9601346FB800023FB75FB88F8680021AA
:1002D000BA6803F0EDFCFB7D18461837BD4680BDBB
:1002E00080B584B000AF78600023FB737B68042284
:1002F00083F81121786800210022002303F018FD03
:1003000078680CF043FBFB7B18461037BD4680BD78
:1003100080B584B000AF78600023FB737B68052252
:1003200083F81121786800210022002303F0C0FC2B
:1003300078680CF02BFBFB7B18461037BD4680BD60
:1003400080B483B000AF78600B46FB70FA787968B0
:1003500013469B001344DB000B4403F562731B68D8
:100360009BB218460C37BD465DF8047B704700BF52
:1003700080B582B000AF78607A685F4B9A4208D14E
:100380000120012108F062FD0120002108F05EFD3E
:10039000AFE07B68B3F1804F08D10120012108F064
:1003A00037FD0120002108F033FDA2E07A68534BAD
:1003B0009A4208D10220012108F02AFD02200021E2
:1003C00008F026FD95E07A684D4B9A4208D104204A
:1003D000012108F01DFD0420002108F019FD88E02E
:1003E0007A68484B9A4208D10820012108F010FD94
:1003F0000820002108F00CFD7BE07A68424B9A420D
:1004000008D11020012108F003FD1020002108F080
:10041000FFFC6EE07A683D4B9A4208D12020012112
:1004200008F0F6FC2020002108F0F2FC61E07A6878
:10043000374B9A4208D10220012108F007FD022023
:10044000002108F003FD54E07A68324B9A420AD149
:100450004FF48030012108F0F9FC4FF48030002186
:1004600008F0F4FC45E07A682B4B9A420AD14FF42D
:100470000030012108F0EAFC4FF40030002108F0C0
:10048000E5FC36E07A68254B9A420AD14FF4802089
:10049000012108F0DBFC4FF48020002108F0D6FC9D
:1004A00027E07A681E4B9A4208D14020012108F0CB
:1004B000AFFC4020002108F0ABFC1AE07A68194B31
:1004C0009A4208D18020012108F0A2FC802000215E
:1004D00008F09EFC0DE07A68134B9A4209D14FF464
:1004E0008070012108F094FC4FF48070002108F026
:1004F0008FFC0837BD4680BD00000140000400406D
:1005000000080040000C00400010004000140040B3
:100510000004014000400140004401400048014007
:1005200000180040001C00400020004080B485B04E
:1005300000AF786039600023FB817B681B88FB81FA
:100540007A68284B9A4213D07A68274B9A420FD088
:100550007B68B3F1804F0BD07A68244B9A4207D066
:100560007A68234B9A4203D07A68224B9A4208D188
:10057000FB8923F07003FB813B685A88FB89134396
:10058000FB817A681C4B9A420CD07A681B4B9A42CA
:1005900008D0FB8923F44073FB813B681A89FB89EF
:1005A0001343FB817B68FA891A803B685A687B6831
:1005B000DA623B681A887B681A857A68094B9A4226
:1005C00003D07A68084B9A4204D13B689B7A1A465A
:1005D0007B681A867B6801229A821437BD465DF8D3
:1005E000047B70470000014000040140000400400B
:1005F00000080040000C00400010004000140040C3
:1006000080B483B000AF78607B684FF0FF325A60EF
:100610007B6800221A807B6800221A817B68002296
:100620005A807B6800229A720C37BD465DF8047BC5
:10063000704700BF80B483B000AF786013460A46AD
:100640007A803B807B687A881A857B683A889A82B0
:100650000C37BD465DF8047B704700BF80B485B0A1
:1006600000AF78600B467B800023FB817B681B8892
:10067000FB81FB8923F07003FB81FA897B8813439C
:10068000FB817B68FA891A801437BD465DF8047BCC
:10069000704700BF80B483B000AF786039607B687A
:1006A0003A685A620C37BD465DF8047B704700BF5C
:1006B00080B483B000AF786039607B683A68DA62F2
:1006C0000C37BD465DF8047B704700BF80B483B033
:1006D00000AF78607B685B6A18460C37BD465DF8F2
:1006E000047B704780B483B000AF78607B681B8D5B
:1006F0009BB218460C37BD465DF8047B704700BFBF
:1007000080B483B000AF78600B46FB70FB78002BA1
:1007100008D07B681B889BB243F002039AB27B68C7
:100720001A8007E07B681B889BB223F002039AB211
:100730007B681A800C37BD465DF8047B704700BFAC
:1007400080B483B000AF78600B467B807B88002B41
:1007500008D07B681B889BB243F004039AB27B6885
:100760001A8007E07B681B889BB223F004039AB2CF
:100770007B681A800C37BD465DF8047B704700BF6C
:1007800080B483B000AF78600B46FB70FB78002B21
:1007900008D07B681B889BB243F080039AB27B68C9
:1007A0001A8007E07B681B889BB223F080039AB213
:1007B0007B681A800C37BD465DF8047B704700BF2C
:1007C00080B483B000AF78600B467B807B681B8869
:1007D0009BB223F008039AB27B681A807B681B885F
:1007E0009AB27B8813439AB27B681A800C37BD4655
:1007F0005DF8047B704700BF80B483B000AF7860C1
:100800000B467B807B681B889BB223F440739AB2B3
:100810007B681A807B681B889AB27B8813439AB2E4
:100820007B681A800C37BD465DF8047B704700BFBB
:1008300080B483B000AF78600B46FB70FB78002B70
:1008400008D07B681B889BB243F001039AB27B6897
:100850001A8007E07B681B889BB223F001039AB2E1
:100860007B681A800C37BD465DF8047B704700BF7B
:1008700080B485B000AF7860396000237B810023AD
:10088000FB810023BB817B681B8C9BB223F001039F
:100890009AB27B681A847B681B8CFB817B689B887F
:1008A000BB817B681B8B7B817B8923F070037B8101
:1008B0007B8923F003037B813B681A887B89134380
:1008C0007B81FB8923F00203FB813B689A89FB89CA
:1008D0001343FB813B685A88FB891343FB817A6889
:1008E0001E4B9A4203D07A681D4B9A4223D1FB8952
:1008F00023F00803FB813B68DA89FB891343FB8102
:10090000FB8923F00403FB813B689A88FB8913432E
:10091000FB81BB8923F48073BB81BB8923F4007303
:10092000BB813B681A8ABB891343BB813B685A8AE7
:10093000BB891343BB817B68BA899A807B687A89BB
:100940001A833B689A687B685A637B68FA891A84C1
:100950001437BD465DF8047B704700BF00000140BE
:100960000004014080B485B000AF78603960002396
:100970007B810023FB810023BB817B681B8C9BB2A6
:1009800023F010039AB27B681A847B681B8CFB816E
:100990007B689B88BB817B681B8B7B817B8923F475
:1009A000E0437B817B8923F440737B813B681B8818
:1009B0001B029AB27B8913437B81FB8923F02003BE
:1009C000FB813B689B891B019AB2FB891343FB8126
:1009D0003B685B881B019AB2FB891343FB817A68F1
:1009E000224B9A4203D07A68214B9A422BD1FB8941
:1009F00023F08003FB813B68DB891B019AB2FB89F2
:100A00001343FB81FB8923F04003FB813B689B88F8
:100A10001B019AB2FB891343FB81BB8923F48063DA
:100A2000BB81BB8923F40063BB813B681B8A9B00AD
:100A30009AB2BB891343BB813B685B8A9B009AB225
:100A4000BB891343BB817B68BA899A807B687A89AA
:100A50001A833B689A687B689A637B68FA891A8470
:100A60001437BD465DF8047B704700BF00000140AD
:100A70000004014080B485B000AF78603960002385
:100A80007B810023FB810023BB817B681B8C9BB295
:100A900023F480739AB27B681A847B681B8CFB8179
:100AA0007B689B88BB817B689B8B7B817B8923F0E8
:100AB00070037B817B8923F003037B813B681A8869
:100AC0007B8913437B81FB8923F40073FB813B68A3
:100AD0009B891B029AB2FB891343FB813B685B88AD
:100AE0001B029AB2FB891343FB817A68224B9A421C
:100AF00003D07A68214B9A422BD1FB8923F40063FF
:100B0000FB813B68DB891B029AB2FB891343FB81A3
:100B1000FB8923F48063FB813B689B881B029AB2AC
:100B2000FB891343FB81BB8923F48053BB81BB89C1
:100B300023F40053BB813B681B8A1B019AB2BB891B
:100B40001343BB813B685B8A1B019AB2BB89134389
:100B5000BB817B68BA899A807B687A899A833B6873
:100B60009A687B68DA637B68FA891A841437BD4611
:100B70005DF8047B704700BF0000014000040140A5
:100B800080B485B000AF786039600023BB8100235A
:100B90007B810023FB817B681B8C9BB223F48053F9
:100BA0009AB27B681A847B681B8C7B817B689B88EC
:100BB000FB817B689B8BBB81BB8923F4E043BB81BA
:100BC000BB8923F44073BB813B681B881B029AB22C
:100BD000BB891343BB817B8923F400537B813B6832
:100BE0009B891B039AB27B8913437B813B685B889B
:100BF0001B039AB27B8913437B817A68114B9A421B
:100C000003D07A68104B9A420AD1FB8923F48043BF
:100C1000FB813B681B8A9B019AB2FB891343FB81D2
:100C20007B68FA899A807B68BA899A833B689A685C
:100C30007B681A647B687A891A841437BD465DF82C
:100C4000047B7047000001400004014080B483B081
:100C500000AF78607B6800221A807B6800225A808F
:100C60007B6800229A807B6800229A607B68002261
:100C70009A817B680022DA817B6800221A827B6875
:100C800000225A820C37BD465DF8047B704700BFD6
:100C900080B485B000AF786013460A467A803B8006
:100CA0000023FB6000237B817B68FB60FB681833BB
:100CB000FB607B88012202FA03F37B817B681B8C3B
:100CC0009AB27B89DB439BB213409AB27B681A8449
:100CD0007B88002B02D07B88082B13D17B885B0894
:100CE0009BB2FA681344FB60FA68FB6819684FF618
:100CF0008F730B401360FB68FA6811683A880A43E7
:100D00001A6016E07B88043B9BB25B089BB2FA68D2
:100D10001344FB60FA68FB68196848F6FF730B40E0
:100D20001360FB68FA6811683A88120292B20A43AB
:100D30001A601437BD465DF8047B704780B483B0F9
:100D400000AF786039607B683A685A630C37BD46FB
:100D50005DF8047B704700BF80B483B000AF78605B
:100D600039607B683A689A630C37BD465DF8047B4E
:100D7000704700BF80B483B000AF786039607B6893
:100D80003A68DA630C37BD465DF8047B704700BFF4
:100D900080B483B000AF786039607B683A681A64C9
:100DA0000C37BD465DF8047B704700BF80B485B04A
:100DB00000AF78600B467B800023FB817B681B8B38
:100DC000FB81FB8923F07003FB81FA897B88134345
:100DD000FB817B68FA891A831437BD465DF8047B72
:100DE000704700BF80B485B000AF78600B467B8051
:100DF0000023FB817B681B8BFB81FB8923F4E04391
:100E0000FB817B881B029AB2FB891343FB817B68C1
:100E1000FA891A831437BD465DF8047B704700BF1A
:100E200080B485B000AF78600B467B800023FB81E7
:100E30007B689B8BFB81FB8923F07003FB81FA8924
:100E40007B881343FB817B68FA899A831437BD46FC
:100E50005DF8047B704700BF80B485B000AF786058
:100E60000B467B800023FB817B689B8BFB81FB898E
:100E700023F4E043FB817B881B029AB2FB89134376
:100E8000FB817B68FA899A831437BD465DF8047B41
:100E9000704700BF80B485B000AF78600B467B80A0
:100EA0000023FB817B681B8BFB81FB8923F00803FC
:100EB000FB81FA897B881343FB817B68FA891A835B
:100EC0001437BD465DF8047B704700BF80B485B021
:100ED00000AF78600B467B800023FB817B681B8B17
:100EE000FB81FB8923F40063FB817B881B029AB2A0
:100EF000FB891343FB817B68FA891A831437BD464B
:100F00005DF8047B704700BF80B485B000AF7860A7
:100F10000B467B800023FB817B689B8BFB81FB89DD
:100F200023F00803FB81FA897B881343FB817B68EC
:100F3000FA899A831437BD465DF8047B704700BF79
:100F400080B485B000AF78600B467B800023FB81C6
:100F50007B689B8BFB81FB8923F40063FB817B888F
:100F60001B029AB2FB891343FB817B68FA899A833F
:100F70001437BD465DF8047B704700BF80B485B070
:100F800000AF78600B467B800023FB817B681B8B66
:100F9000FB81FB8923F00403FB81FA897B881343DF
:100FA000FB817B68FA891A831437BD465DF8047BA0
:100FB000704700BF80B485B000AF78600B467B807F
:100FC0000023FB817B681B8BFB81FB8923F48063FF
:100FD000FB817B881B029AB2FB891343FB817B68F0
:100FE000FA891A831437BD465DF8047B704700BF49
:100FF00080B485B000AF78600B467B800023FB8116
:101000007B689B8BFB81FB8923F00403FB81FA89BE
:101010007B881343FB817B68FA899A831437BD462A
:101020005DF8047B704700BF80B485B000AF786086
:101030000B467B800023FB817B689B8BFB81FB89BC
:1010400023F48063FB817B881B029AB2FB891343E4
:10105000FB817B68FA899A831437BD465DF8047B6F
:10106000704700BF80B485B000AF78600B467B80CE
:101070000023FB817B681B8BFB81FB8923F08003B2
:10108000FB81FA897B881343FB817B68FA891A8389
:101090001437BD465DF8047B704700BF80B485B04F
:1010A00000AF78600B467B800023FB817B681B8B45
:1010B000FB81FB89C3F30E03FB817B881B029AB281
:1010C000FB891343FB817B68FA891A831437BD4679
:1010D0005DF8047B704700BF80B485B000AF7860D6
:1010E0000B467B800023FB817B689B8BFB81FB890C
:1010F00023F08003FB81FA897B881343FB817B68A3
:10110000FA899A831437BD465DF8047B704700BFA7
:1011100080B485B000AF78600B467B800023FB81F4
:101120007B689B8BFB81FB89C3F30E03FB817B8870
:101130001B029AB2FB891343FB817B68FA899A836D
:101140001437BD465DF8047B704700BF80B485B09E
:1011500000AF78600B467B800023FB817B681B8C93
:10116000FB81FB8923F00203FB81FA897B8813430F
:10117000FB817B68FA891A841437BD465DF8047BCD
:10118000704700BF80B485B000AF78600B467B80AD
:101190000023FB817B681B8CFB81FB8923F0080308
:1011A000FB81FA897B881343FB817B68FA891A8467
:1011B0001437BD465DF8047B704700BF80B485B02E
:1011C00000AF78600B467B800023FB817B681B8C23
:1011D000FB81FB8923F02003FB817B881B019AB2F2
:1011E000FB891343FB817B68FA891A841437BD4657
:1011F0005DF8047B704700BF80B485B000AF7860B5
:101200000B467B800023FB817B681B8CFB81FB8969
:1012100023F08003FB817B881B019AB2FB89134377
:10122000FB817B68FA891A841437BD465DF8047B1C
:10123000704700BF80B485B000AF78600B467B80FC
:101240000023FB817B681B8CFB81FB8923F40073EB
:10125000FB817B881B029AB2FB891343FB817B686D
:10126000FA891A841437BD465DF8047B704700BFC5
:1012700080B485B000AF78600B467B800023FB8193
:101280007B681B8CFB81FB8923F40063FB817B88DB
:101290001B029AB2FB891343FB817B68FA891A848B
:1012A0001437BD465DF8047B704700BF80B485B03D
:1012B00000AF78600B467B800023FB817B681B8C32
:1012C000FB81FB8923F40053FB817B881B039AB2CB
:1012D000FB891343FB817B68FA891A841437BD4666
:1012E0005DF8047B704700BF80B485B000AF7860C4
:1012F00013460A467A803B800023FB817B880122CB
:1013000002FA03F3FB817B681B8C9AB2FB89DB43F7
:101310009BB213409AB27B681A847B681B8C9AB28A
:1013200039887B8801FA03F39BB213439AB27B6836
:101330001A841437BD465DF8047B704780B485B0CD
:1013400000AF786013460A467A803B800023FB8119
:101350007B88042202FA03F3FB817B681B8C9AB220
:10136000FB89DB439BB213409AB27B681A847B688B
:101370001B8C9AB239887B8801FA03F39BB2134322
:101380009AB27B681A841437BD465DF8047B7047B7
:1013900080B582B000AF786039603B681B88002B55
:1013A0000FD13B6859883B689A883B681B897868ED
:1013B00000F092FC3B68DB887868194600F0E0F8A2
:1013C00036E03B681B88042B0FD13B6859883B688B
:1013D0009A883B681B89786800F0BAFC3B68DB8818
:1013E0007868194600F0E8F822E03B681B88082B73
:1013F0000FD13B6859883B689A883B681B8978689D
:1014000000F0ECFC3B68DB887868194600F0F2F8E5
:101410000EE03B6859883B689A883B681B8978686E
:1014200000F01EFD3B68DB887868194600F0FEF886
:101430000837BD4680BD00BF80B483B000AF786080
:101440007B6800221A807B6800225A807B68012218
:101450009A807B680022DA807B6800221A810C3730
:10146000BD465DF8047B704780B584B000AF7860FE
:1014700039600023FB810123BB813B685B88002B23
:1014800002D10223FB8101E00023FB813B689B88A2
:10149000012B02D10223BB8101E00123BB813B6808
:1014A0001B88002B1CD13B6859883B689A883B6895
:1014B0001B89786800F010FC3B68DB887868194667
:1014C00000F05EF83B681B89F989BA89786800F0FA
:1014D0003FFC3B68DB887868194600F06DF81BE03C
:1014E0003B6859883B689A883B681B89786800F09C
:1014F0002FFC3B68DB887868194600F05DF83B6894
:101500001B89F989BA89786800F0E6FB3B68DB88BB
:101510007868194600F034F81037BD4680BD00BF2A
:1015200080B483B000AF78607B685B6B18460C3783
:10153000BD465DF8047B704780B483B000AF78602F
:101540007B689B6B18460C37BD465DF8047B704783
:1015500080B483B000AF78607B68DB6B18460C37D3
:10156000BD465DF8047B704780B483B000AF7860FF
:101570007B681B6C18460C37BD465DF8047B7047D2
:1015800080B483B000AF78600B467B807B681B8B98
:101590009BB223F00C039AB27B681A837B681B8B87
:1015A0009AB27B8813439AB27B681A830C37BD4684
:1015B0005DF8047B704700BF80B483B000AF7860F3
:1015C0000B467B807B681B8B9BB223F440639AB2F3
:1015D0007B681A837B681B8B9AB27B881B029BB249
:1015E00013439AB27B681A830C37BD465DF8047BBF
:1015F000704700BF80B483B000AF78600B467B803B
:101600007B689B8B9BB223F00C039AB27B689A8316
:101610007B689B8B9AB27B8813439AB27B689A83D0
:101620000C37BD465DF8047B704700BF80B483B0C3
:1016300000AF78600B467B807B689B8B9BB223F46A
:1016400040639AB27B689A837B689B8B9AB27B8853
:101650001B029BB213439AB27B689A830C37BD4638
:101660005DF8047B704700BF80B483B000AF786042
:1016700039603B681A883B685B8813439AB23B68C1
:101680009B8813439AB23B68DB8813439AB23B684A
:101690001B8913439AB23B685B8913439AB23B6838
:1016A0009B8913439AB27B68A3F844200C37BD464C
:1016B0005DF8047B704700BF80B483B000AF7860F2
:1016C0007B6800221A807B6800225A807B68002297
:1016D0009A807B680022DA807B6800221A817B680E
:1016E00000225A817B6800229A810C37BD465DF842
:1016F000047B704780B483B000AF78600B46FB700A
:10170000FB78002B0CD07B68B3F844309BB26FEAB7
:1017100043436FEA53439AB27B68A3F8442009E03D
:101720007B68B3F844309BB2C3F30E039AB27B6874
:10173000A3F844200C37BD465DF8047B704700BF1A
:1017400080B483B000AF78600B46FB70FB78002B51
:1017500008D07B689B889BB243F004039AB27B68F5
:101760009A8007E07B689B889BB223F004039AB2BF
:101770007B689A800C37BD465DF8047B704700BFDC
:1017800080B483B000AF78600B46FB70FB78002B11
:1017900008D07B689B889BB243F001039AB27B68B8
:1017A0009A8007E07B689B889BB223F001039AB282
:1017B0007B689A800C37BD465DF8047B704700BF9C
:1017C00080B483B000AF786013460A467A807B709D
:1017D0007B78002B08D07B689B899AB27B88134367
:1017E0009AB27B689A8109E07B689B899AB27B8870
:1017F000DB439BB213409AB27B689A810C37BD469B
:101800005DF8047B704700BF80B483B000AF7860A0
:101810000B467B807B687A889A820C37BD465DF8E0
:10182000047B704780B485B000AF78600B467B8046
:101830000023FB737B681B8A9AB27B8813409BB2A0
:10184000002B02D00123FB7301E00023FB73FB7B21
:1018500018461437BD465DF8047B704780B483B0EA
:1018600000AF78600B467B807B88DB439AB27B6855
:101870001A820C37BD465DF8047B704780B485B092
:1018800000AF78600B467B800023FB730023BB8195
:1018900000237B817B681B8A9AB27B881340BB81C3
:1018A0007B689B899AB27B8813407B81BB89002B24
:1018B00005D07B89002B02D00123FB7301E00023BC
:1018C000FB73FB7B18461437BD465DF8047B7047FD
:1018D00080B483B000AF78600B467B807B88DB43AD
:1018E0009AB27B681A820C37BD465DF8047B70475C
:1018F00080B483B000AF786013460A467A803B809C
:101900007A883B8813439AB27B68A3F848200C3747
:10191000BD465DF8047B704780B483B000AF78604B
:1019200013460A467A807B707B78002B08D07B6850
:101930009B899AB27B8813439AB27B689A8109E0AB
:101940007B689B899AB27B88DB439BB213409AB237
:101950007B689A810C37BD465DF8047B704700BFF9
:1019600080B483B000AF78600B46FB70FB78002B2F
:1019700008D07B689B889BB243F008039AB27B68CF
:101980009A8007E07B689B889BB223F008039AB299
:101990007B689A800C37BD465DF8047B704700BFBA
:1019A00080B483B000AF78607B681B899BB223F062
:1019B00007039AB27B681A810C37BD465DF8047B39
:1019C000704700BF80B582B000AF78600B467B8067
:1019D0007B887868194600F075F87B681B899BB294
:1019E00043F007039AB27B681A810837BD4680BD71
:1019F00080B584B000AFF86079813A81FB807B8943
:101A0000602B07D13A89FB88F8681146012200F063
:101A10009FF906E03A89FB88F8681146012200F038
:101A20005BF97B89F868194600F04CF8FB681B8964
:101A30009BB243F007039AB2FB681A811037BD4688
:101A400080BD00BF80B586B000AFF86079813A8173
:101A5000FB800023FB8279893A89FB88F86800F0D3
:101A6000A1F8FB681B89FB82FB8A23F00703FB823A
:101A7000FB8A43F00703FB82FB8A23F07003FB829F
:101A8000FB8A43F07003FB82FB68FA8A1A811837DD
:101A9000BD4680BD80B584B000AFF86079813A81E1
:101AA000FB8079893A89FB88F86800F07BF8FB684D
:101AB0001B899BB243F480439AB2FB681A811037AA
:101AC000BD4680BD80B485B000AF78600B467B809A
:101AD0000023FB817B681B89FB81FB8923F070035A
:101AE000FB81FA897B881343FB817B68FA891A8121
:101AF0001437BD465DF8047B704700BF80B483B0E7
:101B000000AF78600B467B807B689B889BB223F09C
:101B100070039AB27B689A807B689B889AB27B88B4
:101B200013439AB27B689A800C37BD465DF8047BFC
:101B3000704700BF80B483B000AF78600B467B80F5
:101B40007B681B899BB223F007039AB27B681A81DA
:101B50007B681B899AB27B8813439AB27B681A818F
:101B60000C37BD465DF8047B704700BF80B483B07E
:101B700000AF78600B467B807B681B899BB223F0AB
:101B800080039AB27B681A817B681B899AB27B8832
:101B900013439AB27B681A810C37BD465DF8047B0B
:101BA000704700BF80B487B000AFF86079813A8198
:101BB000FB800023FB82FB681B89FB82FB8ADBB274
:101BC000FB82FB881B029AB23B8913439AB27B8942
:101BD00013439AB2FB8A1343FB82FB68FA8A1A8189
:101BE0001C37BD465DF8047B704700BF80B487B0EA
:101BF00000AFF86079813A81FB800023FB820023EB
:101C0000BB8200237B82FB681B89FB82FB681B8BEA
:101C1000BB82FB681B8C7B82FB8A23F00703FB8261
:101C2000FA8A7B891343FB82BB8A23F4407323F037
:101C30000303BB82BB8A43F4807343F00103BB827E
:101C40007B8A23F022037B82FB881B019AB23B89AB
:101C500013439AB27B8A13437B82FB68FA8A1A8108
:101C6000FB68BA8A1A83FB687A8A1A841C37BD46D5
:101C70005DF8047B704700BF80B483B000AF78602C
:101C80000B46FB70FB78002B08D07B689B889BB2CF
:101C900043F080039AB27B689A8007E07B689B8858
:101CA0009BB223F080039AB27B689A800C37BD46C2
:101CB0005DF8047B704700BF80B483B000AF7860EC
:101CC0000B467B807B687A88A3F850200C37BD4692
:101CD0005DF8047B704700BF80B487B000AFF86048
:101CE00079813A81FB800023FB820023BB82FB6861
:101CF0001B8C9BB223F001039AB2FB681A84FB6829
:101D00001B8BFB82FB681B8CBB82FB8A23F0F303DB
:101D1000FB82FB881B019AB23B8913439AB2FB8A70
:101D20001343FB82BB8A23F00A03BB827A89BB8AF6
:101D300013439BB243F00103BB82FB68FA8A1A8308
:101D4000FB68BA8A1A841C37BD465DF8047B70476D
:101D500080B487B000AFF86079813A81FB800023BE
:101D6000FB820023BB8200237B82FB681B8C9BB21F
:101D700023F010039AB2FB681A84FB681B8BFB826A
:101D8000FB681B8CBB827B891B017B82FB8A23F453
:101D900040731B051B0DFB82FB881B039AB2FB8A59
:101DA0001343FB823B891B029AB2FB8A1343FB82DB
:101DB000BB8A23F0A003BB827A8ABB8A13439BB2FF
:101DC00043F01003BB82FB68FA8A1A83FB68BA8A65
:101DD0001A841C37BD465DF8047B704780B487B019
:101DE00000AFF86079813A81FB800023FB820023F9
:101DF000BB8200237B82FB681B8C9BB223F4807325
:101E00009AB2FB681A84FB689B8BFB82FB681B8C75
:101E1000BB827B891B027B82FB8A23F0F303FB825C
:101E2000FB881B019AB23B8913439AB2FB8A134386
:101E3000FB82BB8A23F42063BB827A8ABB8A13436A
:101E40009BB243F48073BB82FB68FA8A9A83FB6877
:101E5000BA8A1A841C37BD465DF8047B704700BF00
:101E600080B487B000AFF86079813A81FB800023AD
:101E7000FB820023BB8200237B82FB681B8C9BB20E
:101E800023F480539AB2FB681A84FB689B8BFB8215
:101E9000FB681B8CBB827B891B037B82FB8A23F440
:101EA00040731B051B0DFB823B891B029AB2FB8A08
:101EB0001343FB82FB881B039AB2FB8A1343FB820A
:101EC000BB8A23F400535B045B0CBB827A8ABB8A17
:101ED00013439BB243F48053BB82FB68FA8A9A8314
:101EE000FB68BA8A1A841C37BD465DF8047B7047CC
:101EF00080B584B000AF786039607B68FB60F968BA
:101F00003B681A683B689B68084611461A4602F00F
:101F100085FB0346002B14BF00230123DBB2002BFB
:101F200003D0FB68184602F09FFAFB68184610378A
:101F3000BD4680BD90B585B000AF786039607B68E4
:101F4000FB603B68002B0CD0FC6838680CF0C6FDC9
:101F50000346204639681A4602F060FB0346002B10
:101F600001D1012300E00023002B03D0FB681846B9
:101F700002F07AFAFB6818461437BD4690BD00BFE0
:101F800080B584B000AF78600B46FB707B68FB6067
:101F9000FA68FB781046194602F08CFB0346002BCA
:101FA00014BF00230123DBB2002B03D0FB681846CB
:101FB00002F05AFAFB6818461037BD4680BD00BFD4
:101FC00080B584B000AF78600B46FB707B68FB6027
:101FD000FA68FB781046194602F082FB0346002B94
:101FE00014BF00230123DBB2002B03D0FB6818468B
:101FF00002F03AFAFB6818461037BD4680BD00BFB4
:1020000080B584B000AF786039607B68FB60FB68A6
:102010001846396802F084FB0346002B14BF0023E6
:102020000123DBB2002B03D0FB68184602F01CFA38
:10203000FB6818461037BD4680BD00BF80B584B030
:1020400000AF786039607B68FB60FB6818463968D0
:1020500002F084FB0346002B14BF00230123DBB2F4
:10206000002B03D0FB68184602F0FEF9FB68184607
:102070001037BD4680BD00BF80B584B000AF78602A
:1020800039607B68FB60FB681846396802F084FBA6
:102090000346002B14BF00230123DBB2002B03D027
:1020A000FB68184602F0E0F9FB6818461037BD4699
:1020B00080BD00BF80B584B000AF786039607B68B8
:1020C000FB60FB681846396802F084FB0346002B6E
:1020D00014BF00230123DBB2002B03D0FB6818469A
:1020E00002F0C2F9FB6818461037BD4680BD00BF3C
:1020F00080B582B000AF786039607B681B68002BC8
:1021000003D03B681B68002B1AD13B681B68002B6F
:1021100008D03B689B68002B04D03B681B681B7889
:102120005B4216E07B681B68002B07D07B689B68CE
:10213000002B03D07B681B681B780AE0002308E0B3
:102140007B681A683B681B68104619460CF07AFBDE
:10215000034618460837BD4680BD00BF80B582B033
:1021600000AF786039607B689A683B689B689A42E8
:1021700008D178683968FFF7BBFF0346002B01D10F
:10218000012300E0002318460837BD4680BD00BF8C
:1021900080B582B000AF786039607B689B68002BA7
:1021A0000AD13B68002B03D03B681B78002B01D180
:1021B000012319E0002317E03B68002B08D17B685E
:1021C0001B681B78002B14BF00230123DBB20BE03C
:1021D0007B681B68184639680CF034FB0346002BFB
:1021E00014BF00230123DBB218460837BD4680BD6B
:1021F00080B582B000AF7860396078683968FFF7E1
:1022000077FF0346DB0FDBB218460837BD4680BDBB
:1022100080B582B000AF7860396078683968FFF7C0
:1022200067FF0346002BD4BF00230123DBB218460F
:102230000837BD4680BD00BF80B582B000AF786072
:10224000396078683968FFF753FF0346002BCCBF2D
:1022500000230123DBB218460837BD4680BD00BF0E
:1022600080B582B000AF7860396078683968FFF770
:102270003FFF0346DB43DB0FDBB218460837BD46A2
:1022800080BD00BF90B585B000AF786039607A68D6
:102290003B689A4201D1012332E07B689A683B682F
:1022A0009B689A4201D000232AE07B689B68002B40
:1022B00001D1012324E07B681B68FB603B681B683D
:1022C000BB6018E0FB685A1CFA601B7818460EF0D9
:1022D000C7FE0446BB685A1CBA601B7818460EF04D
:1022E000BFFE03469C420CBF00230123DBB2002B40
:1022F00001D0002304E0FB681B78002BE2D101230E
:1023000018461437BD4690BD80B582B000AF7860E6
:1023100039607B689A683B689B689A4201D20023C7
:1023200005E078683968002200F006F80346184690
:102330000837BD4680BD00BF80B584B000AFF860EF
:10234000B9607A60FB689A68BB689B68D21A7B6840
:102350009A4207D3FB681B68002B03D0BB681B683D
:10236000002B01D1002312E0FB681A687B68D118AA
:10237000BB681A68BB689B68084611461A460CF091
:10238000DDFB0346002B14BF00230123DBB21846FC
:102390001037BD4680BD00BF80B582B000AF786009
:1023A00039607B689A683B689B689A4207D37B6870
:1023B0001B68002B03D03B681B68002B01D1002356
:1023C00013E07B681A687B6899683B689B68CB1A46
:1023D0001A443B681B68104619460CF033FA034652
:1023E000002B14BF00230123DBB218460837BD467B
:1023F00080BD00BF80B582B000AF7860396078687A
:10240000396800F03DF8034618460837BD4680BDE0
:1024100080B485B000AFF860B9601346FB71FB680B
:102420009A68BB689A4205D9FB681A68BB6813446E
:10243000FA791A701437BD465DF8047B704700BF07
:1024400080B483B000AF786039607B689A683B687D
:102450009A4203D97B681B68002B04D1074B0022EA
:102460001A70064B03E07B681A683B6813441846F1
:102470000C37BD465DF8047B704700BF7C1B002015
:1024800080B483B000AF786039607B689A683B683D
:102490009A4203D97B681B68002B01D1002304E01A
:1024A0007B681A683B6813441B7818460C37BD4696
:1024B0005DF8047B704700BF80B586B000AFF86060
:1024C000B9607A603B607B68002B28D0BB68002B2A
:1024D00025D0FB689A683B689A4203D8BB68002203
:1024E0001A701CE07B68013B7B61FB689A683B6863
:1024F000D21A7B699A4204D2FB689A683B68D31A65
:102500007B61FB681A683B681344B86819467A69AE
:102510000CF0A4FBBA687B69134400221A701837C8
:10252000BD4680BD80B582B000AF78600B46FB70C1
:10253000FB7878681946002200F006F80346184632
:102540000837BD4680BD00BF80B586B000AFF860DB
:102550000B467A60FB72FB689A687B689A4202D8E5
:102560004FF0FF3313E0FB681A687B681A44FB7A6C
:10257000104619460CF0E8F878617B69002B02D10F
:102580004FF0FF3303E07A69FB681B68D31A1846E3
:102590001837BD4680BD00BF80B582B000AF7860FF
:1025A000396078683968002200F006F8034618465A
:1025B0000837BD4680BD00BF80B586B000AFF8606B
:1025C000B9607A60FB689A687B689A4202D84FF0DB
:1025D000FF3314E0FB681A687B681A44BB681B6809
:1025E000104619460CF0B2FD78617B69002B02D1D0
:1025F0004FF0FF3303E07A69FB681B68D31A184673
:102600001837BD4680BD00BF80B582B000AF78608E
:102610000B46FB707B689B68013BFA787868114633
:102620001A4600F005F8034618460837BD4680BD37
:1026300080B586B000AFF8600B467A60FB72FB682D
:102640009A687B689A4202D84FF0FF3326E0FB6815
:102650001A687B68013313441B78FB75FB681A68A2
:102660007B680133134400221A70FB681A68FB7AF6
:10267000104619460CF078FB3861FB681A687B68D5
:1026800001331344FA7D1A703B69002B02D14FF0DD
:10269000FF3303E03A69FB681B68D31A1846183702
:1026A000BD4680BD80B582B000AF786039607B6880
:1026B0009A683B689B68D31A786839681A4600F0B4
:1026C00005F8034618460837BD4680BD80B586B07C
:1026D00000AFF860B9607A60BB689B68002B09D0D6
:1026E000FB689B68002B05D0BB689A68FB689B68F9
:1026F0009A4202D94FF0FF3331E0FB689A687B6859
:102700009A4203D8FB689B68013B7B604FF0FF3324
:102710007B61FB681B683B6119E0BB681B6838691B
:1027200019460CF013FD38613B69002B16D03A694D
:10273000FB681B68D31A1A467B689A4204D83A6928
:10274000FB681B68D31A7B613B6901333B61FB6803
:102750001A687B681A443B699A42DED27B69184644
:102760001837BD4680BD00BF80B584B000AFF860AB
:10277000B9607A60BB689B68FA681046B9687A6885
:1027800000F004F8F8681037BD4680BD90B587B0FA
:1027900000AFF860B9607A603B607A683B689A4243
:1027A00005D93B687B617B683B607B697B60F8682F
:1027B0001B4901F059FDBB689A687B689A422AD38D
:1027C000BB689A683B689A4202D2BB689B683B60D0
:1027D000BB681A683B6813441B78FB74BB681A68B3
:1027E0003B68134400221A70BB681A687B68134464
:1027F000F868194601F0E4FEBB681A683B681344A8
:10280000FA7C1A7007E00446F86801F009FE2346D6
:1028100018461DF013F8F8681C37BD4690BD00BF80
:10282000280F020880B485B000AF786013460A46CE
:10283000FA70BB707B681B68002B12D07B681B682A
:10284000FB600AE0FB681B78FA789A4202D1FB68C9
:10285000BA781A70FB680133FB60FB681B78002BA9
:10286000F0D11437BD465DF8047B704780B58CB05D
:1028700000AFF860B9607A60FB689B68002B00F0DD
:10288000EF80BB689B68002B00F0EA807B689A6849
:10289000BB689B68D31AFB61FB681B68FB62FB6922
:1028A000002B0ED01DE07B681A687B689B68B869B6
:1028B00011461A460BF0ECFA7B689B68BA69134420
:1028C000FB62BB681B68F86A19460CF03FFCB861F4
:1028D000BB69002B0CBF00230123DBB2002BE2D12C
:1028E000BEE0FB69002B3DDAFB681B68BB6225E09C
:1028F000BA69FB6AD31A7B61B86AF96A7A690BF024
:10290000C7FABA6A7B691344BB627B681A687B6842
:102910009B68B86A11461A460BF0BAFA7B689B6846
:10292000BA6A1344BB62BB689B68BA691344FB6212
:10293000FB689A68FB691A44FB689A60BB681B686D
:10294000F86A19460CF002FCB861BB69002B0CBF99
:1029500000230123DBB2002BCAD1B86AF96A0CF05C
:102960005FF87DE0FB689B687B6208E0BB689B6862
:10297000BA691344FB62FB697A6A13447B62BB68E1
:102980001B68F86A19460CF0E1FBB861BB69002BC3
:102990000CBF00230123DBB2002BE7D1FB689A6850
:1029A0007B6A9A425CD0FB685A687B6A9A4208D27A
:1029B000F868796A01F09EFD0346002B01D10123DE
:1029C00000E00023002B4BD1FB689B68013B3B627E
:1029D00034E0FB681A68BB6899683B6A0B4413448F
:1029E000FB62FB69FA6A1A44FB689968FB681B681A
:1029F0001846FB6AC31A0B441046F96A1A460BF0D4
:102A0000F5FAFB689A68FB691A44FB689A60FB68F0
:102A10001A68FB689B68134400221A70FB681A68E6
:102A20003B6AD1187B681A687B689B680846114628
:102A30001A460BF02DFA3B6A013B3B623B6A002BC6
:102A40000BDB3B6AF868B9681A46FFF73FFE38624D
:102A50003B6A002B01DB012300E00023002BB8D1EF
:102A60003037BD4680BD00BF80B584B000AF786010
:102A70007B681B68002B13D07B681B68FB600BE036
:102A8000FB681B7818460EF0EBFA0346DAB2FB68D7
:102A90001A70FB680133FB60FB681B78002BEFD1D9
:102AA0001037BD4680BD00BF80B584B000AF7860F0
:102AB0007B681B68002B13D07B681B68FB600BE0F6
:102AC000FB681B7818460EF0D7FA0346DAB2FB68AB
:102AD0001A70FB680133FB60FB681B78002BEFD199
:102AE0001037BD4680BD00BF80B584B000AF7860B0
:102AF0007B681B68002B50D07B689B68002B4CD0F8
:102B00007B681B68FB6002E0FB680133FB60FB68CD
:102B10001B7818460AF0AEFE0346002B0CBF0023BC
:102B20000123DBB2002BEFD17B681A687B689B68BE
:102B3000013B1344BB6002E0BB68013BBB60BB6868
:102B40001B7818460AF096FE0346002B05D0BA689B
:102B5000FB689A4201D3012300E00023002BEBD154
:102B6000BB6801331A46FB68D31A1A467B689A6021
:102B70007B681A68FB689A4208D27B681A687B688F
:102B80009B681046F9681A460BF082F97B681A6850
:102B90007B689B68134400221A701037BD4680BDC5
:102BA00080B582B000AF78607B681B68002B06D0D0
:102BB0007B681B6818460AF0F5FD034600E0002319
:102BC00018460837BD4680BD80B584B000AFF860B8
:102BD000B9607A607B68023B0E2B39D801A252F8AB
:102BE00023F000BF212C0008512C0008512C0008B4
:102BF000512C0008512C0008512C0008452C0008CD
:102C0000512C0008392C0008512C0008512C0008C8
:102C1000512C0008512C0008512C00082D2C0008C4
:102C2000B8681049FA680BF067FD16E0B8680E49FD
:102C3000FA680BF061FD10E0B8680A49FA680BF019
:102C40005BFD0AE0B8680949FA680BF055FD04E03D
:102C5000B8680449FA680BF04FFDBB681846103796
:102C6000BD4680BD2C0F0208300F0208340F020849
:102C700080B584B000AFF860B9607A607B68023BD1
:102C80000E2B39D801A252F823F000BFC92C00083E
:102C9000F92C0008F92C0008F92C0008F92C000880
:102CA000F92C0008ED2C0008F92C0008E12C000894
:102CB000F92C0008F92C0008F92C0008F92C000860
:102CC000F92C0008D52C0008B8681049FA680BF0F8
:102CD00013FD16E0B8680E49FA680BF00DFD10E020
:102CE000B8680A49FA680BF007FD0AE0B8680949B4
:102CF000FA680BF001FD04E0B8680449FA680BF0CB
:102D0000FBFCBB6818461037BD4680BD380F020873
:102D10003C0F0208400F020880B584B000AFF86095
:102D2000B9607A607B68023B0E2B39D801A252F859
:102D300023F000BF712D0008A12D0008A12D00086F
:102D4000A12D0008A12D0008A12D0008952D000837
:102D5000A12D0008892D0008A12D0008A12D000833
:102D6000A12D0008A12D0008A12D00087D2D00082F
:102D7000B8681049FA680BF0BFFC16E0B8680E4955
:102D8000FA680BF0B9FC10E0B8680A49FA680BF071
:102D9000B3FC0AE0B8680949FA680BF0ADFC04E03E
:102DA000B8680449FA680BF0A7FCBB6818461037EE
:102DB000BD4680BD440F0208300F0208340F0208E0
:102DC00080B584B000AFF860B9607A607B68023B80
:102DD0000E2B39D801A252F823F000BF192E00089B
:102DE000492E0008492E0008492E0008492E0008E7
:102DF000492E00083D2E0008492E0008312E0008FB
:102E0000492E0008492E0008492E0008492E0008C6
:102E1000492E0008252E0008B8681049FA680BF002
:102E20006BFC16E0B8680E49FA680BF065FC10E020
:102E3000B8680A49FA680BF05FFC0AE0B86809490B
:102E4000FA680BF059FC04E0B8680449FA680BF022
:102E500053FCBB6818461037BD4680BD480F0208BA
:102E60003C0F0208400F020880B586B000AFF86042
:102E7000B9601346FB800023FB75FA88FB68C3F832
:102E80003821FA88FB68C3F83421FB68022283F8F2
:102E90001121FB88F8680021BA6800F049FFFB7D2A
:102EA00018461837BD4680BD80B483B000AF0346D6
:102EB0003960FB713B6843221A80034B18460C377C
:102EC000BD465DF8047B70473C01002080B483B0B0
:102ED00000AF03463960FB713B6843221A80034B05
:102EE00018460C37BD465DF8047B70478001002012
:102EF00080B582B000AF78607A68174B9A420AD1E9
:102F00004FF48050012105F0A1FF4FF480500021C3
:102F100005F09CFF1CE07A68104B9A420AD14FF4EE
:102F20008040012105F074FF4FF48040002105F03E
:102F30006FFF0DE07A680A4B9A4209D14FF40040C6
:102F4000012105F065FF4FF40040002105F060FF0E
:102F50000837BD4680BD00BF00300140003800404A
:102F6000003C004080B485B000AF78603960002339
:102F7000FB817B681B88FB81FB8903F44153FB8148
:102F80003B681A883B685B8813439AB23B689B880E
:102F900013439AB23B68DB8813439AB23B681B89A0
:102FA00013439AB23B685B8913439AB23B689B898F
:102FB00013439AB23B68DB8913439AB2FB891343EC
:102FC000FB817B68FA891A807B689B8B9BB223F418
:102FD00000639AB27B689A833B681A8A7B681A827C
:102FE0001437BD465DF8047B704700BF80B48BB0DA
:102FF00000AF7860396000237B830223FB840023C9
:10300000BB8401237B840023FB6100237B610023BD
:103010003B610023FB600023BB607B689B8B9BB202
:1030200023F47B6323F00F039AB27B689A837B6857
:1030300002221A847B689B8B7B833B689B68022BF4
:1030400004D10023BB840223FB8471E03B689B888E
:10305000002B02D101237B8401E002237B844C4BB3
:103060009B6803F40003002B05D0494B484A926843
:1030700022F400029A60464BD3F8842047F6C073CE
:1030800013409B09C3F30803FB60414BD3F8843022
:1030900003F0E0431B0F03F00703BB603C4B5B688E
:1030A00003F03F033B613B4A3B69B2FBF3F3FA6831
:1030B00002FB03F2BB68B2FBF3F37B613B68DB8886
:1030C000B3F5007F0FD17B691A0A13469B001344A6
:1030D0005B001A463B689B68B2FBF3F39BB2053377
:1030E0009BB2FB6111E07B8C5B017A69B2FBF3F26E
:1030F00013469B0013445B001A463B689B68B2FB77
:10310000F3F39BB205339BB2FB61FA69224BA3FB3D
:103110000213DB08FB61FB699BB203F00103BB8474
:10312000BB8CFA69D31A5B08FB84BB8C1B02BB8483
:10313000FB8C012B02D9FB8CFF2B03D90223FB84D0
:103140000023BB843B68DA88BB8C13439AB2FB8CA8
:1031500013439AB27B681A843B681A883B68598883
:103160003B6898883B689B8903439BB20B439BB2A7
:1031700013439AB27B8B13439BB243F400637B836C
:103180007B687A8B9A832C37BD465DF8047B704749
:103190000038024040787D01CDCCCCCC80B483B0E7
:1031A00000AF78607B6800221A807B6800225A801A
:1031B0007B6800229A807B680022DA807B6800228C
:1031C0001A817B6800225A817B6800229A817B6881
:1031D0000022DA817B6807221A820C37BD465DF82F
:1031E000047B704780B483B000AF78607B680022B6
:1031F0001A807B6800225A807B6800229A807B6854
:103200000022DA807B6802229A607B6800229A8121
:103210000C37BD465DF8047B704700BF80B483B0B7
:1032200000AF78600B46FB70FB78002B08D07B6802
:103230001B889BB243F040039AB27B681A8007E078
:103240007B681B889BB223F040039AB27B681A808C
:103250000C37BD465DF8047B704700BF80B483B077
:1032600000AF78600B46FB70FB78002B08D07B68C2
:103270009B8B9BB243F480639AB27B689A8307E08E
:103280007B689B8B9BB223F480639AB27B689A83A2
:103290000C37BD465DF8047B704700BF80B483B037
:1032A00000AF78600B467B807B681B889BB223F461
:1032B00000639AB27B681A807B681B889AB27B880D
:1032C00013439AB27B681A800C37BD465DF8047BC5
:1032D000704700BF80B483B000AF78600B467B803E
:1032E0007B88B3F5804F08D17B681B889BB243F481
:1032F00080439AB27B681A8007E07B681B889BB288
:1033000023F480439AB27B681A800C37BD465DF87F
:10331000047B704780B483B000AF78600B467B803D
:103320007A884FF6FF639A4208D07B681B889BB26D
:1033300043F480739AB27B681A8007E07B681B882D
:103340009BB223F480739AB27B681A800C37BD4617
:103350005DF8047B704700BF80B483B000AF786035
:103360000B46FB70FB78002B08D07B689B889BB2D8
:1033700043F004039AB27B689A8007E07B689B88DD
:103380009BB223F004039AB27B689A800C37BD4647
:103390005DF8047B704700BF80B483B000AF7860F5
:1033A0000B46FB70FB78002B08D07B689B889BB298
:1033B00043F010039AB27B689A8007E07B689B8891
:1033C0009BB223F010039AB27B689A800C37BD46FB
:1033D0005DF8047B704700BF80B485B000AF7860B3
:1033E00039600023BB810023FB817B689B8B9BB2F0
:1033F00023F47B6323F00F039AB27B689A837B6884
:1034000002221A847B689B8BBB813B681B88B3F5C7
:10341000007F03D03B681B88002B03D14FF48073DF
:10342000FB810BE03B681B88B3F5407F04D03B6811
:103430001B88B3F5807F01D10023FB813B685A884C
:103440003B6899883B689B890B439BB213439AB2B4
:10345000FB8913439AB2BB8913439BB243F40063C5
:10346000BB817B68BA899A831437BD465DF8047BBB
:10347000704700BF80B483B000AF78607B689B89E1
:103480009BB218460C37BD465DF8047B704700BF01
:1034900080B483B000AF78600B467B807B687A880D
:1034A0009A810C37BD465DF8047B704780B483B0C9
:1034B00000AF78600B46FB70FB78002B08D07B6870
:1034C0001B889BB243F400539AB27B681A8007E0D2
:1034D0007B681B889BB223F400539AB27B681A80E6
:1034E0000C37BD465DF8047B704700BF80B483B0E5
:1034F00000AF78607B681B889BB243F480539AB21C
:103500007B681A800C37BD465DF8047B704700BFAE
:1035100080B485B000AF78600B46FB700023FB8160
:10352000FB78012B03D07B681B8BFB8102E07B685F
:103530009B8AFB81FB8918461437BD465DF8047BE6
:10354000704700BF80B483B000AF78607B681B8A8F
:103550009BB218460C37BD465DF8047B704700BF30
:1035600080B483B000AF786013460A467A807B70DF
:103570007B78002B08D07B689B889AB27B881343AA
:103580009AB27B689A8009E07B689B889AB27B88B4
:10359000DB439BB213409AB27B689A800C37BD46DE
:1035A0005DF8047B704700BF80B485B000AF7860E1
:1035B00013460A46FA70BB700023FB810023BB81CF
:1035C000FB781B09DBB2FB81FB89012202FA03F3C2
:1035D000BB81BB78002B08D07B689B889AB2BB89E3
:1035E00013439AB27B689A8009E07B689B889AB201
:1035F000BB89DB439BB213409AB27B689A80143735
:10360000BD465DF8047B704780B485B000AF78603C
:103610000B467B800023FB737B681B899AB27B88F7
:1036200013409BB2002B02D00123FB7301E0002367
:10363000FB73FB7B18461437BD465DF8047B70476F
:1036400080B483B000AF78600B467B807B88DB431F
:103650009AB27B681A810C37BD465DF8047B7047CF
:1036600080B485B000AF78600B46FB700023FB731D
:103670000023BB8100237B8100233B81FB7803F087
:103680000F03012202FA03F3BB81FB781B09DBB2B3
:103690007B817B89012202FA03F37B817B689B8813
:1036A0009AB27B8913403B817B681B899AB2BB89A4
:1036B00013409BB2002B05D03B89002B02D0012385
:1036C000FB7301E00023FB73FB7B18461437BD46F8
:1036D0005DF8047B704700BF80B485B000AF7860B0
:1036E0000B46FB700023FB81FB7803F00F030122E4
:1036F00002FA03F3FB81FB89DB439AB27B681A81F0
:103700001437BD465DF8047B704700BF80B400AF3E
:10371000094B00221A60084B00225A60064B002217
:103720009A60054B0022DA60034B044A5A61BD4699
:103730005DF8047B704700BF003C0140FFFF7F0045
:1037400080B485B000AF78600023FB60324BFB6033
:103750007B689B79002B4DD02F4B2F4A11687A68DC
:103760001268D2430A401A602B4B2B4A51687A6880
:103770001268D2430A405A607B681B79FA68134486
:10378000FB60FB68FA6811687A6812680A431A607D
:10379000214B214A91687A681268D2430A409A60A4
:1037A0001D4B1D4AD1687A681268D2430A40DA601C
:1037B0007B685B79102B0ED1174B174A91687A689A
:1037C00012680A439A60144B134AD1687A681268E7
:1037D0000A43DA601BE0104BFB607B685B79FA6898
:1037E0001344FB60FB68FA6811687A6812680A4340
:1037F0001A600CE07B681B79FA681344FB60FB6875
:10380000FA6811687A681268D2430A401A6014375D
:10381000BD465DF8047B7047003C014080B483B036
:1038200000AF78607B6800221A607B6800221A7102
:103830007B680C225A717B6800229A710C37BD4656
:103840005DF8047B704700BF80B483B000AF786040
:10385000054B054A11697A680A431A610C37BD465F
:103860005DF8047B704700BF003C014080B485B028
:1038700000AF78600023FB73084B5A697B681340E4
:10388000002B02D00123FB7301E00023FB73FB7BC1
:1038900018461437BD465DF8047B7047003C014074
:1038A00080B483B000AF7860034B7A685A610C37FC
:1038B000BD465DF8047B7047003C014080B485B094
:1038C00000AF78600023FB730023BB600C4B1A68C9
:1038D0007B681340BB600A4B5A697B681340002B1E
:1038E00005D0BB68002B02D00123FB7301E000234D
:1038F000FB73FB7B18461437BD465DF8047B7047AD
:10390000003C014080B483B000AF7860034B7A681C
:103910005A610C37BD465DF8047B7047003C01409E
:1039200080B483B000AF7860054A7B6843F0BF6322
:1039300043F40033D3600C37BD465DF8047B704719
:1039400000ED00E080B485B000AF78600023FB7329
:103950000023BB730F237B737B68DB78002B37D08E
:10396000254BDB68DB4303F4E0631B0AFB73FB7B43
:10397000C3F10403BB737A7BFB7B42FA03F37B73D3
:103980007B685B781A46BB7B02FA03F3FB737B68A8
:103990009A787B7B1340DAB2FB7B1343FB73FB7B90
:1039A0001B01FB73154A7B681B781344FA7B83F871
:1039B0000023124B7A6812785209D2B279680978DA
:1039C00001F01F01012000FA01F143F822100EE07E
:1039D0000A4B7A6812785209D2B27968097801F0F4
:1039E0001F01012000FA01F1203243F822101437A0
:1039F000BD465DF8047B704700ED00E000E100E0AB
:103A000080B483B000AF78603960074A3B6823F028
:103A1000604323F07F0379680B4393600C37BD4606
:103A20005DF8047B704700BF00ED00E080B483B018
:103A300000AF02460B46FA71BB71BB79002B06D072
:103A4000094B094A1169FA790A431A6106E0064BE3
:103A5000054A1169FA79D2430A401A610C37BD460A
:103A60005DF8047B704700BF00ED00E080B483B0D8
:103A700000AF78607B68042B06D1094B084A1268B6
:103A800042F004021A6005E0054B054A126822F074
:103A900004021A600C37BD465DF8047B704700BF16
:103AA00010E000E080B584B000AF78600B46FB709A
:103AB000FB787868194607F09DFE7B68012283F841
:103AC00012217B68002283F813210023FB6023E08E
:103AD000FA6813469B001344DB0003F58C737A6885
:103AE0001344BB60BB6801225A70FB68DAB2BB6842
:103AF0001A70FB689AB2BB68DA80BB680022DA7081
:103B0000BB6840229A60BB680022DA60BB68002272
:103B10005A61FB680133FB607B685B781A46FB687F
:103B20009A42D5D80023FB6023E0FA6813469B0035
:103B30001344DB0003F55C737A681344BB60BB6815
:103B400000225A70FB68DAB2BB681A70FB689AB23E
:103B5000BB68DA80BB680022DA70BB6840229A60DA
:103B6000BB680022DA60BB6800225A61FB6801333F
:103B7000FB607B685B781A46FB689A42D5D8786808
:103B800008F000F8786807F0F3FE7868002108F084
:103B90007BF8786808F01EF9786807F0D7FF1037CF
:103BA000BD4680BD80B584B000AF7860F9703A80C2
:103BB000BB70FB785BB2002B0CDAFB7803F07F0262
:103BC00013469B001344DB0003F58C737A6813449F
:103BD000FB600BE0FB7803F07F0213469B0013446D
:103BE000DB0003F55C737A681344FB60FB7803F039
:103BF0007F03DAB2FB681A70FB78DB09DBB21A4686
:103C0000FB685A703A88FB689A60FB68BA78DA7089
:103C1000FB685B78002B04D0FB681B781A46FB68B6
:103C2000DA80BB78022B02D1FB6800221A71786817
:103C3000F96808F0E1FA002318461037BD4680BD48
:103C400080B584B000AF78600B46FB70FB785BB248
:103C5000002B0CDAFB7803F07F0213469B00134421
:103C6000DB0003F58C737A681344FB600BE0FB7890
:103C700003F07F0213469B001344DB0003F55C73E3
:103C80007A681344FB60FB7803F07F03DAB2FB68C9
:103C90001A70FB78DB09DBB21A46FB685A70786849
:103CA000F96808F029FB002318461037BD4680BD8F
:103CB00080B586B000AFF8607A600A46FA723B8140
:103CC000FB7A03F07F0213469B001344DB0003F5ED
:103CD0005C73FA6813447B617B697A68DA603A89BD
:103CE0007B695A617B6900229A617B6900225A7064
:103CF000FB7A03F07F03DAB27B691A70FB68DB782A
:103D0000012B02D17A687B691A617B691B78002BD1
:103D100004D1F868796908F087FC03E0F8687969EC
:103D200008F042FB002318461837BD4680BD00BF8F
:103D300080B586B000AFF8607A603B600B46FB72DE
:103D4000FB7A03F07F0213469B001344DB0003F56C
:103D50008C73FA6813447B617B6901225A70FB7A89
:103D600003F07F03DAB27B691A707B697A68DA60E4
:103D70007A687B691A617B6900229A617B693A687B
:103D80005A617B691B78002B04D1F868796908F0C7
:103D90004BFC03E0F868796908F006FB002318463D
:103DA0001837BD4680BD00BF80B584B000AF7860D5
:103DB0000B46FB70FB785BB2002B0CDAFB7803F050
:103DC0007F0213469B001344DB0003F58C737A6873
:103DD0001344FB6009E0FA7813469B001344DB00B0
:103DE00003F55C737A681344FB60FB6801229A70E8
:103DF000FB7803F07F03DAB2FB681A70FB78DB090B
:103E0000DBB21A46FB685A707868F96808F0F6FC6D
:103E1000002318461037BD4680BD00BF80B584B072
:103E200000AF78600B46FB70FB785BB2002B0CDABE
:103E3000FB7803F07F0213469B001344DB0003F57D
:103E40008C737A681344FB6009E0FA7813469B0090
:103E50001344DB0003F55C737A681344FB60FB6872
:103E600000229A70FB7803F07F03DAB2FB681A70C5
:103E7000FB78DB09DBB21A46FB685A707868F96890
:103E800008F000FD002318461037BD4680BD00BF76
:103E900080B582B000AF78600B46FB70FB785BB2F8
:103EA000002B07DAFB7803F07F037868194607F0E8
:103EB00085FE02E0786807F0B9FE0023184608374F
:103EC000BD4680BD80B485B000AF78600B46FB7006
:103ED0000023FB60FB7803F07F03DAB2BB8962F357
:103EE0000A13BB817B681B697A6812691168FA68DA
:103EF0000A431A601437BD465DF8047B704700BF63
:103F000080B584B000AF78607B681B695B68FB603C
:103F10003B7B6FF341033B737B681B69FA685A6014
:103F2000032002F0CBFC1037BD4680BD80B584B0C5
:103F300000AF78607B681B695B68FB603B7B43F08C
:103F400002033B737B681B69FA685A60032002F026
:103F5000B5FC1037BD4680BD80B584B000AF786039
:103F60000B46FB700023BB60FB785BB2002B0CDAC6
:103F7000FB7803F07F0213469B001344DB0003F53C
:103F80008C737A681344FB6009E0FA7813469B004F
:103F90001344DB0003F55C737A681344FB607868B4
:103FA000F96808F0DBFDB860BB6818461037BD46FD
:103FB00080BD00BF80B586B000AFF8600B467A6068
:103FC000FB72FB7A5BB2002B0CDAFB7A03F07F0208
:103FD00013469B001344DB0003F58C73FA6813440B
:103FE0007B6109E0FA7A13469B001344DB0003F57A
:103FF0005C73FA6813447B61F86879697A6808F041
:1040000003FE1837BD4680BD80B483B000AF786032
:104010007B68064A1A607B6800225A607B681846F3
:104020000C37BD465DF8047B704700BF980E020850
:1040300080B582B000AF78607B681846FFF7E4FF78
:104040007B68054A1A607B684FF47A729A607B68D5
:1040500018460837BD4680BDD80E020880B400AFB0
:10406000BD465DF8047B704780B500AF064800F0A0
:104070006BF80346002B0CBF00230123DBB2002B9F
:1040800001D0FFF7EBFF80BD6C1B002080B582B034
:1040900000AF78607B681846FFF7CAFF7B68064A66
:1040A0001A6006484FF47A7106F04AFB7B6818469E
:1040B0000837BD4680BD00BFB80E02086C15002051
:1040C00080B582B000AF78607B68054A1A60054809
:1040D00006F04EFB7B6818460837BD4680BD00BF22
:1040E000B80E02086C15002080B584B002AF78606D
:1040F0003960054B009305480021054A054B07F040
:1041000039F80837BD4680BD200000207C1500200E
:10411000CC000020C801002080B485B000AFF8605A
:10412000B9601346FB711437BD465DF8047B7047D8
:1041300080B582B000AF7860024807F045F80837D4
:10414000BD4680BD7C15002080B582B000AF786090
:10415000034806F029FC034618460837BD4680BDD3
:104160006C15002080B483B000AF7860002318463F
:104170000C37BD465DF8047B704700BF80B582B048
:1041800000AF78600A4806F013FB0346012B14BF0A
:1041900000230123DBB2002B01D0002303E00448FD
:1041A00006F018FB034618460837BD4680BD00BF21
:1041B0006C15002080B582B000AF786002E008483E
:1041C00006F008FB064806F0F3FA0346012B0CBF85
:1041D00000230123DBB2002BF1D10837BD4680BD9F
:1041E0006C15002080B582B000AF78600B46FB7084
:1041F000FB1C1846012101F02DFD0123184608374C
:10420000BD4680BD80B483B000AF786001231846FE
:104210000C37BD465DF8047B704700BF80B582B0A7
:1042200000AF786039607B68012B0CD13A684FF69B
:10423000FF739A4207D10548FFF728FF0348044956
:10424000044A09F0A9FA0837BD4680BD6C1B00205E
:10425000C14000080000002080B500AF01204FF6EB
:10426000FF71FFF7DBFF80BD80B582B000AF7860E3
:104270003960786800F0E2F83B68002B08D03868B5
:104280000AF02CFC0346786839681A4600F050F9A9
:104290007B6818460837BD4680BD00BF80B582B038
:1042A00000AF78603960786800F0C8F878683968DD
:1042B00000F064F97B6818460837BD4680BD00BF32
:1042C00080B584B000AF78600B46FB70786800F072
:1042D000B5F8FB783B7300237B7307F10C03786818
:1042E000194600F06DF97B6818461037BD4680BD51
:1042F00080B586B000AF786013460A46FA70BB708E
:10430000786800F09BF8F978BB7807F10C02084652
:1043100011461A46FEF700FD07F10C0378681946AE
:1043200000F04EF97B6818461837BD4680BD00BFC7
:1043300080B58AB000AFF860B9601346FB71F868C9
:1043400000F07CF8FB7907F11402B86811461A46B0
:10435000FEF73AFC07F11403F868194600F030F94B
:10436000FB6818462837BD4680BD00BF80B58AB0BF
:1043700000AFF860B9601346FB71F86800F05EF8B2
:10438000FB7907F11402B86811461A46FEF7C4FC1F
:1043900007F11403F868194600F012F9FB68184693
:1043A0002837BD4680BD00BF80B58EB000AFF86035
:1043B000B9601346FB71F86800F040F8FB7907F12B
:1043C0001402B86811461A46FEF752FC07F11403AE
:1043D000F868194600F0F4F8FB6818463837BD460F
:1043E00080BD00BF80B58EB000AFF860B9601346E5
:1043F000FB71F86800F022F8FB7907F11402B86845
:1044000011461A46FEF7DCFC07F11403F86819465A
:1044100000F0D6F8FB6818463837BD4680BD00BFAF
:1044200080B582B000AF78607B681B68184609F0E1
:1044300033FA7B6818460837BD4680BD80B483B028
:1044400000AF78607B6800221A607B6800225A60A7
:104450007B6800229A607B6800221A730C37BD4685
:104460005DF8047B704700BF80B582B000AF786014
:104470007B681B68002B04D07B681B68184609F01A
:104480000BFA7B6800221A607B6800229A607B68C6
:104490009A687B685A600837BD4680BD80B582B097
:1044A00000AF786039607B681B68002B06D07B68A2
:1044B0005A683B689A4201D3012316E0786839684C
:1044C00000F018F80346002B0CBF00230123DBB2D9
:1044D000002B09D07B689B68002B03D17B681B688D
:1044E00000221A70012300E0002318460837BD4659
:1044F00080BD00BF80B584B000AF786039607B6854
:104500001A683B6801331046194609F0E1FEF8606D
:10451000FB68002B07D07B68FA681A607B683A68F2
:104520005A60012300E0002318461037BD4680BDC5
:1045300080B584B000AFF860B9607A60F8687968D7
:10454000FFF7ACFF0346002B14BF00230123DBB2AF
:10455000002B04D0F868FFF787FFFB6809E0FB68D1
:104560007A689A60FB681B681846B9680AF058FABE
:10457000FB6818461037BD4680BD00BF80B582B0CD
:1045800000AF786039607A683B689A4201D17B68F5
:1045900011E03B681B68002B09D03B681A683B6838
:1045A0009B68786811461A46FFF7C2FF02E07868F8
:1045B000FFF75AFF7B6818460837BD4680BD00BF2D
:1045C00080B582B000AF786039603B68002B09D0BD
:1045D00038680AF083FA0346786839681A46FFF7A4
:1045E000A7FF02E07868FFF73FFF7B6818460837AF
:1045F000BD4680BD80B582B000AF786039603B6851
:104600001A683B689B68786811461A4600F006F8FD
:10461000034618460837BD4680BD00BF80B586B04A
:1046200000AFF860B9607A60FB689A687B681344F1
:104630007B61BB68002B01D100231FE07B68002B4E
:1046400001D101231AE0F8687969FFF727FF0346D3
:10465000002B14BF00230123DBB2002B01D0002369
:104660000CE0FB681A68FB689B6813441846B9683D
:104670000AF0D6F9FB687A699A6001231846183760
:10468000BD4680BD80B582B000AF786039603B68C0
:10469000002B01D1002309E038680AF01FFA034615
:1046A000786839681A46FFF7B9FF03461846083795
:1046B000BD4680BD80B584B000AF78600B46FB700E
:1046C000FB783B7300237B7307F10C037868194672
:1046D0000122FFF7A3FF034618461037BD4680BDF1
:1046E00080B584B000AF78600B46FB70FA7807F1B4
:1046F0000C03104619460A22FEF766FA07F10C036E
:1047000018460AF0EBF9034607F10C0278681146E7
:104710001A46FFF783FF034618461037BD4680BD93
:1047200080B584B000AF7860396007F1080338685D
:1047300019460A22FEF748FA07F1080318460AF05C
:10474000CDF9034607F10802786811461A46FFF7CB
:1047500065FF034618461037BD4680BD80B584B05E
:1047600000AF7860396007F10803386819460A22FB
:10477000FEF7D2FA07F1080318460AF0AFF903462C
:1047800007F10802786811461A46FFF747FF03460B
:1047900018461037BD4680BD80B586B000AF786042
:1047A000396007F10C03386819460A22FEF760FAEF
:1047B00007F10C0318460AF091F9034607F10C02C1
:1047C000786811461A46FFF729FF0346184618373E
:1047D000BD4680BD80B586B000AF7860396007F116
:1047E0000C03386819460A22FEF7EAFA07F10C03AF
:1047F00018460AF073F9034607F10C02786811466F
:104800001A46FFF70BFF034618461837BD4680BD12
:1048100080B582B000AF786039607B6893F8123160
:10482000023B012B11D87B68D3F81431002B03D045
:10483000094B03221A6002E0074B01221A607868D4
:1048400005490122FEF710FB03E07868396800F0A3
:10485000D7F80837BD4680BD0C0B002080B584B06A
:1048600000AF786039600023FB733B685B88012BE5
:104870000ED17B680122C3F814217B68D3F8E035A0
:104880009B687868396898477868FBF729FD47E0A6
:104890003B685B88022B43D13B689B88DBB2002BD3
:1048A0003ED17B681B695B68BB603B689B881B0AC9
:1048B0009BB2FB73FB7B013B042B2AD801A252F86D
:1048C00023F000BFD9480008E5480008F148000877
:1048D000FD480008094900083B7A012262F30613EB
:1048E0003B7216E03B7A022262F306133B7210E041
:1048F0003B7A032262F306133B720AE03B7A0422FE
:1049000062F306133B7204E03B7A052262F306135E
:104910003B727B681B69BA685A607868FBF7E0FCF9
:104920001037BD4680BD00BF80B582B000AF786053
:1049300039607B6893F81231023B012B12D83B6837
:104940005B88012B12D17B680022C3F814217B689D
:10495000D3F8E0359B687868396898477868FBF742
:10496000BFFC03E07868396800F04AF80837BD46B4
:1049700080BD00BF80B483B000AF786039607B68D1
:1049800093F8C8253B681A707B6893F8C9253B6883
:104990005A707B6893F8CA351A467B6893F8CB3512
:1049A0001B029BB213449AB23B685A807B6893F80F
:1049B000CC351A467B6893F8CD351B029BB2134465
:1049C0009AB23B689A807B6893F8CE351A467B682A
:1049D00093F8CF351B029BB213449AB23B68DA803E
:1049E0003B68DB881A467B68C3F83C217B68012260
:1049F00083F811210C37BD465DF8047B704700BF7A
:104A000080B582B000AF786039603B681B78DBB25C
:104A10005BB2002B04DA78688021FFF7C5F90CE05F
:104A20003B68DB88002B04D178688021FFF7BCF954
:104A300003E078680021FFF7B7F9786807F0A6FF70
:104A40000837BD4680BD00BF80B586B000AFF860B6
:104A5000B9607A600023FB75FB68002B2FD0F868E3
:104A600000F030F8034601339BB25B009AB27B68DA
:104A70001A80FB7D5A1CFA75BA6813447A6812884A
:104A8000D2B21A70FB7D5A1CFA75BA68134403221D
:104A90001A7010E0FB7D5A1CFA75BA681A44FB685C
:104AA000591CF9601B781370FB7D5A1CFA75BA68A3
:104AB000134400221A70FB681B78002BEAD11837C8
:104AC000BD4680BD80B485B000AF78600023FB7325
:104AD00005E0FB7B0133FB737B6801337B607B6804
:104AE0001B78002BF5D1FB7B18461437BD465DF8CB
:104AF000047B704780B584B000AF78607B689B6DA5
:104B00009B68FB60FA687B681B69D3F884301340AC
:104B1000FB603B7BC3F30003DBB2002B21D00023FF
:104B2000FB603B7B43F001033B737B689B6DFA6842
:104B30009A607B68DB78012B0DD17B689B6D1B69CC
:104B4000BB607B68D3F8A023BB68C3F31203D21AFF
:104B50007B68C3F8B023154B1B681B68786801217C
:104B600098473B7BC3F34003DBB2002B09D0002303
:104B7000FB603B7B43F002033B737B689B6DFA68F1
:104B80009A603B7BC3F38003DBB2002B09D0002388
:104B9000FB603B7B43F004033B737B689B6DFA68CF
:104BA0009A60012318461037BD4680BD680000207A
:104BB00080B586B000AF78607B681B695B6C7B61F9
:104BC0007B681B695B6B3B613B695B08DB01DBB2AC
:104BD0007A6913437B617B68DB699A687B69134060
:104BE000BB603B7AC3F30003DBB2002B1AD0022375
:104BF000FB607B681B697A681269516BFA68D24363
:104C00000A405A630023BB603B7A43F001033B72C6
:104C10007B68DB69BA689A603F4B1B685B687868A1
:104C2000012198473B7AC3F38003DBB2002B09D004
:104C30000023BB603B7A43F004033B727B68DB6973
:104C4000BA689A603B7AC3F34003DBB2002B09D009
:104C50000023BB603B7A43F002033B727B68DB6955
:104C6000BA689A603B7AC3F3C003DBB2002B09D069
:104C70000023BB603B7A43F008033B727B68DB692F
:104C8000BA689A603B7AC3F30013DBB2002B09D0F9
:104C90000023BB603B7A43F010033B727B68DB6907
:104CA000BA689A603B7AC3F34013DBB2002B09D099
:104CB0000023BB603B7A43F020033B727B68DB69D7
:104CC000BA689A603B7AC3F38013DBB2002B09D039
:104CD0000023BB603B7A43F040033B727B68DB6997
:104CE000BA689A603B7AC3F3C013DBB2002B0DD0D5
:104CF0007868012100F098FB0023BB603B7A43F009
:104D000080033B727B68DB69BA689A6001231846AE
:104D10001837BD4680BD00BF6800002080B586B052
:104D200000AF786000237B61786806F0EDFF0346F2
:104D3000002B00F09C80786807F00AF803463B617E
:104D40003B69002B01D1002392E0BB7CC3F3C0037D
:104D5000DBB2002B06D0786800F012FA03467A69BD
:104D600013437B61BB7CC3F38003DBB2002B06D013
:104D7000786800F00FF903467A6913437B613B7C46
:104D8000C3F34003DBB2002B09D00023FB603B7B65
:104D900043F002033B737B68DB68FA685A61FB7C73
:104DA000C3F3C013DBB2002B06D0786800F064F8C0
:104DB00003467A6913437B617B7CC3F3C003DBB298
:104DC000002B06D0786800F097F803467A69134301
:104DD0007B613B7CC3F3C003DBB2002B06D0786859
:104DE00000F08AFA03467A6913437B613B7CC3F384
:104DF0000013DBB2002B06D0786800F097FA034668
:104E00007A6913437B617B7CC3F30013DBB2002B15
:104E100006D0786800F07AFB03467A6913437B6119
:104E20007B7CC3F34013DBB2002B06D0786800F024
:104E300017FC03467A6913437B61BB7CC3F3001301
:104E4000DBB2002B06D0786800F046FC03467A6996
:104E500013437B61BB7CC3F34013DBB2002B06D052
:104E6000786800F053FC03467A6913437B617B69E1
:104E700018461837BD4680BD80B586B000AF786053
:104E80007B689B7A002B11D07B6803F586731B68C7
:104E9000FB603B7B6FF341033B733B7B6FF3000392
:104EA0003B737B68D3F80C31FA681A6000233B61CE
:104EB0003B7C43F001033B747B681B697A68126991
:104EC00051683A69D2430A405A600A4B1B689B6991
:104ED0007868984700237B61FB7D43F08003FB7576
:104EE0007B68DB687A695A61012318461837BD462A
:104EF00080BD00BF6800002080B586B000AF78603C
:104F0000224B1B685B69786898477B681B699B68C4
:104F1000FB6000237B617B7D43F008037B757B682E
:104F2000DB687A695A617B689B7A002B29D03B7BCE
:104F3000C3F30003DBB2012B23D100233B613B7C95
:104F400043F001033B747B68D3F80C317A68D2F8E4
:104F50000C2111683A690A431A603B7C43F0020352
:104F60003B747B68D3F80C317A68D2F80C21116855
:104F70003A690A431A60064B054A126942F0060272
:104F80001A61012318461837BD4680BD680000200D
:104F900000ED00E080B586B000AF786000233B6193
:104FA0000023BB60786807F0DBFC7861DCE07B699C
:104FB00003F00103002B00F0D1803B69DBB278687D
:104FC000194600F0BDFB0346BB603B7AC3F3000308
:104FD000DBB2002B32D03B69012202FA03F3FB6003
:104FE0007B681B697A681269516BFA68D2430A4080
:104FF0005A630023BB603B7A43F001033B727A683B
:105000003B6904339B0013449B68BA689A605B4B0E
:105010001B685B683A69D2B27868114698477B682A
:10502000DB78012B0AD13B69002B07D17B6893F811
:105030001131042B02D1786807F0A8FC3B7AC3F346
:105040008003DBB2002B0DD00023BB603B7A43F022
:1050500004033B727A683B6904339B0013449B68EA
:10506000BA689A603B7AC3F3C003DBB2002B0DD061
:105070000023BB603B7A43F008033B727A683B69CC
:1050800004339B0013449B68BA689A603B7AC3F36D
:105090000013DBB2002B0DD00023BB603B7A43F042
:1050A00010033B727A683B6904339B0013449B688E
:1050B000BA689A603B7AC3F34013DBB2002B0DD081
:1050C0000023BB603B7A43F020033B727A683B6964
:1050D00004339B0013449B68BA689A603B7AC3F31D
:1050E0008013DBB2002B0DD00023BB603B7A43F072
:1050F00040033B727A683B6904339B0013449B680E
:10510000BA689A603B7AC3F34003DBB2002B0DD040
:105110000023BB603B7A43F002033B727A683B6931
:1051200004339B0013449B68BA689A603B7AC3F3CC
:10513000C013DBB2002B11D07868396900F074F924
:105140000023BB603B7A43F080033B727A683B6983
:1051500004339B0013449B68BA689A603B6901332F
:105160003B617B695B087B617B69002B7FF41FAF30
:10517000012318461837BD4680BD00BF68000020D7
:1051800080B586B000AF786000233B610023FB60F0
:10519000786807F0B3FB7861A3E07B6903F0010353
:1051A000002B00F098803B69DBB27868194607F065
:1051B000BBFB0346FB603B7BC3F30003DBB2002B6E
:1051C00048D00023FB603B7B43F001033B737A68CC
:1051D0003B6914339B0013445B68FA689A607B68F0
:1051E000DB78012B1FD17A683B6914339B00134491
:1051F0005B681B69BB6079683A6913469B0013447E
:10520000DB000B4403F55E731A68BB68C3F312033B
:10521000D11A78683A6913469B001344DB000344B3
:1052200003F562731960334B1B681B683A69D2B28D
:105230007868114698477B68DB78012B0AD13B6977
:10524000002B07D17B6893F81131052B02D17868C8
:1052500007F09CFB3B7BC3F34003DBB2002B0DD07C
:105260000023FB603B7B43F002033B737A683B699E
:1052700014339B0013445B68FA689A603B7BC3F36A
:105280008003DBB2002B0DD00023FB603B7B43F09F
:1052900004033B737A683B6914339B0013445B68D7
:1052A000FA689A603B7BC3F3C003DBB2002B12D0D9
:1052B000104B1B689B68786898470023FB603B7B1A
:1052C00043F008033B737A683B6914339B00134433
:1052D0005B68FA689A603B6901333B617B695B08F4
:1052E0007B617B69002B7FF458AF01231846183788
:1052F000BD4680BD6800002080B584B000AF7860F6
:10530000094B1B68DB68786898470023FB603B7B90
:1053100043F008033B737B68DB68FA685A6101233A
:1053200018461037BD4680BD6800002080B586B0A5
:1053300000AF786000233B613B7C43F010033B747B
:105340007B68DB687A68D26891693A69D2430A401F
:105350009A617B68DB681B6AFB603B7BC3F30303DA
:10536000DBB21A4613469B001344DB0003F55C7363
:105370007A6813447B61BB7BC3F34303DBB2013B1D
:10538000052B44D801A252F823F000BF0F540008A7
:10539000A55300080F5400080F5400080F540008CC
:1053A000ED530008BB89C3F30A139BB2002B2ED028
:1053B0007B69DA68BB89C3F30A139BB2786811462C
:1053C0001A4606F0EBF97B69DA68BB89C3F30A1366
:1053D0009BB21A447B69DA607B699A69BB89C3F323
:1053E0000A139BB21A447B699A6110E07B6803F54B
:1053F000B96378681946082206F0D0F97B699A6982
:10540000BB89C3F30A139BB21A447B699A617B6818
:10541000DB687A68D26891693A690A439A61012324
:1054200018461837BD4680BD80B586B000AF78609D
:10543000396000237B610023BB603A6813469B0000
:105440001344DB0003F58C737A681344FB60FB683C
:105450005A69FB689B69D31A7B61FB689A687B6910
:105460009A4202D2FB689B687B617B6903339B088D
:105470003B617A683B6804339B0013449B689B69DB
:10548000BB602EE0FB685A69FB689B69D31A7B619D
:10549000FB689A687B699A4202D2FB689B687B61D1
:1054A0007B6903339B083B61FB68D9683B68DAB2D0
:1054B0007B699BB2786806F039F9FB68DA687B692A
:1054C0001A44FB68DA60FB689A697B691A44FB68D6
:1054D0009A617A683B6804339B0013449B689B691C
:1054E000BB603B891A463B699A4209D9FB689A69B5
:1054F000FB685B699A4203D2FB685B69002BC1D1F0
:10550000012318461837BD4680BD00BF80B58AB05C
:1055100000AF786000233B6100233B620023FB6106
:105520000023BB6100237B610023FB603B7C43F0D5
:1055300001033B747B681B697A68126951683A6998
:10554000D2430A405A607868002106F037FB0023F6
:105550007B6212E07A687B6A04339B0013449B6889
:10556000FF229A607A687B6A14339B0013445B685D
:10557000FF229A607B6A01337B627B685B781A4604
:105580007B6A9A42E6D87B681B694FF0FF329A61CA
:105590003B8C012262F30F033B847B8C012262F37C
:1055A0000F037B847B681B693A6ADA613B7F43F0B7
:1055B00008033B773B7F43F001033B773B7F43F09E
:1055C00004033B773B7F43F002033B777B681B6917
:1055D000FA695A617B681B69FA69C3F884203B7ECB
:1055E00043F001033B763B7E43F008033B763B7E72
:1055F00043F002033B763B7E43F004033B763B7E65
:1056000043F020033B767B681B69BA691A617B68AB
:105610001B69BA695A647B681B691B687B61BB8A1A
:105620006FF30A13BB827B681B697A691A6078681A
:1056300007F0ACF90023FB607B7B43F010037B7326
:105640007B68DB68FA685A61044B1B681B697868E1
:105650009847012318462837BD4680BD68000020C2
:1056600080B584B000AF7860786806F08BFD7B6809
:10567000DB68DB68BB60786806F060FD0346032BDF
:105680000CD17B6800229A707B684FF400729A807C
:105690007B7A092262F385037B720AE07B68012230
:1056A0009A707B6840229A807B7A052262F3850398
:1056B0007B727B68DB68BA68DA600023FB607B7B07
:1056C00043F020037B737B68DB68FA685A6101232F
:1056D00018461037BD4680BD80B584B000AF7860F5
:1056E0000023FB60084B1B68DB6978689847BB7B2D
:1056F00043F01003BB737B68DB68FA685A610123CF
:1057000018461037BD4680BD6800002080B584B0C3
:1057100000AF78600023FB60084B1B681B6A786849
:105720009847BB7B43F02003BB737B68DB68FA6858
:105730005A61012318461037BD4680BD680000201D
:1057400080B487B000AF78600B46FB707B681B6944
:105750001B697B617B681B695B6B3B61FB783A690A
:1057600022FA03F3DB01DBB27A6913437B61FB7836
:105770007A6804339B0013449B689A687B691340E2
:10578000FB60FB6818461C37BD465DF8047B70471C
:1057900080B584B000AF78600B46FB707B68D3F8AF
:1057A000EC3539331B88786881211A460223FEF7CD
:1057B000F9F97B68D3F8EC3539331B881A46174B57
:1057C0001A607B68D3F8EC3540331B887868012178
:1057D0001A460223FEF7E6F978688221082203239D
:1057E000FEF7E0F90E4BFB60FB68043302221A70EF
:1057F000FB68053300221A700A4B1B6898477B68C8
:10580000D3F8EC3540331B8878680121064AFEF74F
:105810004FFA002318461037BD4680BD641500209E
:10582000E800002014010020480B002080B582B061
:1058300000AF78600B46FB7078688121FEF700FAB4
:1058400078680121FEF7FCF978688221FEF7F8F903
:10585000034B5B689847002318460837BD4680BD58
:105860001401002080B584B000AF78603960002357
:10587000FB813B681B7803F06003002B3FD0202B9B
:1058800037D13B68DB88002B29D03B681B78DBB223
:105890005BB2002B11DA364B9B683A68527811469E
:1058A0003A68D2880846334998473B68DB8878686D
:1058B00030491A46FDF7D8FA19E03B685B781A467A
:1058C0002D4B1A603B68DB881A462C4B1A603B68EC
:1058D000DB88786827491A46FAF7CEFC07E0244BA4
:1058E0009B683A68527810460021002298470023AE
:1058F00039E078683968FFF783F8022333E03B68C2
:105900005B780A2B18D00B2B1CD0062B2AD13B68B6
:105910005B881B0A9BB2212B07D1194BBB603B68EC
:10592000DB883A2B28BF3A23FB81FB897868B9686A
:105930001A46FDF799FA15E0786812490122FDF739
:1059400093FA0FE03B685B88DBB2002B06D13B6823
:105950005B88DBB21A460B4B1A6003E07868396843
:10596000FFF74EF8002318461037BD4680BD00BF34
:105970001401002048150020C401002060150020FB
:105980004E010020440B002080B582B000AF78604B
:105990000A4B1B68FF2B0BD0094B9B68074A116809
:1059A000084A1268084608499847044BFF221A60C3
:1059B000002318460837BD4680BD00BFC401002043
:1059C00014010020601500204815002080B400AFAD
:1059D000034B1B681846BD465DF8047B704700BF4B
:1059E0006415002080B584B000AF78600B46FB7072
:1059F000294B1B78DBB2012B48D1284B1B68002BAD
:105A000003D1254B00221A7040E07B68D3F8EC35B7
:105A100039331B881A46214B1B689A421ED2204BF1
:105A20001B68FB817B68D3F8EC35B3F83930BB8158
:105A30007B68D3F8EC3539331B881A46184B1B6842
:105A40001A44174B1A60154B1A687B68D3F8EC356B
:105A500039331B88D21A114B1A600FE0104B1B68A8
:105A6000FB810E4B1B68BB810D4B1A680B4B1B68EF
:105A70001A440B4B1A60094B00221A60FA89094B31
:105A80001A44BB8978688121FEF752F90023184631
:105A90001037BD4680BD00BF5C15002058150020A2
:105AA00054150020480D002080B584B000AF786008
:105AB0000B46FB70FA78796813469B001344DB00B1
:105AC0000B4403F562731B68FB810A4B1B69FA895F
:105AD0000948114698477B68D3F8EC3540331B885A
