:020000040800F2
:100000006C08002015090008490A0008550A000874
:100010005D0A0008650A00086D0A0008000000007B
:10002000000000000000000000000000750A000849
:10003000810A0008000000008D0A0008990A0008E3
:100040008109000881090008810900088109000868
:100050008109000881090008BD0A0008810900081B
:10006000C90A000881090008190B00088109000865
:100070008109000881090008810900088109000838
:100080008109000881090008810900088109000828
:100090008109000881090008810900088109000818
:1000A0008109000881090008810900088109000808
:1000B00081090008810900088109000881090008F8
:1000C00081090008810900088109000881090008E8
:1000D00081090008810900088109000881090008D8
:1000E00081090008810900088109000881090008C8
:1000F00081090008810900088109000881090008B8
:1001000081090008810900088109000881090008A7
:100110008109000881090008810900088109000897
:100120008109000881090008810900088109000887
:100130008109000881090008810900088109000877
:100140008109000881090008810900088109000867
:100150008109000881090008810900088109000857
:100160008109000881090008810900088109000847
:100170008109000881090008810900088109000837
:10018000810900088109000890B484B000AF0246DC
:100190000B46FA71BB714FF00003FB60BB7903F0B3
:1001A00003034FEA83034FF00F0202FA03F3FB60ED
:1001B0004FF46053C4F20103BA794FEA9202D2B20B
:1001C00010464FF46052C4F20102B9794FEA91012E
:1001D000C9B201F1020152F82110FA686FEA020275
:1001E000114000F1020243F822104FF46053C4F2B0
:1001F0000103BA794FEA9202D2B210464FF460522C
:10020000C4F20102B9794FEA9101C9B201F10201C8
:1002100052F82110FC79BA7902F003024FEA820207
:1002200004FA02F2114300F1020243F8221007F12E
:100230001007BD4690BC704780B483B000AF034642
:100240003960FB7197F90730002B10DA4FF46D43DA
:10025000CEF20003FA7902F00F02A2F104013A682B
:10026000D2B24FEA0212D2B25B181A760DE04FF406
:100270006143CEF2000397F907103A68D2B24FEA11
:100280000212D2B25B1883F8002307F10C07BD46B7
:1002900080BC704780B582B000AF78607A686FF03C
:1002A0007F439A4202D94FF001031FE04EF2100340
:1002B000CEF200037A6822F07F4202F1FF325A60E8
:1002C0004FF0FF304FF00F01FFF7B6FF4EF2100373
:1002D000CEF200034FF000029A604EF21003CEF20D
:1002E00000034FF007021A604FF00003184607F1B1
:1002F0000807BD4680BD00BF80B584B000AF03468F
:10030000FB71FA7941F2E413C0F6000353F822308E
:1003100018464FF0010100F043FBFA7941F2DC137B
:10032000C0F6000333F81230BB604FF001033B739B
:100330004FF00003BB734FF00103FB734FF0020358
:100340007B73FA7940F20003C2F2000353F82220D3
:1003500007F108031046194600F0FAFB07F11007F1
:10036000BD4680BD80B582B000AF0346FB71FA790F
:1003700040F20003C2F2000353F82220F97941F25F
:10038000DC13C0F6000333F811301046194600F0B4
:100390009FFC07F10807BD4680BD00BF80B582B055
:1003A00000AF0346FB71FA7940F20003C2F200038A
:1003B00053F82220F97941F2DC13C0F6000333F838
:1003C00011301046194600F091FC07F10807BD46B0
:1003D00080BD00BF80B582B000AF0346FB71FA79E3
:1003E00040F20003C2F2000353F82220F97941F2EF
:1003F000DC13C0F6000333F811301046194600F044
:1004000083FC07F10807BD4680BD00BF80B584B0FE
:1004100000AF4FF00003FB7330E0FA7B41F2E413CE
:10042000C0F6000353F8223018464FF0010100F0E7
:10043000B7FAFA7B41F2DC13C0F6000333F812304E
:100440007B604FF001033B724FF00003BB724FF033
:100450000103FB724FF002037B72FA7B40F2000350
:10046000C2F2000353F8222007F104031046194694
:1004700000F06EFBFB7B03F10103FB73FB7B032BA3
:10048000CBD907F11007BD4680BD00BF80B582B053
:1004900000AF4FF00003FB7115E0FA7940F2000362
:1004A000C2F2000353F82220F97941F2DC13C0F6BE
:1004B000000333F811301046194600F009FCFB79AF
:1004C00003F10103FB71FB79032BE6D907F1080760
:1004D000BD4680BD80B582B000AF4FF00003FB7118
:1004E00015E0FA7940F20003C2F2000353F822202B
:1004F000F97941F2DC13C0F6000333F811301046ED
:10050000194600F0F3FBFB7903F10103FB71FB7962
:10051000032BE6D907F10807BD4680BD80B582B040
:1005200000AF4FF00003FB7115E0FA7940F20003D1
:10053000C2F2000353F82220F97941F2DC13C0F62D
:10054000000333F811301046194600F0DDFBFB794B
:1005500003F10103FB71FB79032BE6D907F10807CF
:10056000BD4680BD80B584B000AF0346FB71FA790B
:1005700041F2FC13C0F6000353F8223018464FF046
:10058000010100F00DFA4FF000033B734FF0000340
:10059000FB73FA7941F2F413C0F6000333F812301A
:1005A000BB60FA7940F21003C2F2000353F8222034
:1005B00007F108031046194600F0CAFA07F11007C0
:1005C000BD4680BD80B586B000AF03463960FB7183
:1005D0004FF480404FF0010100F00CFAFA7941F23B
:1005E0001023C0F600039A5CF97941F21423C0F697
:1005F00000035B5C10461946FFF7C6FDFA7941F22D
:100600000823C0F6000333F812303B614FF00003BB
:100610003B754FF008037B754FF00103BB7507F185
:100620001003184600F090FCFA7941F21823C0F646
:1006300000039B5C3B734FF00F037B734FF00F0382
:10064000BB734FF00103FB7307F10C03184600F076
:1006500053FDFA7940F23403C2F20003396843F8DB
:10066000221007F11807BD4680BD00BF80B584B0D9
:1006700000AF4FF00003FB7330E0FA7B41F2FC1354
:10068000C0F6000353F8223018464FF0010100F085
:1006900087F94FF480404FF0010100F0ABF94FF0C3
:1006A00000033B724FF00003FB72FA7B41F2F4133C
:1006B000C0F6000333F812307B60FA7B40F210037F
:1006C000C2F2000353F8222007F104031046194632
:1006D00000F03EFAFB7B03F10103FB73FB7B022B73
:1006E000CBD907F11007BD4680BD00BF80B582B0F1
:1006F00000AF0346FB71FA7940F21003C2F2000327
:1007000053F82220F97941F2F413C0F6000333F8CC
:1007100011301046194600F0BDFA0346184607F19D
:100720000807BD4680BD00BF80B483B000AF7860CD
:100730007A6840F2F923C0F6000313607A6840F249
:10074000D533C0F6000353607A6840F26533C0F6D3
:10075000000393607A6840F29D33C0F60003D360D3
:100760007A6840F20D43C0F6000313617A6840F2E4
:100770001D53C0F6000353617A6840F28D43C0F602
:10078000000393617A6840F2D543C0F60003D36159
:100790007A6840F26553C0F6000313627A6840F24B
:1007A000C553C0F6000353627A6840F26D63C0F629
:1007B000000393627A6840F2ED63C0F60003D362EF
:1007C00007F10C07BD4680BC704700BF80B500AF85
:1007D00040F21C03C2F200031A6848F21F53C5F22C
:1007E000EB13A3FB02134FEA53131846FFF752FD16
:1007F0000346002B00D0FEE74FF0FF304FF0000122
:10080000FFF71AFD80BD00BF80B485B000AF7860EF
:1008100040F23003C2F200031B68FB6007E040F2C5
:100820003003C2F200031B68FA689A4212D840F201
:100830003003C2F200031A68FB68D21A79684CF6DA
:10084000CD43CCF6CC43A3FB01034FEAD3039A423A
:10085000E5D300E000BF07F11407BD4680BC704738
:1008600080B500AF40F24003C2F200035B684FF076
:100870000000984780BD00BF80B500AF40F2400047
:10088000C2F20000FFF750FF40F24003C2F2000343
:100890001B69984740F24003C2F200039B6A9847E5
:1008A00040F24003C2F200035B6A4FF0000040F6E2
:1008B0006101C0F60001984780BD00BF80B500AF60
:1008C00040F24003C2F20003DB6A4FF00100984798
:1008D0000346002B08D140F24003C2F200039B689C
:1008E0004FF00100984707E040F24003C2F20003D6
:1008F000DB684FF00100984740F24003C2F200036A
:100900005B684FF0030098474FF47A70FFF77CFF65
:1009100080BD00BF80B582B000AF41F21C23C0F69D
:1009200000037B6040F20003C2F200033B600BE077
:100930007B681A683B681A603B6803F104033B60FC
:100940007B6803F104037B603A6840F23003C2F233
:1009500000039A42ECD3084808494FF0000288424D
:10096000B8BF40F8042BFFF6FAAF00F00DF807F11E
:100970000807BD4680BD0000300000207000002048
:1009800080B400AFFEE700BF80B500AF00F0CEF945
:10099000FFF71CFFFFF770FFFFF790FFFCE700BFBA
:1009A00080B483B000AF78600B46FB70FB78002BFF
:1009B0000CD04FF46053C4F202034FF46052C4F2FF
:1009C0000202116B7A680A431A630DE04FF4605318
:1009D000C4F202034FF46052C4F20202116B7A684F
:1009E0006FEA02020A401A6307F10C07BD4680BC99
:1009F000704700BF80B483B000AF78600B46FB70D7
:100A0000FB78002B0CD04FF46053C4F202034FF478
:100A10006052C4F20202516C7A680A435A640DE0D3
:100A20004FF46053C4F202034FF46052C4F2020266
:100A3000516C7A686FEA02020A405A6407F10C07A7
:100A4000BD4680BC704700BF80B400AFBD4680BCCF
:100A5000704700BF80B400AFFEE700BF80B400AFB6
:100A6000FEE700BF80B400AFFEE700BF80B400AF78
:100A7000FEE700BF80B400AFBD4680BC704700BF3A
:100A800080B400AFBD4680BC704700BF80B400AFEB
:100A9000BD4680BC704700BF80B400AF40F2300359
:100AA000C2F200031B6803F1010240F23003C2F2FC
:100AB00000031A60BD4680BC704700BF80B400AF21
:100AC000BD4680BC704700BF80B500AF4FF004004A
:100AD00000F0D6FA0346002B1DD040F23403C2F2D8
:100AE00000035B68002B05D040F23403C2F2000320
:100AF0005B68984740F23403C2F200031B68002B86
:100B000005D040F23403C2F200031B6898474FF04F
:100B1000040000F0E1FA80BD80B500AF4FF0100096
:100B200000F0AEFA0346002B10D040F23403C2F2BC
:100B300000039B68002B05D040F23403C2F200038F
:100B40009B6898474FF0100000F0C6FA80BD00BFC8
:100B500080B487B000AF786039604FF000037B61EC
:100B60004FF000033B614FF00003FB604FF00003C8
:100B70007B6186E07B694FF0010202FA03F33B617F
:100B80003B681A683B691340FB60FA683B699A420C
:100B900073D17B681A687B694FEA43034FF0030106
:100BA00001FA03F36FEA03031A407B681A607B685B
:100BB0001A683B681B7919467B694FEA430301FABF
:100BC00003F31A437B681A603B681B79012B03D03F
:100BD0003B681B79022B34D17B689A687B694FEAAA
:100BE00043034FF0030101FA03F36FEA03031A40D2
:100BF0007B689A607B689A683B685B7919467B6979
:100C00004FEA430301FA03F31A437B689A607B6857
:100C10005A687B699BB24FF0010101FA03F36FEA56
:100C200003031A407B685A607B685A683B689B796B
:100C300019467B699BB201FA03F39BB21A437B68A6
:100C40005A607B68DA687B699BB24FEA43034FF0D6
:100C5000030101FA03F36FEA03031A407B68DA60C9
:100C60007B68DA683B68DB7919467B694FEA4303A6
:100C700001FA03F31A437B68DA607B6903F101032D
:100C80007B617B690F2B7FF675AF07F11C07BD46B3
:100C900080BC704780B485B000AF78600B467B8025
:100CA0004FF00003FB737B681A697B881340002BAD
:100CB00003D04FF00103FB7302E04FF00003FB731E
:100CC000FB7B184607F11407BD4680BC704700BF88
:100CD00080B483B000AF78600B467B807B687A88F5
:100CE0001A8307F10C07BD4680BC704780B483B0FF
:100CF00000AF78600B467B807B687A885A8307F167
:100D00000C07BD4680BC704780B483B000AF7860EC
:100D10000B467B807B685A697B885A407B685A61A6
:100D200007F10C07BD4680BC704700BF80B500AF1F
:100D30004FF46053C4F202034FF46052C4F2020253
:100D4000126842F001021A604FF46053C4F20203C9
:100D50004FF000029A604FF46053C4F202034FF464
:100D60006052C4F20202126822F0847222F48032CD
:100D70001A604FF46053C4F2020343F21002C2F24D
:100D800000425A604FF46053C4F202034FF46052C1
:100D9000C4F20202126822F480221A604FF46053F7
:100DA000C4F202034FF00002DA6000F009F84FF4D9
:100DB0006D43CEF200034FF000629A6080BD00BF29
:100DC00080B483B000AF4FF000037B604FF00003AE
:100DD0003B604FF46053C4F202034FF46052C4F21C
:100DE0000202126842F480321A604FF46053C4F277
:100DF00002031B6803F400333B607B6803F10103CB
:100E00007B603B68002B03D17B68B3F5A06FECD10E
:100E10004FF46053C4F202031B6803F40033002B49
:100E200003D04FF001033B6002E04FF000033B6052
:100E30003B68012B40F082804FF46053C4F2020300
:100E40004FF46052C4F20202126C42F080521A64F3
:100E50004FF4E043C4F200034FF4E042C4F2000256
:100E6000126842F480421A604FF46053C4F20203E5
:100E70004FF46052C4F2020292689A604FF46053D9
:100E8000C4F202034FF46052C4F20202926842F4C8
:100E900000429A604FF46053C4F202034FF4605270
:100EA000C4F20202926842F4A0529A604FF4605376
:100EB000C4F2020345F21442C0F240725A604FF489
:100EC0006053C4F202034FF46052C4F2020212688B
:100ED00042F080721A6000BF4FF46053C4F2020304
:100EE0001B6803F00073002BF6D04FF47053C4F26C
:100EF000020340F205621A604FF46053C4F2020329
:100F00004FF46052C4F20202926822F003029A6027
:100F10004FF46053C4F202034FF46052C4F2020271
:100F2000926842F002029A6000BF4FF46053C4F22C
:100F300002039B6803F00C03082BF6D107F10C07A2
:100F4000BD4680BC704700BF80B485B000AF7860FC
:100F50004FF00003FB604FF47053C4F20103FB60D9
:100F60007B689B79002B78D04FF47053C4F2010357
:100F70004FF47052C4F2010211687A6812686FEA85
:100F800002020A401A604FF47053C4F201034FF496
:100F90007052C4F2010251687A6812686FEA020264
:100FA0000A405A607B681B79FA68D318FB60FB68BB
:100FB000FA6811687A6812680A431A604FF470532D
:100FC000C4F201034FF47052C4F2010291687A68CE
:100FD00012686FEA02020A409A604FF47053C4F23A
:100FE00001034FF47052C4F20102D1687A681268AA
:100FF0006FEA02020A40DA607B685B79102B1AD133
:101000004FF47053C4F201034FF47052C4F2010262
:1010100091687A6812680A439A604FF47053C4F278
:1010200001034FF47052C4F20102D1687A68126869
:101030000A43DA601FE04FF47053C4F20103FB600F
:101040007B685B79FA68D318FB60FB68FA68116803
:101050007A6812680A431A600DE07B681B79FA68A7
:10106000D318FB60FB68FA6811687A6812686FEA47
:1010700002020A401A6007F11407BD4680BC70479F
:1010800080B485B000AF78604FF00003FB734FF081
:101090000003BB604FF47053C4F201031A687B680D
:1010A0001340BB604FF47053C4F201035A697B686C
:1010B0001340002B06D0BB68002B03D04FF0010378
:1010C000FB7302E04FF00003FB73FB7B184607F154
:1010D0001407BD4680BC704780B483B000AF786011
:1010E0004FF47053C4F201037A685A6107F10C0798
:1010F000BD4680BC704700BF80B485B000AF78604B
:101100004FF00003FB734FF00003BB734FF00F036E
:101110007B737B68DB78002B45D04FF46D43CEF2B8
:101120000003DB686FEA030303F4E0634FEA132371
:10113000FB73FB7BC3F10403BB737A7BFB7B42FA3B
:1011400003F37B737B685B781A46BB7B02FA03F37D
:10115000FB737B689A787B7B1340DAB2FB7B13438B
:10116000FB73FB7B4FEA0313FB734FF46143CEF237
:1011700000037A6812789B18FA7B83F800234FF4F7
:101180006143CEF200037A6812784FEA5212D2B26B
:101190007968097801F01F014FF0010000FA01F1B0
:1011A00043F8221014E04FF46143CEF200037A6852
:1011B00012784FEA5212D2B27968097801F01F0111
:1011C0004FF0010000FA01F102F1200243F8221071
:1011D00007F11407BD4680BC704700BF4000800087
:1011E0000001008004000000040000000400000072
:1011F00002000000040004001000000002000000D3
:1012000001000000010000000400040010000000C4
:0C121000010000000202040008080A00AF
:10121C00000802400008024000080240000402409E
:10122C00000402400000024000000240007A030A61
:10123C00000000000000000001020304060708097A
:0400000508000000EF
:00000001FF
