:020000040800F2
:10000000E4080020350A0008C10B0008CD0B0008E9
:10001000D50B0008DD0B0008E50B00080000000010
:10002000000000000000000000000000ED0B0008D0
:10003000F90B000800000000050C0008110C000876
:10004000A10A0008A10A0008A10A0008A10A0008E4
:10005000A10A0008A10A0008350C0008A10A00083E
:10006000410C0008A10A0008910C0008A10A000830
:10007000A10A0008A10A0008A10A0008A10A0008B4
:10008000A10A0008A10A0008A10A0008A10A0008A4
:10009000A10A0008A10A0008A10A0008A10A000894
:1000A000A10A0008A10A0008A10A0008A10A000884
:1000B000A10A0008A10A0008A10A0008A10A000874
:1000C000A10A0008A10A0008A10A0008A10A000864
:1000D000A10A0008A10A0008A10A0008A10A000854
:1000E000A10A0008A10A0008A10A0008A10A000844
:1000F000A10A0008A10A0008A10A0008A10A000834
:10010000A10A0008A10A0008A10A0008A10A000823
:10011000A10A0008A10A0008A10A0008A10A000813
:10012000A10A0008A10A0008A10A0008A10A000803
:10013000A10A0008A10A0008A10A0008A10A0008F3
:10014000A10A0008A10A0008A10A0008A10A0008E3
:10015000A10A0008A10A0008A10A0008A10A0008D3
:10016000A10A0008A10A0008A10A0008A10A0008C3
:10017000A10A0008A10A0008A10A0008A10A0008B3
:10018000A10A0008A10A000890B484B000AF02469A
:100190000B46FA71BB714FF00003FB60BB7903F0B3
:1001A00003034FEA83034FF00F0202FA03F3FB60ED
:1001B0004FF46053C4F20103BA794FEA9202D2B20B
:1001C00010464FF46052C4F20102B9794FEA91012E
:1001D000C9B201F1020152F82110FA686FEA020275
:1001E000114000F1020243F822104FF46053C4F2B0
:1001F0000103BA794FEA9202D2B210464FF460522C
:10020000C4F20102B9794FEA9101C9B201F10201C8
:1002100052F82110FC79BA7902F003024FEA820207
:1002200004FA02F2114300F1020243F8221007F12E
:100230001007BD4690BC704780B483B000AF034642
:100240003960FB7197F90730002B10DA4FF46D43DA
:10025000CEF20003FA7902F00F02A2F104013A682B
:10026000D2B24FEA0212D2B25B181A760DE04FF406
:100270006143CEF2000397F907103A68D2B24FEA11
:100280000212D2B25B1883F8002307F10C07BD46B7
:1002900080BC704780B582B000AF78607A686FF03C
:1002A0007F439A4202D94FF001031FE04EF2100340
:1002B000CEF200037A6822F07F4202F1FF325A60E8
:1002C0004FF0FF304FF00F01FFF7B6FF4EF2100373
:1002D000CEF200034FF000029A604EF21003CEF20D
:1002E00000034FF007021A604FF00003184607F1B1
:1002F0000807BD4680BD00BF80B584B000AF03468F
:10030000FB71FA7941F65873C0F6000353F82230B6
:1003100018464FF0010100F0D5FBFA7941F6507311
:10032000C0F6000333F81230BB604FF001033B739B
:100330004FF00003BB734FF00103FB734FF0020358
:100340007B73FA7940F20003C2F2000353F82220D3
:1003500007F108031046194600F01CFF07F11007CB
:10036000BD4680BD80B582B000AF0346FB71FA790F
:1003700040F20003C2F2000353F82220F97941F65B
:100380005073C0F6000333F811301046194600F0E0
:10039000C1FF07F10807BD4680BD00BF80B582B030
:1003A00000AF0346FB71FA7940F20003C2F200038A
:1003B00053F82220F97941F65073C0F6000333F860
:1003C00011301046194600F0B3FF07F10807BD468B
:1003D00080BD00BF80B582B000AF0346FB71FA79E3
:1003E00040F20003C2F2000353F82220F97941F6EB
:1003F0005073C0F6000333F811301046194600F070
:10040000A5FF07F10807BD4680BD00BF80B584B0D9
:1004100000AF4FF00003FB7330E0FA7B41F65873F6
:10042000C0F6000353F8223018464FF0010100F0E7
:1004300049FBFA7B41F65073C0F6000333F81230E3
:100440007B604FF001033B724FF00003BB724FF033
:100450000103FB724FF002037B72FA7B40F2000350
:10046000C2F2000353F8222007F104031046194694
:1004700000F090FEFB7B03F10103FB73FB7B032B7E
:10048000CBD907F11007BD4680BD00BF80B582B053
:1004900000AF4FF00003FB7115E0FA7940F2000362
:1004A000C2F2000353F82220F97941F65073C0F6E6
:1004B000000333F811301046194600F02BFFFB798A
:1004C00003F10103FB71FB79032BE6D907F1080760
:1004D000BD4680BD80B582B000AF4FF00003FB7118
:1004E00015E0FA7940F20003C2F2000353F822202B
:1004F000F97941F65073C0F6000333F81130104615
:10050000194600F015FFFB7903F10103FB71FB793C
:10051000032BE6D907F10807BD4680BD80B582B040
:1005200000AF4FF00003FB7115E0FA7940F20003D1
:10053000C2F2000353F82220F97941F65073C0F655
:10054000000333F811301046194600F0FFFEFB7926
:1005500003F10103FB71FB79032BE6D907F10807CF
:10056000BD4680BD80B584B000AF0346FB71FA790B
:1005700041F67073C0F6000353F8223018464FF06E
:10058000010100F09FFA4FF000033B734FF00003AE
:10059000FB73FA7941F66873C0F6000333F8123042
:1005A000BB60FA7940F21003C2F2000353F8222034
:1005B00007F108031046194600F0ECFD07F110079B
:1005C000BD4680BD80B586B000AF03463960FB7183
:1005D0004FF480404FF0010100F0C8FAFA7941F67B
:1005E0008473C0F600039A5CF97941F68873C0F60B
:1005F00000035B5C10461946FFF7C6FDFA7941F629
:100600007C73C0F6000333F812303B614FF00003F7
:100610003B754FF008037B754FF00103BB7507F185
:100620001003184601F006F8FA7941F68C73C0F60B
:1006300000039B5C3B734FF00F037B734FF00F0382
:10064000BB734FF00103FB7307F10C03184601F075
:10065000C9F8FA7940F28C03C2F20003396843F812
:10066000221007F11807BD4680BD00BF80B584B0D9
:1006700000AF4FF00003FB7330E0FA7B41F670737C
:10068000C0F6000353F8223018464FF0010100F085
:1006900019FA4FF480404FF0010100F067FA4FF073
:1006A00000033B724FF00003FB72FA7B41F6687364
:1006B000C0F6000333F812307B60FA7B40F210037F
:1006C000C2F2000353F8222007F104031046194632
:1006D00000F060FDFB7B03F10103FB73FB7B022B4E
:1006E000CBD907F11007BD4680BD00BF80B582B0F1
:1006F00000AF0346FB71FA7940F21003C2F2000327
:1007000053F82220F97941F66873C0F6000333F8F4
:1007100011301046194600F0DFFD0346184607F178
:100720000807BD4680BD00BF80B483B000AF7860CD
:100730007A6840F2F923C0F6000313607A6840F249
:10074000D533C0F6000353607A6840F26533C0F6D3
:10075000000393607A6840F29D33C0F60003D360D3
:100760007A6840F20D43C0F6000313617A6840F2E4
:100770001D53C0F6000353617A6840F28D43C0F602
:10078000000393617A6840F2D543C0F60003D36159
:100790007A6840F26553C0F6000313627A6840F24B
:1007A000C553C0F6000353627A6840F26D63C0F629
:1007B000000393627A6840F2ED63C0F60003D362EF
:1007C00007F10C07BD4680BC704700BF80B500AF85
:1007D00040F26C03C2F200031A6848F21F53C5F2DC
:1007E000EB13A3FB02134FEA53131846FFF752FD16
:1007F0000346002B00D0FEE74FF0FF304FF0000122
:10080000FFF71AFD80BD00BF80B485B000AF7860EF
:1008100040F28003C2F200031B68FB6007E040F275
:100820008003C2F200031B68FA689A4212D840F2B1
:100830008003C2F200031A68FB68D21A79684CF68A
:10084000CD43CCF6CC43A3FB01034FEAD3039A423A
:10085000E5D300E000BF07F11407BD4680BC704738
:1008600080B500AF40F29803C2F200035B684FF01E
:100870000000984780BD00BF80B582B000AF40F255
:100880009800C2F20000FFF74FFF40F29803C2F257
:1008900000031B69984740F29803C2F200039B6A69
:1008A000984740F29803C2F200031B6A4FF0010020
:1008B000984740F29803C2F200035B6A4FF00100D0
:1008C00040F66101C0F6000198474FF001037B60DC
:1008D00009E07B6818464FF0000100F0F5F97B68ED
:1008E00003F101037B607B68132BF2DD4FF0000006
:1008F0004FF0010100F0E8F907F10807BD4680BD9F
:1009000080B582B000AF40F29803C2F20003DB6A08
:100910004FF0020098470346002B08D140F298039D
:10092000C2F200039B684FF00100984707E040F2D5
:100930009803C2F20003DB684FF0010098474FF0C4
:10094000000000F0F3FA0346002B08D040F29803B1
:10095000C2F200039B684FF00200984707E040F2A4
:100960009803C2F20003DB684FF00200984740F2A0
:100970009803C2F200035B684FF0030098474FF002
:1009800001037B6018E07B68032B11D040F28403E5
:10099000C2F200031B68002B05D078684FF00101FC
:1009A00000F01EFA04E078684FF0000100F018FA39
:1009B0007B6803F101037B607B68132BE3D940F272
:1009C0008803C2F200031B6803F57A7240F28803C1
:1009D000C2F200031A6040F28803C2F200031B68EF
:1009E0004FF00300194600F0BDFA40F28803C2F24E
:1009F00000031A684FF6E8539A4206D140F2880382
:100A0000C2F200034FF000021A6040F28403C2F207
:100A100000031B6883F0010240F28403C2F200036A
:100A20001A604FF06400FFF7EFFE07F10807BD46BC
:100A300080BD00BF80B582B000AF42F25803C0F65F
:100A400000037B6040F20003C2F200033B600BE056
:100A50007B681A683B681A603B6803F104033B60DB
:100A60007B6803F104037B603A6840F28003C2F2C2
:100A700000039A42ECD3084808494FF0000288422C
:100A8000B8BF40F8042BFFF6FAAF00F00DF807F1FD
:100A90000807BD4680BD000080000020E80000205F
:100AA00080B400AFFEE700BF80B500AF00F0B4FC3B
:100AB000FFF78CFE00F0A0FAFFF7DEFEFFF720FF45
:100AC000FCE700BF80B483B000AF78600B46FB70DA
:100AD000FB78002B0CD04FF46053C4F202034FF4A8
:100AE0006052C4F20202116B7A680A431A630DE085
:100AF0004FF46053C4F202034FF46052C4F2020296
:100B0000116B7A686FEA02020A401A6307F10C0758
:100B1000BD4680BC704700BF80B483B000AF786032
:100B20000B46FB70FB78002B0CD04FF46053C4F2E3
:100B300002034FF46052C4F20202116C7A680A4355
:100B40001A640DE04FF46053C4F202034FF4605294
:100B5000C4F20202116C7A686FEA02020A401A6457
:100B600007F10C07BD4680BC704700BF80B483B05E
:100B700000AF78600B46FB70FB78002B0CD04FF475
:100B80006053C4F202034FF46052C4F20202516C8B
:100B90007A680A435A640DE04FF46053C4F20203CA
:100BA0004FF46052C4F20202516C7A686FEA02029A
:100BB0000A405A6407F10C07BD4680BC704700BF6D
:100BC00080B400AFBD4680BC704700BF80B400AFAA
:100BD000FEE700BF80B400AFFEE700BF80B400AF07
:100BE000FEE700BF80B400AFFEE700BF80B400AFF7
:100BF000BD4680BC704700BF80B400AFBD4680BC1E
:100C0000704700BF80B400AFBD4680BC704700BFD6
:100C100080B400AF40F28003C2F200031B6803F10E
:100C2000010240F28003C2F200031A60BD4680BC9C
:100C3000704700BF80B400AFBD4680BC704700BFA6
:100C400080B500AF4FF0040000F090FD0346002B8C
:100C50001DD040F28C03C2F200035B68002B05D06C
:100C600040F28C03C2F200035B68984740F28C03A9
:100C7000C2F200031B68002B05D040F28C03C2F2C5
:100C800000031B6898474FF0040000F09BFD80BDF7
:100C900080B500AF4FF0100000F068FD0346002B58
:100CA00010D040F28C03C2F200039B68002B05D0E9
:100CB00040F28C03C2F200039B6898474FF010008B
:100CC00000F080FD80BD00BF80B584B000AF7860CB
:100CD0000B46FB7041F6B873C0F600037A6853F810
:100CE000223018464FF00101FFF7ECFE41F69073F9
:100CF000C0F600037A6833F81230BB604FF003038C
:100D00007B737B68032B08D07B68052B05D07B6841
:100D1000062B02D07B68092B2BD14FF002033B73CB
:100D20004FF00003BB734FF00103FB7340F21C0351
:100D3000C2F200037A6853F8222007F10803104634
:100D4000194600F027FA40F21C03C2F200037A6849
:100D500053F8222042F20803C0F60003796853F8E2
:100D600021309BB2104619464FF0020200F000FB02
:100D700032E0FB78012B0DD0022B15D0002B1DD1BA
:100D80004FF001033B734FF00003BB734FF00103BF
:100D9000FB7314E04FF000033B734FF00103BB7390
:100DA0004FF00003FB730AE04FF000033B734FF07A
:100DB0000003BB734FF00103FB7300E000BF40F280
:100DC0001C03C2F200037A6853F8222007F10803DB
:100DD0001046194600F0DEF907F11007BD4680BD48
:100DE00080B582B000AF78600B46FB707B68032B48
:100DF00008D07B68052B05D07B68062B02D07B686A
:100E0000092B64D17B68A3F10303062B00F28880D1
:100E100001A252F823F000BF350E0008210F000890
:100E20005B0E0008810E0008210F0008210F00084A
:100E3000A70E0008FB78012B07D14FF40063C4F222
:100E400000034FF6FF725A6340E04FF40063C4F2B0
:100E500000034FF000025A6338E0FB78012B07D102
:100E60004FF40063C4F200034FF6FF729A632DE063
:100E70004FF40063C4F200034FF000029A6325E0D0
:100E8000FB78012B07D14FF40063C4F200034FF647
:100E9000FF72DA631AE04FF40063C4F200034FF00C
:100EA0000002DA6312E0FB78012B07D14FF40063F4
:100EB000C4F200034FF6FF721A6406E04FF40063B9
:100EC000C4F200034FF000021A6400BF28E0FB7870
:100ED000012B12D140F21C03C2F200037A6853F8CE
:100EE000222041F69073C0F60003796833F8113080
:100EF0001046194600F00EFA13E040F21C03C2F24D
:100F000000037A6853F8222041F69073C0F600037C
:100F1000796833F811301046194600F009FA00E0FC
:100F200000BF07F10807BD4680BD00BF80B582B095
:100F300000AF786040F21C03C2F200037A6853F8F5
:100F4000222041F69073C0F60003796833F811301F
:100F50001046194600F0C0F90346184607F1080785
:100F6000BD4680BD80B483B000AF786039607B68D7
:100F7000032B08D07B68052B05D07B68062B02D09D
:100F80007B68092B32D17B68A3F10303062B2DD894
:100F900001A252F823F000BFB50F0008ED0F0008C2
:100FA000C30F0008D10F0008ED0F0008ED0F000877
:100FB000DF0F00084FF40063C4F200033A685A637D
:100FC00014E04FF40063C4F200033A689A630DE042
:100FD0004FF40063C4F200033A68DA6306E04FF4AA
:100FE0000063C4F200033A681A6400BF07F10C07FB
:100FF000BD4680BC704700BF80B500AF4FF0040015
:101000004FF00101FFF788FD40F2C803C2F2000370
:101010004FF6FF725A6040F2C803C2F200034FF06D
:1010200000021A8040F2C803C2F200034FF000022F
:101030001A8140F2C803C2F200034FF000025A8046
:101040004FF40060C4F2000040F2C801C2F2000197
:1010500000F03AFC40F2D403C2F200034FF0600209
:101060001A8040F2D403C2F200034FF000029A81CA
:1010700040F2D403C2F200034FF001025A8040F262
:10108000D403C2F200034FF000029A604FF40060F4
:10109000C4F2000040F2D401C2F2000100F0CEFC24
:1010A0004FF40060C4F200004FF0080100F0D8FED9
:1010B00040F2D403C2F200034FF001025A8040F222
:1010C000D403C2F200034FF000029A604FF40060B4
:1010D000C4F2000040F2D401C2F2000100F02CFD85
:1010E0004FF40060C4F200004FF0080100F0D4FE9D
:1010F00040F2D403C2F200034FF001025A8040F2E2
:10110000D403C2F200034FF000029A604FF4006073
:10111000C4F2000040F2D401C2F2000100F0A0FDD0
:101120004FF40060C4F200004FF0080100F0D4FE5C
:1011300040F2D403C2F200034FF001025A8040F2A1
:10114000D403C2F200034FF000029A604FF4006033
:10115000C4F2000040F2D401C2F2000100F010FE1F
:101160004FF40060C4F200004FF0080100F0D0FE20
:101170004FF40060C4F200004FF0010100F01EFCCB
:101180004FF40060C4F200004FF0010100F036FCA3
:1011900080BD00BF80B487B000AF786039604FF089
:1011A00000037B614FF000033B614FF00003FB60E5
:1011B0004FF000037B6186E07B694FF0010202FA89
:1011C00003F33B613B681A683B691340FB60FA68B4
:1011D0003B699A4273D17B681A687B694FEA430383
:1011E0004FF0030101FA03F36FEA03031A407B682F
:1011F0001A607B681A683B681B7919467B694FEA5D
:10120000430301FA03F31A437B681A603B681B79B6
:10121000012B03D03B681B79022B34D17B689A6881
:101220007B694FEA43034FF0030101FA03F36FEACE
:1012300003031A407B689A607B689A683B685B7915
:1012400019467B694FEA430301FA03F31A437B68AB
:101250009A607B685A687B699BB24FF0010101FA82
:1012600003F36FEA03031A407B685A607B685A688D
:101270003B689B7919467B699BB201FA03F39BB2E9
:101280001A437B685A607B68DA687B699BB24FEAD5
:1012900043034FF0030101FA03F36FEA03031A401B
:1012A0007B68DA607B68DA683B68DB7919467B69C2
:1012B0004FEA430301FA03F31A437B68DA607B6960
:1012C00003F101037B617B690F2B7FF675AF07F19B
:1012D0001C07BD4680BC704780B485B000AF786005
:1012E0000B467B804FF00003FB737B681A697B8899
:1012F0001340002B03D04FF00103FB7302E04FF0CB
:101300000003FB73FB7B184607F11407BD4680BC46
:10131000704700BF80B483B000AF78600B467B801D
:101320007B687A881A8307F10C07BD4680BC70473A
:1013300080B483B000AF78600B467B807B687A888E
:101340005A8307F10C07BD4680BC704780B483B058
:1013500000AF78600B467B807B685A697B885A4077
:101360007B685A6107F10C07BD4680BC704700BF1F
:1013700080B485B000AF786013460A467A807B70EF
:101380004FF00003FB604FF00003BB607A787B886E
:1013900003F007034FEA830302FA03F3FB607B8841
:1013A0004FEAD3039BB21A467B884FEAD3039BB222
:1013B00019467B6801F1080153F821107B8803F07E
:1013C00007034FEA83034FF00F0000FA03F36FEABD
:1013D000030319407B6802F1080243F822107B885E
:1013E0004FEAD3039BB21A467B6802F1080253F816
:1013F0002220FB681343BB607B884FEAD3039BB278
:101400001A467B6802F10802B96843F8221007F116
:101410001407BD4680BC704780B500AF4FF46053E1
:10142000C4F202034FF46052C4F20202126842F0A6
:1014300001021A604FF46053C4F202034FF000023D
:101440009A604FF46053C4F202034FF46052C4F246
:101450000202126822F0847222F480321A604FF481
:101460006053C4F2020343F21002C2F200425A6017
:101470004FF46053C4F202034FF46052C4F202020C
:10148000126822F480221A604FF46053C4F20203FF
:101490004FF00002DA6000F009F84FF46D43CEF22D
:1014A00000034FF000629A6080BD00BF80B483B03B
:1014B00000AF4FF000037B604FF000033B604FF440
:1014C0006053C4F202034FF46052C4F20202126885
:1014D00042F480321A604FF46053C4F202031B6876
:1014E00003F400333B607B6803F101037B603B68DE
:1014F000002B03D17B68B3F5A06FECD14FF46053A0
:10150000C4F202031B6803F40033002B03D04FF036
:1015100001033B6002E04FF000033B603B68012B9E
:1015200040F082804FF46053C4F202034FF46052E3
:10153000C4F20202126C42F080521A644FF4E0438B
:10154000C4F200034FF4E042C4F20002126842F415
:1015500080421A604FF46053C4F202034FF46052A9
:10156000C4F2020292689A604FF46053C4F202031C
:101570004FF46052C4F20202926842F400429A6050
:101580004FF46053C4F202034FF46052C4F20202FB
:10159000926842F4A0529A604FF46053C4F202037E
:1015A00045F21942C0F240725A604FF46053C4F2DF
:1015B00002034FF46052C4F20202126842F08072D9
:1015C0001A6000BF4FF46053C4F202031B6803F0BB
:1015D0000073002BF6D04FF47053C4F2020340F2B4
:1015E00005621A604FF46053C4F202034FF4605274
:1015F000C4F20202926822F003029A604FF4605330
:10160000C4F202034FF46052C4F20202926842F044
:1016100002029A6000BF4FF46053C4F202039B6859
:1016200003F00C03082BF6D107F10C07BD4680BC74
:10163000704700BF80B485B000AF78604FF0000302
:10164000FB604FF47053C4F20103FB607B689B792D
:10165000002B78D04FF47053C4F201034FF4705252
:10166000C4F2010211687A6812686FEA02020A4045
:101670001A604FF47053C4F201034FF47052C4F275
:10168000010251687A6812686FEA02020A405A60E1
:101690007B681B79FA68D318FB60FB68FA681168ED
:1016A0007A6812680A431A604FF47053C4F2010357
:1016B0004FF47052C4F2010291687A6812686FEABE
:1016C00002020A409A604FF47053C4F201034FF4CF
:1016D0007052C4F20102D1687A6812686FEA02029D
:1016E0000A40DA607B685B79102B1AD14FF4705393
:1016F000C4F201034FF47052C4F2010291687A6897
:1017000012680A439A604FF47053C4F201034FF415
:101710007052C4F20102D1687A6812680A43DA6032
:101720001FE04FF47053C4F20103FB607B685B79E8
:10173000FA68D318FB60FB68FA6811687A68126867
:101740000A431A600DE07B681B79FA68D318FB60C6
:10175000FB68FA6811687A6812686FEA02020A4048
:101760001A6007F11407BD4680BC704780B485B08D
:1017700000AF78604FF00003FB734FF00003BB60D5
:101780004FF47053C4F201031A687B681340BB60C6
:101790004FF47053C4F201035A697B681340002B65
:1017A00006D0BB68002B03D04FF00103FB7302E0AF
:1017B0004FF00003FB73FB7B184607F11407BD468F
:1017C00080BC704780B483B000AF78604FF4705332
:1017D000C4F201037A685A6107F10C07BD4680BC68
:1017E000704700BF80B485B000AF78604FF0000351
:1017F000FB734FF00003BB734FF00F037B737B68E9
:10180000DB78002B45D04FF46D43CEF20003DB684C
:101810006FEA030303F4E0634FEA1323FB73FB7BDC
:10182000C3F10403BB737A7BFB7B42FA03F37B7344
:101830007B685B781A46BB7B02FA03F3FB737B6819
:101840009A787B7B1340DAB2FB7B1343FB73FB7B01
:101850004FEA0313FB734FF46143CEF200037A683F
:1018600012789B18FA7B83F800234FF46143CEF281
:1018700000037A6812784FEA5212D2B27968097876
:1018800001F01F014FF0010000FA01F143F82210AE
:1018900014E04FF46143CEF200037A6812784FEA05
:1018A0005212D2B27968097801F01F014FF001009D
:1018B00000FA01F102F1200243F8221007F11407A7
:1018C000BD4680BC704700BF80B485B000AF786073
:1018D00039604FF00003FB817B681B88FB817A68CD
:1018E0004FF00003C4F201039A421FD07A684FF40C
:1018F0008063C4F201039A4218D07B68B3F1804F31
:1019000014D07A684FF48063C4F200039A420DD079
:101910007A684FF40063C4F200039A4206D07A68F2
:101920004FF44063C4F200039A4208D1FB8923F0CC
:101930007003FB813B685A88FB891343FB817A68FB
:101940004FF48053C4F200039A420FD07A684FF4E8
:10195000A053C4F200039A4208D0FB8923F44073D9
:10196000FB813B681A89FB891343FB817B68FA89F9
:101970001A803B685A687B68DA623B681A887B6821
:101980001A857A684FF00003C4F201039A4206D028
:101990007A684FF48063C4F201039A4204D13B6831
:1019A0009B7A1A467B681A867B684FF001029A82FE
:1019B00007F11407BD4680BC704700BF80B483B0F8
:1019C00000AF78600B46FB70FB78002B08D07B687B
:1019D0001B889BB243F080039AB27B681A8007E0B1
:1019E0007B681B889BB223F080039AB27B681A80C5
:1019F00007F10C07BD4680BC704700BF80B483B0C0
:101A000000AF78600B46FB70FB78002B08D07B683A
:101A10001B889BB243F001039AB27B681A8007E0EF
:101A20007B681B889BB223F001039AB27B681A8003
:101A300007F10C07BD4680BC704700BF80B485B07D
:101A400000AF786039604FF000037B814FF00003F6
:101A5000FB814FF00003BB817B681B8C9BB223F0A2
:101A600001039AB27B681A847B681B8CFB817B68BC
:101A70009B88BB817B681B8B7B817B8923F07003F8
:101A80007B817B8923F003037B813B681A887B89F8
:101A900013437B81FB8923F00203FB813B689A8916
:101AA000FB891343FB813B685A88FB891343FB8105
:101AB0007A684FF00003C4F201039A4206D07A68B4
:101AC0004FF48063C4F201039A4223D1FB8923F0CF
:101AD0000803FB813B68DA89FB891343FB81FB899F
:101AE00023F00403FB813B689A88FB891343FB8145
:101AF000BB8923F48073BB81BB8923F40073BB8152
:101B00003B681A8ABB891343BB813B685A8ABB89ED
:101B10001343BB817B68BA899A807B687A891A8370
:101B20003B689A687B685A637B68FA891A8407F174
:101B30001407BD4680BC704780B485B000AF7860A4
:101B400039604FF000037B814FF00003FB814FF0C1
:101B50000003BB817B681B8C9BB223F010039AB2FD
:101B60007B681A847B681B8CFB817B689B88BB81AC
:101B70007B681B8B7B817B8923F4E0437B817B89A2
:101B800023F440737B813B681B884FEA03239AB29E
:101B90007B8913437B81FB8923F02003FB813B6816
:101BA0009B894FEA03139AB2FB891343FB813B687D
:101BB0005B884FEA03139AB2FB891343FB817A686F
:101BC0004FF00003C4F201039A4206D07A684FF442
:101BD0008063C4F201039A422FD1FB8923F0800372
:101BE000FB813B68DB894FEA03139AB2FB891343FD
:101BF000FB81FB8923F04003FB813B689B884FEA14
:101C000003139AB2FB891343FB81BB8923F48063DE
:101C1000BB81BB8923F40063BB813B681B8A4FEA0D
:101C200083039AB2BB891343BB813B685B8A4FEA4B
:101C300083039AB2BB891343BB817B68BA899A80BC
:101C40007B687A891A833B689A687B689A637B68A9
:101C5000FA891A8407F11407BD4680BC704700BF9B
:101C600080B485B000AF786039604FF000037B81AD
:101C70004FF00003FB814FF00003BB817B681B8C9E
:101C80009BB223F480739AB27B681A847B681B8CA6
:101C9000FB817B689B88BB817B689B8B7B817B897D
:101CA00023F070037B817B8923F003037B813B68F6
:101CB0001A887B8913437B81FB8923F40073FB81A2
:101CC0003B689B894FEA03239AB2FB891343FB814C
:101CD0003B685B884FEA03239AB2FB891343FB817D
:101CE0007A684FF00003C4F201039A4206D07A6882
:101CF0004FF48063C4F201039A422FD1FB8923F48D
:101D00000063FB813B68DB894FEA03239AB2FB89BE
:101D10001343FB81FB8923F48063FB813B689B8831
:101D20004FEA03239AB2FB891343FB81BB8923F457
:101D30008053BB81BB8923F40053BB813B681B8A62
:101D40004FEA03139AB2BB891343BB813B685B8A9A
:101D50004FEA03139AB2BB891343BB817B68BA89EC
:101D60009A807B687A899A833B689A687B68DA6391
:101D70007B68FA891A8407F11407BD4680BC704756
:101D800080B485B000AF786039604FF00003BB814C
:101D90004FF000037B814FF00003FB817B681B8CBD
:101DA0009BB223F480539AB27B681A847B681B8CA5
:101DB0007B817B689B88FB817B689B8BBB81BB891C
:101DC00023F4E043BB81BB8923F44073BB813B68B0
:101DD0001B884FEA03239AB2BB891343BB817B89DB
:101DE00023F400537B813B689B894FEA03339AB20B
:101DF0007B8913437B813B685B884FEA03339AB24C
:101E00007B8913437B817A684FF00003C4F201039E
:101E10009A4206D07A684FF48063C4F201039A4272
:101E20000BD1FB8923F48043FB813B681B8A4FEA7B
:101E300083139AB2FB891343FB817B68FA899A80EA
:101E40007B68BA899A833B689A687B681A647B6866
:101E50007A891A8407F11407BD4680BC704700BF19
:101E600080B485B000AF78600B467B804FF00003F4
:101E7000FB817B681B8BFB81FB8923F00803FB81C3
:101E8000FA897B881343FB817B68FA891A8307F1FF
:101E90001407BD4680BC704780B485B000AF786041
:101EA0000B467B804FF00003FB817B681B8BFB8123
:101EB000FB8923F40063FB817B884FEA03239AB2FA
:101EC000FB891343FB817B68FA891A8307F11407A6
:101ED000BD4680BC704700BF80B485B000AF78605D
:101EE0000B467B804FF00003FB817B689B8BFB8163
:101EF000FB8923F00803FB81FA897B881343FB816C
:101F00007B68FA899A8307F11407BD4680BC704745
:101F100080B485B000AF78600B467B804FF0000343
:101F2000FB817B689B8BFB81FB8923F40063FB8136
:101F30007B884FEA03239AB2FB891343FB817B68BA
:101F4000FA899A8307F11407BD4680BC704700BF29
:101F50004000800000010080040000000400000038
:101F60000400000002000000040004001000000053
:101F70000200000001000000010000000400040055
:101F800010000000010000000202040008080A001E
:101F900002000100400040008000800000011000AD
:101FA0002000000200800010000800040020004013
:101FB000008002000002000101000000010000009A
:101FC000010000000200000001000000020000000B
:101FD00002000000040000000400000002000000F5
:101FE00001000000040000000400000004000000E4
:101FF00004000000040000000400000004000000D1
:1020000004000000010000000100000000000000CA
:1020100006000000060000000700000007000000A6
:102020000800000004000000050000000900000096
:102030000F0000000C0000000B0000000A00000070
:102040000D0000000E0000000F0000000100000065
:08205000090000000800000077
:102058000008024000080240000802400004024054
:10206800000402400000024000000240000002405C
:10207800000002400000024000040240000002404C
:102088000004024000040240000802400008024028
:10209800000402400000024000080240000802401C
:1020A8000008024000080240000802400008024000
:1020B800000802400008024000000240007A030ABB
:1020C80000000000000000000102030406070809E0
:0400000508000000EF
:00000001FF
