:020000040800F2
:10000000942C002099200008352A0008412A000875
:10001000492A0008512A0008592A00080000000057
:10002000000000000000000000000000612A00083D
:100030006D2A000800000000792A0008852A0008BF
:1000400005210008052100080521000805210008F8
:100050000521000805210008A92A0008052100083B
:10006000B52A000805210008252B000805210008F5
:1000700005210008052100080521000805210008C8
:1000800005210008052100080521000805210008B8
:1000900005210008052100080521000805210008A8
:1000A0000521000805210008052100080521000898
:1000B0000521000805210008052100080521000888
:1000C0000521000805210008052100080521000878
:1000D0000521000805210008052100080521000868
:1000E0000521000805210008052100080521000858
:1000F0000521000805210008052100080521000848
:100100000521000805210008052100080521000837
:100110000521000805210008052100080521000827
:100120000521000805210008052100080521000817
:100130000521000805210008052100080521000807
:1001400005210008052100080521000805210008F7
:1001500005210008052100080521000805210008E7
:100160000521000805210008DD2B0008C92B000827
:10017000712B0008B52B0008052100080521000897
:10018000052100080521000810B5054C237833B976
:10019000044810B10448AFF300800121217010BD64
:1001A000A00A0020000000006CB8010808B5064B4A
:1001B0001BB106480649AFF300800648016811B13B
:1001C000054A02B1904708BD000000006CB8010864
:1001D000A40A0020980A002000000000154B002B04
:1001E00008BF134B9D46A3F5803A00218B460F466E
:1001F0001348144A121A09F05DFD0F4B002B00D072
:1002000098470E4B002B00D0984700200021044651
:100210000D4600200C490022002308F0D9FF09F008
:1002200075F82046294602F019FB09F037F800BF9F
:100230000000080000000220000000000000000094
:10024000A00A002094240020BD92000880B485B04C
:1002500000AF78604FF00003FB607B68DB684FF015
:10026000FF325A607B68DB684FF0FF325A61FB68EF
:1002700043F00043FB60FB6843F40063FB607B6872
:10028000DB68FA689A6107F11407BD4680BC7047C5
:1002900080B586B000AF78604FF00003FB744FF07C
:1002A00000037B614FF00003FB604FF0030004F09C
:1002B0004BF97B68DB681B69FB607B6903F1010319
:1002C0007B617A694FF45463C0F203039A4202D906
:1002D0004FF000032AE0FB6803F00043002BE4D05A
:1002E0004FF000037B61FB6843F00103FB607B6818
:1002F000DB68FA681A617B68DB681B69FB607B69F5
:1003000003F101037B617A694FF45463C0F2030384
:100310009A4205D8FB6803F00103002BEBD100E003
:1003200000BF4FF0030004F00FF9FB7C184607F103
:100330001807BD4680BD00BF80B489B000AFF8602B
:10034000B960FA71BB804FF00003FB76FB68DB7885
:10035000002B2CD14FF000037B614FF00003FB61B9
:10036000BB8803F10303002B01DA03F103034FEA17
:10037000A3037B61FB79FA6803F132034FEA83033D
:10038000D3189B683B614FF00003FB610BE0BB6837
:100390001A683B691A60FB6903F10103FB61BB68E2
:1003A00003F10403BB60FA697B699A42EFD3FB7ED9
:1003B000184607F12407BD4680BC704780B489B059
:1003C00000AFF860B9601346FB804FF00003FB619B
:1003D000FB8803F10303002B01DA03F103034FEA67
:1003E000A303BB61FB68D3F8D0307B614FF00003FF
:1003F000FB610BE07B691A68BB681A60FB6903F15B
:100400000103FB61BB6803F10403BB60FA69BB69CC
:100410009A42EFD3BB68184607F12407BD4680BC5B
:10042000704700BF80B487B000AF78600B46FB70A8
:100430004FF000033B614FF00003FB737B684FF00C
:100440000002DA707B684FF001029A707B684FF00F
:1004500040029A80FB78012B17D14FF0A0433B61FB
:100460007B684FF00102DA727B684FF008021A7065
:100470007B684FF004025A707B684FF4A072DA80F8
:100480007B684FF002021A721BE0FB78002B18D138
:100490004FF00003C4F204033B617B684FF000029D
:1004A000DA727B684FF00C021A707B684FF006021C
:1004B0005A707B684FF4A062DA807B684FF00102CB
:1004C0001A723A697B68DA603B6903F500631A4681
:1004D0007B681A614FF000037B6123E07B694FEA80
:1004E00043123B69D31803F510631A4679687B6998
:1004F00003F104034FEA8303CB189A607B694FEA48
:1005000043123B69D31803F530631A4679687B6957
:1005100003F114034FEA8303CB185A607B6903F19C
:1005200001037B617B685B781A467B699A42D5D868
:100530003B6903F580631A467B685A613B6903F5A2
:1005400088631A467B68C3F8CC204FF000037B61B8
:1005500013E07B694FEA43123B69D31803F5A063AC
:100560001A4679687B6903F122034FEA8303CB18AB
:100570009A607B6903F101037B617B681B781A46F3
:100580007B699A42E5D84FF000037B6113E07B69F9
:100590004FEA03323B69D31803F580531A46796852
:1005A0007B6903F132034FEA8303CB189A607B69BE
:1005B00003F101037B617B681B781A467B699A42D1
:1005C000E5D83B6903F560631A467B68C3F80C21E4
:1005D000FB7B184607F11C07BD4680BC704700BF77
:1005E00080B588B000AF78604FF00003FB774FF024
:1005F0000003BB614FF000037B614FF00003FB6021
:100600007B681B7A012B51D17B68DB689B6B7B611C
:100610007B696FF310437B617B685B7A002B03D0AF
:100620007B6943F480137B617B68DB687A699A633A
:100630004FF00003BB617B68DB68DB68BB61BB69B3
:100640006FF38613BB61BB696FF39653BB61BB69E4
:1006500043F01003BB61BB696FF3C303BB61BB69AC
:100660006FF3C713BB61BB696FF35143BB61BB69D8
:100670006FF3D343BB617B68DB68BA69DA60786883
:10068000FFF706FE7B68DB78012B40F08980FB6872
:100690004FF0050262F34403FB60FB6843F0200364
:1006A000FB607B68DB68FA689A6079E07B68DB68EE
:1006B000DB68BB61BB6943F04003BB617B68DB68FF
:1006C000BA69DA607868FFF7E3FD4FF000037B61F9
:1006D0007B6943F480337B617B681B7A032B03D1F6
:1006E0007B6943F400337B617B6943F480237B6146
:1006F0007B6943F400237B617B6943F400137B61D6
:100700007B685B7A002B03D07B6943F480137B61A9
:100710007B68DB687A699A634FF0140003F040FF4E
:100720007B68DB68DB68BB617B681B7A032B03D1CA
:10073000BB6943F48033BB617B68DB68BA69DA600C
:100740007B681B7A032B2BD17B68DB681B6B3B61BF
:100750003B694FF0010262F39B633B613B696FF3BE
:10076000D7533B613B6943F080533B613B694FF09A
:100770002D0262F316433B617B68DB683A691A63BA
:100780004FF0C80003F00CFF3B6943F400033B61EA
:100790007B68DB683A691A634FF0C80003F000FF1A
:1007A0007B68DB78012B11D17B68DB689B68FB6081
:1007B000FB684FF0050262F34403FB60FB6843F003
:1007C0002003FB607B68DB68FA689A60FB7F184651
:1007D00007F12007BD4680BD80B485B000AF7860CA
:1007E0004FF00003FB734FF00003BB60BB6843F0A6
:1007F0000103BB607B68DB687A68D2689168BA687D
:100800000A439A60FB7B184607F11407BD4680BC7B
:10081000704700BF80B485B000AF78604FF0000330
:10082000FB734FF00003BB60BB6843F00103BB6088
:100830007B68DB687A68D2689168BA686FEA0202FE
:100840000A409A60FB7B184607F11407BD4680BC3E
:10085000704700BF80B586B000AF786039604FF058
:100860000003FB744FF000037B614FF00003FB605B
:10087000FB6843F02003FB603B68DBB203F01F031F
:10088000DAB2FB6862F38A13FB607B68DB68FA68A4
:100890001A617B68DB681B69FB607B6903F10103FC
:1008A0007B617A694FF45463C0F203039A4205D81E
:1008B000FB6803F02003002BEBD100E000BF4FF0FA
:1008C000030003F041FEFB7C184607F11807BD4604
:1008D00080BD00BF80B586B000AF78604FF00003E8
:1008E000FB744FF000037B614FF00003FB60FB687B
:1008F00043F01003FB607B68DB68FA681A617B6871
:10090000DB681B69FB607B6903F101037B617A692A
:100910004FF45463C0F203039A4205D8FB6803F016
:100920001003002BEBD100E000BF4FF0030003F0F9
:100930000BFEFB7C184607F11807BD4680BD00BFC3
:1009400080B584B000AF78600B46FB704FF00003B9
:10095000FB737B68DB68DB68BB60BB686FF35D7350
:10096000BB60BB686FF39E73BB60FB78012B04D147
:10097000BB6843F00053BB6006E0FB78002B03D15B
:10098000BB6843F08043BB607B68DB68BA68DA60B1
:100990004FF0320003F004FEFB7B184607F110070E
:1009A000BD4680BD80B483B000AF78607B68DB68F3
:1009B0005B6903F00103184607F10C07BD4680BCD4
:1009C000704700BF80B582B000AF78607868FFF7ED
:1009D000E9FF0346012B0CBF00230123DBB21846BD
:1009E00007F10807BD4680BD80B485B000AF7860D0
:1009F0004FF00003FB607B68DB685B69FB607B6832
:100A0000DB689B69FA681340FB60FB68184607F1D6
:100A10001407BD4680BC704780B485B000AF7860D5
:100A20000B46FB707B681B691B68FB60FB7803F05F
:100A30000303DAB2FB6862F30103FB607B681B69A6
:100A4000FA681A6007F11407BD4680BC704700BF02
:100A500080B58CB000AF78604FF0000387F82B3082
:100A60004FF000037B624FF000033B624FF0000346
:100A7000FB614FF00003BB614FF000037B617B68BB
:100A8000D3F80C314FF000021A607B681B691B68B9
:100A90003B623B6A6FF3CC233B627B681B693A6A1B
:100AA0001A607B68DB7A002B6DD17B681B7A012B87
:100AB00005D178684FF00001FFF7AEFF04E07868D9
:100AC0004FF00101FFF7A8FF7B68DB684FF400726D
:100AD0005A62FB694FF0400262F31F43FB61FB69FE
:100AE0004FF4007262F30F03FB617B68DB68FA6905
:100AF0009A62BA8BFB8BD3189BB23B83BB694FF4D2
:100B0000BA7262F31F43BB617B68DB68BA69C3F8E2
:100B100004213A8B7B8BD3189BB23B83BB694FF08C
:100B2000400262F31F43BB617B68DB68BA69C3F8AC
:100B300008213A8B7B8BD3189BB23B83BB696FF345
:100B40001F43BB617B68DB68BA69C3F80C213A8B31
:100B50007B8BD3189BB23B83BB696FF31F43BB6195
:100B60007B68DB68BA69C3F810213A8B7B8BD3189A
:100B70009BB23B83BB696FF31F43BB617B68DB6840
:100B8000BA69C3F8142178684FF01001FFF762FECC
:100B90007868FFF79FFE7B681B694FF000021A61BF
:100BA0007B681B694FF000025A617B681B694FF03C
:100BB000FF329A617B681B694FF00002DA614FF0E7
:100BC0000003FB6243E07A68FB6A03F104034FEA27
:100BD0008303D3189B681B687B6297F8273023F048
:100BE0007F03DBB2002B0BD04FF000037B627B6AEC
:100BF00043F080437B627B6A43F000637B6202E0E8
:100C00004FF000037B627A68FB6A03F104034FEA4A
:100C10008303D3189B687A6A1A607A68FB6A03F1C7
:100C200004034FEA8303D3189B684FF000021A6154
:100C30007A68FB6A03F104034FEA8303D3189B68C5
:100C40004FF0FF029A60FB6A03F10103FB627B68CD
:100C50005B781A46FB6A9A42B5D84FF00003FB62F4
:100C600042E07A68FB6A03F114034FEA8303D31866
:100C70005B681B68FB60FB7B23F07F03DBB2002B10
:100C80000BD04FF00003FB60FB6843F08043FB6038
:100C9000FB6843F00063FB6002E04FF00003FB6081
:100CA0007A68FB6A03F114034FEA8303D3185B6885
:100CB000FA681A607A68FB6A03F114034FEA830347
:100CC000D3185B684FF000021A617A68FB6A03F17F
:100CD00014034FEA8303D3185B684FF0FF029A6056
:100CE000FB6A03F10103FB627B685B781A46FB6ACF
:100CF0009A42B6D84FF000037B617B6943F480735E
:100D00007B617B681B697A68126911697A696FEA8D
:100D1000020211407A690A431A617B68DB78012B71
:100D20001ED14FF000033B613B6943F001033B617F
:100D30003B6943F002033B613B694FF0400262F3C1
:100D40008A033B613B6943F480333B613B694FF06D
:100D5000400262F359433B617B681B693A691A633D
:100D6000786800F007F897F82B30184607F130073D
:100D7000BD4680BD80B584B000AF78604FF0000301
:100D8000FB734FF00003BB607B68DB684FF0000231
:100D90009A617B68DB684FF0FF325A617868FFF731
:100DA00055FA7B68DB78002B03D1BB6843F0100356
:100DB000BB60BB6843F40063BB60BB6843F4805313
:100DC000BB60BB6843F40053BB60BB6843F4802343
:100DD000BB60BB6843F40023BB60BB6843F00803FF
:100DE000BB60BB6843F48013BB60BB6843F4001373
:100DF000BB607B68DB687A68D2689169BA686FEA21
:100E000002021140BA680A439A61FB7B184607F157
:100E10001007BD4680BD00BF80B485B000AF7860CC
:100E20004FF00003FB737B681B699B68BB60BB686A
:100E3000C3F34103DBB2022B0BD0032B05D0012BF4
:100E400003D04FF00303FB7307E04FF00203FB7383
:100E500003E04FF00103FB7300BFFB7B184607F173
:100E60001407BD4680BC704780B487B000AF78607F
:100E70004FF00003FB754FF00003BB607B681B69FC
:100E80009B683B617B689B691B68FB603B69C3F3A4
:100E90004103DBB2022B04D0FB686FF30A03FB6053
:100EA00006E0FB684FF0030262F30A03FB6000BF39
:100EB0007B689B69FA681A60BB6843F48073BB6007
:100EC0007B681B697A6812695168BA686FEA020226
:100ED0001140BA680A435A60FB7D184607F11C07A7
:100EE000BD4680BC704700BF80B487B000AF78605B
:100EF00039604FF00003FB744FF00003FB604FF0CC
:100F00000003BB603B685B78012B12D13B681B7808
:100F10007A6803F104034FEA8303D3189B687B616B
:100F20003B681B784FF0010202FA03F39BB23B814E
:100F300014E03B681B787A6803F114034FEA8303DB
:100F4000D3185B687B613B681B784FF0010202FAA3
:100F500003F39AB2BB6862F31F43BB607B691B68F3
:100F6000FB607B7B23F07F03DBB2002B29D13B6846
:100F70009B689BB24FEA43534FEA53539AB2FB68C4
:100F800062F30A03FB603B68DB7803F00303DAB229
:100F9000FB6862F39343FB603B68DB88DBB203F0E2
:100FA0000F03DAB2FB6862F39953FB60FB6843F00E
:100FB0008053FB60FB6843F40043FB60FA687B6985
:100FC0001A603B681B78012B0CD17B68DB7A002B05
:100FD00008D17B681B697A681269D16BBA680A43C9
:100FE000DA6307E07B681B697A681269D169BA68BD
:100FF0000A43DA61FB7C184607F11C07BD4680BC3A
:10100000704700BF80B487B000AF786039604FF0A0
:101010000003FB744FF00003FB604FF00003BB6064
:101020003B685B78012B12D13B681B787A6803F12F
:1010300004034FEA8303D3189B687B613B681B78EA
:101040004FF0010202FA03F39BB23B8114E03B68CC
:101050001B787A6803F114034FEA8303D3185B68A3
:101060007B613B681B784FF0010202FA03F39AB2EE
:10107000BB6862F31F43BB60FB686FF3CF33FB6059
:10108000FA687B691A603B681B78012B0ED17B687C
:10109000DB7A002B0AD17B681B697A681269D16BF5
:1010A000BA686FEA02020A40DA6309E07B681B69EA
:1010B0007A681269D169BA686FEA02020A40DA6195
:1010C000FB7C184607F11C07BD4680BC704700BF7B
:1010D00080B588B000AF786039604FF00003FB77CF
:1010E0004FF00003BB614FF000037B614FF0000342
:1010F0003B613B685B78012B40F0BD803B681B780F
:101100007A6803F104034FEA8303D3189B681B68D2
:101110007B613B681B787A6803F104034FEA830321
:10112000D3189B681B693B613B685B69002B0AD144
:101130003B696FF312033B613B694FF0010262F3BD
:10114000DC433B6128E03B685B6923F07F4222F48B
:1011500078023B6962F312033B613B685A693B6862
:101160009B68D31803F1FF323B689B68B2FBF3F333
:101170009BB24FEA83534FEA93539AB23B6962F3AF
:10118000DC433B613B68DB78012B05D13B694FF0C9
:10119000010262F35E733B613B681B787A6803F17E
:1011A00004034FEA8303D3189B683A691A617B688A
:1011B000DB78012B0CD13B681B787A6803F10403C0
:1011C0004FEA8303D3189B683A6812695A6116E0A4
:1011D0003B68DB78012B12D03B685B69002B0ED09B
:1011E0003B681B784FF0010202FA03F3BB617B6896
:1011F0001B697A681269516BBA690A435A633B6882
:10120000DB78012B14D17B681B699B68FB60FB6852
:10121000C3F30D239BB203F00103002B04D17B69C0
:1012200043F000537B6103E07B6943F080537B61B3
:101230007B6943F080637B617B6943F000437B61A2
:101240003B681B787A6803F104034FEA8303D318E1
:101250009B687A691A603B68DB78012B40F09A80C2
:101260003B68D9683B681A783B685B699BB27868D1
:10127000FFF762F88EE03B681B787A6803F114038D
:101280004FEA8303D3185B681B687B613B681B785C
:101290007A6803F114034FEA8303D3185B681B6970
:1012A0003B613B685B69002B10D13B689B6823F076
:1012B0007F4222F478023B6962F312033B613B698F
:1012C0004FF0010262F3DC433B6124E03B685A6962
:1012D0003B689B68D31803F1FF323B689B68B2FB05
:1012E000F3F39BB24FEA83534FEA93539AB23B69AD
:1012F00062F3DC433B613B69C3F3C9439BB23A6889
:10130000926802FB03F323F07F4222F478023B69E8
:1013100062F312033B613B681B787A6803F11403A4
:101320004FEA8303D3185B683A691A617B68DB78FC
:10133000012B0BD13B681B787A6803F114034FEA49
:101340008303D3185B683A6812695A613B68DB789B
:10135000012B0CD13B685B79002B04D07B6943F0F7
:1013600000537B6103E07B6943F080537B617B69C1
:1013700043F080637B617B6943F000437B613B68A2
:101380001B787A6803F114034FEA8303D3185B6870
:101390007A691A60FB7F184607F12007BD4680BDB9
:1013A00080B489B000AF786039604FF00003FB77FC
:1013B0004FF00003BB614FF000033B614FF00003AF
:1013C000BB603B685B78012B75D17B689B697B6157
:1013D0007B691B683B617B691B69BB603B685B6920
:1013E000002B0AD13B7A6FF306033B72BB7A4FF0B6
:1013F000010262F3C403BB7224E03B685A693B6894
:101400009B689A420ED93B689A683B685A613B6870
:101410009B68DBB203F07F03DAB23B7A62F3060328
:101420003B7209E03B685B69DBB203F07F03DAB231
:101430003B7A62F306033B72BB7A4FF0010262F320
:10144000C403BB72BA687B691A617B68DB78012BC5
:101450000BD13B681B787A6803F104034FEA8303DE
:10146000D3189B683A6812695A613B6943F08063FC
:101470003B613B6943F000433B613A697B691A6019
:101480007B68DB78002B40F083803B685B69002B36
:101490007ED03B681B784FF0010202FA03F3BA6971
:1014A0001343BB617B681B697A681269516BBA6927
:1014B0000A435A636CE03B681B787A6803F11403B3
:1014C0004FEA8303D3185B681B683B613B681B785A
:1014D0007A6803F114034FEA8303D3185B681B692E
:1014E000BB603B685B69002B10D13B689B68DBB23B
:1014F00003F07F03DAB23B7A62F306033B72BB7AF6
:101500004FF0010262F3C403BB7213E03B689A68B8
:101510003B685A613B689B68DBB203F07F03DAB239
:101520003B7A62F306033B72BB7A4FF0010262F32F
:10153000C403BB723B681B787A6803F114034FEA5B
:101540008303D3185B68BA681A617B68DB78012B68
:101550000BD13B681B787A6803F114034FEA8303CD
:10156000D3185B683A6812695A613B6943F080633B
:101570003B613B6943F000433B613B681B787A6801
:1015800003F114034FEA8303D3185B683A691A60C6
:10159000FB7F184607F12407BD4680BC704700BF9B
:1015A00080B487B000AF786039604FF00003FB75FE
:1015B0004FF00003FB603B685B78012B1ED13B685A
:1015C0001B787A6803F104034FEA8303D3189B68FE
:1015D0003B613B691B68FB60FB7B23F07F03DBB255
:1015E000002B03D0FB6843F08043FB60FB6843F4AF
:1015F0000013FB60FA683B691A6013E03B681B78D4
:101600007A6803F114034FEA8303D3185B683B61E4
:101610003B691B68FB60FB6843F40013FB60FA68DE
:101620003B691A60FB7D184607F11C07BD4680BC6C
:10163000704700BF80B487B000AF786039604FF06A
:101640000003FB744FF00003FB603B685B78012BE9
:101650000AD13B681B787A6803F104034FEA8303DD
:10166000D3189B687B6109E03B681B787A6803F1BB
:1016700014034FEA8303D3185B687B617B691B68A3
:10168000FB60FB686FF35553FB603B68DB78032B13
:1016900003D03B68DB78022B03D1FB6843F0805317
:1016A000FB60FA687B691A60FB7C184607F11C072F
:1016B000BD4680BC704700BF80B485B000AF786085
:1016C0007B681B699B69FB607B681B69DB69FA6847
:1016D0001340FB60FB684FEA1343184607F11407F9
:1016E000BD4680BC704700BF80B485B000AF786055
:1016F0000B46FB70FB787A6803F114034FEA83030F
:10170000D3185B689B68FB607B681B695B69FA6840
:101710001340FB60FB68184607F11407BD4680BC08
:10172000704700BF80B485B000AF78607B681B69EC
:101730009B69FB607B681B69DB69FA681340FB608F
:10174000FB684FEA03434FEA1343184607F11407B7
:10175000BD4680BC704700BF80B487B000AF7860E2
:101760004FF000033B61FB7C43F0C003FB74BB7C88
:101770004FF0010262F3C403BB743B7C4FF01802CC
:1017800062F306033B747B685B6D3A691A617B68A0
:10179000DB78012B17D14FF00003FB607B685B6D9A
:1017A0007A6802F5B9625A617B685B6D1B68FB6001
:1017B000FB6843F00043FB604FF08023FB607B68D5
:1017C0005B6DFA681A6007F11C07BD4680BC704764
:1017D00080B485B000AF78607B689B7A002B1BD00B
:1017E0007B681B699B68FB603B7B03F00103DBB2FA
:1017F000002B11D07B6803F586731B68BB60BB6848
:101800006FF34103BB60BB686FF30003BB607B6891
:10181000D3F80C31BA681A6007F11407BD4680BCD2
:10182000704700BF80B483B000AF03463960FB71DE
:1018300097F90730002B10DA4FF46D43CEF2000316
:10184000FA7902F00F02A2F104013A68D2B24FEA2B
:101850000212D2B25B181A760DE04FF46143CEF259
:10186000000397F907103A68D2B24FEA0212D2B2D7
:101870005B1883F8002307F10C07BD4680BC704756
:1018800080B582B000AF78607A686FF07F439A428B
:1018900002D94FF001031FE04EF21003CEF2000315
:1018A0007A6822F07F4202F1FF325A604FF0FF3037
:1018B0004FF00F01FFF7B6FF4EF21003CEF2000318
:1018C0004FF000029A604EF21003CEF200034FF088
:1018D00007021A604FF00003184607F10807BD46DB
:1018E00080BD00BF80B586B000AF78604FF00003C8
:1018F000BB7530E0BA7D4AF27C43C0F6010353F871
:10190000223018464FF0010100F0C2FFBA7D4AF2C2
:101910007443C0F6010333F81230FB604FF001034B
:101920003B744FF00003BB744FF00103FB744FF0A6
:1019300002037B74BA7D40F20403C2F2000353F841
:10194000222007F10C031046194602F071F8BB7D06
:1019500003F10103BB75BB7D032B8CBF0023012367
:10196000DBB2002BC6D14FF00003FB7530E0FA7DEF
:101970004AF29443C0F6010353F8223018464FF060
:10198000010100F085FF4FF480404FF0010100F0AD
:10199000D3FF4FF000033B744FF00003FB74FA7D5C
:1019A0004AF28C43C0F6010333F81230FB60FA7D33
:1019B00040F21403C2F2000353F8222007F10C0393
:1019C0001046194602F034F8FB7D03F10103FB7564
:1019D000FB7D022B8CBF00230123DBB2002BC6D181
:1019E0007B6801E00CF012FF184607F11807BD46AE
:1019F00080BD00BF80B483B000AF78607B681846BC
:101A000007F10C07BD4680BC704700BF80B582B0AF
:101A100000AF78600B46FB70FA7840F20403C2F224
:101A2000000353F82220F9784AF27443C0F6010308
:101A300033F811301046194602F09CF807F10807F8
:101A4000BD4680BD80B582B000AF78600B46FB70AC
:101A5000FA7840F20403C2F2000353F82220F97826
:101A60004AF27443C0F6010333F8113010461946A8
:101A700002F08EF807F10807BD4680BD80B500AFC3
:101A800040F21813C2F200031A6848F21F53C5F25D
:101A9000EB13A3FB02134FEA53131846FFF7F0FEB4
:101AA0000346002B0CBF00230123DBB2002B00D028
:101AB000FEE74FF0FF304FF00001FFF7B3FE80BDAF
:101AC00080B485B000AF786040F6E823C2F200032E
:101AD0001B68FB600CE040F6E823C2F200031B68C1
:101AE000FA689A4294BF00230123DBB2002B17D17E
:101AF00040F6E823C2F200031A68FB68D21A79683C
:101B00004CF6CD43CCF6CC43A3FB01034FEAD30301
:101B10009A422CBF00230123DBB2002BDBD100E073
:101B200000BF07F11407BD4680BC704780B500AF09
:101B300040F6E020C2F200004FF0000100F00EFB82
:101B400041F2D810C2F200004FF4E13105F064F91F
:101B500040F6C820C2F200004FF00001FFF772FF0C
:101B600040F6C820C2F200004FF00101FFF74EFF1F
:101B700041F2D810C2F200004AF2B441C0F60101AD
:101B800001F0D2FE4FF00A004FF0000101F030FAF0
:101B90004FF008004FF0000101F02AFA4FF0090061
:101BA0004FF0010101F024FA4FF00A004FF001015B
:101BB00001F0AAFA4FF008004FF0000101F0A4FA7A
:101BC00042F21070FFF77CFF4FF00A004FF0000167
:101BD00001F09AFA40F6E020C2F200004FF0000156
:101BE00000F072FB034641F2D810C2F20000194621
:101BF0004FF00A0201F0B0FE40F6E020C2F2000011
:101C00004FF0FF0100F060FB034641F2D810C2F232
:101C1000000019464FF00A0201F09EFE4FF00A0044
:101C20004FF0010101F070FA40F6C820C2F2000046
:101C30004FF00001FFF7EAFE80BD00BF80B500AFA6
:101C400041F2D810C2F200004AF2B441C0F60101DC
:101C500001F06AFE4FF4FA70FFF732FF80BD00BF5B
:101C600080B582B000AF786039607B68012B18D1F5
:101C70003A684FF6FF739A4213D140F6C820C2F279
:101C80000000FFF72FFE40F6C820C2F2000041F628
:101C9000F511C0F6000140F20002C2F2000207F0A6
:101CA000EDFA07F10807BD4680BD00BF80B500AF63
:101CB0004FF001004FF6FF71FFF7D2FF80BD00BF6C
:101CC00080B584B002AF786039607B68012B13D196
:101CD0003A684FF6FF739A420ED14FF0000300931B
:101CE00040F6CC20C2F200004FF000014FF000029D
:101CF0004FF0000300F042F907F10807BD4680BD30
:101D000080B500AF4FF001004FF6FF71FFF7D8FF2D
:101D100080BD00BF80B400AFBD4680BC704700BF2F
:101D200080B483B000AF0346FB7107F10C07BD46DA
:101D300080BC704780B400AFBD4680BC704700BF18
:101D400080B400AFBD4680BC704700BF80B400AF18
:101D5000BD4680BC704700BF80B582B000AF7860E0
:101D600039607B683A681A607B684FF000025A60FD
:101D70007B684FF000029A60386807F011FB034659
:101D80001A467B68DA6007F10807BD4680BD00BFD0
:101D900080B582B000AF78607B68DB68184607F0DA
:101DA00007FB07F10807BD4680BD00BF80B483B0C4
:101DB00000AF78607B685A687B681B689A4214BFE2
:101DC00000230123DBB2184607F10C07BD4680BC97
:101DD000704700BF80B483B000AF78607B685B68F9
:101DE000002B14BF00230123DBB2184607F10C07B8
:101DF000BD4680BC704700BF80B485B000AF78603E
:101E00007B68DA687B689B68D3181B78FB737B68F8
:101E10009B6803F101037A681268B3FBF2F102FBDD
:101E200001F29A1A7B689A607B685B6803F1FF3263
:101E30007B685A60FB7B184607F11407BD4680BCDF
:101E4000704700BF80B485B000AF78600B46FB7070
:101E50007B689A687B685B68D3187A681268B3FB02
:101E6000F2F102FB01F29B1AFB607B68DA68FB6807
:101E7000D318FA781A707B685A687B681B689A4294
:101E80000DD17B689B6803F101037A681268B3FB8C
:101E9000F2F102FB01F29A1A7B689A6005E07B6816
:101EA0005B6803F101027B685A6007F11407BD46C5
:101EB00080BC704780B586B000AFF860B96013464B
:101EC000FB714FF00003FB7512E0F868FFF76EFF3F
:101ED0000346012B11D0FB7DBA68D3181B78DBB207
:101EE000F8681946FFF7AEFFFB7D03F10103FB75B0
:101EF000FA7DFB799A42E8D300E000BF07F11807AA
:101F0000BD4680BD80B483B000AF78607B685B68FD
:101F1000DBB2184607F10C07BD4680BC704700BF16
:101F200080B483B000AF78607B68044A1A607B6835
:101F3000184607F10C07BD4680BC7047D0A40108C5
:101F400080B582B000AF78607B681846FFF7E8FF85
:101F50007B68094A1A607B6803F1040318464FF056
:101F600000014FF0040207F0A5FE7B68184607F158
:101F70000807BD4680BD00BFF8A4010880B582B047
:101F800000AF7860F970BA707B707B681846FFF715
:101F9000C7FF7B68094A1A607B68FA781A717B6808
:101FA000BA785A717B687A789A717B683A7CDA7170
:101FB0007B68184607F10807BD4680BDF8A40108F4
:101FC00080B584B000AF786039604FF00003FB60EB
:101FD0004FF00003BB601AE07A68BB68D3181B7926
:101FE000386819464FF00A0201F0F6FB0346FA681A
:101FF000D318FB6038684FF02E0101F0D9FB03467F
:10200000FA68D318FB60BB6803F10103BB60BB68CF
:10201000022BCCBF00230123DBB2002BDCD17B6879
:10202000DB79386819464FF00A0201F0D5FB034608
:10203000FA68D318FB60FB68184607F11007BD4625
:1020400080BD00BF80B584B002AF786039607B6826
:10205000012B13D13A684FF6FF739A420ED14FF01D
:102060000003009340F6D420C2F200004FF00001BC
:102070004FF000024FF00003FFF780FF07F1080761
:10208000BD4680BD80B500AF4FF001004FF6FF7137
:10209000FFF7D8FF80BD00BF80B582B000AF4BF620
:1020A0001863C0F601037B6040F20003C2F2000334
:1020B0003B600BE07B681A683B681A603B6803F181
:1020C00004033B607B6803F104037B603A6840F6DD
:1020D0009C23C2F200039A42ECD3084808494FF00F
:1020E00000028842B8BF40F8042BFFF6FAAFFEF7B3
:1020F00075F807F10807BD4680BD0000A00A002062
:102100009424002080B400AFFEE700BF80B483B009
:1021100000AF78607B684FF000021A707B684FF068
:1021200000025A807B684FF000029A807B684FF073
:102130001802DA807B68184607F10C07BD4680BCA0
:10214000704700BF80B483B000AF78607B681846EA
:1021500007F10C07BD4680BC704700BF80B58AB050
:1021600000AF78600B46FB704FF400404FF0010168
:1021700000F0B8FB4FF004004FF0010100F088FBC5
:102180004FF0020387F824304FF0030387F825301F
:102190004FF0000387F826304FF0020387F827300E
:1021A0004FF480633B6207F120034FF40060C4F2F8
:1021B0000200194601F03CFC4FF480533B6207F1EA
:1021C00020034FF40060C4F20200194601F030FC15
:1021D0004FF400633B6207F120034FF40060C4F248
:1021E0000200194601F024FC4FF40060C4F2020022
:1021F0004FF00A014FF0060201F0D8FC4FF40060E6
:10220000C4F202004FF00C014FF0060201F0CEFCC8
:102210004FF40060C4F202004FF00B014FF00602D1
:1022200001F0C4FC7B68FA781A707B684FF00002FA
:102230005A807B684FF000029A807B684FF018024A
:10224000DA804FF47050C4F2000004F09DF94FF0B2
:102250000003BB814FF000033B824FF000037B8201
:102260004FF00003BB824FF00003FB827B68DB88EA
:102270003B837B685B887B834FF00703BB83FB78E2
:10228000002B02D14FF48273FB81FB78012B02D12A
:102290004FF00003FB8107F10C034FF47050C4F2C0
:1022A0000000194604F0B4F94FF47050C4F2000075
:1022B0004FF0010104F0F0F901E00CF0A7FA07F18A
:1022C0002807BD4680BD00BF80B584B000AF7860F0
:1022D0000B467B807B681B78002B31D100BF4FF40D
:1022E0007050C4F200004FF0020104F011FA0346EE
:1022F000002B14BF00230123DBB2002BEFD17B881E
:102300004FF47050C4F20000194604F0F3F900BF16
:102310004FF47050C4F200004FF0010104F0F8F9DE
:102320000346002B14BF00230123DBB2002BEFD1A7
:102330004FF47050C4F2000004F0CEF9034632E0CE
:1023400000BF4FF47050C4F200004FF0010104F0E0
:10235000DFF90346002B14BF00230123DBB2002B5F
:10236000EFD14FF47050C4F2000004F0B5F9034609
:10237000FB8100BF4FF47050C4F200004FF0020127
:1023800004F0C6F90346002B14BF00230123DBB27F
:10239000002BEFD1FB894FF47050C4F200001946B6
:1023A00004F0A8F9FB89184607F11007BD4680BD67
:1023B00080B582B000AF786039607B68012B18D19E
:1023C0003A684FF6FF739A4213D140F6E020C2F20A
:1023D0000000FFF79BFE40F6E020C2F2000042F250
:1023E0004511C0F6000140F20002C2F2000206F000
:1023F00045FF07F10807BD4680BD00BF80B500AFAF
:102400004FF001004FF6FF71FFF7D2FF80BD00BF14
:1024100080B584B000AFF8607A603B600B46FB7219
:10242000F86801F045FFF86800F01EF8FB683A68AC
:10243000C3F8E025FB68BA69C3F8E425FB687A684D
:10244000C3F8E825FB7AF868194604F043FAFB68FC
:10245000D3F8E4351B689847F86802F02DF807F1C7
:102460001007BD4680BD00BF80B483B000AF786068
:102470004FF00003184607F10C07BD4680BC7047BB
:1024800080B584B000AF786007F10803786819461A
:1024900002F054FD3B7A03F01F03012B0AD0022BFC
:1024A0000FD0002B14D107F108037868194602F009
:1024B000B1F816E007F108037868194602F0FCF855
:1024C0000FE007F108037868194602F02BF908E0DD
:1024D0003B7A23F07F03DBB27868194604F0AEFB49
:1024E00000BF4FF00003184607F11007BD4680BD3E
:1024F00080B584B000AF78600B46FB70FB78002B92
:1025000045D17B6803F55C73FB607B6893F8113100
:10251000032B4FD1FB68DA69FB689B689A4221D98B
:10252000FB68DA69FB689B68D21AFB68DA617B6832
:10253000DB78012B06D1FB68DA68FB689B68D21850
:10254000FB68DA60FB68DA68FB689968FB68DB693E
:10255000994238BF0B469BB2786811461A4604F080
:1025600079FD27E07B68D3F8E0351B69002B0AD0A2
:102570007B6893F81231032B05D17B68D3F8E035E3
:102580001B6978689847786804F07CFD12E07B68E6
:10259000D3F8E0359B69002B0CD07B6893F812319F
:1025A000032B07D17B68D3F8E0359B69FA7878680C
:1025B000114698474FF00003184607F11007BD4633
:1025C00080BD00BF80B584B000AF78600B46FB7063
:1025D000FB78002B63D17B6803F58C73FB607B6811
:1025E00093F81131022B6ED1FB68DA69FB689B68A6
:1025F0009A421CD9FB68DA69FB689B68D21AFB68AF
:10260000DA617B68DB78012B06D1FB68DA68FB684E
:102610009B68D218FB68DA60FB68DA68FB68DB69E4
:102620009BB2786811461A4604F0D8FC4BE0FB6870
:102630001B6AFA689268B3FBF2F102FB01F29B1A83
:10264000002B17D1FB681A6AFB689B689A4211D36A
:10265000FB681A6AFB685B6A9A420BD278684FF093
:1026600000014FF0000204F0B9FCFB684FF00002DB
:102670005A6229E07B68D3F8E035DB68002B0AD08A
:102680007B6893F81231032B05D17B68D3F8E035D2
:10269000DB6878689847786804F012FD13E07B687F
:1026A000D3F8E0355B69002B0ED07B6893F81231CC
:1026B000032B09D17B68D3F8E0355B69FA78786839
:1026C0001146984700E000BF4FF00003184607F19D
:1026D0001007BD4680BD00BF80B582B000AF7860F6
:1026E00078684FF000014FF040024FF0000304F013
:1026F00087F978684FF080014FF040024FF00003F7
:1027000004F07EF97B684FF0010283F812217B68A8
:10271000D3F8E4355B687A689278104698474FF0B2
:102720000003184607F10807BD4680BD80B582B09A
:1027300000AF78607B68D3F8E4351B6998477B6805
:102740004FF0030283F812214FF00003184607F1FF
:102750000807BD4680BD00BF80B582B000AF78607D
:102760007B684FF0040283F812217B68D3F8E435CC
:10277000DB6898474FF00003184607F10807BD468D
:1027800080BD00BF80B582B000AF78607B68D3F8B1
:10279000E035DB69002B05D07B68D3F8E035DB69D9
:1027A000786898474FF00003184607F10807BD46C0
:1027B00080BD00BF80B582B000AF78600B46FB7073
:1027C0007B68D3F8E0351B68FA787868114698473B
:1027D0007B68D3F8E4359B6898474FF000031846B0
:1027E00007F10807BD4680BD80B582B000AF7860B4
:1027F0000B46FB707B68D3F8E0355B68FA78786845
:10280000114698474FF00003184607F10807BD46E8
:1028100080BD00BF80B582B000AF78607B68D3F820
:10282000E0351B6A786898474FF00003184607F1B7
:102830000807BD4680BD00BF80B582B000AF78609C
:102840007B68D3F8E0355B6A786898474FF00003FF
:10285000184607F10807BD4680BD00BF80B500AF30
:1028600001F050FBFFF70AF900F066FD00F0F2FC02
:10287000FFF75CF900E000BFFFF7E0F946F68D5383
:10288000C0F60003002BF6D004F080FAF3E700BF97
:1028900080B483B000AF78600B46FB70FB78002BF0
:1028A0000CD04FF46053C4F202034FF46052C4F2F0
:1028B0000202116B7A680A431A630DE04FF4605309
:1028C000C4F202034FF46052C4F20202116B7A6840
:1028D0006FEA02020A401A6307F10C07BD4680BC8A
:1028E000704700BF80B483B000AF78600B46FB70C8
:1028F000FB78002B0CD04FF46053C4F202034FF46A
:102900006052C4F20202116C7A680A431A640DE044
:102910004FF46053C4F202034FF46052C4F2020257
:10292000116C7A686FEA02020A401A6407F10C0718
:10293000BD4680BC704700BF80B483B000AF7860F4
:102940000B46FB70FB78002B0CD04FF46053C4F2A5
:1029500002034FF46052C4F20202516C7A680A43D7
:102960005A640DE04FF46053C4F202034FF4605216
:10297000C4F20202516C7A686FEA02020A405A6499
:1029800007F10C07BD4680BC704700BF80B483B020
:1029900000AF78600B46FB70FB78002B0CD04FF437
:1029A0006053C4F202034FF46052C4F20202116A8F
:1029B0007A680A431A620DE04FF46053C4F20203CE
:1029C0004FF46052C4F20202116A7A686FEA02029E
:1029D0000A401A6207F10C07BD4680BC704700BF71
:1029E00080B483B000AF78600B46FB70FB78002B9F
:1029F0000CD04FF46053C4F202034FF46052C4F29F
:102A00000202516A7A680A435A620DE04FF4605339
:102A1000C4F202034FF46052C4F20202516A7A68AF
:102A20006FEA02020A405A6207F10C07BD4680BCF9
:102A3000704700BF80B400AFBD4680BC704700BF88
:102A400080B400AFFEE700BF80B400AFFEE700BF78
:102A500080B400AFFEE700BF80B400AFFEE700BF68
:102A600080B400AFBD4680BC704700BF80B400AFEB
:102A7000BD4680BC704700BF80B400AFBD4680BC7F
:102A8000704700BF80B400AF40F6E823C2F20003F5
:102A90001B6803F1010240F6E823C2F200031A604A
:102AA000BD4680BC704700BF80B400AFBD4680BC4F
:102AB000704700BF80B500AF4FF0040003F048FE40
:102AC0000346002B0CBF00230123DBB2002B27D0D1
:102AD00040F6BC23C2F200035B68002B0CBF00234E
:102AE0000123DBB2002B05D040F6BC23C2F2000369
:102AF0005B68984740F6BC23C2F200031B68002BBA
:102B00000CBF00230123DBB2002B05D040F6BC2311
:102B1000C2F200031B6898474FF0040003F044FE24
:102B200080BD00BF80B500AF4FF0100003F010FE75
:102B30000346002B0CBF00230123DBB2002B15D072
:102B400040F6BC23C2F200039B68002B0CBF00239D
:102B50000123DBB2002B05D040F6BC23C2F20003F8
:102B60009B6898474FF0100003F01EFE80BD00BF29
:102B700080B500AF40F6E833C2F200039B7A002B29
:102B800013D04EF61053CEF200034EF61052CEF292
:102B90000002126822F006021A6001F0B3F940F652
:102BA000E830C2F20000FEF713FE4FF4801003F08D
:102BB000FBFD80BD80B500AF40F6E830C2F20000FA
:102BC00002F0C4FB80BD00BF80B500AF40F6E83026
:102BD000C2F2000002F0F4FA80BD00BF80B500AF81
:102BE00040F6E830C2F2000002F084FA80BD00BF77
:102BF00080B582B000AF78607B681846FFF7A0F917
:102C00007B68184607F10807BD4680BD80B584B0D3
:102C100002AF786039607B68012B19D13A684FF6B2
:102C2000FF739A4214D14FF00003009340F6EC205A
:102C3000C2F200004FF000014FF000024FF000031D
:102C4000FFF79CF940F60430C2F20000FFF7D0FF16
:102C500007F10807BD4680BD80B500AF4FF0010009
:102C60004FF6FF71FFF7D2FF80BD00BF80B483B085
:102C700000AF78607B68064A1A607B684FF00002FC
:102C80005A607B68184607F10C07BD4680BC704748
:102C9000C8A6010880B584B002AF786039607B684F
:102CA000012B13D13A684FF6FF739A420ED14FF0C1
:102CB0000003009340F68030C2F200004FF00001A4
:102CC0004FF000024FF00003FFF758F907F1080733
:102CD000BD4680BD80B500AF4FF001004FF6FF71DB
:102CE000FFF7D8FF80BD00BF80B485B000AF78602B
:102CF00039604FF00003FB604FF00003FB727B680C
:102D00005B68FB60FB6823F0407323F48073FB6017
:102D10003B681B794FEA03223B681B681343FA6840
:102D20001343FB607B68FA685A607B689B68FB60B2
:102D3000FA684FF2FD73CCF2FF031340FB603B686F
:102D40001A693B68DB681A433B689B681A433B6817
:102D50005B794FEA43031343FA681343FB607B68D4
:102D6000FA689A607B68DB6AFB60FB6823F4700397
:102D7000FB603B681B7D03F1FF33DAB2FB7A134340
:102D8000FB72FB7A4FEA0353FA681343FB607B68DC
:102D9000FA68DA6207F11407BD4680BC704700BFCD
:102DA00080B485B000AF78604FF00003FB604FF453
:102DB0000C53C4F201035B68FB60FA6843F2E00362
:102DC000CFF6FC731340FB607B681A687B685B6816
:102DD0001A437B689B681A437B68DB681343FA6875
:102DE0001343FB604FF40C53C4F20103FA685A60BA
:102DF00007F11407BD4680BC704700BF80B483B0A4
:102E000000AF78600B46FB70FB78002B06D07B6828
:102E10009B6843F001027B689A6005E07B689B68D1
:102E200023F001027B689A6007F10C07BD4680BC65
:102E3000704700BF80B485B000AF7860F970BA7099
:102E40007B704FF00003FB604FF00003BB60FB782A
:102E5000092B27D97B68DB68FB60FA7813464FEAB9
:102E600043039B18A3F11E034FF0070202FA03F37A
:102E7000BB60BB686FEA0303FA681340FB607978B4
:102E8000FA7813464FEA43039B18A3F11E0301FA95
:102E900003F3BB60FA68BB681343FB607B68FA68A6
:102EA000DA6022E07B681B69FB60FA7813464FEA20
:102EB00043039B184FF0070202FA03F3BB60BB68A1
:102EC0006FEA0303FA681340FB607978FA781346D7
:102ED0004FEA43039B1801FA03F3BB60FA68BB682F
:102EE0001343FB607B68FA681A61BB78062B27D80E
:102EF0007B685B6BFB60BB7803F1FF3213464FEAE4
:102F000083039B184FF01F0202FA03F3BB60BB68F8
:102F10006FEA0303FA681340FB60F978BB7803F1AA
:102F2000FF3213464FEA83039B1801FA03F3BB6099
:102F3000FA68BB681343FB607B68FA685A6351E028
:102F4000BB780C2B27D87B681B6BFB60BA781346C9
:102F50004FEA83039B18A3F123034FF01F0202FAE9
:102F600003F3BB60BB686FEA0303FA681340FB60BE
:102F7000F978BA7813464FEA83039B18A3F1230329
:102F800001FA03F3BB60FA68BB681343FB607B681C
:102F9000FA681A6326E07B68DB6AFB60BA7813463E
:102FA0004FEA83039B18A3F141034FF01F0202FA7B
:102FB00003F3BB60BB686FEA0303FA681340FB606E
:102FC000F978BA7813464FEA83039B18A3F14103BB
:102FD00001FA03F3BB60FA68BB681343FB607B68CC
:102FE000FA68DA6207F11407BD4680BC704700BF7B
:102FF00080B584B000AF78600B46FB704AF2745322
:10300000C0F601037A6853F8223018464FF00101E8
:10301000FFF73EFC4AF24C53C0F601037A6833F8DE
:103020001230BB604FF003037B737B68032B08D027
:103030007B68052B05D07B68062B02D07B68092BAB
:103040002BD14FF002033B734FF00003BB734FF0E3
:103050000103FB7340F26C03C2F200037A6853F879
:10306000222007F108031046194600F0E1FC40F267
:103070006C03C2F200037A6853F822204AF2C45368
:10308000C0F60103796853F821309BB21046194607
:103090004FF0020200F08AFD32E0FB78012B0DD0E8
:1030A000022B15D0002B1DD14FF001033B734FF0C5
:1030B0000103BB734FF00103FB7314E04FF00003F7
:1030C0003B734FF00103BB734FF00003FB730AE047
:1030D0004FF000033B734FF00003BB734FF001034D
:1030E000FB7300E000BF40F26C03C2F200037A6899
:1030F00053F8222007F108031046194600F098FC07
:1031000007F11007BD4680BD80B582B000AF786082
:103110000B46FB707B68032B08D07B68052B05D022
:103120007B68062B02D07B68092B64D17B68A3F1F6
:103130000303062B00F2888001A252F823F000BF9F
:103140005D3100084932000883310008A9310008C8
:103150004932000849320008CF310008FB78012BC2
:1031600007D14FF40063C4F200034FF6FF725A63B5
:1031700040E04FF40063C4F200034FF000025A63D2
:1031800038E0FB78012B07D14FF40063C4F2000351
:103190004FF6FF729A632DE04FF40063C4F2000310
:1031A0004FF000029A6325E0FB78012B07D14FF422
:1031B0000063C4F200034FF6FF72DA631AE04FF4C3
:1031C0000063C4F200034FF00002DA6312E0FB7800
:1031D000012B07D14FF40063C4F200034FF6FF72D6
:1031E0001A6406E04FF40063C4F200034FF00002DB
:1031F0001A6400BF28E0FB78012B12D140F26C0367
:10320000C2F200037A6853F822204AF24C53C0F607
:103210000103796833F811301046194600F0AAFC12
:1032200013E040F26C03C2F200037A6853F82220E4
:103230004AF24C53C0F60103796833F81130104656
:10324000194600F0A5FC00E000BF07F10807BD46E5
:1032500080BD00BF80B58CB000AF4FF480604FF0F0
:103260000101FFF769FB4AF27453C0F601035B6C7E
:1032700018464FF00101FFF70BFB4AF24C53C0F622
:1032800001035B8C3B604FF003033B714FF0000385
:10329000FB7140F26C03C2F200035A6C3B461046CD
:1032A000194600F0C5FB4FF00003BB604FF0000370
:1032B000FB604FF000033B614FF4A0637B6107F1BB
:1032C00008031846FFF76CFD4FF08073BB614FF0A9
:1032D00000033B774FF000037B774FF000033B6226
:1032E0004FF000033B624FF00003BB624FF001035D
:1032F00087F82C3007F118034FF40850C4F201008E
:103300001946FFF7F1FC4FF40850C4F201004FF0EA
:103310000B014FF001024FF00103FFF78BFD4FF45B
:103320000850C4F201004FF00101FFF767FD07F1FB
:103330003007BD4680BD00BF80B500AF4FF0040030
:103340004FF00101FFF7CEFA41F63423C2F2000339
:103350004FF6FF725A6041F63423C2F200034FF079
:1033600000021A8041F63423C2F200034FF000023B
:103370001A8141F63423C2F200034FF000025A8052
:103380004FF40060C4F2000041F63421C2F20001A3
:1033900003F0B4FE41F64023C2F200034FF0600296
:1033A0001A8041F64023C2F200034FF000029A81D6
:1033B00041F64023C2F200034FF001025A8041F669
:1033C0004023C2F200034FF000029A604FF4006005
:1033D000C4F2000041F64021C2F2000103F048FFB0
:1033E0004FF40060C4F200004FF0080104F052F9FD
:1033F00041F64023C2F200034FF001025A8041F629
:103400004023C2F200034FF000029A604FF40060C4
:10341000C4F2000041F64021C2F2000103F0A6FF11
:103420004FF40060C4F200004FF0080104F04EF9C0
:1034300041F64023C2F200034FF001025A8041F6E8
:103440004023C2F200034FF000029A604FF4006084
:10345000C4F2000041F64021C2F2000104F01AF863
:103460004FF40060C4F200004FF0080104F04EF980
:1034700041F64023C2F200034FF001025A8041F6A8
:103480004023C2F200034FF000029A604FF4006044
:10349000C4F2000041F64021C2F2000104F08AF8B3
:1034A0004FF40060C4F200004FF0080104F04AF944
:1034B0004FF40060C4F200004FF0010103F098FEE9
:1034C0004FF40060C4F200004FF0010103F0B0FEC1
:1034D00080BD00BF80B584B002AF786039607B6882
:1034E000012B13D13A684FF6FF739A420ED14FF079
:1034F0000003009340F68830C2F200004FF0000154
:103500004FF000024FF00003FEF738FD07F1080707
:10351000BD4680BD80B500AF4FF001004FF6FF7192
:10352000FFF7D8FF80BD00BF80B483B000AF034673
:103530003960FB713B684FF012021A8040F2D803E9
:10354000C2F20003184607F10C07BD4680BC704765
:1035500080B483B000AF03463960FB713B684FF025
:1035600004021A8040F2F803C2F20003184607F181
:103570000C07BD4680BC704780B582B000AF0346E3
:103580003960FB71FB79002B0BD14AF21460C0F655
:10359000010041F65421C2F200013A6801F040FDF9
:1035A0000AE04AF23860C0F6010041F65421C2F246
:1035B00000013A6801F034FD41F65423C2F20003E1
:1035C000184607F10807BD4680BD00BF80B582B030
:1035D00000AF03463960FB714AF25C60C0F601003F
:1035E00041F65421C2F200013A6801F019FD41F69A
:1035F0005423C2F20003184607F10807BD4680BDF8
:1036000080B582B000AF03463960FB71FB79002BB7
:103610000BD14AF27060C0F6010041F65421C2F2AB
:1036200000013A6801F0FCFC0AE04AF28060C0F652
:10363000010041F65421C2F200013A6801F0F0FCA9
:1036400041F65423C2F20003184607F10807BD46AD
:1036500080BD00BF80B582B000AF03463960FB710A
:10366000FB79002B0BD14AF29060C0F6010041F6C5
:103670005421C2F200013A6801F0D2FC0AE04AF299
:103680009060C0F6010041F65421C2F200013A6890
:1036900001F0C6FC41F65423C2F20003184607F1BC
:1036A0000807BD4680BD00BF80B582B000AF0346AD
:1036B0003960FB71FB79002B0BD14AF29C60C0F69C
:1036C000010041F65421C2F200013A6801F0A8FC61
:1036D0000AE04AF29C60C0F6010041F65421C2F2B1
:1036E00000013A6801F09CFC41F65423C2F2000349
:1036F000184607F10807BD4680BD00BF90B583B0EE
:1037000000AF786039603B68002B02D14FF00003B6
:103710000DE07B681B6803F104031C68386806F041
:103720008DFE0346786839681A46A0470346184656
:1037300007F10C07BD4690BD80B586B000AFF860BC
:10374000B9607A604FF000037B610FE0FB681B6893
:103750001B68BA681278B96801F10101B960F868AC
:103760001146984703467A69D3187B617B68002B22
:103770000CBF00230123DBB27A6802F1FF327A60CA
:10378000002BE3D17B69184607F11807BD4680BDC1
:1037900080B582B000AF7860396078683968FFF72B
:1037A000ADFF0346184607F10807BD4680BD00BFC0
:1037B00080B582B000AF78600B46FB707B681B68F9
:1037C0001B68FA787868114698470346184607F14F
:1037D0000807BD4680BD00BF80B584B000AFF8606B
:1037E0000B467A60FB72FB7AF86819467A6800F03B
:1037F00061F80346184607F11007BD4680BD00BFBB
:1038000080B584B000AFF860B9607A60F868B968D4
:103810007A6800F007F80346184607F11007BD461E
:1038200080BD00BF80B586B000AFF860B9607A6037
:103830007B68002B09D1FB681B681B68BA68D2B291
:10384000F8681146984703462EE07B680A2B22D180
:10385000BB68002B16DAF8684FF02D01FFF7A8FFC0
:1038600003467B61BB68C3F10003BB60BB68F868BB
:1038700019464FF00A0200F089F803461A467B69A0
:10388000D31811E0BB68F86819464FF00A0200F03F
:103890007DF8034608E0BA687B68DBB2F868114639
:1038A0001A4600F073F80346184607F11807BD469C
:1038B00080BD00BF80B584B000AFF860B9607A60A9
:1038C0007B68002B09D1FB681B681B68BA68D2B201
:1038D000F86811469847034607E07B68DBB2F86852
:1038E000B9681A4600F052F80346184607F1100767
:1038F000BD4680BD80B584B000AF786078684FF079
:103900000D01FFF755FF0346FB6078684FF00A0191
:10391000FFF74EFF0346FA68D318FB60FB681846B2
:1039200007F11007BD4680BD80B584B000AF786058
:10393000396078683968FFF72BFF0346FB607868C9
:10394000FFF7D8FF0346FA68D318FB60FB681846F8
:1039500007F11007BD4680BD80B586B000AFF860A6
:10396000B9607A60F868B9687A68FFF749FF03467A
:103970007B61F868FFF7BEFF03467A69D3187B6165
:103980007B69184607F11807BD4680BD80B590B029
:1039900000AFF860B9601346FB7107F1140303F13F
:1039A0002003FB63FB6B4FF000021A70FB79012BC5
:1039B00002D84FF00A03FB71BB68BB63FB79BA689E
:1039C000B2FBF3F3BB60BB6BDAB2BB68DBB2F97975
:1039D00001FB03F3DBB2D31A87F83730FB6B03F13B
:1039E000FF33FB6397F83730092B05D897F837304A
:1039F00003F13003DBB204E097F8373003F137030B
:103A0000DBB2FA6B1370BB68002B0CBF00230123E1
:103A1000DBB2002BD0D1F868F96BFFF76FFE0346DD
:103A200001E00AF0F3FE184607F14007BD4680BDED
:103A300080B487B000AF786039604FF000037B61DD
:103A40004FF000033B614FF00003FB604FF00003B9
:103A50007B6186E07B694FF0010202FA03F33B6170
:103A60003B681A683B691340FB60FA683B699A42FD
:103A700073D17B681A687B694FEA43034FF00301F7
:103A800001FA03F36FEA03031A407B681A607B684C
:103A90001A683B681B7919467B694FEA430301FAB0
:103AA00003F31A437B681A603B681B79012B03D030
:103AB0003B681B79022B34D17B689A687B694FEA9B
:103AC00043034FF0030101FA03F36FEA03031A40C3
:103AD0007B689A607B689A683B685B7919467B696A
:103AE0004FEA430301FA03F31A437B689A607B6849
:103AF0005A687B699BB24FF0010101FA03F36FEA48
:103B000003031A407B685A607B685A683B689B795C
:103B100019467B699BB201FA03F39BB21A437B6897
:103B20005A607B68DA687B699BB24FEA43034FF0C7
:103B3000030101FA03F36FEA03031A407B68DA60BA
:103B40007B68DA683B68DB7919467B694FEA430397
:103B500001FA03F31A437B68DA607B6903F101031E
:103B60007B617B690F2B7FF675AF07F11C07BD46A4
:103B700080BC704780B483B000AF78600B467B8018
:103B80007B687A881A8307F10C07BD4680BC7047B2
:103B900080B483B000AF78600B467B807B687A8806
:103BA0005A8307F10C07BD4680BC704780B485B0CE
:103BB00000AF786013460A467A807B704FF00003AE
:103BC000FB604FF00003BB607A787B8803F007034B
:103BD0004FEA830302FA03F3FB607B884FEAD303C7
:103BE0009BB21A467B884FEAD3039BB219467B6887
:103BF00001F1080153F821107B8803F007034FEA15
:103C000083034FF00F0000FA03F36FEA0303194038
:103C10007B6802F1080243F822107B884FEAD30345
:103C20009BB21A467B6802F1080253F82220FB6817
:103C30001343BB607B884FEAD3039BB21A467B6871
:103C400002F10802B96843F8221007F11407BD46D3
:103C500080BC704780B400AF4FF000031846BD46EB
:103C600080BC704780B400AF4FF000031846BD46DB
:103C700080BC704780B485B000AFF860B9607A60EE
:103C8000FB68232B00F2CF8001A252F823F000BF83
:103C9000273E0008273E0008273E0008273E000870
:103CA000273E0008273E0008273E0008273E000860
:103CB000273E0008273E0008273E0008273E000850
:103CC000273E0008273E0008273E0008273E000840
:103CD000273E0008273E0008273E0008273E000830
:103CE000273E0008273E0008273E0008273E000820
:103CF000273E0008273E0008273E0008273E000810
:103D0000273E0008273E0008273E0008273E0008FF
:103D1000213D0008973D0008273E0008273E000887
:103D2000BB681B781A46BB6803F101031B784FEA96
:103D300003231A43BB6803F102031B784FEA0343D2
:103D40001A43BB6803F103031B784FEA0363134371
:103D50001A4640F2FC03C2F200031A60BB681A79EB
:103D600040F2FC03C2F200031A71BB685A7940F2B8
:103D7000FC03C2F200035A71BB689A7940F2FC035B
:103D8000C2F200039A7140F69033C2F200034FF082
:103D900000021A6048E040F2FC03C2F200031B6814
:103DA000DAB2BB681A70BB6803F1010240F2FC038F
:103DB000C2F200031B684FEA1323DBB21370BB6827
:103DC00003F1020240F2FC03C2F200031B684FEA57
:103DD0001343DBB21370BB6803F1030240F2FC0330
:103DE000C2F200031B684FEA1363DBB21370BB68B7
:103DF00003F1040240F2FC03C2F200031B791370CA
:103E0000BB6803F1050240F2FC03C2F200035B79D8
:103E10001370BB6803F1060240F2FC03C2F2000318
:103E20009B79137000E000BF4FF00003184607F1C4
:103E30001407BD4680BC704780B485B000AF786081
:103E400039604FF00003FB601DE040F6BC33C2F266
:103E500000031A687968FB68CB18197841F690431B
:103E6000C2F20003995440F6BC33C2F200031B684F
:103E700003F1010240F6BC33C2F200031A60FB6892
:103E800003F10103FB60FA683B689A42DDD340F618
:103E9000BC33C2F200031B68B3F5006F06D140F6D5
:103EA000BC33C2F200034FF000021A604FF000036F
:103EB000184607F11407BD4680BC704780B582B034
:103EC00000AF786039603B68DBB240F6D830C2F2B0
:103ED000000079681A46FDF7EDFF4FF00003184621
:103EE00007F10807BD4680BD80B582B000AF78609D
:103EF000396078683968FFF79FFF07F10807BD460A
:103F000080BD00BF80B500AF4FF46053C4F2020320
:103F10004FF46052C4F20202126842F001021A60C9
:103F20004FF46053C4F202034FF000029A604FF462
:103F30006053C4F202034FF46052C4F202021268EA
:103F400022F0847222F480321A604FF46053C4F27B
:103F5000020343F21002C2F200425A604FF460536F
:103F6000C4F202034FF46052C4F20202126822F457
:103F700080221A604FF46053C4F202034FF0000233
:103F8000DA6000F009F84FF46D43CEF200034FF011
:103F900000629A6080BD00BF80B483B000AF4FF074
:103FA00000037B604FF000033B604FF46053C4F2AA
:103FB00002034FF46052C4F20202126842F48032EB
:103FC0001A604FF46053C4F202031B6803F4003319
:103FD0003B607B6803F101037B603B68002B03D1EE
:103FE0007B68B3F5A06FECD14FF46053C4F20203C9
:103FF0001B6803F40033002B03D04FF001033B6038
:1040000002E04FF000033B603B68012B40F08280F0
:104010004FF46053C4F202034FF46052C4F2020240
:10402000126C42F080521A644FF4E043C4F2000371
:104030004FF4E042C4F20002126842F480421A6077
:104040004FF46053C4F202034FF46052C4F2020210
:1040500092689A604FF46053C4F202034FF46052C6
:10406000C4F20202926842F400429A604FF4605334
:10407000C4F202034FF46052C4F20202926842F4A6
:10408000A0529A604FF46053C4F2020345F2144206
:10409000C0F240725A604FF46053C4F202034FF40E
:1040A0006052C4F20202126842F080721A6000BFCD
:1040B0004FF46053C4F202031B6803F00073002B3B
:1040C000F6D04FF47053C4F2020340F205621A6056
:1040D0004FF46053C4F202034FF46052C4F2020280
:1040E000926822F003029A604FF46053C4F2020314
:1040F0004FF46052C4F20202926842F002029A60E7
:1041000000BF4FF46053C4F202039B6803F00C033A
:10411000082BF6D107F10C07BD4680BC704700BFE5
:1041200080B485B000AF786040F69433C2F20003EB
:104130001B68002B08D140F69433C2F2000342F210
:104140009442C2F200021A6040F69433C2F20003B5
:104150001B68FB6040F69433C2F200031A687B6868
:10416000D21840F69433C2F200031A60FB68184676
:1041700007F11407BD4680BC704700BF80B483B010
:1041800000AF78604FF0FF33184607F10C07BD46CB
:1041900080BC704780B483B000AF786039603B6802
:1041A0004FF400525A604FF00003184607F10C0715
:1041B000BD4680BC704700BF80B483B000AF78605C
:1041C0004FF00103184607F10C07BD4680BC70474D
:1041D00080B485B000AFF860B9607A604FF000033A
:1041E000184607F11407BD4680BC704780B485B0FF
:1041F00000AFF860B9607A604FF00003184607F12D
:104200001407BD4680BC704780B485B000AFF8602D
:10421000B9607A607B68184607F11407BD4680BC18
:10422000704700BF80B400AFFEE700BF80B582B02A
:1042300000AF78607B681846FEF718FD7B68064A79
:104240001A607B684FF47A729A607B68184607F1AF
:104250000807BD4680BD00BF20A5010880B584B019
:1042600002AF786039607B68012B13D13A684FF652
:10427000FF739A420ED14FF00003009340F698303E
:10428000C2F200004FF000014FF000024FF00003B7
:10429000FDF774FE07F10807BD4680BD80B500AF8D
:1042A0004FF001004FF6FF71FFF7D8FF80BD00BF50
:1042B00080B584B000AF78604FF007004FF0010187
:1042C000FEF7E6FA4FF02003BB604FF003037B7369
:1042D0004FF002033B7307F108034FF00000C4F2F4
:1042E00002001946FFF7A4FB4FF00803BB604FF034
:1042F00003037B734FF002033B734FF00003BB7368
:104300004FF00003FB7307F108034FF00000C4F205
:1043100002001946FFF78CFB43F62343BB604FF0C6
:1043200003037B734FF002033B734FF00003BB7337
:104330004FF00003FB7307F108034FF48060C4F2F1
:1043400002001946FFF774FB4FF00103BB604FF00A
:1043500003037B734FF002033B7307F108034FF431
:104360000060C4F202001946FFF762FB4FF0080339
:10437000BB604FF003037B734FF002033B7307F105
:1043800008034FF40060C4F202001946FFF750FB27
:104390004FF00403BB604FF003037B734FF0020345
:1043A0003B7307F108034FF40060C4F202001946A2
:1043B000FFF73EFB4FF00000C4F202004FF0030194
:1043C0004FF00A02FFF7F2FB4FF00000C4F20200C8
:1043D0004FF005014FF00A02FFF7E8FB4FF4806051
:1043E000C4F202004FF000014FF00A02FFF7DEFBBB
:1043F0004FF48060C4F202004FF001014FF00A0256
:10440000FFF7D4FB4FF48060C4F202004FF00501C7
:104410004FF00A02FFF7CAFB4FF48060C4F20200BB
:104420004FF00A014FF00A02FFF7C0FB4FF4806023
:10443000C4F202004FF00B014FF00A02FFF7B6FB87
:104440004FF48060C4F202004FF00C014FF00A02FA
:10445000FFF7ACFB4FF48060C4F202004FF00D0197
:104460004FF00A02FFF7A2FB4FF40060C4F2020013
:104470004FF003014FF00A02FFF798FB4FF4006082
:10448000C4F202004FF002014FF00A02FFF78EFB68
:104490004FF40060C4F202004FF000014FF00A0236
:1044A000FFF784FB4FF0C0404FF00101FEF7F0F939
:1044B00007F11007BD4680BD80B584B000AF7860BD
:1044C0004FF4C06002F080F94FF04D033B734FF0A2
:1044D00001037B734FF00303BB734FF00103FB73C6
:1044E00007F10C03184602F083F94FF4C06002F0A4
:1044F0006BF94FF04A033B734FF001037B734FF0AE
:104500000203BB734FF00103FB7307F10C03184662
:1045100002F06EF94FF4C06002F056F94FF04B0311
:104520003B734FF001037B734FF00103BB734FF0FC
:104530000103FB7307F10C03184602F059F907F168
:104540001007BD4680BD00BF80B485B000AF786065
:104550004FF00003FB607A6813464FEA03139B1A7F
:104560004FEAC3031A4644F62513C2F29243A3FB53
:104570000213D21A4FEA52029B184FEA9303BB6010
:1045800000E000BFFB6803F10103FB60FA68BB6851
:104590009A42F6D900BF07F11407BD4680BC7047A8
:1045A00080B582B000AF78607B684FF47A7202FB0E
:1045B00003F31846FFF7C8FF07F10807BD4680BDA3
:1045C00080B584B002AF786039607B68012B13D16D
:1045D0003A684FF6FF739A420ED14FF000030093F2
:1045E00040F6A030C2F200004FF000014FF0000290
:1045F0004FF00003FDF7C2FC07F10807BD4680BD80
:1046000080B500AF4FF001004FF6FF71FFF7D8FF04
:1046100080BD00BF80B584B000AF786039604FF0D6
:104620000003FB733B685B78092B3AD801A252F870
:1046300023F000BF8546000899460008A3460008FD
:104640008F460008A3460008674600085D4600083C
:10465000A34600087B460008714600087868396860
:1046600000F052F922E07868396800F089FA1DE01C
:104670007868396800F0C4FA18E07868396800F0A2
:1046800059FB13E07868396800F088FB0EE0786821
:10469000396800F0B7FB09E07868396800F022FC5F
:1046A00004E07868396800F093FC00BFFB7B184693
:1046B00007F11007BD4680BD80B584B000AF7860BB
:1046C00039604FF00003FB737B6893F81231032BC2
:1046D0001BD13B689B88DBB2012B11D87B68D3F8D8
:1046E000E0359B687868396898473B68DB88002B21
:1046F00010D1FB7B002B0DD1786802F0C3FC09E0E0
:104700007868396800F064FC04E07868396800F083
:104710005FFC00E000BFFB7B184607F11007BD46B9
:1047200080BD00BF80B584B000AF786039604FF0C5
:104730000003FB733B689B88BB733B685B78012B72
:1047400039D0032B02D0002B6CD0D5E07B6893F8D6
:104750001231022B02D0032B0CD025E0BB7B002BA7
:1047600027D0BB7B802B24D0BB7B7868194602F016
:1047700065FA1EE03B685B88002B0AD1BB7B002BEF
:1047800007D0BB7B802B04D0BB7B7868194602F036
:1047900055FA7B68D3F8E0359B68786839689847A4
:1047A000786802F06FFC05E07868396800F010FC6A
:1047B00000E000BFA1E07B6893F81231022B02D029
:1047C000032B0CD025E0BB7B002B27D0BB7B802BA1
:1047D00024D0BB7B7868194602F030FA1EE03B68B3
:1047E0005B88002B1CD1BB7B002B0ED0BB7B802BAE
:1047F0000BD0BB7B7868194602F062FA7B68D3F86D
:10480000E0359B68786839689847786802F03AFC28
:1048100006E07868396800F0DBFB02E000BF00E0EA
:1048200000BF6AE07B6893F81231022B02D0032BA1
:104830000CD05AE0BB7B002B5CD0BB7B802B59D0CB
:10484000BB7B7868194602F0F9F953E0BB7B5BB299
:10485000002B1FDABB7B03F07F02796813464FEA17
:1048600083039B184FEAC303CB1803F58C739B7823
:10487000002B07D040F6A833C2F200034FF001022C
:104880001A6028E040F6A833C2F200034FF000029D
:104890001A6020E0BB7B5BB2002B1CDBBA7B796823
:1048A00013464FEA83039B184FEAC303CB1803F563
:1048B0005C739B78002B07D040F6A833C2F200034C
:1048C0004FF001021A6006E040F6A833C2F200037E
:1048D0004FF000021A60786840F6A831C2F2000179
:1048E0004FF0020202F056FB05E07868396800F0EC
:1048F0006FFB00E000BF00E000BFFB7B184607F144
:104900001007BD4680BD00BF80B584B000AF7860A1
:1049100039603B685B884FEA13239BB203F1FF3396
:10492000062B00F20E8101A252F823F0494900083B
:104930007D490008D3490008434B0008434B000859
:10494000A54A00080B4B00087B68D3F8E8351B68C4
:104950007A68917807F10A02084611469847F8608C
:104960003B68DB88402B05D07B6893F81231012B24
:1049700040F0EC804FF008037B81E7E07B68D3F8E0
:10498000E0359B6A7A68917807F10A020846114679
:104990009847F8607B689B78012B0FD17B681B7A66
:1049A000012B0BD17B68D3F8E035DB6A7A6891780C
:1049B00007F10A02084611469847F860FB6803F1C0
:1049C00001034FF002021A707B68FA68C3F8EC2505
:1049D000BDE03B685B88DBB2052B5DD801A252F8D5
:1049E00023F000BFFD490008174A0008314A0008BB
:1049F0004B4A0008654A00087F4A00087B68D3F8E4
:104A0000E8355B687A68917807F10A020846114632
:104A10009847F86045E07B68D3F8E8359B687A688A
:104A2000917807F10A02084611469847F86038E085
:104A30007B68D3F8E835DB687A68917807F10A0279
:104A4000084611469847F8602BE07B68D3F8E835B4
:104A50001B697A68917807F10A020846114698475F
:104A6000F8601EE07B68D3F8E8355B697A68917876
:104A700007F10A02084611469847F86011E07B6882
:104A8000D3F8E8359B697A68917807F10A020846FD
:104A900011469847F86004E07868396800F098FAA1
:104AA0006AE054E07B689B78002B29D17B68D3F8BF
:104AB000E0359B6A7A68917807F10A020846114648
:104AC0009847F860FB689A7B40F2EC03C2F200035F
:104AD0001A71FB68DA7B40F2EC03C2F200035A71F0
:104AE000FB681A7C40F2EC03C2F200039A7140F2B8
:104AF000EC03C2F20003FB604FF00A037B8126E067
:104B00007868396800F064FA36E07B689B78002B9F
:104B100012D17B68D3F8E035DB6A7A68917807F1C7
:104B20000A02084611469847F860FB6803F1010342
:104B30004FF007021A700AE07868396800F048FA06
:104B40001AE07868396800F043FA15E000BF7B8905
:104B5000002B11D03B68DB88002B0DD03B68DA8836
:104B60007B899A4238BF13469BB27B817B897868E8
:104B7000F9681A4602F00EFA07F11007BD4680BD2B
:104B800080B584B000AF786039603B689B88002BAB
:104B90002ED13B68DB88002B2AD13B685B88DBB2D7
:104BA00003F07F03FB737B6893F81231032B04D16E
:104BB0007868396800F00CFA1EE07B68FA7B83F8AD
:104BC0001321FB7B7868194602F0BCF8786802F084
:104BD00059FAFB7B002B05D07B684FF0020283F86B
:104BE000122109E07B684FF0010283F8122103E0F3
:104BF0007868396800F0ECF907F11007BD4680BD10
:104C000080B582B000AF786039603B685B88DAB20B
:104C100040F6B433C2F200031A7040F6B433C2F265
:104C200000031B78012B04D97868396800F0D0F9AB
:104C30007CE07B6893F81231022B02D0032B25D045
:104C40006FE040F6B433C2F200031B78002B19D09A
:104C500040F6B433C2F200031A787B6883F810215F
:104C60007B684FF0030283F8122140F6B433C2F29E
:104C700000031B7878681946FDF79CFD786802F000
:104C800001FA53E0786802F0FDF94FE040F6B433E2
:104C9000C2F200031B78002B19D17B684FF002028F
:104CA00083F8122140F6B433C2F200031A787B680D
:104CB00083F8102140F6B433C2F200031B78786801
:104CC0001946FDF791FD786802F0DCF92EE07B686B
:104CD00093F8102140F6B433C2F200031B789A42D5
:104CE0001BD07B6893F8103178681946FDF77CFD7E
:104CF00040F6B433C2F200031A787B6883F81021BF
:104D000040F6B433C2F200031B7878681946FDF709
:104D100051FD786802F0B6F908E0786802F0B2F95F
:104D200004E07868396800F053F900BF07F108071C
:104D3000BD4680BD80B582B000AF786039603B6809
:104D4000DB88012B04D07868396800F041F920E055
:104D50007B6893F81231022B02D0032B0AD013E0A8
:104D6000786840F6AC31C2F200014FF0010202F067
:104D700011F90EE07B6803F58873786819464FF0E7
:104D8000010202F007F904E07868396800F020F9C0
:104D900000BF07F10807BD4680BD00BF80B582B0E7
:104DA00000AF786039607B6893F81231A3F1020399
:104DB000012B1DD87B68D3F81431002B07D040F6A7
:104DC000B033C2F200034FF003021A6006E040F66F
:104DD000B033C2F200034FF001021A60786840F667
:104DE000B031C2F200014FF0010202F0D3F804E04A
:104DF0007868396800F0ECF800BF07F10807BD4695
:104E000080BD00BF80B584B000AF786039604FF0DE
:104E10000003FB733B685B88012B0FD17B684FF06D
:104E20000102C3F814217B68D3F8E0359B687868E9
:104E300039689847786802F025F94FE03B685B884D
:104E4000022B4BD13B689B88DBB2002B46D17B68A1
:104E50001B695B68BB603B689B884FEA13239BB26E
:104E6000FB73FB7B03F1FF33042B30D801A252F814
:104E700023F000BF894E0008974E0008A54E000899
:104E8000B34E0008C14E0008BB684FF0010262F348
:104E90000613BB601BE0BB684FF0020262F306130F
:104EA000BB6014E0BB684FF0030262F30613BB6003
:104EB0000DE0BB684FF0040262F30613BB6006E02E
:104EC000BB684FF0050262F30613BB6000BF7B684E
:104ED0001B69BA685A60786802F0D4F807F11007C5
:104EE000BD4680BD80B582B000AF786039607B6818
:104EF00093F81231A3F10203012B13D83B685B88AE
:104F0000012B15D17B684FF00002C3F814217B6898
:104F1000D3F8E0359B68786839689847786802F07C
:104F2000B1F805E07868396800F052F800BF00E099
:104F300000BF07F10807BD4680BD00BF80B483B045
:104F400000AF786039607B6893F8C8253B681A70B9
:104F50007B6893F8C9253B685A707B6893F8CA351B
:104F60001A467B6893F8CB354FEA03239BB2D318DC
:104F70009AB23B685A807B6893F8CC351A467B68B6
:104F800093F8CD354FEA03239BB2D3189AB23B680E
:104F90009A807B6893F8CE351A467B6893F8CF35B4
:104FA0004FEA03239BB2D3189AB23B68DA803B687E
:104FB000DB881A467B68C3F83C217B684FF001020E
:104FC00083F8112107F10C07BD4680BC704700BF74
:104FD00080B582B000AF786039603B681B78DBB287
:104FE0005BB2002B05DA78684FF0800101F026FEF5
:104FF0000EE03B68DB88002B05D178684FF080011C
:1050000001F01CFE04E078684FF0000101F016FE8C
:105010007868FCF7A1FB07F10807BD4680BD00BF1B
:1050200080B586B000AFF860B9607A604FF00003D9
:10503000FB75FB68002B3DD0F86800F03FF8034695
:1050400003F101039BB24FEA43039AB27B681A80D3
:10505000FB7DBA68D3187A681288D2B21A70FB7DC9
:1050600003F10103FB75FB7DBA68D3184FF003020F
:105070001A70FB7D03F10103FB7517E0FB7DBA6835
:10508000D318FA6812781A70FB7D03F10103FB75DF
:10509000FB6803F10103FB60FB7DBA68D3184FF096
:1050A00000021A70FB7D03F10103FB75FB681B789E
:1050B000002BE3D107F11807BD4680BD80B485B051
:1050C00000AF78604FF00003FB7307E0FB7B03F158
:1050D0000103FB737B6803F101037B607B681B7832
:1050E000002BF3D1FB7B184607F11407BD4680BCAB
:1050F000704700BF80B584B000AF78607B689B6D5F
:105100009B68FB60FA687B681B69D3F884301340A6
:10511000FB603B7B03F00103DBB2002B26D04FF09A
:105120000003FB60FB6843F00103FB607B689B6D41
:10513000FA689A607B68DB78012B0DD17B689B6DE8
:105140001B69BB607B68D3F8A023BB68C3F3120361
:10515000D21A7B68C3F8B02340F26803C2F200039E
:105160001B681B6878684FF0010198473B7B03F090
:105170000203DBB2002B0AD04FF00003FB60FB6898
:1051800043F00203FB607B689B6DFA689A603B7B8F
:1051900003F00403DBB2002B0AD04FF00003FB60E6
:1051A000FB6843F00403FB607B689B6DFA689A60C0
:1051B0004FF00103184607F11007BD4680BD00BF40
:1051C00080B586B000AF78607B681B695B6C7B61E3
:1051D0007B681B695B6B3B613B694FEA53034FEA9A
:1051E000C313DBB27A6913437B617B68DB699A681E
:1051F0007B691340BB603B7A03F00103DBB2002BF9
:1052000021D04FF00203FB607B681B697A6812694A
:10521000516BFA686FEA02020A405A634FF00003CA
:10522000BB60BB6843F00103BB607B68DB69BA68A5
:105230009A6040F26803C2F200031B685B687868FA
:105240004FF0010198473B7A03F00403DBB2002BD7
:105250000AD04FF00003BB60BB6843F00403BB609F
:105260007B68DB69BA689A603B7A03F00203DBB2C1
:10527000002B0AD04FF00003BB60BB6843F0020371
:10528000BB607B68DB69BA689A603B7A03F008030D
:10529000DBB2002B0AD04FF00003BB60BB6843F0C9
:1052A0000803BB607B68DB69BA689A603B7A03F0ED
:1052B0001003DBB2002B0AD04FF00003BB60BB68C9
:1052C00043F01003BB607B68DB69BA689A603B7A85
:1052D00003F02003DBB2002B0AD04FF00003BB60C9
:1052E000BB6843F02003BB607B68DB69BA689A60E7
:1052F0003B7A03F04003DBB2002B0AD04FF00003EF
:10530000BB60BB6843F04003BB607B68DB69BA6885
:105310009A603B7A23F07F03DBB2002B0FD07868D2
:105320004FF0010100F0F8FB4FF00003BB60BB68D9
:1053300043F08003BB607B68DB69BA689A604FF01A
:105340000103184607F11807BD4680BD80B586B039
:1053500000AF78604FF000037B617868FBF732FBA9
:105360000346002B00F09E807868FBF73DFB034668
:105370003B613B69002B02D14FF0000393E0BB7C03
:1053800003F00803DBB2002B06D0786800F044FA83
:1053900003467A6913437B61BB7C03F00403DBB2F1
:1053A000002B06D0786800F021F903467A69134390
:1053B0007B613B7C03F00203DBB2002B0AD04FF091
:1053C0000003FB60FB6843F00203FB607B68DB6863
:1053D000FA685A61FB7C23F07F03DBB2002B06D016
:1053E000786800F065F803467A6913437B617B7C3B
:1053F00003F00803DBB2002B06D0786800F09EF8BB
:1054000003467A6913437B613B7C03F00803DBB2FC
:10541000002B06D0786800F0D7FA03467A69134368
:105420007B613B7C03F01003DBB2002B06D0786875
:1054300000F0E8FA03467A6913437B617B7C03F052
:105440001003DBB2002B06D0786800F0E5FB0346C2
:105450007A6913437B617B7C03F02003DBB2002B72
:1054600006D0786800F098FC03467A6913437B61A4
:10547000BB7C03F01003DBB2002B06D0786800F091
:10548000CFFC03467A6913437B61BB7C03F02003A6
:10549000DBB2002B06D0786800F0E0FC03467A69A6
:1054A00013437B617B69184607F11807BD4680BD31
:1054B00080B586B000AF78607B689B7A002B11D0F6
:1054C0007B6803F586731B68FB60FB686FF3410321
:1054D000FB60FB686FF30003FB607B68D3F80C3163
:1054E000FA681A604FF000033B613B6943F0010327
:1054F0003B617B681B697A68126951683A696FEA97
:1055000002020A405A6040F26803C2F200031B68BC
:105510009B69786898474FF000037B617B6943F093
:1055200000437B617B68DB687A695A614FF0010355
:10553000184607F11807BD4680BD00BF80B586B08C
:1055400000AF786040F26803C2F200031B685B6939
:10555000786898477B681B699B68FB604FF0000385
:105560007B617B6943F400637B617B68DB687A69FC
:105570005A617B689B7A002B30D03B7B03F00103A0
:10558000DBB2002B2AD04FF000033B613B6943F0B4
:1055900001033B617B68D3F80C317A68D2F80C21A7
:1055A00011683A690A431A603B6943F002033B61A0
:1055B0007B68D3F80C317A68D2F80C2111683A690B
:1055C0000A431A604FF46D43CEF200034FF46D426C
:1055D000CEF20002126942F006021A614FF0010396
:1055E000184607F11807BD4680BD00BF80B586B0DC
:1055F00000AF78604FF000033B614FF00003BB60E9
:105600007868FCF78FF87861FBE07B6903F00103B1
:10561000002B00F0EE803B69DBB27868194600F0A1
:105620003BFC0346BB603B7A03F00103DBB2002B7B
:105630003AD03B694FF0010202FA03F3FB607B684A
:105640001B697A681269516BFA686FEA02020A40B4
:105650005A634FF00003BB60BB6843F00103BB60BB
:105660007A683B6903F104034FEA8303D3189B680C
:10567000BA689A6040F26803C2F200031B685B6874
:105680003A69D2B27868114698477B68DB78012B7B
:105690000AD13B69002B07D17B6893F81131042BA9
:1056A00002D17868FCF758F83B7A03F00403DBB2C8
:1056B000002B10D04FF00003BB60BB6843F0040325
:1056C000BB607A683B6903F104034FEA8303D31894
:1056D0009B68BA689A603B7A03F00803DBB2002B40
:1056E00010D04FF00003BB60BB6843F00803BB6001
:1056F0007A683B6903F104034FEA8303D3189B687C
:10570000BA689A603B7A03F01003DBB2002B10D02A
:105710004FF00003BB60BB6843F01003BB607A68C6
:105720003B6903F104034FEA8303D3189B68BA680B
:105730009A603B7A03F02003DBB2002B10D04FF0CD
:105740000003BB60BB6843F02003BB607A683B6921
:1057500003F104034FEA8303D3189B68BA689A6085
:105760003B7A03F04003DBB2002B10D04FF0000374
:10577000BB60BB6843F04003BB607A683B6903F1E0
:1057800004034FEA8303D3189B68BA689A603B7A94
:1057900003F00203DBB2002B10D04FF00003BB601C
:1057A000BB6843F00203BB607A683B6903F1040302
:1057B0004FEA8303D3189B68BA689A603B7A23F058
:1057C0007F03DBB2002B14D07868396900F0A4F9AC
:1057D0004FF00003BB60BB6843F08003BB607A6896
:1057E0003B6903F104034FEA8303D3189B68BA684B
:1057F0009A603B6903F101033B617B694FEA530304
:105800007B617B69002B7FF400AF4FF001031846EA
:1058100007F11807BD4680BD80B586B000AF78603F
:105820004FF000033B614FF00003FB607868FBF72B
:1058300043FF7861BDE07B6903F00103002B00F0BA
:10584000B0803B69DBB278681946FBF74DFF034631
:10585000FB603B7B03F00103DBB2002B54D04FF025
:105860000003FB60FB6843F00103FB607A683B695F
:1058700003F114034FEA8303D3185B68FA689A6054
:105880007B68DB78012B25D17A683B6903F114032F
:105890004FEA8303D3185B681B69BB6079683A6978
:1058A00013464FEA83039B184FEAC303CB1803F553
:1058B0005E731A68BB68C3F31203D11A78683A6939
:1058C00013464FEA83039B184FEAC303C31803F53B
:1058D0006273196040F26803C2F200031B681B6820
:1058E0003A69D2B27868114698477B68DB78012B19
:1058F0000AD13B69002B07D17B6893F81131052B46
:1059000002D17868FBF728FF3B7B03F00203DBB290
:10591000002B10D04FF00003FB60FB6843F0020344
:10592000FB607A683B6903F114034FEA8303D318E1
:105930005B68FA689A603B7B03F00403DBB2002BE0
:1059400010D04FF00003FB60FB6843F00403FB60E2
:105950007A683B6903F114034FEA8303D3185B6849
:10596000FA689A603B7B03F00803DBB2002B18D087
:1059700040F26803C2F200031B689B68786898478E
:105980004FF00003FB60FB6843F00803FB607A689C
:105990003B6903F114034FEA8303D3185B68FA6889
:1059A0009A603B6903F101033B617B694FEA530352
:1059B0007B617B69002B7FF43EAF4FF001031846FB
:1059C00007F11807BD4680BD80B584B000AF786090
:1059D00040F26803C2F200031B68DB6878689847EE
:1059E0004FF00003FB60FB6843F00803FB607B683B
:1059F000DB68FA685A614FF00103184607F1100797
:105A0000BD4680BD80B586B000AF78604FF0000322
:105A10003B613B6943F010033B617B68DB687A685C
:105A2000D26891693A696FEA02020A409A617B681A
:105A3000DB681B6AFB60FB68C3F30303DBB21A4637
:105A400013464FEA83039B184FEAC30303F55C73C5
:105A50007A68D3187B61FB68C3F34343DBB203F17D
:105A6000FF33052B46D801A252F823F0F55A00085F
:105A7000855A0008F55A0008F55A0008F55A00083A
:105A8000CF5A0008BA8947F6F07313409BB2002B37
:105A900032D07B69DA68FB68C3F30A139BB278687B
:105AA00011461A46FAF78AFC7B69DA68FB68C3F389
:105AB0000A139BB2D2187B69DA607B699A69FB682A
:105AC000C3F30A139BB2D2187B699A6114E07B6816
:105AD00003F5B963786819464FF00802FAF76EFCCF
