:020000040800F2
:10000000C42C0020B12800084D32000859320008E5
:1000100061320008693200087132000800000000F7
:10002000000000000000000000000000793200081D
:100030008532000800000000913200089D3200085F
:100040001D2900081D2900081D2900081D29000878
:100050001D2900081D290008C13200081D290008BB
:10006000CD3200081D2900083D3300081D29000875
:100070001D2900081D2900081D2900081D29000848
:100080001D2900081D2900081D2900081D29000838
:100090001D2900081D2900081D2900081D29000828
:1000A0001D2900081D2900081D2900081D29000818
:1000B0001D2900081D2900081D2900081D29000808
:1000C0001D2900081D2900081D2900081D290008F8
:1000D0001D2900081D2900081D2900081D290008E8
:1000E0001D2900081D2900081D2900081D290008D8
:1000F0001D2900081D2900081D2900081D290008C8
:100100001D2900081D2900081D2900081D290008B7
:100110001D2900081D2900081D2900081D290008A7
:100120001D2900081D2900081D2900081D29000897
:100130001D2900081D2900081D2900081D29000887
:100140001D2900081D2900081D2900081D29000877
:100150001D2900081D2900081D2900081D29000867
:100160001D2900081D290008F5330008E1330008A7
:1001700089330008CD3300081D2900081D29000817
:100180001D2900081D29000810B5054C237833B936
:10019000044810B10448AFF300800121217010BD64
:1001A000900A002000000000DCE4010808B5064BBE
:1001B0001BB106480649AFF300800648016811B13B
:1001C000054A02B1904708BD00000000DCE40108C8
:1001D000940A0020880A002000000000154B002B24
:1001E00008BF134B9D46A3F5803A00218B460F466E
:1001F0001348144A121A0CF0B5FA0F4B002B00D01A
:1002000098470E4B002B00D0984700200021044651
:100210000D4600200C49002200230BF031FD0BF0AD
:10022000CDFD2046294602F025FF0BF08FFD00BFD3
:100230000000080000000220000000000000000094
:10024000900A0020C42400206DBD000880B582B053
:1002500000AF02460B46FA71BB71FA79BB791046C2
:100260004FF000011A4600F0F3F807F10807BD4609
:1002700080BD00BF80B582B000AF02460B46FA7168
:10028000BB71FA79BB7910464FF002011A4600F0B3
:10029000DFF807F10807BD4680BD00BF80B582B01A
:1002A00000AF0346FB71FB7918464FF0020100F0E6
:1002B000B5F80346184607F10807BD4680BD00BFE4
:1002C00080B582B000AF0346FB71FB7918464FF052
:1002D000030100F0A3F80346184607F10807BD46DE
:1002E00080BD00BF80B582B000AF02460B46FA71F8
:1002F000BB80BB884FEA2323DBB2FA7910464FF06C
:1003000004011A4600F0A4F8BB88DBB2FA79104663
:100310004FF005011A4600F09BF807F10807BD46AB
:1003200080BD00BF80B582B000AF03463960FB716D
:10033000FB7918464FF00C013A684FF0040300F0C7
:10034000A5F80346184607F10807BD4680BD00BF63
:1003500080B582B000AF02460B46FA71BB80BB8805
:100360004FEA2323DBB2FA7910464FF010011A4608
:1003700000F06EF8BB88DBB2FA7910464FF011013D
:100380001A4600F065F807F10807BD4680BD00BFBA
:1003900080B582B000AF02460B46FA71BB80BB88C5
:1003A0004FEA2323DBB2FA7910464FF028011A46B0
:1003B00000F04EF8BB88DBB2FA7910464FF0290105
:1003C0001A4600F045F807F10807BD4680BD00BF9A
:1003D00080B584B000AF0346FB71FB7918464FF03F
:1003E000280100F01BF80346FB81FB7918464FF00B
:1003F000290100F013F80346BB81FB894FEA032370
:10040000FB81BB89DBB2BB81FA89BB891343FB81CA
:10041000FB89184607F11007BD4680BD80B582B044
:1004200000AF02460B46FA71BB80FB7903F104036F
:100430009BB24FEA03239AB2BB88D3189BB21846EB
:1004400005F0BEF80346184607F10807BD4680BD13
:1004500080B582B000AF13460246FA710A46BA80F0
:10046000BB71FB7903F104039BB24FEA03239AB2F9
:10047000BB88D3189AB2BB791046194605F018F814
:100480000346184607F10807BD4680BD80B584B015
:1004900000AFBA600246FA730A46BA81FB80FB7B62
:1004A00003F104039BB24FEA03239AB2BB89D3182A
:1004B0009AB2FB881046B9681A4605F031F803462F
:1004C000184607F11007BD4680BD00BF80B582B059
:1004D00000AFF871B971BA80FB70BB79012B0BD0FA
:1004E000BB79022B08D0BB79032B05D0BB79042B39
:1004F00002D0BB79052B3AD1FB79184600F03EF8C3
:10050000BA79FB781343DBB2FA7910461946FFF744
:100510009DFEBB88002B06D0FA79BB881046194691
:10052000FFF7E0FE16E040F6AC23C2F200031B88A2
:1005300003F101039AB240F6AC23C2F200031A8021
:1005400040F6AC23C2F200031B88FA791046194624
:10055000FFF7C8FEFB7940F6B030C2F20000194642
:100560004FF0010205F0B4F84FF0010301E04FF045
:100570000003184607F10807BD4680BD80B582B06C
:1005800000AF0346FB71FB7940F6B030C2F20000C9
:1005900019464FF0100205F09BF8FB7918464FF012
:1005A000FF01FFF767FE07F10807BD4680BD00BFEA
:1005B00080B582B000AF0346FB71FB791846FFF7A8
:1005C0007FFE0346132B0CBF00230123DBB2002B5D
:1005D00002D04FF000030BE0FB7940F6B030C2F2DE
:1005E000000019464FF0020205F072F84FF00103C7
:1005F000184607F10807BD4680BD00BF80B582B030
:1006000000AF396013460246FA71BB803B681B7825
:10061000FF2B11D13B6803F101031B78FF2B0BD19A
:100620003B6803F102031B78FF2B05D13B6803F104
:1006300003031B78FF2B18D03B681B78002B11D1CC
:100640003B6803F101031B78002B0BD13B6803F1DE
:1006500002031B78002B05D13B6803F103031B78D1
:10066000002B02D0BB88002B02D14FF0000316E014
:10067000FB7918463968FFF755FEFA79BB881046B2
:100680001946FFF765FEFB7940F6B030C2F2000074
:1006900019464FF0040205F01BF84FF0010318460D
:1006A00007F10807BD4680BD80B582B000AF0346A4
:1006B000FB71FB7940F6B030C2F2000019464FF0F2
:1006C000080205F005F807F10807BD4680BD00BF28
:1006D00080B584B000AF396013460246FA71BB8022
:1006E0004FF000037B734FF00003FB814FF00003DA
:1006F0007B81BB88B3F5006F03D94FF40063FB81A6
:1007000001E0BB88FB81FB7940F6B030C2F200000B
:10071000194604F099FD03467B81FB791846FFF7E3
:10072000CFFD03467B737B7B172B06D07B7B1C2B7B
:1007300003D04FF00003FB8108E07A89FB899A42DD
:100740002CBF00230123DBB2002BDCD1FA79FB891B
:1007500040F6B030C2F2000011463A6804F0C8FD1D
:10076000FB7940F6B030C2F2000019464FF020028B
:1007700004F0AEFF12E0FB791846FFF7A1FD034637
:10078000002B14BF00230123DBB2002B06D0FB7922
:100790001846FFF7F3FE4FF0000314E0FB7918460C
:1007A000FFF77CFD034603F01003002B14BF00236A
:1007B0000123DBB2002BDED1FB7918464FF010018C
:1007C000FFF758FDFB89184607F11007BD4680BDAD
:1007D00080B586B002AF396013460246FA71BB801D
:1007E000FB7940F6B030C2F20000194604F056FD25
:1007F0000346FB81B7F90E30002B16D1FB79184662
:10080000FFF75EFD03467B737B7B142B05D07B7B60
:10081000002B02D07B7B1C2B03D14FF00003FB810C
:100820000BE04FF6FF73FB8107E0B7F90E20B7F935
:1008300004309A4201DDBB88FB81B7F90E30002BF2
:1008400016DDFB89FA794FF00001009140F6B030D7
:10085000C2F2000011463A6804F0B8FDFB7940F698
:10086000B030C2F2000019464FF0400204F030FFF1
:10087000FB891BB2184607F11007BD4680BD00BFBB
:1008800080B584B002AF03463960FB71FB794FF04D
:100890000102009240F6B030C2F2000019463A68F8
:1008A0004FF0010304F092FD4FF00103184607F1E9
:1008B0000807BD4680BD00BF80B588B002AFBA60F2
:1008C0000246FA730A46BA81FB804FF00003FB82AE
:1008D000FB7B40F6B030C2F20000194604F0B4FCD5
:1008E0000346FA889A4294BF00230123DBB2002B0F
:1008F0000AD0FB7B40F6B030C2F20000194604F08B
:10090000A3FC0346FB8201E0FB88FB82FA7BBB89E8
:10091000F98A009140F6B030C2F2000011461A4642
:10092000BB6804F0FBFCFB8A184607F11807BD46BC
:1009300080BD00BF80B582B000AF3960134602466B
:10094000FA71BB803B681B78002B11D13B6803F127
:1009500001031B78002B0BD13B6803F102031B78CA
:10096000002B05D13B6803F103031B78002B02D059
:10097000BB88002B02D14FF000030CE0FB79184636
:100980003968FFF7CFFCFA79BB8810461946FFF7A4
:10099000DFFC4FF00103184607F10807BD4680BD94
:1009A00080B582B000AF0346FB71FB7940F6B030F2
:1009B000C2F2000019464FF0200204F089FE16E052
:1009C000FB791846FFF76AFC034603F00803002B87
:1009D0000CBF00230123DBB2002B08D0FB791846A3
:1009E0004FF01801FFF746FC4FF0000315E0FB79CC
:1009F0001846FFF753FC034603F01003002B14BF07
:100A000000230123DBB2002BDAD1FB7918464FF02B
:100A10001001FFF72FFC4FF00103184607F10807FC
:100A2000BD4680BD80B485B000AF78604FF0000354
:100A3000FB607B68DB684FF0FF325A607B68DB68E5
:100A40004FF0FF325A61FB6843F00043FB60FB68E4
:100A500043F40063FB607B68DB68FA689A6107F126
:100A60001407BD4680BC704780B586B000AF786083
:100A70004FF00003FB744FF000037B614FF0000365
:100A8000FB604FF0030005F0D1FF7B68DB681B695A
:100A9000FB607B6903F101037B617A694FF4546366
:100AA000C0F203039A4202D94FF000032AE0FB6828
:100AB00003F00043002BE4D04FF000037B61FB68A0
:100AC00043F00103FB607B68DB68FA681A617B68AE
:100AD000DB681B69FB607B6903F101037B617A6959
:100AE0004FF45463C0F203039A4205D8FB6803F045
:100AF0000103002BEBD100E000BF4FF0030005F035
:100B000095FFFB7C184607F11807BD4680BD00BF66
:100B100080B489B000AFF860B960FA71BB804FF063
:100B20000003FB76FB68DB78002B2CD14FF0000331
:100B30007B614FF00003FB61BB8803F10303002BD3
:100B400001DA03F103034FEAA3037B61FB79FA683F
:100B500003F132034FEA8303D3189B683B614FF0E4
:100B60000003FB610BE0BB681A683B691A60FB6914
:100B700003F10103FB61BB6803F10403BB60FA6985
:100B80007B699A42EFD3FB7E184607F12407BD46E6
:100B900080BC704780B489B000AFF860B96013467C
:100BA000FB804FF00003FB61FB8803F10303002B84
:100BB00001DA03F103034FEAA303BB61FB68D3F837
:100BC000D0307B614FF00003FB610BE07B691A685A
:100BD000BB681A60FB6903F10103FB61BB6803F1A9
:100BE0000403BB60FA69BB699A42EFD3BB6818463D
:100BF00007F12407BD4680BC704700BF80B487B0B2
:100C000000AF78600B46FB704FF000033B614FF084
:100C10000003FB737B684FF00002DA707B684FF0D3
:100C200001029A707B684FF040029A80FB78012B9A
:100C300017D14FF0A0433B617B684FF00102DA729D
:100C40007B684FF008021A707B684FF004025A70FC
:100C50007B684FF4A072DA807B684FF002021A7250
:100C60001BE0FB78002B18D14FF00003C4F2040303
:100C70003B617B684FF00002DA727B684FF00C0238
:100C80001A707B684FF006025A707B684FF4A062BE
:100C9000DA807B684FF001021A723A697B68DA6089
:100CA0003B6903F500631A467B681A614FF0000345
:100CB0007B6123E07B694FEA43123B69D31803F55C
:100CC00010631A4679687B6903F104034FEA8303D2
:100CD000CB189A607B694FEA43123B69D31803F53E
:100CE00030631A4679687B6903F114034FEA830382
:100CF000CB185A607B6903F101037B617B685B78E9
:100D00001A467B699A42D5D83B6903F580631A4637
:100D10007B685A613B6903F588631A467B68C3F8B0
:100D2000CC204FF000037B6113E07B694FEA431254
:100D30003B69D31803F5A0631A4679687B6903F110
:100D400022034FEA8303CB189A607B6903F1010306
:100D50007B617B681B781A467B699A42E5D84FF025
:100D600000037B6113E07B694FEA03323B69D318D0
:100D700003F580531A4679687B6903F132034FEA21
:100D80008303CB189A607B6903F101037B617B6865
:100D90001B781A467B699A42E5D83B6903F5606384
:100DA0001A467B68C3F80C21FB7B184607F11C0729
:100DB000BD4680BC704700BF80B588B000AF78608A
:100DC0004FF00003FB774FF00003BB614FF00003CF
:100DD0007B614FF00003FB607B681B7A012B51D1D4
:100DE0007B68DB689B6B7B617B696FF310437B6186
:100DF0007B685B7A002B03D07B6943F480137B61B3
:100E00007B68DB687A699A634FF00003BB617B689B
:100E1000DB68DB68BB61BB696FF38613BB61BB69D1
:100E20006FF39653BB61BB6943F01003BB61BB69B1
:100E30006FF3C303BB61BB696FF3C713BB61BB69CE
:100E40006FF35143BB61BB696FF3D343BB617B68F5
:100E5000DB68BA69DA607868FFF706FE7B68DB78E2
:100E6000012B40F08980FB684FF0050262F34403D8
:100E7000FB60FB6843F02003FB607B68DB68FA687B
:100E80009A6079E07B68DB68DB68BB61BB6943F033
:100E90004003BB617B68DB68BA69DA607868FFF79A
:100EA000E3FD4FF000037B617B6943F480337B619A
:100EB0007B681B7A032B03D17B6943F400337B618E
:100EC0007B6943F480237B617B6943F400237B616E
:100ED0007B6943F400137B617B685B7A002B03D052
:100EE0007B6943F480137B617B68DB687A699A6372
:100EF0004FF0140005F0C6FD7B68DB68DB68BB6162
:100F00007B681B7A032B03D1BB6943F48033BB613D
:100F10007B68DB68BA69DA607B681B7A032B2BD1AC
:100F20007B68DB681B6B3B613B694FF0010262F33E
:100F30009B633B613B696FF3D7533B613B6943F074
:100F400080533B613B694FF02D0262F316433B61D6
:100F50007B68DB683A691A634FF0C80005F092FDC0
:100F60003B6943F400033B617B68DB683A691A63C1
:100F70004FF0C80005F086FD7B68DB78012B11D1AE
:100F80007B68DB689B68FB60FB684FF0050262F3DF
:100F90004403FB60FB6843F02003FB607B68DB6875
:100FA000FA689A60FB7F184607F12007BD4680BDAE
:100FB00080B485B000AF78604FF00003FB734FF052
:100FC0000003BB60BB6843F00103BB607B68DB6868
:100FD0007A68D2689168BA680A439A60FB7B1846BF
:100FE00007F11407BD4680BC704700BF80B485B0D0
:100FF00000AF78604FF00003FB734FF00003BB605D
:10100000BB6843F00103BB607B68DB687A68D26829
:101010009168BA686FEA02020A409A60FB7B184640
:1010200007F11407BD4680BC704700BF80B586B08D
:1010300000AF786039604FF00003FB744FF000039D
:101040007B614FF00003FB60FB6843F02003FB6013
:101050003B68DBB203F01F03DAB2FB6862F38A136A
:10106000FB607B68DB68FA681A617B68DB681B6978
:10107000FB607B6903F101037B617A694FF4546380
:10108000C0F203039A4205D8FB6803F02003002B4B
:10109000EBD100E000BF4FF0030005F0C7FCFB7C84
:1010A000184607F11807BD4680BD00BF80B586B061
:1010B00000AF78604FF00003FB744FF000037B61DA
:1010C0004FF00003FB60FB6843F01003FB607B689C
:1010D000DB68FA681A617B68DB681B69FB607B6907
:1010E00003F101037B617A694FF45463C0F2030397
:1010F0009A4205D8FB6803F01003002BEBD100E007
:1011000000BF4FF0030005F091FCFB7C184607F18F
:101110001807BD4680BD00BF80B584B000AF7860C1
:101120000B46FB704FF00003FB737B68DB68DB68EA
:10113000BB60BB686FF35D73BB60BB686FF39E738E
:10114000BB60FB78012B04D1BB6843F00053BB604C
:1011500006E0FB78002B03D1BB6843F08043BB6003
:101160007B68DB68BA68DA604FF0320005F08AFC11
:10117000FB7B184607F11007BD4680BD80B483B0E5
:1011800000AF78607B68DB685B6903F00103184699
:1011900007F10C07BD4680BC704700BF80B582B028
:1011A00000AF78607868FFF7E9FF0346012B0CBFBA
:1011B00000230123DBB2184607F10807BD4680BDB6
:1011C00080B485B000AF78604FF00003FB607B68AF
:1011D000DB685B69FB607B68DB689B69FA681340CE
:1011E000FB60FB68184607F11407BD4680BC7047DA
:1011F00080B485B000AF78600B46FB707B681B69DC
:101200001B68FB60FB7803F00303DAB2FB6862F350
:101210000103FB607B681B69FA681A6007F1140719
:10122000BD4680BC704700BF80B58CB000AF786011
:101230004FF0000387F82B304FF000037B624FF034
:1012400000033B624FF00003FB614FF00003BB6102
:101250004FF000037B617B68D3F80C314FF0000244
:101260001A607B681B691B683B623B6A6FF3CC2387
:101270003B627B681B693A6A1A607B68DB7A002BE9
:101280006DD17B681B7A012B05D178684FF0000186
:10129000FFF7AEFF04E078684FF00101FFF7A8FF09
:1012A0007B68DB684FF400725A62FB694FF04002C2
:1012B00062F31F43FB61FB694FF4007262F30F039B
:1012C000FB617B68DB68FA699A62BA8BFB8BD31887
:1012D0009BB23B83BB694FF4BA7262F31F43BB619D
:1012E0007B68DB68BA69C3F804213A8B7B8BD3181F
:1012F0009BB23B83BB694FF0400262F31F43BB616B
:101300007B68DB68BA69C3F808213A8B7B8BD318FA
:101310009BB23B83BB696FF31F43BB617B68DB6898
:10132000BA69C3F80C213A8B7B8BD3189BB23B83F1
:10133000BB696FF31F43BB617B68DB68BA69C3F8A5
:1013400010213A8B7B8BD3189BB23B83BB696FF325
:101350001F43BB617B68DB68BA69C3F814217868F6
:101360004FF01001FFF762FE7868FFF79FFE7B6881
:101370001B694FF000021A617B681B694FF0000285
:101380005A617B681B694FF0FF329A617B681B6969
:101390004FF00002DA614FF00003FB6243E07A682D
:1013A000FB6A03F104034FEA8303D3189B681B68AD
:1013B0007B6297F8273023F07F03DBB2002B0BD042
:1013C0004FF000037B627B6A43F080437B627B6A61
:1013D00043F000637B6202E04FF000037B627A68B7
:1013E000FB6A03F104034FEA8303D3189B687A6A0C
:1013F0001A607A68FB6A03F104034FEA8303D31887
:101400009B684FF000021A617A68FB6A03F10403DB
:101410004FEA8303D3189B684FF0FF029A60FB6A80
:1014200003F10103FB627B685B781A46FB6A9A4210
:10143000B5D84FF00003FB6242E07A68FB6A03F123
:1014400014034FEA8303D3185B681B68FB60FB7BC4
:1014500023F07F03DBB2002B0BD04FF00003FB60C7
:10146000FB6843F08043FB60FB6843F00063FB6074
:1014700002E04FF00003FB607A68FB6A03F114039B
:101480004FEA8303D3185B68FA681A607A68FB6ACC
:1014900003F114034FEA8303D3185B684FF0000293
:1014A0001A617A68FB6A03F114034FEA8303D318C5
:1014B0005B684FF0FF029A60FB6A03F10103FB6275
:1014C0007B685B781A46FB6A9A42B6D84FF00003F5
:1014D0007B617B6943F480737B617B681B697A68FD
:1014E000126911697A696FEA020211407A690A4346
:1014F0001A617B68DB78012B1ED14FF000033B6142
:101500003B6943F001033B613B6943F002033B61EC
:101510003B694FF0400262F38A033B613B6943F44D
:1015200080333B613B694FF0400262F359433B61BA
:101530007B681B693A691A63786800F007F897F8C6
:101540002B30184607F13007BD4680BD80B584B00A
:1015500000AF78604FF00003FB734FF00003BB60F7
:101560007B68DB684FF000029A617B68DB684FF0B4
:10157000FF325A617868FFF755FA7B68DB78002BF9
:1015800003D1BB6843F01003BB60BB6843F4006346
:10159000BB60BB6843F48053BB60BB6843F400533B
:1015A000BB60BB6843F48023BB60BB6843F400238B
:1015B000BB60BB6843F00803BB60BB6843F48013A7
:1015C000BB60BB6843F40013BB607B68DB687A6870
:1015D000D2689169BA686FEA02021140BA680A4398
:1015E0009A61FB7B184607F11007BD4680BD00BF1E
:1015F00080B485B000AF78604FF00003FB737B6868
:101600001B699B68BB60BB68C3F34103DBB2022B61
:101610000BD0032B05D0012B03D04FF00303FB733A
:1016200007E04FF00203FB7303E04FF00103FB738D
:1016300000BFFB7B184607F11407BD4680BC70470E
:1016400080B487B000AF78604FF00003FB754FF0B7
:101650000003BB607B681B699B683B617B689B697F
:101660001B68FB603B69C3F34103DBB2022B04D070
:10167000FB686FF30A03FB6006E0FB684FF00302B0
:1016800062F30A03FB6000BF7B689B69FA681A601B
:10169000BB6843F48073BB607B681B697A6812691E
:1016A0005168BA686FEA02021140BA680A435A6088
:1016B000FB7D184607F11C07BD4680BC704700BF84
:1016C00080B487B000AF786039604FF00003FB74DE
:1016D0004FF00003FB604FF00003BB603B685B789A
:1016E000012B12D13B681B787A6803F104034FEA9F
:1016F0008303D3189B687B613B681B784FF0010222
:1017000002FA03F39BB23B8114E03B681B787A68D2
:1017100003F114034FEA8303D3185B687B613B68D2
:101720001B784FF0010202FA03F39AB2BB6862F32E
:101730001F43BB607B691B68FB607B7B23F07F03DF
:10174000DBB2002B29D13B689B689BB24FEA435325
:101750004FEA53539AB2FB6862F30A03FB603B689B
:10176000DB7803F00303DAB2FB6862F39343FB60B8
:101770003B68DB88DBB203F00F03DAB2FB6862F38D
:101780009953FB60FB6843F08053FB60FB6843F4B4
:101790000043FB60FA687B691A603B681B78012B89
:1017A0000CD17B68DB7A002B08D17B681B697A68D7
:1017B0001269D16BBA680A43DA6307E07B681B6978
:1017C0007A681269D169BA680A43DA61FB7C184603
:1017D00007F11C07BD4680BC704700BF80B487B0CE
:1017E00000AF786039604FF00003FB744FF00003E6
:1017F000FB604FF00003BB603B685B78012B12D1AC
:101800003B681B787A6803F104034FEA8303D3181B
:101810009B687B613B681B784FF0010202FA03F37F
:101820009BB23B8114E03B681B787A6803F1140398
:101830004FEA8303D3185B687B613B681B784FF0EA
:10184000010202FA03F39AB2BB6862F31F43BB6062
:10185000FB686FF3CF33FB60FA687B691A603B6803
:101860001B78012B0ED17B68DB7A002B0AD17B68B9
:101870001B697A681269D16BBA686FEA02020A4082
:10188000DA6309E07B681B697A681269D169BA6812
:101890006FEA02020A40DA61FB7C184607F11C0776
:1018A000BD4680BC704700BF80B588B000AF78608F
:1018B00039604FF00003FB774FF00003BB614FF03E
:1018C00000037B614FF000033B613B685B78012BB9
:1018D00040F0BD803B681B787A6803F104034FEA4F
:1018E0008303D3189B681B687B613B681B787A680D
:1018F00003F104034FEA8303D3189B681B693B6120
:101900003B685B69002B0AD13B696FF312033B61B3
:101910003B694FF0010262F3DC433B6128E03B6826
:101920005B6923F07F4222F478023B6962F3120381
:101930003B613B685A693B689B68D31803F1FF32EF
:101940003B689B68B2FBF3F39BB24FEA83534FEAC9
:1019500093539AB23B6962F3DC433B613B68DB78AB
:10196000012B05D13B694FF0010262F35E733B61CD
:101970003B681B787A6803F104034FEA8303D318AA
:101980009B683A691A617B68DB78012B0CD13B6854
:101990001B787A6803F104034FEA8303D3189B682A
:1019A0003A6812695A6116E03B68DB78012B12D065
:1019B0003B685B69002B0ED03B681B784FF001023F
:1019C00002FA03F3BB617B681B697A681269516B89
:1019D000BA690A435A633B68DB78012B14D17B68F0
:1019E0001B699B68FB60FB68C3F30D239BB203F08C
:1019F0000103002B04D17B6943F000537B6103E0BA
:101A00007B6943F080537B617B6943F080637B613A
:101A10007B6943F000437B613B681B787A6803F184
:101A200004034FEA8303D3189B687A691A603B6802
:101A3000DB78012B40F09A803B68D9683B681A78C4
:101A40003B685B699BB27868FFF762F88EE03B68A1
:101A50001B787A6803F114034FEA8303D3185B6899
:101A60001B687B613B681B787A6803F114034FEABB
:101A70008303D3185B681B693B613B685B69002B80
:101A800010D13B689B6823F07F4222F478023B69C7
:101A900062F312033B613B694FF0010262F3DC43E6
:101AA0003B6124E03B685A693B689B68D31803F1AB
:101AB000FF323B689B68B2FBF3F39BB24FEA835360
:101AC0004FEA93539AB23B6962F3DC433B613B6953
:101AD000C3F3C9439BB23A68926802FB03F323F055
:101AE0007F4222F478023B6962F312033B613B6858
:101AF0001B787A6803F114034FEA8303D3185B68F9
:101B00003A691A617B68DB78012B0BD13B681B7843
:101B10007A6803F114034FEA8303D3185B683A68C9
:101B200012695A613B68DB78012B0CD13B685B7909
:101B3000002B04D07B6943F000537B6103E07B6999
:101B400043F080537B617B6943F080637B617B69F9
:101B500043F000437B613B681B787A6803F1140310
:101B60004FEA8303D3185B687A691A60FB7F1846D3
:101B700007F12007BD4680BD80B489B000AF786012
:101B800039604FF00003FB774FF00003BB614FF06B
:101B900000033B614FF00003BB603B685B78012BA7
:101BA00075D17B689B697B617B691B683B617B6945
:101BB0001B69BB603B685B69002B0AD13B7A6FF302
:101BC00006033B72BB7A4FF0010262F3C403BB729F
:101BD00024E03B685A693B689B689A420ED93B688F
:101BE0009A683B685A613B689B68DBB203F07F03ED
:101BF000DAB23B7A62F306033B7209E03B685B6949
:101C0000DBB203F07F03DAB23B7A62F306033B7286
:101C1000BB7A4FF0010262F3C403BB72BA687B69FE
:101C20001A617B68DB78012B0BD13B681B787A68E3
:101C300003F104034FEA8303D3189B683A681269DF
:101C40005A613B6943F080633B613B6943F0004369
:101C50003B613A697B691A607B68DB78002B40F056
:101C600083803B685B69002B7ED03B681B784FF01C
:101C7000010202FA03F3BA691343BB617B681B6973
:101C80007A681269516BBA690A435A636CE03B681F
:101C90001B787A6803F114034FEA8303D3185B6857
:101CA0001B683B613B681B787A6803F114034FEAB9
:101CB0008303D3185B681B69BB603B685B69002BBF
:101CC00010D13B689B68DBB203F07F03DAB23B7A4A
:101CD00062F306033B72BB7A4FF0010262F3C40366
:101CE000BB7213E03B689A683B685A613B689B682B
:101CF000DBB203F07F03DAB23B7A62F306033B7296
:101D0000BB7A4FF0010262F3C403BB723B681B78DD
:101D10007A6803F114034FEA8303D3185B68BA6847
:101D20001A617B68DB78012B0BD13B681B787A68E2
:101D300003F114034FEA8303D3185B683A6812690E
:101D40005A613B6943F080633B613B6943F0004368
:101D50003B613B681B787A6803F114034FEA830305
:101D6000D3185B683A691A60FB7F184607F12407AD
:101D7000BD4680BC704700BF80B487B000AF7860BC
:101D800039604FF00003FB754FF00003FB603B68C8
:101D90005B78012B1ED13B681B787A6803F1040342
:101DA0004FEA8303D3189B683B613B691B68FB6068
:101DB000FB7B23F07F03DBB2002B03D0FB6843F0F7
:101DC0008043FB60FB6843F40013FB60FA683B69E7
:101DD0001A6013E03B681B787A6803F114034FEA3A
:101DE0008303D3185B683B613B691B68FB60FB683E
:101DF00043F40013FB60FA683B691A60FB7D1846E8
:101E000007F11C07BD4680BC704700BF80B487B097
:101E100000AF786039604FF00003FB744FF00003AF
:101E2000FB603B685B78012B0AD13B681B787A68C2
:101E300003F104034FEA8303D3189B687B6109E035
:101E40003B681B787A6803F114034FEA8303D318C5
:101E50005B687B617B691B68FB60FB686FF35553B4
:101E6000FB603B68DB78032B03D03B68DB78022BFD
:101E700003D1FB6843F08053FB60FA687B691A600A
:101E8000FB7C184607F11C07BD4680BC704700BFAD
:101E900080B485B000AF78607B681B699B69FB608C
:101EA0007B681B69DB69FA681340FB60FB684FEADB
:101EB0001343184607F11407BD4680BC704700BFA6
:101EC00080B485B000AF78600B46FB70FB787A6811
:101ED00003F114034FEA8303D3185B689B68FB602C
:101EE0007B681B695B69FA681340FB60FB681846F6
:101EF00007F11407BD4680BC704700BF80B485B0B1
:101F000000AF78607B681B699B69FB607B681B691D
:101F1000DB69FA681340FB60FB684FEA03434FEA52
:101F20001343184607F11407BD4680BC704700BF35
:101F300080B487B000AF78604FF000033B61FB7C5A
:101F400043F0C003FB74BB7C4FF0010262F3C40397
:101F5000BB743B7C4FF0180262F306033B747B6852
:101F60005B6D3A691A617B68DB78012B17D14FF002
:101F70000003FB607B685B6D7A6802F5B9625A61A9
:101F80007B685B6D1B68FB60FB6843F00043FB6094
:101F90004FF08023FB607B685B6DFA681A6007F185
:101FA0001C07BD4680BC704780B485B000AF786028
:101FB0007B689B7A002B1BD07B681B699B68FB604E
:101FC0003B7B03F00103DBB2002B11D07B6803F5F0
:101FD00086731B68BB60BB686FF34103BB60BB6863
:101FE0006FF30003BB607B68D3F80C31BA681A60EA
:101FF00007F11407BD4680BC704700BF80B483B0B2
:1020000000AF03463960FB7197F90730002B10DAF7
:102010004FF46D43CEF20003FA7902F00F02A2F101
:1020200004013A68D2B24FEA0212D2B25B181A76B1
:102030000DE04FF46143CEF2000397F907103A68C0
:10204000D2B24FEA0212D2B25B1883F8002307F132
:102050000C07BD4680BC704780B582B000AF786089
:102060007A686FF07F439A4202D94FF001031FE074
:102070004EF21003CEF200037A6822F07F4202F1A2
:10208000FF325A604FF0FF304FF00F01FFF7B6FFFD
:102090004EF21003CEF200034FF000029A604EF2AF
:1020A0001003CEF200034FF007021A604FF0000356
:1020B000184607F10807BD4680BD00BF80B500AFD8
:1020C00040F20413C2F200031A6848F21F53C5F22B
:1020D000EB13A3FB02134FEA53131846FFF7BCFFA1
:1020E0000346002B0CBF00230123DBB2002B00D0E2
:1020F000FEE74FF0FF304FF00001FFF77FFF80BD9C
:1021000080B485B000AF786040F60833C2F20003B7
:102110001B68FB600CE040F60833C2F200031B684A
:10212000FA689A4294BF00230123DBB2002B17D137
:1021300040F60833C2F200031A68FB68D21A7968C5
:102140004CF6CD43CCF6CC43A3FB01034FEAD303BB
:102150009A422CBF00230123DBB2002BDBD100E02D
:1021600000BF07F11407BD4680BC704780B400AFC4
:1021700040F60833C2F200031B681846BD4680BC17
:10218000704700BF80B582B000AF786039607B686F
:102190001B681B683A68D2B27868114698470346B4
:1021A000184607F10807BD4680BD00BF80B483B064
:1021B00000AF786039607B68044A1A607B68184613
:1021C00007F10C07BD4680BC704700BF70CF010807
:1021D00080B582B000AF786039607A683B6810469D
:1021E0001946FFF7E3FF7B68054A1A607B683A6887
:1021F00052685A607B68184607F10807BD4680BDE3
:1022000098CF010880B584B000AF3B46184640F631
:10221000C421C2F20001FFF7DBFF3B4640F6243049
:10222000C2F2000040F20401C2F200011A4601F0BD
:10223000C1F940F6DC20C2F2000001F057FB41F288
:102240000820C2F200004FF4165107F031FB00BF26
:1022500041F20820C2F2000007F0B8FB034683F009
:102260000103DBB2002BF3D141F20820C2F20000DF
:102270004CF62471C0F6010103F094FA07F108034B
:10228000184640F62431C2F2000101F087FA07F146
:10229000080341F20820C2F20000194603F01EFBB9
:1022A00003E00FF00BF80FF009F807F11007BD4637
:1022B00080BD00BF80B586B000AF3B46184640F6F3
:1022C000DC21C2F2000101F02BFC4DF2F823C0F634
:1022D00001035B6B3A46104698470346002B4BD0F0
:1022E00040F6E823C2F200031B7883F00103DBB25F
:1022F000002B1CD03B46184604F0E4FD41F20820B8
:10230000C2F200004CF63C71C0F6010103F0CEFAB7
:102310003B4618464CF65471C0F6010103F0C6FA6C
:1023200040F6E823C2F200034FF001021A703B4668
:10233000184604F049FD0346002BD4BF00230123B7
:10234000DBB2002B18D03B46184604F057FD03467D
:10235000FB75FB7D40F6DC20C2F20000194601F05F
:1023600043FCFB7D41F20820C2F200001946FFF752
:1023700009FF01E00EF0A2FF00BF07F11807BD46FC
:1023800080BD00BF80B584B002AF786039607B68E3
:10239000012B48D13A684FF6FF739A4243D14FF070
:1023A0000003009340F6BC20C2F200004FF0000191
:1023B0004FF000024FF0000300F0D8F94FF069032E
:1023C000009340F6C420C2F200004FF0A9014FF084
:1023D000FE024FF0910300F0C9F94FF001030093A2
:1023E00040F6CC20C2F200004FF0C0014FF0A8022E
:1023F0004FF0010300F0BAF94FF00003009340F6EC
:10240000D420C2F200004FF0FF014FF0FF024FF066
:10241000000300F0ABF940F6DC20C2F2000041F20C
:10242000883101F04BFA07F10807BD4680BD00BFB7
:1024300080B500AF4FF001004FF6FF71FFF7A2FF2C
:1024400080BD00BF80B483B000AF786039607B6826
:1024500003F104031A683B6803F104031B689A4202
:1024600014BF00230123DBB2184607F10C07BD4659
:1024700080BC704780B582B000AF786039603B683F
:1024800003F1140378681946FFF7A2FE786807F194
:102490000807BD4680BD00BF80B483B000AF786040
:1024A0007B689B8B184607F10C07BD4680BC7047C4
:1024B00080B584B002AF786039607B68012B13D19E
:1024C0003A684FF6FF739A420ED14FF00003009323
:1024D00040F6EC20C2F200004FF000014FF0000285
:1024E0004FF0000300F042F907F10807BD4680BD38
:1024F00080B500AF4FF001004FF6FF71FFF7D8FF36
:1025000080BD00BF80B400AFBD4680BC704700BF37
:1025100080B483B000AF0346FB7107F10C07BD46E2
:1025200080BC704780B400AFBD4680BC704700BF20
:1025300080B400AFBD4680BC704700BF80B400AF20
:10254000BD4680BC704700BF80B582B000AF7860E8
:1025500039607B683A681A607B684FF000025A6005
:102560007B684FF000029A60386809F071FC0346FE
:102570001A467B68DA6007F10807BD4680BD00BFD8
:1025800080B582B000AF78607B68DB68184609F0E0
:1025900067FC07F10807BD4680BD00BF80B483B06B
:1025A00000AF78607B685A687B681B689A4214BFEA
:1025B00000230123DBB2184607F10C07BD4680BC9F
:1025C000704700BF80B483B000AF78607B685B6801
:1025D000002B14BF00230123DBB2184607F10C07C0
:1025E000BD4680BC704700BF80B485B000AF786046
:1025F0007B68DA687B689B68D3181B78FB737B6801
:102600009B6803F101037A681268B3FBF2F102FBE5
:1026100001F29A1A7B689A607B685B6803F1FF326B
:102620007B685A60FB7B184607F11407BD4680BCE7
:10263000704700BF80B485B000AF78600B46FB7078
:102640007B689A687B685B68D3187A681268B3FB0A
:10265000F2F102FB01F29B1AFB607B68DA68FB680F
:10266000D318FA781A707B685A687B681B689A429C
:102670000DD17B689B6803F101037A681268B3FB94
:10268000F2F102FB01F29A1A7B689A6005E07B681E
:102690005B6803F101027B685A6007F11407BD46CD
:1026A00080BC704780B586B000AFF860B960134653
:1026B000FB714FF00003FB7512E0F868FFF76EFF47
:1026C0000346012B11D0FB7DBA68D3181B78DBB20F
:1026D000F8681946FFF7AEFFFB7D03F10103FB75B8
:1026E000FA7DFB799A42E8D300E000BF07F11807B2
:1026F000BD4680BD80B483B000AF78607B685B6806
:10270000DBB2184607F10C07BD4680BC704700BF1E
:1027100080B483B000AF78607B68044A1A607B683D
:10272000184607F10C07BD4680BC704770CF010802
:1027300080B582B000AF78607B681846FFF7E8FF8D
:102740007B68094A1A607B6803F1040318464FF05E
:1027500000014FF004020AF005F87B68184607F103
:102760000807BD4680BD00BF98CF010880B582B084
:1027700000AF7860F970BA707B707B681846FFF71D
:10278000C7FF7B68094A1A607B68FA781A717B6810
:10279000BA785A717B687A789A717B683A7CDA7178
:1027A0007B68184607F10807BD4680BD98CF010831
:1027B00080B582B000AF786039607B6803F10403B4
:1027C000184639684FF0040209F046FE7B68184647
:1027D00007F10807BD4680BD80B584B000AF7860C2
:1027E00039604FF00003FB604FF00003BB601AE05C
:1027F0007A68BB68D3181B79386819464FF00A020B
:1028000002F0F4FF0346FA68D318FB6038684FF013
:102810002E0102F0D7FF0346FA68D318FB60BB68AD
:1028200003F10103BB60BB68022BCCBF0023012373
:10283000DBB2002BDCD17B68DB79386819464FF0BE
:102840000A0202F0D3FF0346FA68D318FB60FB6864
:10285000184607F11007BD4680BD00BF80B584B0A3
:1028600002AF786039607B68012B13D13A684FF66C
:10287000FF739A420ED14FF00003009340F6F4200C
:10288000C2F200004FF000014FF000024FF00003D1
:10289000FFF76CFF07F10807BD4680BD80B500AFAC
:1028A0004FF001004FF6FF71FFF7D8FF80BD00BF6A
:1028B00080B582B000AF4FF26833C0F601037B6091
:1028C00040F20003C2F200033B600BE07B681A6831
:1028D0003B681A603B6803F104033B607B6803F1CB
:1028E00004037B603A6840F68C23C2F200039A42EC
:1028F000ECD3084808494FF000028842B8BF40F8BE
:10290000042BFFF6FAAFFDF769FC07F10807BD4697
:1029100080BD0000900A0020C424002080B400AFD5
:10292000FEE700BF80B483B000AF78607B684FF0F3
:1029300000021A707B684FF000025A807B684FF0EB
:1029400000029A807B684FF01802DA807B68184694
:1029500007F10C07BD4680BC704700BF80B483B050
:1029600000AF78607B68184607F10C07BD4680BC55
:10297000704700BF80B58AB000AF78600B46FB702F
:102980004FF400404FF0010100F0B8FB4FF004009D
:102990004FF0010100F088FB4FF0020387F824306C
:1029A0004FF0030387F825304FF0000387F82630F7
:1029B0004FF0020387F827304FF480633B6207F142
:1029C00020034FF40060C4F20200194602F0F0FF49
:1029D0004FF480533B6207F120034FF40060C4F2D0
:1029E0000200194602F0E4FF4FF400633B6207F176
:1029F00020034FF40060C4F20200194602F0D8FF31
:102A00004FF40060C4F202004FF00A014FF00602DA
:102A100003F08CF84FF40060C4F202004FF00C0198
:102A20004FF0060203F082F84FF40060C4F2020097
:102A30004FF00B014FF0060203F078F87B68FA784C
:102A40001A707B684FF000025A807B684FF00002DA
:102A50009A807B684FF01802DA804FF47050C4F20D
:102A6000000006F0DDFA4FF00003BB814FF00003D9
:102A70003B824FF000037B824FF00003BB824FF09C
:102A80000003FB827B68DB883B837B685B887B83FE
:102A90004FF00703BB83FB78002B02D14FF4827306
:102AA000FB81FB78012B02D14FF00003FB8107F182
:102AB0000C034FF47050C4F20000194606F0F4FA0B
:102AC0004FF47050C4F200004FF0010106F030FBEB
:102AD00001E00EF0F3FB07F12807BD4680BD00BF03
:102AE00080B584B000AF78600B467B807B681B7834
:102AF000002B31D100BF4FF47050C4F200004FF0F2
:102B0000020106F051FB0346002B14BF00230123F2
:102B1000DBB2002BEFD17B884FF47050C4F2000081
:102B2000194606F033FB00BF4FF47050C4F20000AA
:102B30004FF0010106F038FB0346002B14BF0023C1
:102B40000123DBB2002BEFD14FF47050C4F2000030
:102B500006F00EFB034632E000BF4FF47050C4F2A3
:102B600000004FF0010106F01FFB0346002B14BFCD
:102B700000230123DBB2002BEFD14FF47050C4F2DD
:102B8000000006F0F5FA0346FB8100BF4FF47050D9
:102B9000C4F200004FF0020106F006FB0346002BD2
:102BA00014BF00230123DBB2002BEFD1FB894FF4CC
:102BB0007050C4F20000194606F0E8FAFB89184686
:102BC00007F11007BD4680BD80B582B000AF7860C8
:102BD00039607B68012B18D13A684FF6FF739A422F
:102BE00013D140F60030C2F20000FFF79BFE40F622
:102BF0000030C2F2000042F65D11C0F6000140F262
:102C00000002C2F2000209F091F807F10807BD4680
:102C100080BD00BF80B500AF4FF001004FF6FF71DF
:102C2000FFF7D2FF80BD00BF80B584B000AFF86071
:102C30007A603B600B46FB72F86803F0ABFDF86806
:102C400000F01EF8FB683A68C3F8E025FB68BA6933
:102C5000C3F8E425FB687A68C3F8E825FB7AF868CE
:102C6000194606F083FBFB68D3F8E4351B689847E8
:102C7000F86803F093FE07F11007BD4680BD00BF62
:102C800080B483B000AF78604FF00003184607F1BE
:102C90000C07BD4680BC704780B584B000AF78603B
:102CA00007F108037868194604F094FE3B7A03F0B4
:102CB0001F03012B0AD0022B0FD0002B14D107F1D8
:102CC00008037868194604F0F1F916E007F10803E3
:102CD0007868194604F03CFA0FE007F108037868B9
:102CE000194604F06BFA08E03B7A23F07F03DBB26D
:102CF0007868194606F0EEFC00BF4FF00003184656
:102D000007F11007BD4680BD80B584B000AF786084
:102D10000B46FB70FB78002B45D17B6803F55C7399
:102D2000FB607B6893F81131032B4FD1FB68DA69A4
:102D3000FB689B689A4221D9FB68DA69FB689B684B
:102D4000D21AFB68DA617B68DB78012B06D1FB685D
:102D5000DA68FB689B68D218FB68DA60FB68DA689F
:102D6000FB689968FB68DB69994238BF0B469BB2E8
:102D7000786811461A4606F0C5FE27E07B68D3F84E
:102D8000E0351B69002B0AD07B6893F81231032BC6
:102D900005D17B68D3F8E0351B6978689847786877
:102DA00006F0C8FE12E07B68D3F8E0359B69002B83
:102DB0000CD07B6893F81231032B07D17B68D3F8D2
:102DC000E0359B69FA787868114698474FF0000320
:102DD000184607F11007BD4680BD00BF80B584B01E
:102DE00000AF78600B46FB70FB78002B63D17B68EB
:102DF00003F58C73FB607B6893F81131022B6ED165
:102E0000FB68DA69FB689B689A421CD9FB68DA693F
:102E1000FB689B68D21AFB68DA617B68DB78012B60
:102E200006D1FB68DA68FB689B68D218FB68DA6039
:102E3000FB68DA68FB68DB699BB2786811461A4662
:102E400006F024FE4BE0FB681B6AFA689268B3FB4D
:102E5000F2F102FB01F29B1A002B17D1FB681A6AF0
:102E6000FB689B689A4211D3FB681A6AFB685B6A2D
:102E70009A420BD278684FF000014FF0000206F042
:102E800005FEFB684FF000025A6229E07B68D3F828
:102E9000E035DB68002B0AD07B6893F81231032BF6
:102EA00005D17B68D3F8E035DB68786898477868A7
:102EB00006F05EFE13E07B68D3F8E0355B69002B1B
:102EC0000ED07B6893F81231032B09D17B68D3F8BD
:102ED000E0355B69FA7878681146984700E000BFF2
:102EE0004FF00003184607F11007BD4680BD00BF34
:102EF00080B582B000AF786078684FF000014FF085
:102F000040024FF0000306F0C7FA78684FF08001E6
:102F10004FF040024FF0000306F0BEFA7B684FF01E
:102F2000010283F812217B68D3F8E4355B687A6884
:102F30009278104698474FF00003184607F10807AB
:102F4000BD4680BD80B582B000AF78607B68D3F8A5
:102F5000E4351B6998477B684FF0030283F8122120
:102F60004FF00003184607F10807BD4680BD00BFBB
:102F700080B582B000AF78607B684FF0040283F8C0
:102F800012217B68D3F8E435DB6898474FF00003E3
:102F9000184607F10807BD4680BD00BF80B582B066
:102FA00000AF78607B68D3F8E035DB69002B05D093
:102FB0007B68D3F8E035DB69786898474FF0000309
:102FC000184607F10807BD4680BD00BF80B582B036
:102FD00000AF78600B46FB707B68D3F8E0351B6868
:102FE000FA787868114698477B68D3F8E4359B688F
:102FF00098474FF00003184607F10807BD4680BD0B
:1030000080B582B000AF78600B46FB707B68D3F868
:10301000E0355B68FA787868114698474FF000030E
:10302000184607F10807BD4680BD00BF80B582B0D5
:1030300000AF78607B68D3F8E0351B6A7868984702
:103040004FF00003184607F10807BD4680BD00BFDA
:1030500080B582B000AF78607B68D3F8E0355B6AFA
:10306000786898474FF00003184607F10807BD46F7
:1030700080BD00BF80B500AF02F004FFFFF71EF86F
:1030800001F06EF901F0FAF8FFF7BCF800E000BFBC
:10309000FFF710F949F62503C0F60003002BF6D020
:1030A00006F0C0FBF3E700BF80B483B000AF7860E8
:1030B0000B46FB70FB78002B0CD04FF46053C4F22E
:1030C00002034FF46052C4F20202116B7A680A43A1
:1030D0001A630DE04FF46053C4F202034FF46052E0
:1030E000C4F20202116B7A686FEA02020A401A63A4
:1030F00007F10C07BD4680BC704700BF80B483B0A9
:1031000000AF78600B46FB70FB78002B0CD04FF4BF
:103110006053C4F202034FF46052C4F20202116C15
:103120007A680A431A640DE04FF46053C4F2020354
:103130004FF46052C4F20202116C7A686FEA020224
:103140000A401A6407F10C07BD4680BC704700BFF7
:1031500080B483B000AF78600B46FB70FB78002B27
:103160000CD04FF46053C4F202034FF46052C4F227
:103170000202516C7A680A435A640DE04FF46053BE
:10318000C4F202034FF46052C4F20202516C7A6836
:103190006FEA02020A405A6407F10C07BD4680BC80
:1031A000704700BF80B483B000AF78600B46FB70FF
:1031B000FB78002B0CD04FF46053C4F202034FF4A1
:1031C0006052C4F20202116A7A680A431A620DE080
:1031D0004FF46053C4F202034FF46052C4F202028F
:1031E000116A7A686FEA02020A401A6207F10C0754
:1031F000BD4680BC704700BF80B483B000AF78602C
:103200000B46FB70FB78002B0CD04FF46053C4F2DC
:1032100002034FF46052C4F20202516A7A680A4310
:103220005A620DE04FF46053C4F202034FF460524F
:10323000C4F20202516A7A686FEA02020A405A62D4
:1032400007F10C07BD4680BC704700BF80B400AFDB
:10325000BD4680BC704700BF80B400AFFEE700BF32
:1032600080B400AFFEE700BF80B400AFFEE700BF50
:1032700080B400AFFEE700BF80B400AFBD4680BCA5
:10328000704700BF80B400AFBD4680BC704700BF30
:1032900080B400AFBD4680BC704700BF80B400AFB3
:1032A00040F60833C2F200031B6803F1010240F646
:1032B0000833C2F200031A60BD4680BC704700BFED
:1032C00080B400AFBD4680BC704700BF80B500AF82
:1032D0004FF0040005F088FF0346002B0CBF0023CD
:1032E0000123DBB2002B27D040F6B023C2F200034B
:1032F0005B68002B0CBF00230123DBB2002B05D041
:1033000040F6B023C2F200035B68984740F6B02352
:10331000C2F200031B68002B0CBF00230123DBB2A9
:10332000002B05D040F6B023C2F200031B6898477B
:103330004FF0040005F084FF80BD00BF80B500AFF2
:103340004FF0100005F050FF0346002B0CBF002388
:103350000123DBB2002B15D040F6B023C2F20003EC
:103360009B68002B0CBF00230123DBB2002B05D090
:1033700040F6B023C2F200039B6898474FF010005C
:1033800005F05EFF80BD00BF80B500AF40F618437A
:10339000C2F200039B7A002B13D04EF61053CEF2EC
:1033A00000034EF61052CEF20002126822F006021E
:1033B0001A6002F067FD40F61840C2F20000FEF706
:1033C000F3FD4FF4801005F03BFF80BD80B500AFEA
:1033D00040F61840C2F2000004F004FD80BD00BFBA
:1033E00080B500AF40F61840C2F2000004F034FC93
:1033F00080BD00BF80B500AF40F61840C2F20000AB
:1034000004F0C4FB80BD00BF80B582B000AF78601F
:103410004FF0010079684FF0040202F081F8034692
:10342000184607F10807BD4680BD00BF80B582B0D1
:1034300000AF78604FF0050079684FF0040202F0A9
:103440006FF80346184607F10807BD4680BD00BF68
:1034500080B582B000AF78604FF0090079684FF016
:10346000060202F05DF80346184607F10807BD465C
:1034700080BD00BF80B582B000AF78604FF00F0014
:1034800079684FF0040202F04BF80346184607F142
:103490000807BD4680BD00BF80B582B000AF786030
:1034A0004FF00F0079684FF0040202F0BFF80346B6
:1034B000184607F10807BD4680BD00BF80B582B041
:1034C00000AF786039603868FFF79EFF07F10807A2
:1034D000BD4680BD80B582B000AF78603960386885
:1034E000FFF7A4FF07F10807BD4680BD80B582B095
:1034F00000AF786039603868FFF7AAFF07F1080766
:10350000BD4680BD80B582B000AF78603960386854
:10351000FFF7C2FF07F10807BD4680BD80B582B046
:1035200000AF786039603868FFF7A4FF07F108073B
:10353000BD4680BD80B483B000AF78607B6803F186
:103540000403184607F10C07BD4680BC704700BF56
:1035500080B483B000AF786039607A683B68D31874
:1035600003F10403184607F10C07BD4680BC704701
:1035700080B483B000AF786039607B68184607F18B
:103580000C07BD4680BC704780B582B000AF786044
:1035900039607A683B6810461946FFF7E9FF7B6897
:1035A0003A6852685A607B68184607F10807BD46BA
:1035B00080BD00BF80B58AB000AFF860B9607A60A6
:1035C00007F1100318467968FEF702FE07F11003B1
:1035D00018464FF00301FFF7BBFF03464FF001020F
:1035E0001A7007F1180318467968FEF7F1FD07F124
:1035F000200207F1100310461946FEF7E9FD07F116
:10360000180207F12003F868B96800F007F801E034
:103610000DF054FE07F12807BD4680BD80B58EB081
:1036200002AFF860B9607A603B6007F1100318469A
:103630007968FEF7CDFD07F1100318464FF003013E
:10364000FFF786FF03464FF001021A7007F11803D7
:1036500018467968FEF7BCFD07F120031846396863
:10366000FEF7B6FD07F1280207F1100310461946D0
:10367000FEF7AEFD07F1180207F1200307F128015C
:103680000091F868B96800F007F801E00DF016FE47
:1036900007F13007BD4680BD80B590B002AFF8603D
:1036A000B9607A603B6007F110034FF000020092AE
:1036B00018464FF0FF014FF0FF024FF0FF03FFF7F6
:1036C00055F807F1180318467968FEF781FD07F1F0
:1036D000200318463968FEF77BFD07F128031846DA
:1036E000396CFEF775FD07F1300207F11003104643
:1036F0001946FEF76DFD07F1180207F1200307F1E7
:103700002801009107F130010191F868B96800F0D3
:1037100009F802E0FFE70DF0D1FD07F13807BD46DB
:1037200080BD00BF80B584B000AFF860B9607A603A
:103730003B6040F6B030C2F2000001F03BFD40F6C5
:10374000B030C2F20000B968FFF7D0FE7B6803F129
:10375000040340F6B030C2F200001946FFF7DEFE67
:10376000BB6903F1040340F6B030C2F20000194611
:10377000FFF7A4FEFB6903F1040340F6B030C2F288
:1037800000001946FFF7A6FEFB6818463968FFF7E8
:10379000FBFE07F11007BD4680BD00BF80B582B0BB
:1037A00000AF786039607868FEF7C2FF7868FFF78D
:1037B000C1FE034640F6B030C2F200001946FFF7E2
:1037C000A1FE00BF786807F10807BD4680BD00BFB5
:1037D00080B582B000AF786039603B687868194680
:1037E000FEF7F6FC786807F10807BD4680BD00BF0C
:1037F00080B582B000AF78607B681846FEF798FF0E
:103800007B68184607F10807BD4680BD80B584B0C7
:1038100002AF786039607B68012B19D13A684FF6A6
:10382000FF739A4214D14FF00003009340F60C301E
:10383000C2F200004FF000014FF000024FF0000311
:10384000FEF794FF40F62430C2F20000FFF7D0FFED
:1038500007F10807BD4680BD80B500AF4FF00100FD
:103860004FF6FF71FFF7D2FF80BD00BF80B483B079
:1038700000AF78607B68064A1A607B684FF00002F0
:103880005A607B68184607F10C07BD4680BC70473C
:1038900018D2010880B582B000AF78607B68184606
:1038A000FFF7E4FF7B68044A1A607B68184607F15B
:1038B0000807BD4680BD00BFF8CF010880B582B0C3
:1038C00000AF78600B467B807B681846FFF7E2FF0D
:1038D0007B68054A1A607B687A881A817B6818467B
:1038E00007F10807BD4680BDC0CF010880B588B08C
:1038F00000AF78604FF00003FB6133E0FB69DBB29F
:1039000007F108021046194603F0FCF807F1080316
:10391000184603F079FB0346002B14BF0023012354
:10392000DBB2002B1AD0FB69DAB27B681B89104628
:103930004FF001011A464FF00003FCF7C7FDFB6989
:10394000DBB21846FCF734FE7B68198940F6183361
:10395000C2F20003FA6923F812100EE0FB6903F1CA
:103960000103FB61FB69032BCCBF00230123DBB206
:10397000002BC3D101E00DF0A1FC07F12007BD46EB
:1039800080BD00BF80B58AB000AF78604FF0000303
:103990007B624FF000033B6243E03B6ADBB207F11E
:1039A0000C021046194603F0ADF840F61833C2F287
:1039B00000033A6A33F812207B681B899A422CD1A3
:1039C00007F10C03184603F01FFB0346142B14BF2A
:1039D00000230123DBB2002B03D04FF001037B62F5
:1039E0001BE007F10C03184603F00EFB03461C2BEB
:1039F0000AD107F10C03184603F0E6F90346002B41
:103A000002D14FF0010301E04FF00003002B04D07E
:103A100007F10C03184603F075FA3B6A03F1010342
:103A20003B623B6A032BCCBF00230123DBB2002B9C
:103A3000B3D17B6A002B09D17B681B6803F10803B3
:103A40001B687868984702E00DF038FC00BF07F16A
:103A50002807BD4680BD00BF80B483B000AF78604A
:103A600039607B68064A1A603B685A687B685A600E
:103A70007B68184607F10C07BD4680BC704700BF45
:103A800018D2010880B582B000AF786039607A68DA
:103A90003B6810461946FFF7DFFF7B68074A1A604C
:103AA0003B689A687B689A603B68DA687B68DA6092
:103AB0007B68184607F10807BD4680BD48D001085D
:103AC00080B582B000AF786039607A683B68104694
:103AD0001946FFF7D7FF7B68034A1A607B681846D0
:103AE00007F10807BD4680BD10D0010880B582B03F
:103AF00000AF786039607A683B6810461946FFF776
:103B0000DFFF7B68054A1A603B681A7C7B681A7481
:103B10007B68184607F10807BD4680BD00D3010841
:103B200080B588B000AF786039603868FFF72AFF49
:103B30004FF00003FB6141E0FB69DBB207F10802D3
:103B40001046194602F0DEFF40F61833C2F20003B9
:103B5000FA6933F812203B681B899A4212D107F1A7
:103B60000803184603F050FA0346172B07D007F155
:103B70000803184603F048FA03461C2B02D14FF005
:103B8000010301E04FF00003002B13D007F10803FD
:103B9000184603F019F90346002B0CBF002301233C
:103BA000DBB2002B06D007F1080378681946FFF74F
:103BB0009DFF13E0FB6903F10103FB61FB69032B2C
:103BC000CCBF00230123DBB2002BB5D178684FF0C6
:103BD000040102F097FF01E00DF070FB786807F137
:103BE0002007BD4680BD00BF80B582B000AF7860C1
:103BF0000B46FB707B681B6803F104031B6807F12D
:103C00000302786811464FF00102984703461846B0
:103C100007F10807BD4680BD80B58CB000AFF860E5
:103C2000B9607A604FF00003FB62F868FFF7AAFE04
:103C30004FF00003BB6230E0BB6ADBB207F1140255
:103C40001046194602F05EFF40F61833C2F2000338
:103C5000BA6A33F81220FB681B899A420AD107F12D
:103C60001403184603F0D0F90346172B02D14FF086
:103C7000010301E04FF00003002B0AD007F1140309
:103C80001846B9687A6803F06BF80346FA6AD318E5
:103C9000FB62BB6A03F10103BB62BB6A032BCCBFAF
:103CA00000230123DBB2002BC6D1FB6A01E00DF03B
:103CB00005FB184607F13007BD4680BD80B584B0CE
:103CC00002AF786039607B68012B13D13A684FF6F8
:103CD000FF739A420ED14FF00003009340F6A030DC
:103CE000C2F200004FF000014FF000024FF000035D
:103CF000FEF73CFD07F10807BD4680BD80B500AF6B
:103D00004FF001004FF6FF71FFF7D8FF80BD00BFF5
:103D100080B485B000AF786039604FF00003FB607D
:103D20004FF00003FB727B685B68FB60FB6823F06D
:103D3000407323F48073FB603B681B794FEA0322D6
:103D40003B681B681343FA681343FB607B68FA689F
:103D50005A607B689B68FB60FA684FF2FD73CCF297
:103D6000FF031340FB603B681A693B68DB681A433A
:103D70003B689B681A433B685B794FEA43031343F4
:103D8000FA681343FB607B68FA689A607B68DB6AB9
:103D9000FB60FB6823F47003FB603B681B7D03F151
:103DA000FF33DAB2FB7A1343FB72FB7A4FEA035319
:103DB000FA681343FB607B68FA68DA6207F114075C
:103DC000BD4680BC704700BF80B485B000AF78604E
:103DD0004FF00003FB604FF40C53C4F201035B6827
:103DE000FB60FA6843F2E003CFF6FC731340FB601C
:103DF0007B681A687B685B681A437B689B681A4318
:103E00007B68DB681343FA681343FB604FF40C5381
:103E1000C4F20103FA685A6007F11407BD4680BC7A
:103E2000704700BF80B483B000AF78600B46FB7072
:103E3000FB78002B06D07B689B6843F001027B680F
:103E40009A6005E07B689B6823F001027B689A60BA
:103E500007F10C07BD4680BC704700BF80B485B039
:103E600000AF7860F970BA707B704FF00003FB60B0
:103E70004FF00003BB60FB78092B27D97B68DB6818
:103E8000FB60FA7813464FEA43039B18A3F11E0325
:103E90004FF0070202FA03F3BB60BB686FEA03034B
:103EA000FA681340FB607978FA7813464FEA4303C7
:103EB0009B18A3F11E0301FA03F3BB60FA68BB6809
:103EC0001343FB607B68FA68DA6022E07B681B6959
:103ED000FB60FA7813464FEA43039B184FF0070242
:103EE00002FA03F3BB60BB686FEA0303FA6813408E
:103EF000FB607978FA7813464FEA43039B1801FA7E
:103F000003F3BB60FA68BB681343FB607B68FA6825
:103F10001A61BB78062B27D87B685B6BFB60BB788C
:103F200003F1FF3213464FEA83039B184FF01F0241
:103F300002FA03F3BB60BB686FEA0303FA6813403D
:103F4000FB60F978BB7803F1FF3213464FEA830335
:103F50009B1801FA03F3BB60FA68BB681343FB606C
:103F60007B68FA685A6351E0BB780C2B27D87B68D2
:103F70001B6BFB60BA7813464FEA83039B18A3F1CF
:103F800023034FF01F0202FA03F3BB60BB686FEA22
:103F90000303FA681340FB60F978BA7813464FEAD6
:103FA00083039B18A3F1230301FA03F3BB60FA68B0
:103FB000BB681343FB607B68FA681A6326E07B6882
:103FC000DB6AFB60BA7813464FEA83039B18A3F1C0
:103FD00041034FF01F0202FA03F3BB60BB686FEAB4
:103FE0000303FA681340FB60F978BA7813464FEA86
:103FF00083039B18A3F1410301FA03F3BB60FA6842
:10400000BB681343FB607B68FA68DA6207F1140748
:10401000BD4680BC704700BF80B584B000AF7860FB
:104020000B46FB704DF2C403C0F601037A6853F8E7
:10403000223018464FF00101FFF736F84DF29C038D
:10404000C0F601037A6833F81230BB604FF0030307
:104050007B737B68032B08D07B68052B05D07B68BE
:10406000062B02D07B68092B2BD14FF002033B7348
:104070004FF00003BB734FF00103FB7340F2580392
:10408000C2F200037A6853F8222007F108031046B1
:10409000194601F08DFC40F25803C2F200037A6821
:1040A00053F822204DF21413C0F60103796853F837
:1040B00021309BB2104619464FF0020201F036FD46
:1040C00032E0FB78012B0DD0022B15D0002B1DD137
:1040D0004FF001033B734FF00003BB734FF001033C
:1040E000FB7314E04FF000033B734FF00103BB730D
:1040F0004FF00003FB730AE04FF000033B734FF0F7
:104100000003BB734FF00103FB7300E000BF40F2FC
:104110005803C2F200037A6853F8222007F108031B
:104120001046194601F044FC07F11007BD4680BD5A
:1041300080B582B000AF78600B46FB707B68032BC4
:1041400008D07B68052B05D07B68062B02D07B68E6
:10415000092B64D17B68A3F10303062B00F288804E
:1041600001A252F823F000BF854100087142000807
:10417000AB410008D14100087142000871420008BB
:10418000F7410008FB78012B07D14FF40063C4F21C
:1041900000034FF6FF725A6340E04FF40063C4F22D
:1041A00000034FF000025A6338E0FB78012B07D17F
:1041B0004FF40063C4F200034FF6FF729A632DE0E0
:1041C0004FF40063C4F200034FF000029A6325E04D
:1041D000FB78012B07D14FF40063C4F200034FF6C4
:1041E000FF72DA631AE04FF40063C4F200034FF089
:1041F0000002DA6312E0FB78012B07D14FF4006371
:10420000C4F200034FF6FF721A6406E04FF4006335
:10421000C4F200034FF000021A6400BF28E0FB78EC
:10422000012B12D140F25803C2F200037A6853F80E
:1042300022204DF29C03C0F60103796833F8113057
:104240001046194601F056FC13E040F25803C2F242
:1042500000037A6853F822204DF29C03C0F6010354
:10426000796833F811301046194601F051FC00E02E
:1042700000BF07F10807BD4680BD00BF80B58CB008
:1042800000AF4FF480604FF00101FEF761FF4DF287
:10429000C403C0F601035B6C18464FF00101FEF742
:1042A00003FF4DF29C03C0F601035B8C3B604FF0B3
:1042B00003033B714FF00003FB7140F25803C2F25D
:1042C00000035A6C3B461046194601F071FB4FF053
:1042D0000003BB604FF00003FB604FF000033B6145
:1042E0004FF4A0637B6107F108031846FFF76CFDEC
:1042F0004FF08073BB614FF000033B774FF000033A
:104300007B774FF000033B624FF000033B624FF0BE
:104310000003BB624FF0010387F82C3007F118034C
:104320004FF40850C4F201001946FFF7F1FC4FF4B6
:104330000850C4F201004FF00B014FF001024FF0A2
:104340000103FFF78BFD4FF40850C4F201004FF05A
:104350000101FFF767FD07F13007BD4680BD00BFD3
:1043600080B500AF4FF004004FF00101FEF7C6FE2C
:1043700041F66423C2F200034FF6FF725A6041F621
:104380006423C2F200034FF000021A8041F6642356
:10439000C2F200034FF000021A8141F66423C2F218
:1043A00000034FF000025A804FF40060C4F2000096
:1043B00041F66421C2F2000105F0F8FB41F67023DA
:1043C000C2F200034FF060021A8041F67023C2F27D
:1043D00000034FF000029A8141F67023C2F20003FD
:1043E0004FF001025A8041F67023C2F200034FF0F1
:1043F00000029A604FF40060C4F2000041F67021A0
:10440000C2F2000105F08CFC4FF40060C4F2000021
:104410004FF0080105F096FE41F67023C2F200034A
:104420004FF001025A8041F67023C2F200034FF0B0
:1044300000029A604FF40060C4F2000041F670215F
:10444000C2F2000105F0EAFC4FF40060C4F2000083
:104450004FF0080105F092FE41F67023C2F200030E
:104460004FF001025A8041F67023C2F200034FF070
:1044700000029A604FF40060C4F2000041F670211F
:10448000C2F2000105F05EFD4FF40060C4F20000CE
:104490004FF0080105F092FE41F67023C2F20003CE
:1044A0004FF001025A8041F67023C2F200034FF030
:1044B00000029A604FF40060C4F2000041F67021DF
:1044C000C2F2000105F0CEFD4FF40060C4F200001E
:1044D0004FF0080105F08EFE4FF40060C4F20000BA
:1044E0004FF0010105F0DCFB4FF40060C4F2000066
:1044F0004FF0010105F0F4FB80BD00BF80B483B034
:1045000000AF78607B6803F104031B68184607F16D
:104510000C07BD4680BC704780B582B000AF7860A4
:1045200039607B6818463968FFF72EF87B684FF0D2
:1045300000021A8107F10807BD4680BD80B588B02A
:1045400000AFF860B9607A60BB68FB6103E0FB69AB
:1045500003F10103FB61FB691B78002B0ED0FB69A3
:104560001B782E2B07D0FB691B782F2B03D8FB69F8
:104570001B78392B02D84FF0010301E04FF0000304
:10458000002BE4D1FB691B78002B56D1BB68FB6183
:104590004FF00003BB614FF000037B612BE0FB6930
:1045A0001B782E2B15D17B69FF2B02DD4FF000030A
:1045B00045E07868B969FEF7CBFF03467A69D2B265
:1045C0001A70BB6903F10103BB614FF000037B610B
:1045D0000DE07A6913464FEA83039B184FEA4303C1
:1045E0001A46FB691B78A3F13003D3187B61FB6982
:1045F00003F10103FB61FB691B78002B05D0BB694C
:10460000032B02DC4FF0010301E04FF00003002B0D
:10461000C5D17B69FF2B02DCBB69032B02DD4FF0A8
:1046200000030CE07868B969FEF792FF03467A69E7
:10463000D2B21A704FF0010301E04FF000031846A8
:1046400007F12007BD4680BD90B58BB000AFF86084
:10465000B9607A604FF000037B62F868B9687A68E5
:10466000FFF76CFF0346002B0CBF00230123DBB2D6
:10467000002B02D04FF0010380E0FB68184640F6A3
:10468000A831C2F20001FDF7DDFE0346002B02D087
:104690006FF0010372E0FB6803F10C04FDF766FDA7
:1046A00003469BB203F00F039BB203F580639BB2FA
:1046B0002046194601F0E8FD0346012B14BF0023F4
:1046C0000123DBB2002B58D04FF00003FB61FB68E5
:1046D00003F10C04FB6807F1140210461946FDF7BC
:1046E00077FD07F11403204619464FF0350201F01B
:1046F000B1FE03467B627B6A002B34D0F868B96850
:1047000000F044F803467B627B6A002B2BD0FB68E9
:1047100003F10C03184601F0BDFE03467B627B6A81
:10472000002B20D04FF000033B624FF0FF337B6241
:104730000BE0F86841F288317A6800F0FBF8034634
:104740007B623B6A03F101033B623B6A022B06DC9E
:104750007B6AB3F1FF3F02D14FF0010301E04FF05C
:104760000003002BE5D1FB6903F10103FB61FB684A
:1047700003F10C03184601F0E3FD7B6A01E00CF045
:104780009DFD184607F12C07BD4690BD80B586B04B
:1047900000AF78603960FDF7E9FC03469AB27B68A8
:1047A0001A817B6803F10C027B6803F10803104651
:1047B00019464FF0020201F095FE4FF00103FB8114
:1047C0007B6803F10C0207F10E03104619464FF007
:1047D000020201F087FE4FF48073FB817B6803F1D6
:1047E0000C0207F10E03104619464FF0020201F0C9
:1047F00079FE4FF00003FB817B6803F10C0207F1A7
:104800000E03104619464FF0020201F06BFE7B6862
:1048100003F10C0207F10E03104619464FF0020295
:1048200001F060FE7B6803F10C0207F10E031046F5
:1048300019464FF0020201F055FE3B687B617B692F
:104840003B6139E07B693B6103E03B6903F10103B4
:104850003B613B691B78002B06D03B691B782E2BF4
:1048600002D04FF0010301E04FF00003002BECD128
:104870003A697B69D31A002B1ADD3A697B69D31A2E
:10488000DBB27B737B6803F10C0207F10D0310466A
:1048900019464FF0010201F025FE7B6803F10C027E
:1048A00039697B69CB1A104679691A4601F01AFEFC
:1048B0003B6903F101037B613B691B78002B0CBF53
:1048C00000230123DBB2002BBCD14FF000037B732C
:1048D0007B6803F10C0207F10D03104619464FF0F7
:1048E000010201F0FFFD4FF48073FB817B6803F14F
:1048F0000C0207F10E03104619464FF0020201F0B8
:10490000F1FD4FF48073FB817B6803F10C0207F12A
:104910000E03104619464FF0020201F0E3FD4FF07E
:10492000010301E00CF0CAFC184607F11807BD4668
:1049300080BD00BFB0B592B000AFF8600B467A60A2
:104940007B81FDF713FC03463B6314E0FDF70EFC8F
:1049500003461A463B6BD21A7B899A4294BF0023C6
:104960000123DBB2002B02D04FF6FF73F7E14FF0CB
:104970003200FDF7C5FBFB6803F10C03184601F09C
:10498000D1FD0346002BCCBF00230123DBB2002B5B
:10499000DCD1FB681846FFF7B1FD0546FB6803F163
:1049A0000C0307F1240210461946FDF763FD4FF092
:1049B000010407F124031846FFF7A0FD03469D42BA
:1049C00008D1FB6803F10C031846FDF765FD0346AB
:1049D000352B02D04FF0010301E04FF00003002C13
:1049E000002B02D04FF6FE73B9E1FB6803F10C0314
:1049F000184601F099FC03460B2BCCBF0023012382
:104A0000DBB2002B02D04FF6FD73A8E1FB6803F187
:104A10000C0207F11803104619464FF00C0201F082
:104A200017FE07F1180303F102031B884FEA032363
:104A30009AB207F1180303F102031B884FEA13230C
:104A40009BB29BB213439BB29BB2FB82FB681A8959
:104A500007F118031B889A4204D1FB8A9BB21BB250
:104A6000002B08DBFB6803F10C03184601F04EFE37
:104A70004FF6FC7373E1FB8A03F40073002B04D13F
:104A8000FB8A03F00F03002B08D0FB6803F10C0333
:104A9000184601F03BFE4FF6FB7360E107F1180387
:104AA00003F106031B884FEA03239AB207F11803A8
:104AB00003F106031B884FEA13239BB29BB21343F7
:104AC0009BB2FB85FB8D002B08D1FB6803F10C0327
:104AD000184601F01BFE4FF6FA7340E14FF0000359
:104AE000A7F8463044E0FB6803F10C0207F1150318
:104AF000104619464FF0010201F0AAFD7B7D002B04
:104B000012D005E0FB6803F10C03184601F06EFDBE
:104B10007B7D002B0CBF00220122D2B203F1FF33B8
:104B2000DBB27B75002AEDD17B7D002B0CBF00230F
:104B30000123DBB2002BD6D14FF000033B6409E028
:104B4000FB6803F10C03184601F050FD3B6C03F1C8
:104B500001033B643B6C032BCCBF00230123DBB27E
:104B6000002BEDD1B7F8463003F10103A7F846302A
:104B7000B7F8462007F1180303F104031B884FEA36
:104B8000032107F1180303F104031B884FEA1323E1
:104B90009BB20B439A42ACBF00230123DBB2002B34
:104BA000A1D14FF00003FB87C7E0FB6803F10C02C3
:104BB00007F11403104619464FF0010201F048FDB9
:104BC0003B7D03F0C003002B16D13B7D002B1CD096
:104BD00005E0FB6803F10C03184601F007FD3B7D7F
:104BE000002B0CBF00220122D2B203F1FF33DBB253
:104BF0003B75002AEDD108E0FB6803F10C03184671
:104C000001F0F4FC4FF000033B753B7D002B0CBF23
:104C100000230123DBB2002BC7D1FB6803F10C0298
:104C200007F11203104619464FF0020201F010FD81
:104C3000FB6803F10C0207F11003104619464FF010
:104C4000020201F005FD4FF00003BB6309E0FB68C1
:104C500003F10C03184601F0C9FCBB6B03F101031F
:104C6000BB63BB6B032BCCBF00230123DBB2002B48
:104C7000EDD1FB6803F10C0207F11603104619464B
:104C80004FF0020201F0E4FC7B8A4FEA03227B8AA8
:104C90004FEA13239BB21343012B2CD13B8A4FEADB
:104CA00003223B8A4FEA13239BB21343012B22D1E9
:104CB000FB8A4FEA0322FB8A4FEA13239BB213437A
:104CC000042B08D0FB6803F10C03184601F01EFD0D
:104CD0004FF6F77343E0FB6803F10C047868FEF7C6
:104CE00029FC0346204619464FF0040201F0B0FCAF
:104CF0004FF0010333E04FF00003FB8609E0FB684F
:104D000003F10C03184601F071FCFB8E03F1010363
:104D1000FB86FA8EFB8A4FEA0321FB8A4FEA1323B4
:104D20009BB20B439A42ACBF00230123DBB2002BA2
:104D3000E5D1FB8F03F10103FB87FA8FFB8D9A42CC
:104D40002CBF00230123DBB2002B7FF42EAFFB68C6
:104D500003F10C03184601F0D9FC4FF6F67303E09B
:104D600000E0FFE70CF0AAFA184607F14807BD4635
:104D7000B0BD00BF80B584B002AF786039607B6899
:104D8000012B13D13A684FF6FF739A420ED14FF0C0
:104D90000003009340F6A830C2F200004FF000017B
:104DA0004FF000024FF00003FDF7E0FC07F10807A9
:104DB000BD4680BD80B500AF4FF001004FF6FF71DA
:104DC000FFF7D8FF80BD00BF80B483B000AF0346BB
:104DD0003960FB713B684FF012021A8040F2C40345
:104DE000C2F20003184607F10C07BD4680BC7047AD
:104DF00080B483B000AF03463960FB713B684FF06D
:104E000004021A8040F2E403C2F20003184607F1DC
:104E10000C07BD4680BC704780B582B000AF03462A
:104E20003960FB71FB79002B0BD14DF26410C0F699
:104E3000010041F68421C2F200013A6802F03CFE12
:104E40000AE04DF28810C0F6010041F68421C2F25A
:104E500000013A6802F030FE41F68423C2F20003FA
:104E6000184607F10807BD4680BD00BF80B582B077
:104E700000AF03463960FB714DF2AC10C0F6010083
:104E800041F68421C2F200013A6802F015FE41F6B3
:104E90008423C2F20003184607F10807BD4680BD0F
:104EA00080B582B000AF03463960FB71FB79002BFF
:104EB0000BD14DF2C010C0F6010041F68421C2F2C0
:104EC00000013A6802F0F8FD0AE04DF2D010C0F699
:104ED000010041F68421C2F200013A6802F0ECFDC3
:104EE00041F68423C2F20003184607F10807BD46C5
:104EF00080BD00BF80B582B000AF03463960FB7152
:104F0000FB79002B0BD14DF2E010C0F6010041F609
:104F10008421C2F200013A6802F0CEFD0AE04DF2AF
:104F2000E010C0F6010041F68421C2F200013A68A7
:104F300002F0C2FD41F68423C2F20003184607F1D5
:104F40000807BD4680BD00BF80B582B000AF0346F4
:104F50003960FB71FB79002B0BD14DF2EC10C0F6E0
:104F6000010041F68421C2F200013A6802F0A4FD7A
:104F70000AE04DF2EC10C0F6010041F68421C2F2C5
:104F800000013A6802F098FD41F68423C2F2000362
:104F9000184607F10807BD4680BD00BF80B582B046
:104FA00000AF0346FB71FB794FF00000194600F09B
:104FB0007FFA07F10807BD4680BD00BF80B582B00B
:104FC00000AF0346FB71FB794FF01A00194600F061
:104FD0006FFA07F10807BD4680BD00BF80B582B0FB
:104FE00000AF0346FB71FB794FF01B00194600F040
:104FF0005FFA07F10807BD4680BD00BF80B582B0EB
:1050000000AF02460B46FA71BB71FA79BB791046C4
:105010004FF001011A46FBF71BFA07F10807BD46DE
:1050200080BD00BF80B582B000AF0346FB71FB7945
:1050300018464FF00101FBF7F1F90346184607F156
:105040000807BD4680BD00BF80B584B000AF0346F1
:10505000FB71FB7918464FF02001FBF7DFF903469F
:10506000FB81FB7918464FF02101FBF7D7F9034686
:10507000BB81FB894FEA0323FB81BB89DBB2BB8188
:10508000FA89BB891343FB81FB89184607F1100796
:10509000BD4680BD80B582B000AF02460B46FA71B6
:1050A000BB80BB884FEA2323DBB2FA7910464FF06E
:1050B00024011A46FBF7CCF9BB88DBB2FA7910461B
:1050C0004FF025011A46FBF7C3F907F10807BD4663
:1050D00080BD00BF80B584B000AF0346FB71FB7993
:1050E00018464FF02401FBF799F90346FB81FB7941
:1050F00018464FF02501FBF791F90346BB81FB8968
:105100004FEA0323FB81BB89DBB2BB81FA89BB89F0
:105110001343FB81FB89184607F11007BD4680BD8C
:1051200080B584B000AF0346FB71FB7918464FF0A1
:105130002601FBF773F90346FB81FB7918464FF014
:105140002701FBF76BF90346BB81FB894FEA032379
:10515000FB81BB89DBB2BB81FA89BB891343FB812D
:10516000FB89184607F11007BD4680BD80B500AF2A
:105170004FF00A004FF00001FEF74EFF4FF00A001B
:105180004FF00101FEF7D4FF80BD00BF80B500AF36
:105190004FF00A004FF00001FEF7CAFF80BD00BFCC
:1051A00080B500AF4FF00A004FF00101FEF7C0FFDD
:1051B00080BD00BF80B584B000AF78604FF49670BA
:1051C000FCF79EFF40F60030C2F200004FF00001F5
:1051D000FDF7D0FBFFF7CAFF4FF08000FFF7DEFEC0
:1051E0004FF05500FFF7FAFE4FF05500FFF7E6FECF
:1051F0004FF00003FB601BE0FB6803F108039BB268
:105200004FEAC32399B27B68FA6823F81210FB684F
:1052100003F10C039BB24FEAC32399B27B68FA688F
:1052200002F1040223F81210FB6803F10103FB6092
:10523000FB68032BCCBF00230123DBB2002BDBD1A7
:1052400007F11007BD4680BD80B584B000AF78601F
:105250000B46FB704FF00003FB814FF00003BB8156
:10526000FB781846FFF7F0FE0346BB81BB89002B95
:1052700005D0FB781846FFF7E7FE0346FB81FA8965
:10528000BB899A420CBF00230123DBB2002BE7D17C
:10529000FB89184607F11007BD4680BD80B584B074
:1052A00000AF78600B46FB704FF00003FB814FF0BE
:1052B0000003BB81FB781846FFF732FF0346BB8132
:1052C000BB89002B05D0FB781846FFF729FF034662
:1052D000FB81FA89BB899A420CBF00230123DBB210
:1052E000002BE7D1FB89184607F11007BD4680BDAA
:1052F00080B586B002AFF8607A600A46FA723B81E8
:10530000FB7A3A890092F86819464FF000027B68F0
:1053100000F004F807F11007BD4680BD80B586B0E7
:1053200000AFF8607B600B46FB7213463B81FB7A53
:105330001846FFF7CFFE0346FB82FA8A3B89D31853
:10534000FB82FB8A4FEA43534FEA5353BB82FA7AFC
:10535000FB6833F81220BB8AD3187B82BA8A3B8C55
:10536000D318B3F5006F1BDDBB8AC3F500633B8226
:105370007A8A3B8A104679681A4600F0D1F8FA7AA0
:10538000FB6833F812103B8A7A68D218388C3B8A53
:10539000C31A9BB2084611461A4600F0C1F806E04F
:1053A0007A8A3B8C104679681A4600F0B9F8FA8A76
:1053B0003B8CD318FB82FA7AFB8A10461946FFF71A
:1053C00069FE07F11807BD4680BD00BF80B588B0F3
:1053D00002AFF8607A600A46FA723B81FB7A18469F
:1053E000FAF7F6FF0346FB82FB8AFA7A39890091C5
:1053F000F86811461A467B6800F012F897F82030DA
:10540000002B09D1FA8A3B89D318FB82FA7AFB8AEE
:1054100010461946FAF7BCFF07F11807BD4680BDD4
:1054200080B586B000AFF8607A603B600B46FB72D7
:105430007B689BB24FEA43534FEA5353FB82FA7A9D
:10544000FB6802F1040233F81220FB8AD318BB82F6
:10545000FA8A3B8CD318B3F5006F1EDDFB8AC3F5C7
:1054600000637B82BA8A7B8A104639681A4600F04C
:10547000DDF87B8A3A68D3183B60FA7AFB6802F160
:10548000040233F81220398C7B8ACB1A9BB2104667
:1054900039681A4600F0CAF806E0BA8A3B8C104612
:1054A00039681A4600F0C2F807F11807BD4680BDFA
:1054B00080B582B000AF02460B46FA807B71FFF7E1
:1054C00065FE40F60030C2F200004FF0F001FDF73B
:1054D00007FBFB884FEA23239BB240F60030C2F261
:1054E00000001946FDF7FCFAFB88DBB29BB240F6E0
:1054F0000030C2F200001946FDF7F2FA7B799BB248
:1055000040F60030C2F200001946FDF7E9FAFFF755
:1055100047FE4FF00103184607F10807BD4680BD5E
:1055200080B584B000AF396013460246FA80BB8074
:105530004FF00003FB8133E0FFF728FE40F6003018
:10554000C2F200004FF0F001FDF7CAFAFB884FEA03
:1055500023239BB240F60030C2F200001946FDF74B
:10556000BFFAFB88DBB29BB240F60030C2F200000B
:105570001946FDF7B5FAFB8803F10103FB80FB89AF
:105580003A68D3181B7840F60030C2F20000194682
:10559000FDF7A6FAFFF704FEFB8903F10103FB8187
:1055A000FA89BB889A422CBF00230123DBB2002B6F
:1055B000C2D1BB88184607F11007BD4680BD00BFA9
:1055C00080B584B000AF0346FB80FFF7DFFD40F6F7
:1055D0000030C2F200004FF00F01FDF781FAFB88A6
:1055E0004FEA23239BB240F60030C2F20000194676
:1055F000FDF776FAFB88DBB29BB240F60030C2F2D0
:1056000000001946FDF76CFA40F60030C2F20000C7
:105610004FF00001FDF764FA0346FB73FFF7C0FD8E
:10562000FB7B184607F11007BD4680BD90B585B0DD
:1056300000AF396013460246FA80BB804FF000038A
:10564000FB8136E0FFF7A2FD40F60030C2F2000019
:105650004FF00F01FDF744FAFB884FEA23239BB27A
:1056600040F60030C2F200001946FDF739FAFB8817
:10567000DBB29BB240F60030C2F200001946FDF7E3
:105680002FFAFB8803F10103FB80FB893A68D418E9
:1056900040F60030C2F200004FF00001FDF720FAA2
:1056A0000346DBB22370FFF77BFDFB8903F10103A7
:1056B000FB81FA89BB889A422CBF00230123DBB20D
:1056C000002BBFD1BB88184607F11407BD4690BD1B
:1056D00080B582B000AF786013460A46FA70BB709E
:1056E000FA78BB7810461946FFF788FC00BFFB78B4
:1056F0001846FFF797FC0346002B0CBF002301233D
:10570000DBB2002BF3D107F10807BD4680BD00BF17
:1057100090B583B000AF786039603B68002B02D150
:105720004FF000030DE07B681B6803F104031C6865
:10573000386807F0DBFB0346786839681A46A047EB
:105740000346184607F10C07BD4690BD80B586B0EC
:1057500000AFF860B9607A604FF000037B610FE042
:10576000FB681B681B68BA681278B96801F101010F
:10577000B960F8681146984703467A69D3187B6187
:105780007B68002B0CBF00230123DBB27A6802F197
:10579000FF327A60002BE3D17B69184607F11807C6
:1057A000BD4680BD80B582B000AF78603960786852
:1057B0003968FFF7ADFF0346184607F10807BD46F5
:1057C00080BD00BF80B582B000AF78600B46FB7033
:1057D0007B681B681B68FA7878681146984703460F
:1057E000184607F10807BD4680BD00BF80B584B0EC
:1057F00000AFF8600B467A60FB72FB7AF8681946D6
:105800007A6800F007F80346184607F11007BD460E
:1058100080BD00BF80B584B000AFF860B9607A6029
:105820007B68002B09D1FB681B681B68BA68D2B281
:10583000F86811469847034607E07B68DBB2F868D2
:10584000B9681A4600F062F80346184607F11007D7
:10585000BD4680BD80B582B000AF786039603B68DE
:105860001B681B683868796898470346184607F133
:105870000807BD4680BD00BF80B584B000AF78602A
:1058800078684FF00D01FFF79DFF0346FB607868D5
:105890004FF00A01FFF796FF0346FA68D318FB6042
:1058A000FB68184607F11007BD4680BD80B584B07F
:1058B00000AF7860396078683968FFF773FF034696
:1058C000FB607868FFF7D8FF0346FA68D318FB60DF
:1058D000FB68184607F11007BD4680BD80B584B04F
:1058E00000AF7860396078683968FFF7B3FF034626
:1058F000FB607868FFF7C0FF0346FA68D318FB60C7
:10590000FB68184607F11007BD4680BD80B590B012
:1059100000AFF860B9601346FB7107F1140303F19F
:105920002003FB63FB6B4FF000021A70FB79012B25
:1059300002D84FF00A03FB71BB68BB63FB79BA68FE
:10594000B2FBF3F3BB60BB6BDAB2BB68DBB2F979D5
:1059500001FB03F3DBB2D31A87F83730FB6B03F19B
:10596000FF33FB6397F83730092B05D897F83730AA
:1059700003F13003DBB204E097F8373003F137036B
:10598000DBB2FA6B1370BB68002B0CBF0023012342
:10599000DBB2002BD0D1F868F96BFFF7B9FE0346F4
:1059A00001E00BF08BFC184607F14007BD4680BDB7
:1059B00080B487B000AF786039604FF000037B613E
:1059C0004FF000033B614FF00003FB604FF000031A
:1059D0007B6186E07B694FF0010202FA03F33B61D1
:1059E0003B681A683B691340FB60FA683B699A425E
:1059F00073D17B681A687B694FEA43034FF0030158
:105A000001FA03F36FEA03031A407B681A607B68AC
:105A10001A683B681B7919467B694FEA430301FA10
:105A200003F31A437B681A603B681B79012B03D090
:105A30003B681B79022B34D17B689A687B694FEAFB
:105A400043034FF0030101FA03F36FEA03031A4023
:105A50007B689A607B689A683B685B7919467B69CA
:105A60004FEA430301FA03F31A437B689A607B68A9
:105A70005A687B699BB24FF0010101FA03F36FEAA8
:105A800003031A407B685A607B685A683B689B79BD
:105A900019467B699BB201FA03F39BB21A437B68F8
:105AA0005A607B68DA687B699BB24FEA43034FF028
:105AB000030101FA03F36FEA03031A407B68DA601B
:105AC0007B68DA683B68DB7919467B694FEA4303F8
:105AD00001FA03F31A437B68DA607B6903F101037F
