:020000040800F2
:10000000E41B0020592000084D260008592600084E
:10001000612600086926000871260008000000001B
:100020000000000000000000000000007926000829
:100030008526000800000000912600089D26000883
:10004000C5200008C5200008C5200008C5200008FC
:10005000C5200008C5200008C1260008C5200008EA
:10006000CD260008C52000081D270008C52000086F
:10007000C5200008C5200008C5200008C5200008CC
:10008000C5200008C5200008C5200008C5200008BC
:10009000C5200008C5200008C5200008C5200008AC
:1000A000C5200008C5200008C5200008C52000089C
:1000B000C5200008C5200008C5200008C52000088C
:1000C000C5200008C5200008C5200008C52000087C
:1000D000C5200008C5200008C5200008C52000086C
:1000E000C5200008C5200008C5200008C52000085C
:1000F000C5200008C5200008C5200008C52000084C
:10010000C5200008C5200008C5200008C52000083B
:10011000C5200008C5200008C5200008C52000082B
:10012000C5200008C5200008C5200008C52000081B
:10013000C5200008C5200008C5200008C52000080B
:10014000C5200008C5200008C5200008C5200008FB
:10015000C5200008C5200008C5200008C5200008EB
:10016000C5200008C5200008C1270008AD270008E9
:100170005527000899270008C5200008C520000859
:10018000C5200008C520000890B484B000AF024626
:100190000B46FA71BB714FF00003FB60BB7903F0B3
:1001A00003034FEA83034FF00F0202FA03F3FB60ED
:1001B0004FF46053C4F20103BA794FEA9202D2B20B
:1001C00010464FF46052C4F20102B9794FEA91012E
:1001D000C9B201F1020152F82110FA686FEA020275
:1001E000114000F1020243F822104FF46053C4F2B0
:1001F0000103BA794FEA9202D2B210464FF460522C
:10020000C4F20102B9794FEA9101C9B201F10201C8
:1002100052F82110FC79BA7902F003024FEA820207
:1002200004FA02F2114300F1020243F8221007F12E
:100230001007BD4690BC704780B485B000AF7860B1
:100240004FF00003FB607B68DB684FF0FF325A60C1
:100250007B68DB684FF0FF325A61FB6843F0004374
:10026000FB60FB6843F40063FB607B68DB68FA6853
:100270009A6107F11407BD4680BC704780B586B00F
:1002800000AF78604FF00003FB744FF000037B6118
:100290004FF00003FB604FF0030003F0A7FD7B6805
:1002A000DB681B69FB607B6903F101037B617A6991
:1002B0004FF45463C0F203039A4202D94FF0000393
:1002C0002AE0FB6803F00043002BE4D04FF000036A
:1002D0007B61FB6843F00103FB607B68DB68FA68C5
:1002E0001A617B68DB681B69FB607B6903F10103B2
:1002F0007B617A694FF45463C0F203039A4205D8D4
:10030000FB6803F00103002BEBD100E000BF4FF0CE
:10031000030003F06BFDFB7C184607F11807BD4690
:1003200080BD00BF80B489B000AFF860B960FA71D9
:10033000BB804FF00003FB76FB68DB78002B2CD1F1
:100340004FF000037B614FF00003FB61BB8803F1BA
:100350000303002B01DA03F103034FEAA3037B61DC
:10036000FB79FA6803F132034FEA8303D3189B68E1
:100370003B614FF00003FB610BE0BB681A683B690F
:100380001A60FB6903F10103FB61BB6803F104031D
:10039000BB60FA697B699A42EFD3FB7E184607F18E
:1003A0002407BD4680BC704780B489B000AFF860B8
:1003B000B9601346FB804FF00003FB61FB8803F13B
:1003C0000303002B01DA03F103034FEAA303BB612C
:1003D000FB68D3F8D0307B614FF00003FB610BE08A
:1003E0007B691A68BB681A60FB6903F10103FB6152
:1003F000BB6803F10403BB60FA69BB699A42EFD39F
:10040000BB68184607F12407BD4680BC704700BF93
:1004100080B487B000AF78600B46FB704FF00003EC
:100420003B614FF00003FB737B684FF00002DA7012
:100430007B684FF001029A707B684FF040029A800F
:10044000FB78012B17D14FF0A0433B617B684FF045
:100450000102DA727B684FF008021A707B684FF075
:1004600004025A707B684FF4A072DA807B684FF008
:1004700002021A721BE0FB78002B18D14FF0000328
:10048000C4F204033B617B684FF00002DA727B68C0
:100490004FF00C021A707B684FF006025A707B68AE
:1004A0004FF4A062DA807B684FF001021A723A6959
:1004B0007B68DA603B6903F500631A467B681A6162
:1004C0004FF000037B6123E07B694FEA43123B69F5
:1004D000D31803F510631A4679687B6903F10403A6
:1004E0004FEA8303CB189A607B694FEA43123B695A
:1004F000D31803F530631A4679687B6903F1140356
:100500004FEA8303CB185A607B6903F101037B61D7
:100510007B685B781A467B699A42D5D83B6903F5BC
:1005200080631A467B685A613B6903F588631A4603
:100530007B68C3F8CC204FF000037B6113E07B693C
:100540004FEA43123B69D31803F5A0631A46796852
:100550007B6903F122034FEA8303CB189A607B691E
:1005600003F101037B617B681B781A467B699A4221
:10057000E5D84FF000037B6113E07B694FEA03325B
:100580003B69D31803F580531A4679687B6903F1F8
:1005900032034FEA8303CB189A607B6903F10103AE
:1005A0007B617B681B781A467B699A42E5D83B6978
:1005B00003F560631A467B68C3F80C21FB7B184681
:1005C00007F11C07BD4680BC704700BF80B588B0EE
:1005D00000AF78604FF00003FB774FF00003BB6182
:1005E0004FF000037B614FF00003FB607B681B7AD8
:1005F000012B51D17B68DB689B6B7B617B696FF35F
:1006000010437B617B685B7A002B03D07B6943F4EA
:1006100080137B617B68DB687A699A634FF0000323
:10062000BB617B68DB68DB68BB61BB696FF386130A
:10063000BB61BB696FF39653BB61BB6943F01003A9
:10064000BB61BB696FF3C303BB61BB696FF3C713C6
:10065000BB61BB696FF35143BB61BB696FF3D343AC
:10066000BB617B68DB68BA69DA607868FFF706FE11
:100670007B68DB78012B40F08980FB684FF0050236
:1006800062F34403FB60FB6843F02003FB607B687C
:10069000DB68FA689A6079E07B68DB68DB68BB61DD
:1006A000BB6943F04003BB617B68DB68BA69DA6011
:1006B0007868FFF7E3FD4FF000037B617B6943F44B
:1006C00080337B617B681B7A032B03D17B6943F406
:1006D00000337B617B6943F480237B617B6943F456
:1006E00000237B617B6943F400137B617B685B7A49
:1006F000002B03D07B6943F480137B617B68DB684C
:100700007A699A634FF0140003F09CFB7B68DB6806
:10071000DB68BB617B681B7A032B03D1BB6943F4A5
:100720008033BB617B68DB68BA69DA607B681B7AFF
:10073000032B2BD17B68DB681B6B3B613B694FF064
:10074000010262F39B633B613B696FF3D7533B61EB
:100750003B6943F080533B613B694FF02D0262F3EC
:1007600016433B617B68DB683A691A634FF0C80047
:1007700003F068FB3B6943F400033B617B68DB6883
:100780003A691A634FF0C80003F05CFB7B68DB78C2
:10079000012B11D17B68DB689B68FB60FB684FF025
:1007A000050262F34403FB60FB6843F02003FB6037
:1007B0007B68DB68FA689A60FB7F184607F12007C0
:1007C000BD4680BD80B485B000AF78604FF00003B7
:1007D000FB734FF00003BB60BB6843F00103BB60D9
:1007E0007B68DB687A68D2689168BA680A439A6065
:1007F000FB7B184607F11407BD4680BC704700BF5D
:1008000080B485B000AF78604FF00003FB734FF009
:100810000003BB60BB6843F00103BB607B68DB681F
:100820007A68D2689168BA686FEA02020A409A60F0
:10083000FB7B184607F11407BD4680BC704700BF1C
:1008400080B586B000AF786039604FF00003FB746C
:100850004FF000037B614FF00003FB60FB6843F047
:100860002003FB603B68DBB203F01F03DAB2FB68D6
:1008700062F38A13FB607B68DB68FA681A617B6845
:10088000DB681B69FB607B6903F101037B617A69AB
:100890004FF45463C0F203039A4205D8FB6803F097
:1008A0002003002BEBD100E000BF4FF0030003F06A
:1008B0009DFAFB7C184607F11807BD4680BD00BFB6
:1008C00080B586B000AF78604FF00003FB744FF046
:1008D00000037B614FF00003FB60FB6843F01003F3
:1008E000FB607B68DB68FA681A617B68DB681B6900
:1008F000FB607B6903F101037B617A694FF4546308
:10090000C0F203039A4205D8FB6803F01003002BE2
:10091000EBD100E000BF4FF0030003F067FAFB7C6F
:10092000184607F11807BD4680BD00BF80B584B0EA
:1009300000AF78600B46FB704FF00003FB737B68E1
:10094000DB68DB68BB60BB686FF35D73BB60BB6873
:100950006FF39E73BB60FB78012B04D1BB6843F03F
:100960000053BB6006E0FB78002B03D1BB6843F06B
:100970008043BB607B68DB68BA68DA604FF03200A6
:1009800003F060FAFB7B184607F11007BD4680BDF7
:1009900080B483B000AF78607B68DB685B6903F08C
:1009A0000103184607F10C07BD4680BC704700BF25
:1009B00080B582B000AF78607868FFF7E9FF034642
:1009C000012B0CBF00230123DBB2184607F10807F7
:1009D000BD4680BD80B485B000AF78604FF00003A5
:1009E000FB607B68DB685B69FB607B68DB689B693D
:1009F000FA681340FB60FB68184607F11407BD4610
:100A000080BC704780B485B000AF78600B46FB7047
:100A10007B681B691B68FB60FB7803F00303DAB299
:100A2000FB6862F30103FB607B681B69FA681A606C
:100A300007F11407BD4680BC704700BF80B58CB07D
:100A400000AF78604FF0000387F82B304FF00003C1
:100A50007B624FF000033B624FF00003FB614FF0FD
:100A60000003BB614FF000037B617B68D3F80C315E
:100A70004FF000021A607B681B691B683B623B6A8F
:100A80006FF3CC233B627B681B693A6A1A607B6810
:100A9000DB7A002B6DD17B681B7A012B05D178683E
:100AA0004FF00001FFF7AEFF04E078684FF001015E
:100AB000FFF7A8FF7B68DB684FF400725A62FB699E
:100AC0004FF0400262F31F43FB61FB694FF4007279
:100AD00062F30F03FB617B68DB68FA699A62BA8B89
:100AE000FB8BD3189BB23B83BB694FF4BA7262F3A2
:100AF0001F43BB617B68DB68BA69C3F804213A8B8A
:100B00007B8BD3189BB23B83BB694FF0400262F3EF
:100B10001F43BB617B68DB68BA69C3F808213A8B65
:100B20007B8BD3189BB23B83BB696FF31F43BB61C5
:100B30007B68DB68BA69C3F80C213A8B7B8BD318CE
:100B40009BB23B83BB696FF31F43BB617B68DB6870
:100B5000BA69C3F810213A8B7B8BD3189BB23B83C5
:100B6000BB696FF31F43BB617B68DB68BA69C3F87D
:100B7000142178684FF01001FFF762FE7868FFF7E4
:100B80009FFE7B681B694FF000021A617B681B693E
:100B90004FF000025A617B681B694FF0FF329A6187
:100BA0007B681B694FF00002DA614FF00003FB62C3
:100BB00043E07A68FB6A03F104034FEA8303D31826
:100BC0009B681B687B6297F8273023F07F03DBB2BA
:100BD000002B0BD04FF000037B627B6A43F0804315
:100BE0007B627B6A43F000637B6202E04FF00003AC
:100BF0007B627A68FB6A03F104034FEA8303D3182C
:100C00009B687A6A1A607A68FB6A03F104034FEA08
:100C10008303D3189B684FF000021A617A68FB6A5D
:100C200003F104034FEA8303D3189B684FF0FF02DC
:100C30009A60FB6A03F10103FB627B685B781A46EA
:100C4000FB6A9A42B5D84FF00003FB6242E07A6833
:100C5000FB6A03F114034FEA8303D3185B681B6834
:100C6000FB60FB7B23F07F03DBB2002B0BD04FF04C
:100C70000003FB60FB6843F08043FB60FB6843F0CC
:100C80000063FB6002E04FF00003FB607A68FB6AE0
:100C900003F114034FEA8303D3185B68FA681A6000
:100CA0007A68FB6A03F114034FEA8303D3185B6885
:100CB0004FF000021A617A68FB6A03F114034FEAED
:100CC0008303D3185B684FF0FF029A60FB6A03F15D
:100CD0000103FB627B685B781A46FB6A9A42B6D8CE
:100CE0004FF000037B617B6943F480737B617B6819
:100CF0001B697A68126911697A696FEA0202114008
:100D00007A690A431A617B68DB78012B1ED14FF0A8
:100D100000033B613B6943F001033B613B6943F0E6
:100D200002033B613B694FF0400262F38A033B617F
:100D30003B6943F480333B613B694FF0400262F30F
:100D400059433B617B681B693A691A63786800F014
:100D500007F897F82B30184607F13007BD4680BDDD
:100D600080B584B000AF78604FF00003FB734FF0A4
:100D70000003BB607B68DB684FF000029A617B6810
:100D8000DB684FF0FF325A617868FFF755FA7B68ED
:100D9000DB78002B03D1BB6843F01003BB60BB685A
:100DA00043F40063BB60BB6843F48053BB60BB6823
:100DB00043F40053BB60BB6843F48023BB60BB6853
:100DC00043F40023BB60BB6843F00803BB60BB680F
:100DD00043F48013BB60BB6843F40013BB607B68C3
:100DE000DB687A68D2689169BA686FEA02021140DA
:100DF000BA680A439A61FB7B184607F11007BD46A3
:100E000080BD00BF80B485B000AF78604FF00003B4
:100E1000FB737B681B699B68BB60BB68C3F34103C2
:100E2000DBB2022B0BD0032B05D0012B03D04FF0EC
:100E30000303FB7307E04FF00203FB7303E04FF083
:100E40000103FB7300BFFB7B184607F11407BD4687
:100E500080BC704780B487B000AF78604FF000036B
:100E6000FB754FF00003BB607B681B699B683B61AF
:100E70007B689B691B68FB603B69C3F34103DBB282
:100E8000022B04D0FB686FF30A03FB6006E0FB68EB
:100E90004FF0030262F30A03FB6000BF7B689B69AB
:100EA000FA681A60BB6843F48073BB607B681B6997
:100EB0007A6812695168BA686FEA02021140BA682A
:100EC0000A435A60FB7D184607F11C07BD4680BCEB
:100ED000704700BF80B487B000AF786039604FF0D2
:100EE0000003FB744FF00003FB604FF00003BB6096
:100EF0003B685B78012B12D13B681B787A6803F161
:100F000004034FEA8303D3189B687B613B681B781B
:100F10004FF0010202FA03F39BB23B8114E03B68FD
:100F20001B787A6803F114034FEA8303D3185B68D4
:100F30007B613B681B784FF0010202FA03F39AB21F
:100F4000BB6862F31F43BB607B691B68FB607B7BF4
:100F500023F07F03DBB2002B29D13B689B689BB257
:100F60004FEA43534FEA53539AB2FB6862F30A03C2
:100F7000FB603B68DB7803F00303DAB2FB6862F3E3
:100F80009343FB603B68DB88DBB203F00F03DAB20C
:100F9000FB6862F39953FB60FB6843F08053FB608E
:100FA000FB6843F40043FB60FA687B691A603B68A6
:100FB0001B78012B0CD17B68DB7A002B08D17B6876
:100FC0001B697A681269D16BBA680A43DA6307E071
:100FD0007B681B697A681269D169BA680A43DA6169
:100FE000FB7C184607F11C07BD4680BC704700BF5C
:100FF00080B487B000AF786039604FF00003FB74B5
:101000004FF00003FB604FF00003BB603B685B7870
:10101000012B12D13B681B787A6803F104034FEA75
:101020008303D3189B687B613B681B784FF00102F8
:1010300002FA03F39BB23B8114E03B681B787A68A9
:1010400003F114034FEA8303D3185B687B613B68A9
:101050001B784FF0010202FA03F39AB2BB6862F305
:101060001F43BB60FB686FF3CF33FB60FA687B699B
:101070001A603B681B78012B0ED17B68DB7A002B52
:101080000AD17B681B697A681269D16BBA686FEA0A
:1010900002020A40DA6309E07B681B697A68126918
:1010A000D169BA686FEA02020A40DA61FB7C18462D
:1010B00007F11C07BD4680BC704700BF80B588B0F3
:1010C00000AF786039604FF00003FB774FF000030A
:1010D000BB614FF000037B614FF000033B613B6855
:1010E0005B78012B40F0BD803B681B787A6803F188
:1010F00004034FEA8303D3189B681B687B613B683A
:101100001B787A6803F104034FEA8303D3189B68C2
:101110001B693B613B685B69002B0AD13B696FF33C
:1011200012033B613B694FF0010262F3DC433B6118
:1011300028E03B685B6923F07F4222F478023B6938
:1011400062F312033B613B685A693B689B68D318A2
:1011500003F1FF323B689B68B2FBF3F39BB24FEAAB
:1011600083534FEA93539AB23B6962F3DC433B618A
:101170003B68DB78012B05D13B694FF0010262F33C
:101180005E733B613B681B787A6803F104034FEAA6
:101190008303D3189B683A691A617B68DB78012B5B
:1011A0000CD13B681B787A6803F104034FEA830390
:1011B000D3189B683A6812695A6116E03B68DB787D
:1011C000012B12D03B685B69002B0ED03B681B786B
:1011D0004FF0010202FA03F3BB617B681B697A6876
:1011E0001269516BBA690A435A633B68DB78012B79
:1011F00014D17B681B699B68FB60FB68C3F30D23FC
:101200009BB203F00103002B04D17B6943F0005330
:101210007B6103E07B6943F080537B617B6943F032
:1012200080637B617B6943F000437B613B681B7893
:101230007A6803F104034FEA8303D3189B687A6941
:101240001A603B68DB78012B40F09A803B68D968D4
:101250003B681A783B685B699BB27868FFF762F875
:101260008EE03B681B787A6803F114034FEA83032E
:10127000D3185B681B687B613B681B787A6803F155
:1012800014034FEA8303D3185B681B693B613B6817
:101290005B69002B10D13B689B6823F07F4222F4EE
:1012A00078023B6962F312033B613B694FF0010234
:1012B00062F3DC433B6124E03B685A693B689B680E
:1012C000D31803F1FF323B689B68B2FBF3F39BB288
:1012D0004FEA83534FEA93539AB23B6962F3DC437C
:1012E0003B613B69C3F3C9439BB23A68926802FB16
:1012F00003F323F07F4222F478023B6962F3120386
:101300003B613B681B787A6803F114034FEA83035F
:10131000D3185B683A691A617B68DB78012B0BD1C3
:101320003B681B787A6803F114034FEA8303D318F0
:101330005B683A6812695A613B68DB78012B0CD113
:101340003B685B79002B04D07B6943F000537B61E1
:1013500003E07B6943F080537B617B6943F08063EA
:101360007B617B6943F000437B613B681B787A6853
:1013700003F114034FEA8303D3185B687A691A6098
:10138000FB7F184607F12007BD4680BD80B489B0B9
:1013900000AF786039604FF00003FB774FF0000337
:1013A000BB614FF000033B614FF00003BB603B6843
:1013B0005B78012B75D17B689B697B617B691B68BE
:1013C0003B617B691B69BB603B685B69002B0AD191
:1013D0003B7A6FF306033B72BB7A4FF0010262F374
:1013E000C403BB7224E03B685A693B689B689A421D
:1013F0000ED93B689A683B685A613B689B68DBB2D0
:1014000003F07F03DAB23B7A62F306033B7209E032
:101410003B685B69DBB203F07F03DAB23B7A62F3CD
:1014200006033B72BB7A4FF0010262F3C403BB7246
:10143000BA687B691A617B68DB78012B0BD13B684A
:101440001B787A6803F104034FEA8303D3189B687F
:101450003A6812695A613B6943F080633B613B69BA
:1014600043F000433B613A697B691A607B68DB7833
:10147000002B40F083803B685B69002B7ED03B688B
:101480001B784FF0010202FA03F3BA691343BB6100
:101490007B681B697A681269516BBA690A435A639F
:1014A0006CE03B681B787A6803F114034FEA83030E
:1014B000D3185B681B683B613B681B787A6803F153
:1014C00014034FEA8303D3185B681B69BB603B6856
:1014D0005B69002B10D13B689B68DBB203F07F0394
:1014E000DAB23B7A62F306033B72BB7A4FF0010239
:1014F00062F3C403BB7213E03B689A683B685A61AD
:101500003B689B68DBB203F07F03DAB23B7A62F39D
:1015100006033B72BB7A4FF0010262F3C403BB7255
:101520003B681B787A6803F114034FEA8303D318EE
:101530005B68BA681A617B68DB78012B0BD13B686A
:101540001B787A6803F114034FEA8303D3185B68AE
:101550003A6812695A613B6943F080633B613B69B9
:1015600043F000433B613B681B787A6803F1140346
:101570004FEA8303D3185B683A691A60FB7F184609
:1015800007F12407BD4680BC704700BF80B487B018
:1015900000AF786039604FF00003FB754FF0000337
:1015A000FB603B685B78012B1ED13B681B787A6837
:1015B00003F104034FEA8303D3189B683B613B6943
:1015C0001B68FB60FB7B23F07F03DBB2002B03D0A7
:1015D000FB6843F08043FB60FB6843F40013FB604F
:1015E000FA683B691A6013E03B681B787A6803F17C
:1015F00014034FEA8303D3185B683B613B691B68A4
:10160000FB60FB6843F40013FB60FA683B691A60F7
:10161000FB7D184607F11C07BD4680BC704700BF24
:1016200080B487B000AF786039604FF00003FB747E
:101630004FF00003FB603B685B78012B0AD13B68ED
:101640001B787A6803F104034FEA8303D3189B687D
:101650007B6109E03B681B787A6803F114034FEA69
:101660008303D3185B687B617B691B68FB60FB6845
:101670006FF35553FB603B68DB78032B03D03B686B
:10168000DB78022B03D1FB6843F08053FB60FA68E0
:101690007B691A60FB7C184607F11C07BD4680BCBD
:1016A000704700BF80B485B000AF78607B681B696D
:1016B0009B69FB607B681B69DB69FA681340FB6010
:1016C000FB684FEA1343184607F11407BD4680BC78
:1016D000704700BF80B485B000AF78600B46FB70E8
:1016E000FB787A6803F114034FEA8303D3185B682D
:1016F0009B68FB607B681B695B69FA681340FB6051
:10170000FB68184607F11407BD4680BC704700BF50
:1017100080B485B000AF78607B681B699B69FB6013
:101720007B681B69DB69FA681340FB60FB684FEA62
:1017300003434FEA1343184607F11407BD4680BC24
:10174000704700BF80B487B000AF78604FF00003EF
:101750003B61FB7C43F0C003FB74BB7C4FF0010298
:1017600062F3C403BB743B7C4FF0180262F30603C0
:101770003B747B685B6D3A691A617B68DB78012B8F
:1017800017D14FF00003FB607B685B6D7A6802F550
:10179000B9625A617B685B6D1B68FB60FB6843F054
:1017A0000043FB604FF08023FB607B685B6DFA6851
:1017B0001A6007F11C07BD4680BC704780B485B035
:1017C00000AF78607B689B7A002B1BD07B681B691D
:1017D0009B68FB603B7B03F00103DBB2002B11D065
:1017E0007B6803F586731B68BB60BB686FF34103BE
:1017F000BB60BB686FF30003BB607B68D3F80C3140
:10180000BA681A6007F11407BD4680BC704700BF74
:1018100080B483B000AF03463960FB7197F907309D
:10182000002B10DA4FF46D43CEF20003FA7902F088
:101830000F02A2F104013A68D2B24FEA0212D2B208
:101840005B181A760DE04FF46143CEF2000397F96E
:1018500007103A68D2B24FEA0212D2B25B1883F88C
:10186000002307F10C07BD4680BC704780B582B0ED
:1018700000AF78607A686FF07F439A4202D94FF0E8
:1018800001031FE04EF21003CEF200037A6822F04B
:101890007F4202F1FF325A604FF0FF304FF00F01EC
:1018A000FFF7B6FF4EF21003CEF200034FF0000236
:1018B0009A604EF21003CEF200034FF007021A6056
:1018C0004FF00003184607F10807BD4680BD00BF72
:1018D00080B584B000AF0346FB71FA7946F6186311
:1018E000C0F6000353F8223018464FF0010100F013
:1018F0002FFEFA7946F61063C0F6000333F8123073
:10190000BB604FF001033B734FF00003BB734FF01C
:101910000103FB734FF002037B73FA7940F200037B
:10192000C2F2000353F8222007F1080310461946BB
:1019300001F0E0FC07F11007BD4680BD80B582B024
:1019400000AF0346FB71FA7940F20003C2F20003D4
:1019500053F82220F97946F61063C0F6000333F8F5
:1019600011301046194601F085FD07F10807BD4604
:1019700080BD00BF80B582B000AF0346FB71FA792D
:1019800040F20003C2F2000353F82220F97946F630
:101990001063C0F6000333F811301046194601F009
:1019A00077FD07F10807BD4680BD00BF80B582B056
:1019B00000AF0346FB71FA7940F20003C2F2000364
:1019C00053F82220F97946F61063C0F6000333F885
:1019D00011301046194601F069FD07F10807BD46B0
:1019E00080BD00BF80B584B000AF4FF00003FB7333
:1019F00030E0FA7B46F61863C0F6000353F8223055
:101A000018464FF0010100F0A3FDFA7B46F6106383
:101A1000C0F6000333F812307B604FF001033B72D5
:101A20004FF00003BB724FF00103FB724FF0020353
:101A30007B72FA7B40F20003C2F2000353F82220CB
:101A400007F104031046194601F054FCFB7B03F137
:101A50000103FB73FB7B032BCBD907F11007BD46BA
:101A600080BD00BF80B582B000AF4FF00003FB71B6
:101A700015E0FA7940F20003C2F2000353F8222085
:101A8000F97946F61063C0F6000333F811301046BA
:101A9000194601F0EFFCFB7903F10103FB71FB79BF
:101AA000032BE6D907F10807BD4680BD80B582B09B
:101AB00000AF4FF00003FB7115E0FA7940F200032C
:101AC000C2F2000353F82220F97946F61063C0F6FB
:101AD000000333F811301046194601F0D9FCFB79A8
:101AE00003F10103FB71FB79032BE6D907F108072A
:101AF000BD4680BD80B582B000AF4FF00003FB71E2
:101B000015E0FA7940F20003C2F2000353F82220F4
:101B1000F97946F61063C0F6000333F81130104629
:101B2000194601F0C3FCFB7903F10103FB71FB795A
:101B3000032BE6D907F10807BD4680BD80B584B008
:101B400000AF0346FB71FA7946F63063C0F6000336
:101B500053F8223018464FF0010100F0F9FC4FF025
:101B600000033B734FF00003FB73FA7946F62863DA
:101B7000C0F6000333F81230BB60FA7940F210036C
:101B8000C2F2000353F8222007F108031046194659
:101B900001F0B0FB07F11007BD4680BD80B586B0EF
:101BA00000AF03463960FB714FF480404FF00101F4
:101BB00000F022FDFA7946F64463C0F600039A5C11
:101BC000F97946F64863C0F600035B5C1046194697
:101BD000FEF7DAFAFA7946F63C63C0F6000333F80A
:101BE00012303B614FF000033B754FF008037B75EB
:101BF0004FF00103BB7507F11003184604F0ECF831
:101C0000FA7946F64C63C0F600039B5C3B734FF0D9
:101C10000F037B734FF00F03BB734FF00103FB7394
:101C200007F10C03184604F0C3F9FA7940F22423B3
:101C3000C2F20003396843F8221007F11807BD46C5
:101C400080BD00BF80B584B000AF4FF00003FB73D0
:101C500030E0FA7B46F63063C0F6000353F82230DA
:101C600018464FF0010100F073FC4FF480404FF034
:101C7000010100F0C1FC4FF000033B724FF0000384
:101C8000FB72FA7B46F62863C0F6000333F8123085
:101C90007B60FA7B40F21003C2F2000353F822206B
:101CA00007F104031046194601F024FBFB7B03F106
:101CB0000103FB73FB7B022BCBD907F11007BD4659
:101CC00080BD00BF80B582B000AF0346FB71FA79DA
:101CD00040F21003C2F2000353F82220F97946F6CD
:101CE0002863C0F6000333F811301046194601F09E
:101CF000A3FB0346184607F10807BD4680BD00BF99
:101D000080B483B000AF78607A6841F6D103C0F642
:101D1000000313607A6841F6AD13C0F60003536008
:101D20007A6841F63D13C0F6000393607A6841F685
:101D30007513C0F60003D3607A6841F6E513C0F668
:101D4000000313617A6841F6F523C0F6000353617E
:101D50007A6841F66523C0F6000393617A6841F61C
:101D6000AD23C0F60003D3617A6841F63D33C0F677
:101D7000000313627A6841F69D33C0F60003536294
:101D80007A6841F64543C0F6000393627A6841F6EB
:101D9000C543C0F60003D36207F10C07BD4680BC03
:101DA000704700BF80B500AF40F21413C2F20003C9
:101DB0001A6848F21F53C5F2EB13A3FB02134FEA54
:101DC00053131846FFF752FD0346002B00D0FEE7E1
:101DD0004FF0FF304FF00001FFF71AFD80BD00BF4C
:101DE00080B485B000AF786040F2E413C2F2000323
:101DF0001B68FB6007E040F2E413C2F200031B68BB
:101E0000FA689A4212D840F2E413C2F200031A6848
:101E1000FB68D21A79684CF6CD43CCF6CC43A3FBD1
:101E200001034FEAD3039A42E5D300E000BF07F174
:101E30001407BD4680BC704780B500AF40F2442314
:101E4000C2F200035B684FF00000984780BD00BFFE
:101E500080B582B000AF40F23023C2F200031B68AD
:101E6000984740F24423C2F200031B69984740F2AE
:101E70004423C2F200039B6A984740F24423C2F213
:101E800000031B6A4FF00100984740F24423C2F25E
:101E900000035B6A4FF0010041F63961C0F60001B2
:101EA00098474FF001037B600CE07B68112B05D055
:101EB0007B6818464FF0000100F02EFE7B6803F1AE
:101EC00001037B607B68132BEFDD4FF000004FF0C8
:101ED000010100F021FE07F10807BD4680BD00BFEB
:101EE00080B584B002AF40F24423C2F20003DB6A43
:101EF0004FF0020098470346002B08D140F24423DC
:101F0000C2F200039B684FF00100984707E040F2DF
:101F10004423C2F20003DB684FF0010098474FF002
:101F2000000000F02BFF0346002B08D040F24423B2
:101F3000C2F200039B684FF00200984707E040F2AE
:101F40004423C2F20003DB684FF00200984740F2DE
:101F50004423C2F200035B684FF0030098474FF040
:101F600001037B6018E07B68032B11D040F2E8137B
:101F7000C2F200031B68002B05D078684FF0010106
:101F800000F056FE04E078684FF0000100F050FECB
:101F90007B6803F101037B607B68132BE3D900F0BE
:101FA000C5FF03464FF6FF72009218464FF000013E
:101FB00040F2FF324FF0000301F098F803467B80B7
:101FC00040F23023C2F20003DB6846F65060C0F6F0
:101FD000000098477B884FF00300194600F0EAFEA6
:101FE00040F2E813C2F200031B6883F0010240F2E2
:101FF000E813C2F200031A604FF06400FFF7F0FE2E
:1020000040F23023C2F200035B68984707F10807EB
:10201000BD4680BD80B400AFBD4680BC704700BFE8
:1020200080B483B000AF0346FB7107F10C07BD46D7
:1020300080BC704780B400AFBD4680BC704700BF15
:1020400080B400AFBD4680BC704700BF80B400AF15
:10205000BD4680BC704700BF80B582B000AF46F679
:10206000BC73C0F600037B6040F20003C2F20003C1
:102070003B600BE07B681A683B681A603B6803F1C1
:1020800004033B607B6803F104037B603A6840F221
:10209000E413C2F200039A42ECD3084808494FF017
:1020A00000028842B8BF40F8042BFFF6FAAF00F0F8
:1020B00033FA07F10807BD4680BD0000E4010020A7
:1020C000E813002080B400AFFEE700BF80B584B005
:1020D00000AFF8607A603B600B46FB72F86801F075
:1020E00039FDF86800F01EF8FB683A68C3F8E0258F
:1020F000FB68BA69C3F8E425FB687A68C3F8E82589
:10210000FB7AF868194603F0C5FFFB68D3F8E4359D
:102110001B689847F86801F021FE07F11007BD46DB
:1021200080BD00BF80B483B000AF78604FF0000383
:10213000184607F10C07BD4680BC704780B584B0D7
:1021400000AF786007F108037868194602F01EFBBB
:102150003B7A03F01F03012B0AD0022B0FD0002B78
:1021600014D107F108037868194601F07BFE16E0E8
:1021700007F108037868194601F0C6FE0FE007F181
:1021800008037868194601F0F5FE08E03B7A23F071
:102190007F03DBB27868194604F030F900BF4FF0D6
:1021A0000003184607F11007BD4680BD80B584B016
:1021B00000AF78600B46FB70FB78002B45D17B6845
:1021C00003F55C73FB607B6893F81131032B4FD1EF
:1021D000FB68DA69FB689B689A4221D9FB68DA6977
:1021E000FB689B68D21AFB68DA617B68DB78012B9D
:1021F00006D1FB68DA68FB689B68D218FB68DA6076
:10220000FB68DA68FB689968FB68DB69994238BF4C
:102210000B469BB2786811461A4604F061FA27E033
:102220007B68D3F8E0351B69002B0AD07B6893F8F4
:102230001231032B05D17B68D3F8E0351B69786830
:102240009847786804F064FA12E07B68D3F8E035C8
:102250009B69002B0CD07B6893F81231032B07D1BC
:102260007B68D3F8E0359B69FA787868114698471F
:102270004FF00003184607F11007BD4680BD00BFB0
:1022800080B584B000AF78600B46FB70FB78002B04
:1022900063D17B6803F58C73FB607B6893F8113125
:1022A000022B6ED1FB68DA69FB689B689A421CD9E5
:1022B000FB68DA69FB689B68D21AFB68DA617B68A5
:1022C000DB78012B06D1FB68DA68FB689B68D218C3
:1022D000FB68DA60FB68DA68FB68DB699BB27868E8
:1022E00011461A4604F0C0F94BE0FB681B6AFA6815
:1022F0009268B3FBF2F102FB01F29B1A002B17D19B
:10230000FB681A6AFB689B689A4211D3FB681A6AD9
:10231000FB685B6A9A420BD278684FF000014FF07D
:10232000000204F0A1F9FB684FF000025A6229E0B4
:102330007B68D3F8E035DB68002B0AD07B6893F824
:102340001231032B05D17B68D3F8E035DB68786860
:102350009847786804F0FAF913E07B68D3F8E03521
:102360005B69002B0ED07B6893F81231032B09D1E7
:102370007B68D3F8E0355B69FA787868114698474E
:1023800000E000BF4FF00003184607F11007BD46FC
:1023900080BD00BF80B582B000AF786078684FF034
:1023A00000014FF040024FF0000303F009FF78688E
:1023B0004FF080014FF040024FF0000303F000FFA8
:1023C0007B684FF0010283F812217B68D3F8E43573
:1023D0005B687A689278104698474FF00003184679
:1023E00007F10807BD4680BD80B582B000AF7860B8
:1023F0007B68D3F8E4351B6998477B684FF003028C
:1024000083F812214FF00003184607F10807BD4674
:1024100080BD00BF80B582B000AF78607B684FF0B0
:10242000040283F812217B68D3F8E435DB6898470F
:102430004FF00003184607F10807BD4680BD00BFF6
:1024400080B582B000AF78607B68D3F8E035DB6997
:10245000002B05D07B68D3F8E035DB6978689847B6
:102460004FF00003184607F10807BD4680BD00BFC6
:1024700080B582B000AF78600B46FB707B68D3F804
:10248000E0351B68FA787868114698477B68D3F87E
:10249000E4359B6898474FF00003184607F108079A
:1024A000BD4680BD80B582B000AF78600B46FB7042
:1024B0007B68D3F8E0355B68FA787868114698470E
:1024C0004FF00003184607F10807BD4680BD00BF66
:1024D00080B582B000AF78607B68D3F8E0351B6AC6
:1024E000786898474FF00003184607F10807BD4683
:1024F00080BD00BF80B582B000AF78607B68D3F844
:10250000E0355B6A786898474FF00003184607F19A
:102510000807BD4680BD00BF80B500AF40F2442033
:10252000C2F20000FFF7ECFB40F23020C2F20000E4
:1025300004F04EF801F000FAFFF734FC00F008FD5B
:1025400000F082FCFFF784FCFFF7CAFCFCE700BF49
:1025500080B483B000AF78600B46FB70FB78002B33
:102560000CD04FF46053C4F202034FF46052C4F233
:102570000202116B7A680A431A630DE04FF460534C
:10258000C4F202034FF46052C4F20202116B7A6883
:102590006FEA02020A401A6307F10C07BD4680BCCD
:1025A000704700BF80B483B000AF78600B46FB700B
:1025B000FB78002B0CD04FF46053C4F202034FF4AD
:1025C0006052C4F20202116C7A680A431A640DE088
:1025D0004FF46053C4F202034FF46052C4F202029B
:1025E000116C7A686FEA02020A401A6407F10C075C
:1025F000BD4680BC704700BF80B483B000AF786038
:102600000B46FB70FB78002B0CD04FF46053C4F2E8
:1026100002034FF46052C4F20202516C7A680A431A
:102620005A640DE04FF46053C4F202034FF4605259
:10263000C4F20202516C7A686FEA02020A405A64DC
:1026400007F10C07BD4680BC704700BF80B400AFE7
:10265000BD4680BC704700BF80B400AFFEE700BF3E
:1026600080B400AFFEE700BF80B400AFFEE700BF5C
:1026700080B400AFFEE700BF80B400AFBD4680BCB1
:10268000704700BF80B400AFBD4680BC704700BF3C
:1026900080B400AFBD4680BC704700BF80B400AFBF
:1026A00040F2E413C2F200031B6803F1010240F29E
:1026B000E413C2F200031A60BD4680BC704700BF3D
:1026C00080B400AFBD4680BC704700BF80B500AF8E
:1026D0004FF0040003F01CFC0346002B1DD040F219
:1026E0002423C2F200035B68002B05D040F22423B0
:1026F000C2F200035B68984740F22423C2F2000351
:102700001B68002B05D040F22423C2F200031B6893
:1027100098474FF0040003F027FC80BD80B500AF60
:102720004FF0100003F0F4FB0346002B10D040F2F2
:102730002423C2F200039B68002B05D040F224231F
:10274000C2F200039B6898474FF0100003F00CFCA6
:1027500080BD00BF80B500AF40F6F843C2F2000371
:102760009B7A002B13D04EF61053CEF200034EF698
:102770001052CEF20002126822F006021A6001F036
:10278000DBF840F6F840C2F20000FFF717F84FF40C
:10279000801003F0E9FB80BD80B500AF40F6F84043
:1027A000C2F2000002F0FAF980BD00BF80B500AFB0
:1027B00040F6F840C2F2000002F02AF980BD00BFE6
:1027C00080B500AF40F6F840C2F2000002F0BAF85F
:1027D00080BD00BF80B485B000AF786039604FF035
:1027E0000003FB604FF00003FB727B685B68FB60DB
:1027F000FB6823F0407323F48073FB603B681B7914
:102800004FEA03223B681B681343FA681343FB60DB
:102810007B68FA685A607B689B68FB60FA684FF2D5
:10282000FD73CCF2FF031340FB603B681A693B6801
:10283000DB681A433B689B681A433B685B794FEA45
:1028400043031343FA681343FB607B68FA689A609A
:102850007B68DB6AFB60FB6823F47003FB603B680A
:102860001B7D03F1FF33DAB2FB7A1343FB72FB7A71
:102870004FEA0353FA681343FB607B68FA68DA6235
:1028800007F11407BD4680BC704700BF80B485B017
:1028900000AF78604FF00003FB604FF40C53C4F2BC
:1028A00001035B68FB60FA6843F2E003CFF6FC7358
:1028B0001340FB607B681A687B685B681A437B681F
:1028C0009B681A437B68DB681343FA681343FB6019
:1028D0004FF40C53C4F20103FA685A6007F114076D
:1028E000BD4680BC704700BF80B483B000AF786045
:1028F0000B46FB70FB78002B06D07B689B6843F08F
:1029000001027B689A6005E07B689B6823F0010206
:102910007B689A6007F10C07BD4680BC704700BF1A
:1029200080B485B000AF7860F970BA707B704FF0FA
:102930000003FB604FF00003BB60FB78092B27D935
:102940007B68DB68FB60FA7813464FEA43039B1809
:10295000A3F11E034FF0070202FA03F3BB60BB684A
:102960006FEA0303FA681340FB607978FA7813463C
:102970004FEA43039B18A3F11E0301FA03F3BB6064
:10298000FA68BB681343FB607B68FA68DA6022E090
:102990007B681B69FB60FA7813464FEA43039B1878
:1029A0004FF0070202FA03F3BB60BB686FEA030350
:1029B000FA681340FB607978FA7813464FEA4303CC
:1029C0009B1801FA03F3BB60FA68BB681343FB6012
:1029D0007B68FA681A61BB78062B27D87B685B6B2B
:1029E000FB60BB7803F1FF3213464FEA83039B1869
:1029F0004FF01F0202FA03F3BB60BB686FEA0303E8
:102A0000FA681340FB60F978BB7803F1FF32134694
:102A10004FEA83039B1801FA03F3BB60FA68BB68B3
:102A20001343FB607B68FA685A6351E0BB780C2B58
:102A300027D87B681B6BFB60BA7813464FEA830389
:102A40009B18A3F123034FF01F0202FA03F3BB60AC
:102A5000BB686FEA0303FA681340FB60F978BA7841
:102A600013464FEA83039B18A3F1230301FA03F3F0
:102A7000BB60FA68BB681343FB607B68FA681A6343
:102A800026E07B68DB6AFB60BA7813464FEA830373
:102A90009B18A3F141034FF01F0202FA03F3BB603E
:102AA000BB686FEA0303FA681340FB60F978BA78F1
:102AB00013464FEA83039B18A3F1410301FA03F382
:102AC000BB60FA68BB681343FB607B68FA68DA6234
:102AD00007F11407BD4680BC704700BF80B483B0C7
:102AE00000AF78607B689B6843F080427B689A60A7
:102AF00007F10C07BD4680BC704700BF80B483B0AF
:102B000000AF78607B68DB6C9BB2184607F10C075E
:102B1000BD4680BC704700BF80B584B000AF786010
:102B20000B46FB7046F68063C0F600037A6853F8E4
:102B3000223018464FF00101FFF70AFD46F65863B0
:102B4000C0F600037A6833F81230BB604FF003031D
:102B50007B737B68032B08D07B68052B05D07B68D3
:102B6000062B02D07B68092B2BD14FF002033B735D
:102B70004FF00003BB734FF00103FB7340F2680397
:102B8000C2F200037A6853F8222007F108031046C6
:102B9000194600F0AFFB40F26803C2F200037A6806
:102BA00053F8222046F6D063C0F60003796853F844
:102BB00021309BB2104619464FF0020200F088FC0B
:102BC00032E0FB78012B0DD0022B15D0002B1DD14C
:102BD0004FF001033B734FF00003BB734FF0010351
:102BE000FB7314E04FF000033B734FF00103BB7322
:102BF0004FF00003FB730AE04FF000033B734FF00C
:102C00000003BB734FF00103FB7300E000BF40F211
:102C10006803C2F200037A6853F8222007F1080320
:102C20001046194600F066FB07F11007BD4680BD4F
:102C300080B582B000AF78600B46FB707B68032BD9
:102C400008D07B68052B05D07B68062B02D07B68FB
:102C5000092B64D17B68A3F10303062B00F2888063
:102C600001A252F823F000BF852C0008712D000846
:102C7000AB2C0008D12C0008712D0008712D000824
:102C8000F72C0008FB78012B07D14FF40063C4F246
:102C900000034FF6FF725A6340E04FF40063C4F242
:102CA00000034FF000025A6338E0FB78012B07D194
:102CB0004FF40063C4F200034FF6FF729A632DE0F5
:102CC0004FF40063C4F200034FF000029A6325E062
:102CD000FB78012B07D14FF40063C4F200034FF6D9
:102CE000FF72DA631AE04FF40063C4F200034FF09E
:102CF0000002DA6312E0FB78012B07D14FF4006386
:102D0000C4F200034FF6FF721A6406E04FF400634A
:102D1000C4F200034FF000021A6400BF28E0FB7801
:102D2000012B12D140F26803C2F200037A6853F813
:102D3000222046F65863C0F60003796833F8113054
:102D40001046194600F096FB13E040F26803C2F209
:102D500000037A6853F8222046F65863C0F6000351
:102D6000796833F811301046194600F091FB00E005
:102D700000BF07F10807BD4680BD00BF80B582B027
:102D800000AF786040F26803C2F200037A6853F83B
:102D9000222046F65863C0F60003796833F81130F4
:102DA0001046194600F048FB0346184607F108078D
:102DB000BD4680BD80B483B000AF786039607B6869
:102DC000032B08D07B68052B05D07B68062B02D02F
:102DD0007B68092B32D17B68A3F10303062B2DD826
:102DE00001A252F823F000BF052E00083D2E000876
:102DF000132E0008212E00083D2E00083D2E00084D
:102E00002F2E00084FF40063C4F200033A685A639F
:102E100014E04FF40063C4F200033A689A630DE0D3
:102E20004FF40063C4F200033A68DA6306E04FF43B
:102E30000063C4F200033A681A6400BF07F10C078C
:102E4000BD4680BC704700BF80B58CB000AF4FF46A
:102E500080604FF00101FFF7CFFB46F68063C0F6BC
:102E600000035B6C18464FF00101FFF771FB46F65B
:102E70005863C0F600035B8C3B604FF003033B716B
:102E80004FF00003FB7140F26803C2F200035A6C7A
:102E90003B461046194600F02DFA4FF00003BB6088
:102EA0004FF00003FB604FF000033B614FF4A06361
:102EB0007B6107F108031846FFF7E8FC4FF08073C9
:102EC000BB614FF000033B774FF000037B774FF07F
:102ED00000033B624FF000033B624FF00003BB6214
:102EE0004FF0010387F82C3007F118034FF4085016
:102EF000C4F201001946FFF76DFC4FF40850C4F20C
:102F000001004FF00B014FF001024FF00103FFF7FA
:102F100007FD4FF40850C4F201004FF00101FFF724
:102F2000E3FC07F13007BD4680BD00BF80B500AFB0
:102F30004FF40850C4F20100FFF7D0FD4FF40850E1
:102F4000C4F20100FFF7DAFD0346184680BD00BF5A
:102F500080B500AF4FF004004FF00101FFF722FBF6
:102F600040F27423C2F200034FF6FF725A6040F23F
:102F70007423C2F200034FF000021A8040F274235F
:102F8000C2F200034FF000021A8140F27423C2F231
:102F900000034FF000025A804FF40060C4F20000BA
:102FA00040F27421C2F2000103F0EEFB40F28023F4
:102FB000C2F200034FF060021A8040F28023C2F296
:102FC00000034FF000029A8140F28023C2F2000316
:102FD0004FF001025A8040F28023C2F200034FF00A
:102FE00000029A604FF40060C4F2000040F28021B9
:102FF000C2F2000103F082FC4FF40060C4F2000052
:103000004FF0080103F08CFE40F28023C2F200036F
:103010004FF001025A8040F28023C2F200034FF0C9
:1030200000029A604FF40060C4F2000040F2802178
:10303000C2F2000103F0E0FC4FF40060C4F20000B3
:103040004FF0080103F088FE40F28023C2F2000333
:103050004FF001025A8040F28023C2F200034FF089
:1030600000029A604FF40060C4F2000040F2802138
:10307000C2F2000103F054FD4FF40060C4F20000FE
:103080004FF0080103F088FE40F28023C2F20003F3
:103090004FF001025A8040F28023C2F200034FF049
:1030A00000029A604FF40060C4F2000040F28021F8
:1030B000C2F2000103F0C4FD4FF40060C4F200004E
:1030C0004FF0080103F084FE4FF40060C4F20000EA
:1030D0004FF0010103F0D2FB4FF40060C4F2000096
:1030E0004FF0010103F0EAFB80BD00BF80B483B064
:1030F00000AFF880B9807A803B803A8A3B88D21A48
:103100007988BB88CB1A92FBF3F39BB2FA8802FB57
:1031100003F39BB2184607F10C07BD4680BC70470D
:1031200080B483B000AF03463960FB713B684FF059
:1031300012021A8040F2D403C2F20003184607F1CB
:103140000C07BD4680BC704780B483B000AF034617
:103150003960FB713B684FF004021A8040F2F403BF
:10316000C2F20003184607F10C07BD4680BC704749
:1031700080B582B000AF03463960FB71FB79002B4C
:103180000BD146F62070C0F6000040F2BC21C2F21E
:1031900000013A6801F06CFB0AE046F64470C0F6A4
:1031A000000040F2BC21C2F200013A6801F060FB6D
:1031B00040F2BC23C2F20003184607F10807BD46DF
:1031C00080BD00BF80B582B000AF03463960FB719F
:1031D00046F66870C0F6000040F2BC21C2F2000161
:1031E0003A6801F045FB40F2BC23C2F200031846E6
:1031F00007F10807BD4680BD80B582B000AF034629
:103200003960FB71FB79002B0BD146F67C70C0F660
:10321000000040F2BC21C2F200013A6801F028FB34
:103220000AE046F68C70C0F6000040F2BC21C2F203
:1032300000013A6801F01CFB40F2BC23C2F200031B
:10324000184607F10807BD4680BD00BF80B582B0B3
:1032500000AF03463960FB71FB79002B0BD146F6BA
:103260009C70C0F6000040F2BC21C2F200013A6836
:1032700001F0FEFA0AE046F69C70C0F6000040F24B
:10328000BC21C2F200013A6801F0F2FA40F2BC231C
:10329000C2F20003184607F10807BD4680BD00BF13
:1032A00080B582B000AF03463960FB71FB79002B1B
:1032B0000BD146F6A870C0F6000040F2BC21C2F265
:1032C00000013A6801F0D4FA0AE046F6A870C0F6A8
:1032D000000040F2BC21C2F200013A6801F0C8FAD5
:1032E00040F2BC23C2F20003184607F10807BD46AE
:1032F00080BD00BF80B487B000AF786039604FF008
:1033000000037B614FF000033B614FF00003FB6063
:103310004FF000037B6186E07B694FF0010202FA07
:1033200003F33B613B681A683B691340FB60FA6832
:103330003B699A4273D17B681A687B694FEA430301
:103340004FF0030101FA03F36FEA03031A407B68AD
:103350001A607B681A683B681B7919467B694FEADB
:10336000430301FA03F31A437B681A603B681B7935
:10337000012B03D03B681B79022B34D17B689A6800
:103380007B694FEA43034FF0030101FA03F36FEA4D
:1033900003031A407B689A607B689A683B685B7994
:1033A00019467B694FEA430301FA03F31A437B682A
:1033B0009A607B685A687B699BB24FF0010101FA01
:1033C00003F36FEA03031A407B685A607B685A680C
:1033D0003B689B7919467B699BB201FA03F39BB268
:1033E0001A437B685A607B68DA687B699BB24FEA54
:1033F00043034FF0030101FA03F36FEA03031A409A
:103400007B68DA607B68DA683B68DB7919467B6940
:103410004FEA430301FA03F31A437B68DA607B69DE
:1034200003F101037B617B690F2B7FF675AF07F119
:103430001C07BD4680BC704780B485B000AF786083
:103440000B467B804FF00003FB737B681A697B8817
:103450001340002B03D04FF00103FB7302E04FF049
:103460000003FB73FB7B184607F11407BD4680BCC5
:10347000704700BF80B483B000AF78600B467B809C
:103480007B687A881A8307F10C07BD4680BC7047B9
:1034900080B483B000AF78600B467B807B687A880D
:1034A0005A8307F10C07BD4680BC704780B483B0D7
:1034B00000AF78600B467B807B685A697B885A40F6
:1034C0007B685A6107F10C07BD4680BC704700BF9E
:1034D00080B485B000AF786013460A467A807B706E
:1034E0004FF00003FB604FF00003BB607A787B88ED
:1034F00003F007034FEA830302FA03F3FB607B88C0
:103500004FEAD3039BB21A467B884FEAD3039BB2A0
:1035100019467B6801F1080153F821107B8803F0FC
:1035200007034FEA83034FF00F0000FA03F36FEA3B
:10353000030319407B6802F1080243F822107B88DC
:103540004FEAD3039BB21A467B6802F1080253F894
:103550002220FB681343BB607B884FEAD3039BB2F6
:103560001A467B6802F10802B96843F8221007F195
:103570001407BD4680BC704780B400AF4FF0000315
:103580001846BD4680BC704780B400AF4FF00003C2
:103590001846BD4680BC704780B485B000AFF86067
:1035A000B9607A60FB68232B00F2CF8001A252F849
:1035B00023F000BF4B3700084B3700084B3700089B
:1035C0004B3700084B3700084B3700084B370008D3
:1035D0004B3700084B3700084B3700084B370008C3
:1035E0004B3700084B3700084B3700084B370008B3
:1035F0004B3700084B3700084B3700084B370008A3
:103600004B3700084B3700084B3700084B37000892
:103610004B3700084B3700084B3700084B37000882
:103620004B3700084B3700084B3700084B37000872
:103630004B37000845360008BB3600084B370008FA
:103640004B370008BB681B781A46BB6803F10103BF
:103650001B784FEA03231A43BB6803F102031B786C
:103660004FEA03431A43BB6803F103031B784FEA95
:10367000036313431A4640F2F803C2F200031A60D0
:10368000BB681A7940F2F803C2F200031A71BB68F2
:103690005A7940F2F803C2F200035A71BB689A7972
:1036A00040F2F803C2F200039A7140F2F013C2F242
:1036B00000034FF000021A6048E040F2F803C2F243
:1036C00000031B68DAB2BB681A70BB6803F1010221
:1036D00040F2F803C2F200031B684FEA1323DBB287
:1036E0001370BB6803F1020240F2F803C2F2000358
:1036F0001B684FEA1343DBB21370BB6803F103028C
:1037000040F2F803C2F200031B684FEA1363DBB216
:103710001370BB6803F1040240F2F803C2F2000325
:103720001B791370BB6803F1050240F2F803C2F283
:1037300000035B791370BB6803F1060240F2F803E3
:10374000C2F200039B79137000E000BF4FF000034A
:10375000184607F11407BD4680BC704780B483B09B
:1037600000AF78602BE040F20823C2F200031A6831
:103770007B68197840F2F843C2F2000399547B68E1
:1037800003F101037B6040F20823C2F200031B68CF
:1037900003F1010240F20823C2F200031A6040F272
:1037A0000823C2F200031A6840F2FF739A4206D956
:1037B00040F20823C2F200034FF000021A607B6857
:1037C0001B78002BCFD14FF00003184607F10C07F0
:1037D000BD4680BC704700BF80B582B000AF786046
:1037E0007868FFF7BBFF07F10807BD4680BD00BF43
:1037F00080B485B000AF786039604FF00003FB60A3
:103800003AE040F2B823C2F200031A687968FB6814
:10381000CB18197840F29423C2F20003995440F275
:10382000B823C2F200031B6803F1010240F2B8237F
:10383000C2F200031A6040F2B823C2F200031B6810
:10384000202B06D140F2B823C2F200034FF0000251
:103850001A6040F2B823C2F200031A6840F2B4239F
:10386000C2F200031B689A4202D14FF0020309E042
:10387000FB6803F10103FB60FA683B689A42C0D31E
:103880004FF00003184607F11407BD4680BC70478F
:1038900080B400AF40F2B823C2F200031A6840F2CD
:1038A000B423C2F200031B689A4202D14FF0000316
:1038B0000DE040F2B423C2F200031B68DAB240F21A
:1038C000B823C2F200031B68DBB2D31ADBB218467E
:1038D000BD4680BC704700BF80B483B000AF40F2EB
:1038E000B423C2F200031A6840F29423C2F2000328
:1038F0009B5CFB7140F2B423C2F200031B6803F12E
:10390000010240F2B423C2F200031A6040F2B42371
:10391000C2F200031B68202B06D140F2B423C2F28E
:1039200000034FF000021A60FB79184607F10C07FC
:10393000BD4680BC704700BF80B500AF4FF46053F8
:10394000C4F202034FF46052C4F20202126842F061
:1039500001021A604FF46053C4F202034FF00002F8
:103960009A604FF46053C4F202034FF46052C4F201
:103970000202126822F0847222F480321A604FF43C
:103980006053C4F2020343F21002C2F200425A60D2
:103990004FF46053C4F202034FF46052C4F20202C7
:1039A000126822F480221A604FF46053C4F20203BA
:1039B0004FF00002DA6000F009F84FF46D43CEF2E8
:1039C00000034FF000629A6080BD00BF80B483B0F6
:1039D00000AF4FF000037B604FF000033B604FF4FB
:1039E0006053C4F202034FF46052C4F20202126840
:1039F00042F480321A604FF46053C4F202031B6831
:103A000003F400333B607B6803F101037B603B6898
:103A1000002B03D17B68B3F5A06FECD14FF460535A
:103A2000C4F202031B6803F40033002B03D04FF0F1
:103A300001033B6002E04FF000033B603B68012B59
:103A400040F082804FF46053C4F202034FF460529E
:103A5000C4F20202126C42F080521A644FF4E04346
:103A6000C4F200034FF4E042C4F20002126842F4D0
:103A700080421A604FF46053C4F202034FF4605264
:103A8000C4F2020292689A604FF46053C4F20203D7
:103A90004FF46052C4F20202926842F400429A600B
:103AA0004FF46053C4F202034FF46052C4F20202B6
:103AB000926842F4A0529A604FF46053C4F2020339
:103AC00045F21942C0F240725A604FF46053C4F29A
:103AD00002034FF46052C4F20202126842F0807294
:103AE0001A6000BF4FF46053C4F202031B6803F076
:103AF0000073002BF6D04FF47053C4F2020340F26F
:103B000005621A604FF46053C4F202034FF460522E
:103B1000C4F20202926822F003029A604FF46053EA
:103B2000C4F202034FF46052C4F20202926842F0FF
:103B300002029A6000BF4FF46053C4F202039B6814
:103B400003F00C03082BF6D107F10C07BD4680BC2F
:103B5000704700BF80B584B000AF78604FF00700B9
:103B60004FF00101FEF7F4FC4FF02003BB604FF073
:103B700003037B734FF002033B7307F108034FF01D
:103B80000000C4F202001946FFF7B4FB4FF008032F
:103B9000BB604FF003037B734FF002033B734FF0A6
:103BA0000003BB734FF00003FB7307F108034FF0F2
:103BB0000000C4F202001946FFF79CFB43F62343C2
:103BC000BB604FF003037B734FF002033B734FF076
:103BD0000003BB734FF00003FB7307F108034FF4BE
:103BE0008060C4F202001946FFF784FB4FF0010326
:103BF000BB604FF003037B734FF002033B7307F18D
:103C000008034FF40060C4F202001946FFF772FB8C
:103C10004FF00803BB604FF003037B734FF00203C8
:103C20003B7307F108034FF40060C4F20200194629
:103C3000FFF760FB4FF00403BB604FF003037B739F
:103C40004FF002033B7307F108034FF40060C4F226
:103C500002001946FFF74EFB4FF00000C4F20200CD
:103C60004FF003014FF00A02FFF732FC4FF0000063
:103C7000C4F202004FF005014FF00A02FFF728FCE2
:103C80004FF48060C4F202004FF000014FF00A02CE
:103C9000FFF71EFC4FF48060C4F202004FF00101F8
:103CA0004FF00A02FFF714FC4FF48060C4F20200E8
:103CB0004FF005014FF00A02FFF70AFC4FF4806055
:103CC000C4F202004FF00A014FF00A02FFF700FCB5
:103CD0004FF48060C4F202004FF00B014FF00A0273
:103CE000FFF7F6FB4FF48060C4F202004FF00C01C6
:103CF0004FF00A02FFF7ECFB4FF48060C4F20200C1
:103D00004FF00D014FF00A02FFF7E2FB4FF40060A5
:103D1000C4F202004FF003014FF00A02FFF7D8FB94
:103D20004FF40060C4F202004FF002014FF00A02AB
:103D3000FFF7CEFB4FF40060C4F202004FF0000129
:103D40004FF00A02FFF7C4FB4FF0C0404FF00101F3
:103D5000FEF7FEFB07F11007BD4680BD80B584B0BD
:103D600000AF78604FF4C06002F00EF94FF04D03E1
:103D70003B734FF001037B734FF00303BB734FF0B2
:103D80000103FB7307F10C03184602F011F94FF41D
:103D9000C06002F0F9F84FF04A033B734FF00103A3
:103DA0007B734FF00203BB734FF00103FB7307F10A
:103DB0000C03184602F0FCF84FF4C06002F0E4F87F
:103DC0004FF04B033B734FF001037B734FF0010344
:103DD000BB734FF00103FB7307F10C03184602F0AD
:103DE000E7F807F11007BD4680BD00BF80B485B07D
:103DF00000AF78604FF00003FB607A6813464FEA2B
:103E000003139B1A4FEAC3031A4644F62513C2F262
:103E10009243A3FB0213D21A4FEA52029B184FEAB5
:103E20009303BB6000E000BFFB6803F10103FB608C
:103E3000FA68BB689A42F6D900BF07F11407BD467D
:103E400080BC704780B582B000AF78607B684FF46B
:103E50007A7202FB03F31846FFF7C8FF07F1080761
:103E6000BD4680BD80B584B000AF786039604FF04A
:103E70000003FB733B685B78092B3AD801A252F828
:103E800023F000BFD53E0008E93E0008F33E0008DD
:103E9000DF3E0008F33E0008B73E0008AD3E0008D4
:103EA000F33E0008CB3E0008C13E00087868396840
:103EB00000F052F922E07868396800F089FA1DE0D4
:103EC0007868396800F0C4FA18E07868396800F05A
:103ED00059FB13E07868396800F088FB0EE07868D9
:103EE000396800F0B7FB09E07868396800F022FC17
:103EF00004E07868396800F093FC00BFFB7B18464B
:103F000007F11007BD4680BD80B584B000AF786072
:103F100039604FF00003FB737B6893F81231032B79
:103F20001BD13B689B88DBB2012B11D87B68D3F88F
:103F3000E0359B687868396898473B68DB88002BD8
:103F400010D1FB7B002B0DD1786802F0E1FB09E07A
:103F50007868396800F064FC04E07868396800F03B
:103F60005FFC00E000BFFB7B184607F11007BD4671
:103F700080BD00BF80B584B000AF786039604FF07D
:103F80000003FB733B689B88BB733B685B78012B2A
:103F900039D0032B02D0002B6CD0D5E07B6893F88E
:103FA0001231022B02D0032B0CD025E0BB7B002B5F
:103FB00027D0BB7B802B24D0BB7B7868194602F0CE
:103FC0001DFA1EE03B685B88002B0AD1BB7B002BEF
:103FD00007D0BB7B802B04D0BB7B7868194602F0EE
:103FE0000DFA7B68D3F8E0359B68786839689847A4
:103FF000786802F08DFB05E07868396800F010FC05
:1040000000E000BFA1E07B6893F81231022B02D0E0
:10401000032B0CD025E0BB7B002B27D0BB7B802B58
:1040200024D0BB7B7868194602F0E8F91EE03B68B3
:104030005B88002B1CD1BB7B002B0ED0BB7B802B65
:104040000BD0BB7B7868194602F01AFA7B68D3F86C
:10405000E0359B68786839689847786802F058FBC3
:1040600006E07868396800F0DBFB02E000BF00E0A2
:1040700000BF6AE07B6893F81231022B02D0032B59
:104080000CD05AE0BB7B002B5CD0BB7B802B59D083
:10409000BB7B7868194602F0B1F953E0BB7B5BB299
:1040A000002B1FDABB7B03F07F02796813464FEACF
:1040B00083039B184FEAC303CB1803F58C739B78DB
:1040C000002B07D040F2F413C2F200034FF00102BC
:1040D0001A6028E040F2F413C2F200034FF000022D
:1040E0001A6020E0BB7B5BB2002B1CDBBA7B7968DB
:1040F00013464FEA83039B184FEAC303CB1803F51B
:104100005C739B78002B07D040F2F413C2F20003DB
:104110004FF001021A6006E040F2F413C2F200030D
:104120004FF000021A60786840F2F411C2F2000108
:104130004FF0020202F074FA05E07868396800F086
:104140006FFB00E000BF00E000BFFB7B184607F1FB
:104150001007BD4680BD00BF80B584B000AF786059
:1041600039603B685B884FEA13239BB203F1FF334E
:10417000062B00F20E8101A252F823F099410008AB
:10418000CD410008234200089343000893430008F0
:10419000F54200085B4300087B68D3F8E8351B68EC
:1041A0007A68917807F10A02084611469847F86044
:1041B0003B68DB88402B05D07B6893F81231012BDC
:1041C00040F0EC804FF008037B81E7E07B68D3F898
:1041D000E0359B6A7A68917807F10A020846114631
:1041E0009847F8607B689B78012B0FD17B681B7A1E
:1041F000012B0BD17B68D3F8E035DB6A7A689178C4
:1042000007F10A02084611469847F860FB6803F177
:1042100001034FF002021A707B68FA68C3F8EC25BC
:10422000BDE03B685B88DBB2052B5DD801A252F88C
:1042300023F000BF4D420008674200088142000899
:104240009B420008B5420008CF4200087B68D3F8C3
:10425000E8355B687A68917807F10A0208461146EA
:104260009847F86045E07B68D3F8E8359B687A6842
:10427000917807F10A02084611469847F86038E03D
:104280007B68D3F8E835DB687A68917807F10A0231
:10429000084611469847F8602BE07B68D3F8E8356C
:1042A0001B697A68917807F10A0208461146984717
:1042B000F8601EE07B68D3F8E8355B697A6891782E
:1042C00007F10A02084611469847F86011E07B683A
:1042D000D3F8E8359B697A68917807F10A020846B5
:1042E00011469847F86004E07868396800F098FA59
:1042F0006AE054E07B689B78002B29D17B68D3F877
:10430000E0359B6A7A68917807F10A0208461146FF
:104310009847F860FB689A7B40F2E803C2F200031A
:104320001A71FB68DA7B40F2E803C2F200035A71AB
:10433000FB681A7C40F2E803C2F200039A7140F273
:10434000E803C2F20003FB604FF00A037B8126E022
:104350007868396800F064FA36E07B689B78002B57
:1043600012D17B68D3F8E035DB6A7A68917807F17F
:104370000A02084611469847F860FB6803F10103FA
:104380004FF007021A700AE07868396800F048FABE
:104390001AE07868396800F043FA15E000BF7B89BD
:1043A000002B11D03B68DB88002B0DD03B68DA88EE
:1043B0007B899A4238BF13469BB27B817B897868A0
:1043C000F9681A4602F02CF907F11007BD4680BDC6
:1043D00080B584B000AF786039603B689B88002B63
:1043E0002ED13B68DB88002B2AD13B685B88DBB28F
:1043F00003F07F03FB737B6893F81231032B04D126
:104400007868396800F00CFA1EE07B68FA7B83F864
:104410001321FB7B7868194602F074F8786802F083
:1044200077F9FB7B002B05D07B684FF0020283F805
:10443000122109E07B684FF0010283F8122103E0AA
:104440007868396800F0ECF907F11007BD4680BDC7
:1044500080B582B000AF786039603B685B88DAB2C3
:1044600040F20023C2F200031A7040F20023C2F2AD
:1044700000031B78012B04D97868396800F0D0F963
:104480007CE07B6893F81231022B02D0032B25D0FD
:104490006FE040F20023C2F200031B78002B19D01A
:1044A00040F20023C2F200031A787B6883F81021DF
:1044B0007B684FF0030283F8122140F20023C2F21E
:1044C00000031B7878681946FDF7D2FF786802F080
:1044D0001FF953E0786802F01BF94FE040F2002327
:1044E000C2F200031B78002B19D17B684FF0020247
:1044F00083F8122140F20023C2F200031A787B688D
:1045000083F8102140F20023C2F200031B78786880
:104510001946FDF7C7FF786802F0FAF82EE07B68CD
:1045200093F8102140F20023C2F200031B789A4254
:104530001BD07B6893F8103178681946FDF7B2FFFD
:1045400040F20023C2F200031A787B6883F810213E
:1045500040F20023C2F200031B7878681946FDF789
:1045600087FF786802F0D4F808E0786802F0D0F8A5
:1045700004E07868396800F053F900BF07F10807D4
:10458000BD4680BD80B582B000AF786039603B68C1
:10459000DB88012B04D07868396800F041F920E00D
:1045A0007B6893F81231022B02D0032B0AD013E060
:1045B000786840F2F811C2F200014FF0010202F0F7
:1045C0002FF80EE07B6803F58873786819464FF082
:1045D000010202F025F804E07868396800F020F95B
:1045E00000BF07F10807BD4680BD00BF80B582B09F
:1045F00000AF786039607B6893F81231A3F1020351
:10460000012B1DD87B68D3F81431002B07D040F262
:10461000FC13C2F200034FF003021A6006E040F2FE
:10462000FC13C2F200034FF001021A60786840F2F6
:10463000FC11C2F200014FF0010201F0F1FF04E0B1
:104640007868396800F0ECF800BF07F10807BD464C
:1046500080BD00BF80B584B000AF786039604FF096
:104660000003FB733B685B88012B0FD17B684FF025
:104670000102C3F814217B68D3F8E0359B687868A1
:1046800039689847786802F043F84FE03B685B88E8
:10469000022B4BD13B689B88DBB2002B46D17B6859
:1046A0001B695B68BB603B689B884FEA13239BB226
:1046B000FB73FB7B03F1FF33042B30D801A252F8CC
:1046C00023F000BFD9460008E7460008F546000879
:1046D0000347000811470008BB684FF0010262F36E
:1046E0000613BB601BE0BB684FF0020262F30613C7
:1046F000BB6014E0BB684FF0030262F30613BB60BB
:104700000DE0BB684FF0040262F30613BB6006E0E5
:10471000BB684FF0050262F30613BB6000BF7B6805
:104720001B69BA685A60786801F0F2FF07F1100758
:10473000BD4680BD80B582B000AF786039607B68CF
:1047400093F81231A3F10203012B13D83B685B8865
:10475000012B15D17B684FF00002C3F814217B6850
:10476000D3F8E0359B68786839689847786801F035
:10477000CFFF05E07868396800F052F800BF00E02C
:1047800000BF07F10807BD4680BD00BF80B483B0FD
:1047900000AF786039607B6893F8C8253B681A7071
:1047A0007B6893F8C9253B685A707B6893F8CA35D3
:1047B0001A467B6893F8CB354FEA03239BB2D31894
:1047C0009AB23B685A807B6893F8CC351A467B686E
:1047D00093F8CD354FEA03239BB2D3189AB23B68C6
:1047E0009A807B6893F8CE351A467B6893F8CF356C
:1047F0004FEA03239BB2D3189AB23B68DA803B6836
:10480000DB881A467B68C3F83C217B684FF00102C5
:1048100083F8112107F10C07BD4680BC704700BF2B
:1048200080B582B000AF786039603B681B78DBB23E
:104830005BB2002B05DA78684FF0800101F0DEFDF5
:104840000EE03B68DB88002B05D178684FF08001D3
:1048500001F0D4FD04E078684FF0000101F0CEFDD6
:104860007868FCF76FFF07F10807BD4680BD00BF01
:1048700080B586B000AFF860B9607A604FF0000391
:10488000FB75FB68002B3DD0F86800F03FF803464D
:1048900003F101039BB24FEA43039AB27B681A808B
:1048A000FB7DBA68D3187A681288D2B21A70FB7D81
:1048B00003F10103FB75FB7DBA68D3184FF00302C7
:1048C0001A70FB7D03F10103FB7517E0FB7DBA68ED
:1048D000D318FA6812781A70FB7D03F10103FB7597
:1048E000FB6803F10103FB60FB7DBA68D3184FF04E
:1048F00000021A70FB7D03F10103FB75FB681B7856
:10490000002BE3D107F11807BD4680BD80B485B008
:1049100000AF78604FF00003FB7307E0FB7B03F10F
:104920000103FB737B6803F101037B607B681B78E9
:10493000002BF3D1FB7B184607F11407BD4680BC62
:10494000704700BF80B584B000AF78607B689B6D16
:104950009B68FB60FA687B681B69D3F8843013405E
:10496000FB603B7B03F00103DBB2002B26D04FF052
:104970000003FB60FB6843F00103FB607B689B6DF9
:10498000FA689A607B68DB78012B0DD17B689B6DA0
:104990001B69BB607B68D3F8A023BB68C3F3120319
:1049A000D21A7B68C3F8B02340F26403C2F200035A
:1049B0001B681B6878684FF0010198473B7B03F048
:1049C0000203DBB2002B0AD04FF00003FB60FB6850
:1049D00043F00203FB607B689B6DFA689A603B7B47
:1049E00003F00403DBB2002B0AD04FF00003FB609E
:1049F000FB6843F00403FB607B689B6DFA689A6078
:104A00004FF00103184607F11007BD4680BD00BFF7
:104A100080B586B000AF78607B681B695B6C7B619A
:104A20007B681B695B6B3B613B694FEA53034FEA51
:104A3000C313DBB27A6913437B617B68DB699A68D5
:104A40007B691340BB603B7A03F00103DBB2002BB0
:104A500021D04FF00203FB607B681B697A68126902
:104A6000516BFA686FEA02020A405A634FF0000382
:104A7000BB60BB6843F00103BB607B68DB69BA685D
:104A80009A6040F26403C2F200031B685B687868B6
:104A90004FF0010198473B7A03F00403DBB2002B8F
:104AA0000AD04FF00003BB60BB6843F00403BB6057
:104AB0007B68DB69BA689A603B7A03F00203DBB279
:104AC000002B0AD04FF00003BB60BB6843F0020329
:104AD000BB607B68DB69BA689A603B7A03F00803C5
:104AE000DBB2002B0AD04FF00003BB60BB6843F081
:104AF0000803BB607B68DB69BA689A603B7A03F0A5
:104B00001003DBB2002B0AD04FF00003BB60BB6880
:104B100043F01003BB607B68DB69BA689A603B7A3C
:104B200003F02003DBB2002B0AD04FF00003BB6080
:104B3000BB6843F02003BB607B68DB69BA689A609E
:104B40003B7A03F04003DBB2002B0AD04FF00003A6
:104B5000BB60BB6843F04003BB607B68DB69BA683D
:104B60009A603B7A23F07F03DBB2002B0FD078688A
:104B70004FF0010100F0F8FB4FF00003BB60BB6891
:104B800043F08003BB607B68DB69BA689A604FF0D2
:104B90000103184607F11807BD4680BD80B586B0F1
:104BA00000AF78604FF000037B617868FBF700FF8F
:104BB0000346002B00F09E807868FBF70BFF03464E
:104BC0003B613B69002B02D14FF0000393E0BB7CBB
:104BD00003F00803DBB2002B06D0786800F044FA3B
:104BE00003467A6913437B61BB7C03F00403DBB2A9
:104BF000002B06D0786800F021F903467A69134348
:104C00007B613B7C03F00203DBB2002B0AD04FF048
:104C10000003FB60FB6843F00203FB607B68DB681A
:104C2000FA685A61FB7C23F07F03DBB2002B06D0CD
:104C3000786800F065F803467A6913437B617B7CF2
:104C400003F00803DBB2002B06D0786800F09EF872
:104C500003467A6913437B613B7C03F00803DBB2B4
:104C6000002B06D0786800F0D7FA03467A69134320
:104C70007B613B7C03F01003DBB2002B06D078682D
:104C800000F0E8FA03467A6913437B617B7C03F00A
:104C90001003DBB2002B06D0786800F0E5FB03467A
:104CA0007A6913437B617B7C03F02003DBB2002B2A
:104CB00006D0786800F098FC03467A6913437B615C
:104CC000BB7C03F01003DBB2002B06D0786800F049
:104CD000CFFC03467A6913437B61BB7C03F020035E
:104CE000DBB2002B06D0786800F0E0FC03467A695E
:104CF00013437B617B69184607F11807BD4680BDE9
:104D000080B586B000AF78607B689B7A002B11D0AD
:104D10007B6803F586731B68FB60FB686FF34103D8
:104D2000FB60FB686FF30003FB607B68D3F80C311A
:104D3000FA681A604FF000033B613B6943F00103DE
:104D40003B617B681B697A68126951683A696FEA4E
:104D500002020A405A6040F26403C2F200031B6878
:104D60009B69786898474FF000037B617B6943F04B
:104D700000437B617B68DB687A695A614FF001030D
:104D8000184607F11807BD4680BD00BF80B586B044
:104D900000AF786040F26403C2F200031B685B69F5
:104DA000786898477B681B699B68FB604FF000033D
:104DB0007B617B6943F400637B617B68DB687A69B4
:104DC0005A617B689B7A002B30D03B7B03F0010358
:104DD000DBB2002B2AD04FF000033B613B6943F06C
:104DE00001033B617B68D3F80C317A68D2F80C215F
:104DF00011683A690A431A603B6943F002033B6158
:104E00007B68D3F80C317A68D2F80C2111683A69C2
:104E10000A431A604FF46D43CEF200034FF46D4223
:104E2000CEF20002126942F006021A614FF001034D
:104E3000184607F11807BD4680BD00BF80B586B093
:104E400000AF78604FF000033B614FF00003BB60A0
:104E50007868FCF75DFC7861FBE07B6903F0010397
:104E6000002B00F0EE803B69DBB27868194600F059
:104E70003BFC0346BB603B7A03F00103DBB2002B33
:104E80003AD03B694FF0010202FA03F3FB607B6802
:104E90001B697A681269516BFA686FEA02020A406C
:104EA0005A634FF00003BB60BB6843F00103BB6073
:104EB0007A683B6903F104034FEA8303D3189B68C4
:104EC000BA689A6040F26403C2F200031B685B6830
:104ED0003A69D2B27868114698477B68DB78012B33
:104EE0000AD13B69002B07D17B6893F81131042B61
:104EF00002D17868FCF726FC3B7A03F00403DBB2AE
:104F0000002B10D04FF00003BB60BB6843F00403DC
:104F1000BB607A683B6903F104034FEA8303D3184B
:104F20009B68BA689A603B7A03F00803DBB2002BF7
:104F300010D04FF00003BB60BB6843F00803BB60B8
:104F40007A683B6903F104034FEA8303D3189B6833
:104F5000BA689A603B7A03F01003DBB2002B10D0E2
:104F60004FF00003BB60BB6843F01003BB607A687E
:104F70003B6903F104034FEA8303D3189B68BA68C3
:104F80009A603B7A03F02003DBB2002B10D04FF085
:104F90000003BB60BB6843F02003BB607A683B69D9
:104FA00003F104034FEA8303D3189B68BA689A603D
:104FB0003B7A03F04003DBB2002B10D04FF000032C
:104FC000BB60BB6843F04003BB607A683B6903F198
:104FD00004034FEA8303D3189B68BA689A603B7A4C
:104FE00003F00203DBB2002B10D04FF00003BB60D4
:104FF000BB6843F00203BB607A683B6903F10403BA
:105000004FEA8303D3189B68BA689A603B7A23F00F
:105010007F03DBB2002B14D07868396900F0A4F963
:105020004FF00003BB60BB6843F08003BB607A684D
:105030003B6903F104034FEA8303D3189B68BA6802
:105040009A603B6903F101033B617B694FEA5303BB
:105050007B617B69002B7FF400AF4FF001031846A2
:1050600007F11807BD4680BD80B586B000AF7860F7
:105070004FF000033B614FF00003FB607868FCF7E2
:1050800011FB7861BDE07B6903F00103002B00F0A8
:10509000B0803B69DBB278681946FCF71BFB03461E
:1050A000FB603B7B03F00103DBB2002B54D04FF0DD
:1050B0000003FB60FB6843F00103FB607A683B6917
:1050C00003F114034FEA8303D3185B68FA689A600C
:1050D0007B68DB78012B25D17A683B6903F11403E7
:1050E0004FEA8303D3185B681B69BB6079683A6930
:1050F00013464FEA83039B184FEAC303CB1803F50B
:105100005E731A68BB68C3F31203D11A78683A69F0
:1051100013464FEA83039B184FEAC303C31803F5F2
:105120006273196040F26403C2F200031B681B68DB
:105130003A69D2B27868114698477B68DB78012BD0
:105140000AD13B69002B07D17B6893F81131052BFD
:1051500002D17868FCF7F6FA3B7B03F00203DBB27E
:10516000002B10D04FF00003FB60FB6843F00203FC
:10517000FB607A683B6903F114034FEA8303D31899
:105180005B68FA689A603B7B03F00403DBB2002B98
:1051900010D04FF00003FB60FB6843F00403FB609A
:1051A0007A683B6903F114034FEA8303D3185B6801
:1051B000FA689A603B7B03F00803DBB2002B18D03F
:1051C00040F26403C2F200031B689B68786898474A
:1051D0004FF00003FB60FB6843F00803FB607A6854
:1051E0003B6903F114034FEA8303D3185B68FA6841
:1051F0009A603B6903F101033B617B694FEA53030A
:105200007B617B69002B7FF43EAF4FF001031846B2
:1052100007F11807BD4680BD80B584B000AF786047
:1052200040F26403C2F200031B68DB6878689847A9
:105230004FF00003FB60FB6843F00803FB607B68F2
:10524000DB68FA685A614FF00103184607F110074E
:10525000BD4680BD80B586B000AF78604FF00003DA
:105260003B613B6943F010033B617B68DB687A6814
:10527000D26891693A696FEA02020A409A617B68D2
:10528000DB681B6AFB60FB68C3F30303DBB21A46EF
:1052900013464FEA83039B184FEAC30303F55C737D
:1052A0007A68D3187B61FB68C3F34343DBB203F135
:1052B000FF33052B46D801A252F823F045530008CE
:1052C000D5520008455300084553000845530008CF
:1052D0001F530008BA8947F6F07313409BB2002BA6
:1052E00032D07B69DA68FB68C3F30A139BB2786833
:1052F00011461A46FBF758F87B69DA68FB68C3F376
:105300000A139BB2D2187B69DA607B699A69FB68E1
:10531000C3F30A139BB2D2187B699A6114E07B68CD
:1053200003F5B963786819464FF00802FBF73CF8BB
:105330007B699A69FB68C3F30A139BB2D2187B6935
:105340009A6102E000BF00E000BF7B68DB687A681A
:10535000D26891693A690A439A614FF0010318468D
:1053600007F11807BD4680BD80B586B000AF7860F4
:1053700039604FF000037B614FF00003BB603A6877
:1053800013464FEA83039B184FEAC30303F58C735C
:105390007A68D318FB60FB685A69FB689B69D31A6B
:1053A0007B61FB689A687B699A4202D2FB689B68C2
:1053B0007B617B6903F103034FEA93033B617A68E6
:1053C0003B6803F104034FEA8303D3189B689B698E
:1053D000BB6032E0FB685A69FB689B69D31A7B614A
:1053E000FB689A687B699A4202D2FB689B687B6182
:1053F0007B6903F103034FEA93033B61FB68D968C0
:105400003B68DAB27B699BB27868FAF78BFFFB687E
:10541000DA687B69D218FB68DA60FB689A697B6995
:10542000D218FB689A617A683B6803F104034FEA7B
:105430008303D3189B689B69BB603B891A463B6911
:105440009A4209D9FB689A69FB685B699A4203D260
:10545000FB685B69002BBDD14FF00103184607F1D3
:105460001807BD4680BD00BF80B58AB000AF786028
:105470004FF000033B614FF000033B624FF000032D
:10548000FB614FF00003BB614FF000037B614FF005
:105490000003FB603B6943F001033B617B681B69D0
:1054A0007A68126951683A696FEA02020A405A60E2
:1054B00078684FF00001FBF7C3F94FF000037B62FF
:1054C00019E07A687B6A03F104034FEA8303D31877
:1054D0009B684FF0FF029A607A687B6A03F11403BD
:1054E0004FEA8303D3185B684FF0FF029A607B6A30
:1054F00003F101037B627B685B781A467B6A9A4200
:10550000DFD87B681B694FF0FF329A613B6A4FF02E
:10551000010262F30F033B623B6A4FF0010262F348
:105520001F433B627B681B693A6ADA61FB6943F09F
:105530000803FB61FB6943F00103FB61FB6943F076
:105540000403FB61FB6943F00203FB617B681B6999
:10555000FA695A617B681B69FA69C3F88420BB69E0
:1055600043F00103BB61BB6943F00803BB61BB6946
:1055700043F00203BB61BB6943F00403BB61BB6939
:1055800043F02003BB617B681B69BA691A617B68C1
:105590001B69BA695A647B681B691B687B617B69FC
:1055A0006FF30A137B617B681B697A691A607868FC
:1055B000FCF7C8F84FF00003FB60FB6843F480532E
:1055C000FB607B68DB68FA685A6140F26403C2F2F0
:1055D00000031B681B69786898474FF00103184661
:1055E00007F12807BD4680BD80B584B000AF786064
:1055F0007868FBF72FFC7B68DB68DB68BB6078684A
:10560000FBF700FC0346032B0ED17B684FF0000232
:105610009A707B684FF400729A80BB684FF0090261
:1056200062F38D23BB600DE07B684FF001029A703E
:105630007B684FF040029A80BB684FF0050262F32E
:105640008D23BB607B68DB68BA68DA604FF00003CB
:10565000FB60FB6843F40053FB607B68DB68FA681F
:105660005A614FF00103184607F11007BD4680BD8F
:1056700080B584B000AF78604FF00003FB6040F26B
:105680006403C2F200031B68DB6978689847FB6813
:1056900043F48013FB607B68DB68FA685A614FF063
:1056A0000103184607F11007BD4680BD80B584B0E0
:1056B00000AF78604FF00003FB6040F26403C2F279
:1056C00000031B681B6A78689847FB6843F4001363
:1056D000FB607B68DB68FA685A614FF0010318468B
:1056E00007F11007BD4680BD80B487B000AF786079
:1056F0000B46FB707B681B691B697B617B681B69C0
:105700005B6B3B61FB783A6922FA03F34FEAC31300
:10571000DBB27A6913437B61FB787A6803F1040397
:105720004FEA8303D3189B689A687B691340FB6038
:10573000FB68184607F11C07BD4680BC704700BFD8
:1057400080B584B000AF78600B46FB707B68D3F8FF
:10575000EC3503F139031B8878684FF081011A4654
:105760004FF0020300F02CFD7B68D3F8EC3503F119
:1057700039031B881A4640F21C23C2F200031A6048
:105780007B68D3F8EC3503F140031B8878684FF051
:1057900001011A464FF0020300F012FD78684FF045
:1057A00082014FF008024FF0030300F009FD40F2C0
:1057B000D403C2F20003FB60FB6803F104034FF063
:1057C00002021A70FB6803F105034FF000021A7021
:1057D00040F20013C2F200031B6898477B68D3F8BD
:1057E000EC3503F140031B8878684FF0010140F26B
:1057F000F022C2F2000200F079FD4FF000031846DB
:1058000007F11007BD4680BD80B582B000AF78605B
:105810000B46FB7078684FF0810100F027FD786837
:105820004FF0010100F022FD78684FF0820100F096
:105830001DFD40F20013C2F200035B6898474FF071
:105840000003184607F10807BD4680BD80B584B047
:1058500000AF786039604FF00003FB813B681B7834
:1058600003F06003002B58D0202B4FD13B68DB881E
:10587000002B3BD03B681B78DBB25BB2002B1ADA03
:1058800040F20013C2F200039B683A685278114656
:105890003A68D288084640F2F041C2F200019847C7
:1058A0003B68DB88786840F2F041C2F200011A469A
:1058B00000F0B6FE27E03B685B781A4640F2B01372
:1058C000C2F200031A603B68DB881A4640F21823D4
:1058D000C2F200031A603B68DB88786840F2F0414E
:1058E000C2F200011A4600F0D7FE0CE040F20013AD
:1058F000C2F200039B683A68527810464FF00001EC
:105900004FF0000298474FF0000344E07868396890
:10591000FEF786FF4FF002033DE03B685B780A2B01
:1059200019D00B2B21D0062B33D13B685B884FEA73
:1059300013239BB2212B07D1194BBB603B68DB883B
:105940003A2B28BF3A23FB81FB897868B9681A464D
:1059500000F066FE1DE0786840F20421C2F200010A
:105960004FF0010200F05CFE13E03B685B88DBB2A5
:10597000002B09D13B685B88DBB21A4640F2042356
:10598000C2F200031A6003E078683968FEF748FF46
:1059900000BF4FF00003184607F11007BD4680BD59
:1059A0003A01002090B583B000AF786040F2B013A8
:1059B000C2F200031B68FF2B1CD040F20013C2F29E
:1059C00000039C6840F2B013C2F200031A6840F270
:1059D0001823C2F200031B68104640F2F041C2F2E5
:1059E00000011A46A04740F2B013C2F200034FF084
:1059F000FF021A604FF00003184607F10C07BD467E
:105A000090BD00BF80B584B000AF78600B46FB70DE
:105A100040F21423C2F200031B78DBB2012B7BD1CE
:105A200040F21023C2F200031B68002B07D140F2A2
:105A30001423C2F200034FF000021A706CE07B687E
:105A4000D3F8EC3503F139031B881A4640F21023D2
:105A5000C2F200031B689A422FD240F20C23C2F21A
:105A600000031B68FB817B68D3F8EC35B3F8393051
:105A7000BB817B68D3F8EC3503F139031B881A46E8
:105A800040F20C23C2F200031B68D21840F20C2330
:105A9000C2F200031A6040F21023C2F200031A6837
:105AA0007B68D3F8EC3503F139031B88D21A40F236
:105AB0001023C2F200031A6022E040F20C23C2F26B
:105AC00000031B68FB8140F21023C2F200031B6835
:105AD000BB8140F20C23C2F200031A6840F210238B
