:020000040800F2
:10000000CC2B0020A9140008DD1A0008E91A00080A
:10001000F11A0008F91A0008011B0008000000008E
:10002000000000000000000000000000091B0008A4
:10003000151B000800000000211B00082D1B0008F4
:1000400015150008151500081515000815150008E8
:100050001515000815150008511B00081515000896
:100060005D1B000815150008391C0008151500084F
:1000700015150008151500081515000815150008B8
:1000800015150008151500081515000815150008A8
:100090001515000815150008151500081515000898
:1000A0001515000815150008151500081515000888
:1000B0001515000815150008151500081515000878
:1000C0001515000815150008151500081515000868
:1000D0001515000815150008151500081515000858
:1000E0001515000815150008151500081515000848
:1000F0001515000815150008151500081515000838
:100100001515000815150008151500081515000827
:100110001515000815150008151500081515000817
:100120001515000815150008151500081515000807
:1001300015150008151500081515000815150008F7
:1001400015150008151500081515000815150008E7
:1001500015150008151500081515000815150008D7
:100160001515000815150008F11C0008DD1C000815
:10017000851C0008C91C0008151500081515000885
:10018000151500081515000810B5054C237833B96E
:10019000044810B10448AFF300800121217010BD64
:1001A000D0090020000000007C97010808B5064B2C
:1001B0001BB106480649AFF300800648016811B13B
:1001C000054A02B1904708BD000000007C97010875
:1001D000D4090020C809002000000000154B002BA6
:1001E00008BF134B9D46A3F5803A00218B460F466E
:1001F0001348144A121A07F0EDFC0F4B002B00D0E5
:1002000098470E4B002B00D0984700200021044651
:100210000D4600200C490022002306F069FF07F07C
:1002200005F82046294601F0BFFB06F0C7FF00BFD6
:100230000000080000000220000000000000000094
:10024000D0090020D0230020DD71000890B484B0D4
:1002500000AF02460B46FA71BB714FF00003FB6022
:10026000BB7903F003034FEA83034FF00F0202FA56
:1002700003F3FB604FF46053C4F20103BA794FEA11
:100280009202D2B210464FF46052C4F20102B97920
:100290004FEA9101C9B201F1020152F82110FA6846
:1002A0006FEA0202114000F1020243F822104FF4FB
:1002B0006053C4F20103BA794FEA9202D2B21046F7
:1002C0004FF46052C4F20102B9794FEA9101C9B208
:1002D00001F1020152F82110FC79BA7902F003020F
:1002E0004FEA820204FA02F2114300F1020243F8DB
:1002F000221007F11007BD4690BC704780B489B04A
:1003000000AFF860B960FA71BB804FF00003FB7674
:10031000FB68DB78002B2CD14FF000037B614FF0A2
:100320000003FB61BB8803F10303002B01DA03F137
:1003300003034FEAA3037B61FB79FA6803F13203FD
:100340004FEA8303D3189B683B614FF00003FB61C6
:100350000BE0BB681A683B691A60FB6903F1010393
:10036000FB61BB6803F10403BB60FA697B699A42D5
:10037000EFD3FB7E184607F12407BD4680BC7047CB
:1003800080B489B000AFF860B9601346FB804FF0CD
:100390000003FB61FB8803F10303002B01DA03F187
:1003A00003034FEAA303BB61FB68D3F8D0307B6142
:1003B0004FF00003FB610BE07B691A68BB681A60B1
:1003C000FB6903F10103FB61BB6803F10403BB603C
:1003D000FA69BB699A42EFD3BB68184607F1240754
:1003E000BD4680BC704700BF80B586B000AF786066
:1003F00039604FF00003FB744FF000037B614FF056
:100400000003FB60FB6843F02003FB603B68DBB24A
:1004100003F01F03DAB2FB6862F38A13FB607B68A8
:10042000DB68FA681A617B68DB681B69FB607B69C3
:1004300003F101037B617A694FF45463C0F2030353
:100440009A4205D8FB6803F02003002BEBD100E0B3
:1004500000BF4FF0030002F067FCFB7C184607F179
:100460001807BD4680BD00BF80B483B000AF786080
:100470007B68DB685B6903F00103184607F10C0732
:10048000BD4680BC704700BF80B582B000AF7860C9
:100490007868FFF7E9FF0346012B0CBF0023012317
:1004A000DBB2184607F10807BD4680BD80B485B0B1
:1004B00000AF78604FF00003FB607B68DB685B692E
:1004C000FB607B68DB689B69FA681340FB60FB6834
:1004D000184607F11407BD4680BC704780B485B04C
:1004E00000AF78604FF00003FB737B681B699B686B
:1004F000BB60BB68C3F34103DBB2022B0BD0032B01
:1005000005D0012B03D04FF00303FB7307E04FF03E
:100510000203FB7303E04FF00103FB7300BFFB7B9F
:10052000184607F11407BD4680BC704780B487B0F9
:1005300000AF78604FF00003FB754FF00003BB6025
:100540007B681B699B683B617B689B691B68FB60E0
:100550003B69C3F34103DBB2022B04D0FB686FF3AA
:100560000A03FB6006E0FB684FF0030262F30A0334
:10057000FB6000BF7B689B69FA681A60BB6843F444
:100580008073BB607B681B697A6812695168BA68BE
:100590006FEA02021140BA680A435A60FB7D1846AE
:1005A00007F11C07BD4680BC704700BF80B487B010
:1005B00000AF786039604FF00003FB744FF0000328
:1005C000FB604FF00003BB603B685B78012B12D1EE
:1005D0003B681B787A6803F104034FEA8303D3185E
:1005E0009B687B613B681B784FF0010202FA03F3C2
:1005F0009BB23B8114E03B681B787A6803F11403DB
:100600004FEA8303D3185B687B613B681B784FF02C
:10061000010202FA03F39AB2BB6862F31F43BB60A4
:100620007B691B68FB607B7B23F07F03DBB2002BC5
:1006300029D13B689B689BB24FEA43534FEA53531F
:100640009AB2FB6862F30A03FB603B68DB7803F055
:100650000303DAB2FB6862F39343FB603B68DB8819
:10066000DBB203F00F03DAB2FB6862F39953FB606D
:10067000FB6843F08053FB60FB6843F40043FB607E
:10068000FA687B691A603B681B78012B0CD17B6888
:10069000DB7A002B08D17B681B697A681269D16B01
:1006A000BA680A43DA6307E07B681B697A681269F3
:1006B000D169BA680A43DA61FB7C184607F11C0766
:1006C000BD4680BC704700BF80B588B000AF786081
:1006D00039604FF00003FB774FF00003BB614FF030
:1006E00000037B614FF000033B613B685B78012BAB
:1006F00040F0BD803B681B787A6803F104034FEA41
:100700008303D3189B681B687B613B681B787A68FE
:1007100003F104034FEA8303D3189B681B693B6111
:100720003B685B69002B0AD13B696FF312033B61A5
:100730003B694FF0010262F3DC433B6128E03B6818
:100740005B6923F07F4222F478023B6962F3120373
:100750003B613B685A693B689B68D31803F1FF32E1
:100760003B689B68B2FBF3F39BB24FEA83534FEABB
:1007700093539AB23B6962F3DC433B613B68DB789D
:10078000012B05D13B694FF0010262F35E733B61BF
:100790003B681B787A6803F104034FEA8303D3189C
:1007A0009B683A691A617B68DB78012B0CD13B6846
:1007B0001B787A6803F104034FEA8303D3189B681C
:1007C0003A6812695A6116E03B68DB78012B12D057
:1007D0003B685B69002B0ED03B681B784FF0010231
:1007E00002FA03F3BB617B681B697A681269516B7B
:1007F000BA690A435A633B68DB78012B14D17B68E2
:100800001B699B68FB60FB68C3F30D239BB203F07D
:100810000103002B04D17B6943F000537B6103E0AB
:100820007B6943F080537B617B6943F080637B612C
:100830007B6943F000437B613B681B787A6803F176
:1008400004034FEA8303D3189B687A691A603B68F4
:10085000DB78012B40F09A803B68D9683B681A78B6
:100860003B685B699BB27868FFF748FD8EE03B68A8
:100870001B787A6803F114034FEA8303D3185B688B
:100880001B687B613B681B787A6803F114034FEAAD
:100890008303D3185B681B693B613B685B69002B72
:1008A00010D13B689B6823F07F4222F478023B69B9
:1008B00062F312033B613B694FF0010262F3DC43D8
:1008C0003B6124E03B685A693B689B68D31803F19D
:1008D000FF323B689B68B2FBF3F39BB24FEA835352
:1008E0004FEA93539AB23B6962F3DC433B613B6945
:1008F000C3F3C9439BB23A68926802FB03F323F047
:100900007F4222F478023B6962F312033B613B6849
:100910001B787A6803F114034FEA8303D3185B68EA
:100920003A691A617B68DB78012B0BD13B681B7835
:100930007A6803F114034FEA8303D3185B683A68BB
:1009400012695A613B68DB78012B0CD13B685B79FB
:10095000002B04D07B6943F000537B6103E07B698B
:1009600043F080537B617B6943F080637B617B69EB
:1009700043F000437B613B681B787A6803F1140302
:100980004FEA8303D3185B687A691A60FB7F1846C5
:1009900007F12007BD4680BD80B489B000AF786004
:1009A00039604FF00003FB774FF00003BB614FF05D
:1009B00000033B614FF00003BB603B685B78012B99
:1009C00075D17B689B697B617B691B683B617B6937
:1009D0001B69BB603B685B69002B0AD13B7A6FF3F4
:1009E00006033B72BB7A4FF0010262F3C403BB7291
:1009F00024E03B685A693B689B689A420ED93B6881
:100A00009A683B685A613B689B68DBB203F07F03DE
:100A1000DAB23B7A62F306033B7209E03B685B693A
:100A2000DBB203F07F03DAB23B7A62F306033B7278
:100A3000BB7A4FF0010262F3C403BB72BA687B69F0
:100A40001A617B68DB78012B0BD13B681B787A68D5
:100A500003F104034FEA8303D3189B683A681269D1
:100A60005A613B6943F080633B613B6943F000435B
:100A70003B613A697B691A607B68DB78002B40F048
:100A800083803B685B69002B7ED03B681B784FF00E
:100A9000010202FA03F3BA691343BB617B681B6965
:100AA0007A681269516BBA690A435A636CE03B6811
:100AB0001B787A6803F114034FEA8303D3185B6849
:100AC0001B683B613B681B787A6803F114034FEAAB
:100AD0008303D3185B681B69BB603B685B69002BB1
:100AE00010D13B689B68DBB203F07F03DAB23B7A3C
:100AF00062F306033B72BB7A4FF0010262F3C40358
:100B0000BB7213E03B689A683B685A613B689B681C
:100B1000DBB203F07F03DAB23B7A62F306033B7287
:100B2000BB7A4FF0010262F3C403BB723B681B78CF
:100B30007A6803F114034FEA8303D3185B68BA6839
:100B40001A617B68DB78012B0BD13B681B787A68D4
:100B500003F114034FEA8303D3185B683A68126900
:100B60005A613B6943F080633B613B6943F000435A
:100B70003B613B681B787A6803F114034FEA8303F7
:100B8000D3185B683A691A60FB7F184607F124079F
:100B9000BD4680BC704700BF80B487B000AF7860AE
:100BA00039604FF00003FB754FF00003FB603B68BA
:100BB0005B78012B1ED13B681B787A6803F1040334
:100BC0004FEA8303D3189B683B613B691B68FB605A
:100BD000FB7B23F07F03DBB2002B03D0FB6843F0E9
:100BE0008043FB60FB6843F40013FB60FA683B69D9
:100BF0001A6013E03B681B787A6803F114034FEA2C
:100C00008303D3185B683B613B691B68FB60FB682F
:100C100043F40013FB60FA683B691A60FB7D1846D9
:100C200007F11C07BD4680BC704700BF80B487B089
:100C300000AF786039604FF00003FB744FF00003A1
:100C4000FB603B685B78012B0AD13B681B787A68B4
:100C500003F104034FEA8303D3189B687B6109E027
:100C60003B681B787A6803F114034FEA8303D318B7
:100C70005B687B617B691B68FB60FB686FF35553A6
:100C8000FB603B68DB78032B03D03B68DB78022BEF
:100C900003D1FB6843F08053FB60FA687B691A60FC
:100CA000FB7C184607F11C07BD4680BC704700BF9F
:100CB00080B485B000AF78607B681B699B69FB607E
:100CC0007B681B69DB69FA681340FB60FB684FEACD
:100CD0001343184607F11407BD4680BC704700BF98
:100CE00080B485B000AF78600B46FB70FB787A6803
:100CF00003F114034FEA8303D3185B689B68FB601E
:100D00007B681B695B69FA681340FB60FB681846E7
:100D100007F11407BD4680BC704700BF80B485B0A2
:100D200000AF78607B681B699B69FB607B681B690F
:100D3000DB69FA681340FB60FB684FEA03434FEA44
:100D40001343184607F11407BD4680BC704700BF27
:100D500080B487B000AF78604FF000033B61FB7C4C
:100D600043F0C003FB74BB7C4FF0010262F3C40389
:100D7000BB743B7C4FF0180262F306033B747B6844
:100D80005B6D3A691A617B68DB78012B17D14FF0F4
:100D90000003FB607B685B6D7A6802F5B9625A619B
:100DA0007B685B6D1B68FB60FB6843F00043FB6086
:100DB0004FF08023FB607B685B6DFA681A6007F177
:100DC0001C07BD4680BC704780B485B000AF78601A
:100DD0007B689B7A002B1BD07B681B699B68FB6040
:100DE0003B7B03F00103DBB2002B11D07B6803F5E2
:100DF00086731B68BB60BB686FF34103BB60BB6855
:100E00006FF30003BB607B68D3F80C31BA681A60DB
:100E100007F11407BD4680BC704700BF80B483B0A3
:100E200000AF03463960FB7197F90730002B10DAE9
:100E30004FF46D43CEF20003FA7902F00F02A2F1F3
:100E400004013A68D2B24FEA0212D2B25B181A76A3
:100E50000DE04FF46143CEF2000397F907103A68B2
:100E6000D2B24FEA0212D2B25B1883F8002307F124
:100E70000C07BD4680BC704780B582B000AF78607B
:100E80007A686FF07F439A4202D94FF001031FE066
:100E90004EF21003CEF200037A6822F07F4202F194
:100EA000FF325A604FF0FF304FF00F01FFF7B6FFEF
:100EB0004EF21003CEF200034FF000029A604EF2A1
:100EC0001003CEF200034FF007021A604FF0000348
:100ED000184607F10807BD4680BD00BF80B586B043
:100EE00000AF78604FF00003BB7530E0BA7D48F288
:100EF0009C33C0F6010353F8223018464FF001012D
:100F000000F06EFDBA7D48F29433C0F6010333F869
:100F10001230FB604FF001033B744FF00003BB74D1
:100F20004FF00103FB744FF002037B74BA7D40F273
:100F30000403C2F2000353F8222007F10C03104609
:100F4000194601F017FCBB7D03F10103BB75BB7DA6
:100F5000032B8CBF00230123DBB2002BC6D14FF043
:100F60000003FB7530E0FA7D48F2B433C0F60103AC
:100F700053F8223018464FF0010100F031FD4FF4D4
:100F800080404FF0010100F07FFD4FF000033B7403
:100F90004FF00003FB74FA7D48F2AC33C0F6010356
:100FA00033F81230FB60FA7D40F21403C2F2000302
:100FB00053F8222007F10C031046194601F0DAFB22
:100FC000FB7D03F10103FB75FB7D022B8CBF00232E
:100FD0000123DBB2002BC6D17B6801E00BF0A6FB3E
:100FE000184607F11807BD4680BD00BF80B483B026
:100FF00000AF78607B68184607F10C07BD4680BCDF
:10100000704700BF80B582B000AF78600B46FB70C0
:10101000FA7840F20403C2F2000353F82220F97870
:1010200048F29433C0F6010333F8113010461946E4
:1010300001F042FC07F10807BD4680BD80B588B0CD
:1010400000AFF8600B467A60FB724FF480404FF0BF
:10105000010100F019FDFA7A48F2C833C0F6010325
:101060009A5CF97A48F2CC33C0F601035B5C104617
:101070001946FFF7EBF8FA7A48F2C033C0F60103DD
:1010800033F81230BB614FF000033B774FF0080399
:101090007B774FF00103BB7707F11803184603F085
:1010A00007FBFA7A48F2D033C0F601039B5C3B752C
:1010B0004FF00F037B754FF00F03BB754FF001032B
:1010C000FB7507F11403184603F0CAFB78684FF06C
:1010D000030103F05DFF01E00BF028FB07F120079F
:1010E000BD4680BD80B500AF40F2E003C2F2000310
:1010F0001A6848F21F53C5F2EB13A3FB02134FEA21
:1011000053131846FFF7B8FE0346002B0CBF00230D
:101110000123DBB2002B00D0FEE74FF0FF304FF091
:101120000001FFF77BFE80BD80B500AF40F6F810F0
:10113000C2F200004FF00001FFF764FF80BD00BF66
:1011400080B500AF40F6F810C2F200004FF0010188
:10115000FFF758FF80BD00BF80B500AF40F6F81024
:10116000C2F200004FF0000141F22912C0F6000265
:10117000FFF764FF40F6F810C2F200004FF00001E4
:1011800041F24112C0F60002FFF758FF80BD00BFD8
:1011900080B400AFBD4680BC704700BF80B582B050
:1011A00000AF786039607B68012B18D13A684FF640
:1011B000FF739A4213D140F6F810C2F20000FFF715
:1011C0008DFE40F6F810C2F2000040F6ED71C0F658
:1011D000000140F20002C2F2000205F0DFFF07F159
:1011E0000807BD4680BD00BF80B500AF4FF00100CD
:1011F0004FF6FF71FFF7D2FF80BD00BF80B584B00E
:1012000002AF786039607B68012B13D13A684FF6E2
:10121000FF739A420ED14FF00003009340F6FC108A
:10122000C2F200004FF000014FF000024FF0000347
:1012300000F0ACF807F10807BD4680BD80B500AFEF
:101240004FF001004FF6FF71FFF7D8FF80BD00BFE0
:1012500080B582B000AF786039607B683A681A6008
:101260007B684FF000025A607B684FF000029A6082
:10127000386806F025F803461A467B68DA6007F1FD
:101280000807BD4680BD00BF80B582B000AF786062
:101290007B68DB68184606F01BF807F10807BD46B7
:1012A00080BD00BF80B483B000AF78607B685B68AE
:1012B000002B14BF00230123DBB2184607F10C07F3
:1012C000BD4680BC704700BF80B485B000AF786079
:1012D0007B68DA687B689B68D3181B78FB737B6834
:1012E0009B6803F101037A681268B3FBF2F102FB19
:1012F00001F29A1A7B689A607B685B6803F1FF329F
:101300007B685A60FB7B184607F11407BD4680BC1A
:10131000704700BF80B483B000AF78607B685B68C3
:10132000DBB2184607F10C07BD4680BC704700BF12
:1013300080B483B000AF78607B68044A1A607B6831
:10134000184607F10C07BD4680BC7047E0830108D2
:1013500080B582B000AF78607B681846FFF7E8FF81
:101360007B68094A1A607B6803F1040318464FF052
:1013700000014FF0040206F02DFC7B68184607F1CF
:101380000807BD4680BD00BF0884010880B582B053
:1013900000AF7860F970BA707B707B681846FFF711
:1013A000C7FF7B68094A1A607B68FA781A717B6804
:1013B000BA785A717B687A789A717B683A7CDA716C
:1013C0007B68184607F10807BD4680BD0884010800
:1013D00080B584B000AF786039604FF00003FB60E7
:1013E0004FF00003BB601AE07A68BB68D3181B7922
:1013F000386819464FF00A0201F036F90346FA68D8
:10140000D318FB6038684FF02E0101F019F903463C
:10141000FA68D318FB60BB6803F10103BB60BB68CB
:10142000022BCCBF00230123DBB2002BDCD17B6875
:10143000DB79386819464FF00A0201F015F90346C6
:10144000FA68D318FB60FB68184607F11007BD4621
:1014500080BD00BF80B584B002AF786039607B6822
:10146000012B13D13A684FF6FF739A420ED14FF019
:101470000003009340F60420C2F200004FF0000188
:101480004FF000024FF00003FFF780FF07F108075D
:10149000BD4680BD80B500AF4FF001004FF6FF7133
:1014A000FFF7D8FF80BD00BF80B582B000AF49F61E
:1014B0008043C0F601037B6040F20003C2F20003E8
:1014C0003B600BE07B681A683B681A603B6803F17D
:1014D00004033B607B6803F104037B603A6840F6D9
:1014E000CC13C2F200039A42ECD3084808494FF0EB
:1014F00000028842B8BF40F8042BFFF6FAAFFEF7AF
:101500006DFE07F10807BD4680BD0000D009002030
:10151000D023002080B400AFFEE700BF80B483B0CA
:1015200000AF78607B684FF000021A707B684FF064
:1015300000025A807B684FF000029A807B684FF06F
:101540001802DA807B68184607F10C07BD4680BC9C
:10155000704700BF80B483B000AF78607B681846E6
:1015600007F10C07BD4680BC704700BF80B582B054
:1015700000AF786039607B68012B18D13A684FF66C
:10158000FF739A4213D140F61020C2F20000FFF719
:10159000C5FF40F61020C2F2000041F25551C0F6DE
:1015A000000140F20002C2F2000205F0F7FD07F16F
:1015B0000807BD4680BD00BF80B500AF4FF00100F9
:1015C0004FF6FF71FFF7D2FF80BD00BF80B584B03A
:1015D00000AF786007F108037868194602F08EF8CA
:1015E0003B7A03F01F03012B0AD0022B0FD0002BF4
:1015F00014D107F108037868194601F0EBFB16E0F7
:1016000007F108037868194601F036FC0FE007F18E
:1016100008037868194601F065FC08E03B7A23F07E
:101620007F03DBB27868194603F06AFA00BF4FF017
:101630000003184607F11007BD4680BD80B584B091
:1016400000AF78600B46FB70FB78002B45D17B68C0
:1016500003F55C73FB607B6893F81131032B4FD16A
:10166000FB68DA69FB689B689A4221D9FB68DA69F2
:10167000FB689B68D21AFB68DA617B68DB78012B18
:1016800006D1FB68DA68FB689B68D218FB68DA60F1
:10169000FB68DA68FB689968FB68DB69994238BFC8
:1016A0000B469BB2786811461A4603F0F3FB27E01D
:1016B0007B68D3F8E0351B69002B0AD07B6893F870
:1016C0001231032B05D17B68D3F8E0351B697868AC
:1016D0009847786803F0F6FB12E07B68D3F8E035B2
:1016E0009B69002B0CD07B6893F81231032B07D138
:1016F0007B68D3F8E0359B69FA787868114698479B
:101700004FF00003184607F11007BD4680BD00BF2B
:1017100080B584B000AF78600B46FB70FB78002B7F
:1017200063D17B6803F58C73FB607B6893F81131A0
:10173000022B6ED1FB68DA69FB689B689A421CD960
:10174000FB68DA69FB689B68D21AFB68DA617B6820
:10175000DB78012B06D1FB68DA68FB689B68D2183E
:10176000FB68DA60FB68DA68FB68DB699BB2786863
:1017700011461A4603F076FB4BE0FB681B6AFA68D9
:101780009268B3FBF2F102FB01F29B1A002B17D116
:10179000FB681A6AFB689B689A4211D3FB681A6A55
:1017A000FB685B6A9A420BD278684FF000014FF0F9
:1017B000000203F057FBFB684FF000025A6229E079
:1017C0007B68D3F8E035DB68002B0AD07B6893F8A0
:1017D0001231032B05D17B68D3F8E035DB687868DC
:1017E0009847786803F08CFB13E07B68D3F8E0350A
:1017F0005B69002B0ED07B6893F81231032B09D163
:101800007B68D3F8E0355B69FA78786811469847C9
:1018100000E000BF4FF00003184607F11007BD4677
:1018200080BD00BF80B582B000AF786078684FF0AF
:1018300000014FF040024FF0000303F083F8786896
:101840004FF080014FF040024FF0000303F07AF8B0
:101850007B684FF0010283F812217B68D3F8E435EE
:101860005B687A689278104698474FF000031846F4
:1018700007F10807BD4680BD80B582B000AF786033
:101880007B68D3F8E4351B6998477B684FF0030207
:1018900083F812214FF00003184607F10807BD46F0
:1018A00080BD00BF80B582B000AF78607B684FF02C
:1018B000040283F812217B68D3F8E435DB6898478B
:1018C0004FF00003184607F10807BD4680BD00BF72
:1018D00080B582B000AF78607B68D3F8E035DB6913
:1018E000002B05D07B68D3F8E035DB697868984732
:1018F0004FF00003184607F10807BD4680BD00BF42
:1019000080B582B000AF78600B46FB707B68D3F87F
:10191000E0351B68FA787868114698477B68D3F8F9
:10192000E4359B6898474FF00003184607F1080715
:10193000BD4680BD80B582B000AF78600B46FB70BD
:101940007B68D3F8E0355B68FA7878681146984789
:101950004FF00003184607F10807BD4680BD00BFE1
:1019600080B582B000AF78607B68D3F8E0351B6A41
:10197000786898474FF00003184607F10807BD46FE
:1019800080BD00BF80B582B000AF78607B68D3F8BF
:10199000E0355B6A786898474FF00003184607F116
:1019A0000807BD4680BD00BF80B500AF00F0E6FF70
:1019B000FFF798FB03F0C2FA00F016FC00F0A2FB60
:1019C000FFF7CAFB00E000BFFFF7E2FB44F651431C
:1019D000C0F60003002BF6D003F03AF9F3E700BF9E
:1019E00080B483B000AF78600B46FB70FB78002BAF
:1019F0000CD04FF46053C4F202034FF46052C4F2AF
:101A00000202116B7A680A431A630DE04FF46053C7
:101A1000C4F202034FF46052C4F20202116B7A68FE
:101A20006FEA02020A401A6307F10C07BD4680BC48
:101A3000704700BF80B483B000AF78600B46FB7086
:101A4000FB78002B0CD04FF46053C4F202034FF428
:101A50006052C4F20202116C7A680A431A640DE003
:101A60004FF46053C4F202034FF46052C4F2020216
:101A7000116C7A686FEA02020A401A6407F10C07D7
:101A8000BD4680BC704700BF80B483B000AF7860B3
:101A90000B46FB70FB78002B0CD04FF46053C4F264
:101AA00002034FF46052C4F20202516C7A680A4396
:101AB0005A640DE04FF46053C4F202034FF46052D5
:101AC000C4F20202516C7A686FEA02020A405A6458
:101AD00007F10C07BD4680BC704700BF80B400AF63
:101AE000BD4680BC704700BF80B400AFFEE700BFBA
:101AF00080B400AFFEE700BF80B400AFFEE700BFD8
:101B000080B400AFFEE700BF80B400AFBD4680BC2C
:101B1000704700BF80B400AFBD4680BC704700BFB7
:101B200080B400AFBD4680BC704700BF80B400AF3A
:101B300040F61823C2F200031B6803F1010240F6CD
:101B40001823C2F200031A60BD4680BC704700BF74
:101B500080B400AFBD4680BC704700BF80B582B086
:101B600000AF4FF0040002F03FFE0346002B0CBF15
:101B700000230123DBB2002B59D04FF00003FB8080
:101B80001FE040F2F403C2F20003DA69FB884FEA77
:101B90008303D3181B68002B0CBF00230123DBB287
:101BA000002B0AD040F2F403C2F20003DA69FB888A
:101BB0004FEA8303D3181B689847FB8803F101039E
:101BC000FB8040F2F403C2F200031B8B9BB2FA8845
:101BD0009A422CBF00230123DBB2002BD1D140F667
:101BE000EC13C2F200035B68002B0CBF002301233F
:101BF000DBB2002B05D040F6EC13C2F200035B68A9
:101C0000984740F6EC13C2F200031B68002B0CBF90
:101C100000230123DBB2002B05D040F6EC13C2F207
:101C200000031B6898474FF0040002F009FE07F11B
:101C30000807BD4680BD00BF80B500AF4FF0100063
:101C400002F0D2FD0346002B0CBF00230123DBB2C0
:101C5000002B15D040F6EC13C2F200039B68002B5A
:101C60000CBF00230123DBB2002B05D040F6EC13A0
:101C7000C2F200039B6898474FF0100002F0E0FDAD
:101C800080BD00BF80B500AF40F61433C2F2000340
:101C90009B7A002B13D04EF61053CEF200034EF673
:101CA0001052CEF20002126822F006021A6000F012
:101CB00065FE40F61430C2F20000FFF785F84FF4DD
:101CC000801002F0BDFD80BD80B500AF40F614303D
:101CD000C2F2000001F01AFF80BD00BF80B500AF66
:101CE00040F61430C2F2000001F04AFE80BD00BF91
:101CF00080B500AF40F61430C2F2000001F0DAFD0A
:101D000080BD00BF80B582B000AF78607B681846A8
:101D1000FFF71EFB7B68184607F10807BD4680BD2C
:101D200080B584B002AF786039607B68012B19D12F
:101D30003A684FF6FF739A4214D14FF000030093B4
:101D400040F61C20C2F200004FF000014FF00002EC
:101D50004FF00003FFF71AFB40F63420C2F20000F8
:101D6000FFF7D0FF07F10807BD4680BD80B500AF83
:101D70004FF001004FF6FF71FFF7D2FF80BD00BFAB
:101D800080B483B000AF78607B68064A1A607B68D5
:101D90004FF000025A607B68184607F10C07BD46F9
:101DA00080BC7047D885010880B584B002AF7860E8
:101DB00039607B68012B13D13A684FF6FF739A4262
:101DC0000ED14FF00003009340F6B020C2F20000A5
:101DD0004FF000014FF000024FF00003FFF7D6FA7A
:101DE00007F10807BD4680BD80B500AF4FF0010088
:101DF0004FF6FF71FFF7D8FF80BD00BF80B485B0FC
:101E000000AF786039604FF00003FB604FF00003D3
:101E1000FB727B685B68FB60FB6823F0407323F414
:101E20008073FB603B681B794FEA03223B681B68A9
:101E30001343FA681343FB607B68FA685A607B6857
:101E40009B68FB60FA684FF2FD73CCF2FF0313400E
:101E5000FB603B681A693B68DB681A433B689B6818
:101E60001A433B685B794FEA43031343FA68134311
:101E7000FB607B68FA689A607B68DB6AFB60FB68E2
:101E800023F47003FB603B681B7D03F1FF33DAB280
:101E9000FB7A1343FB72FB7A4FEA0353FA6813434E
:101EA000FB607B68FA68DA6207F11407BD4680BC04
:101EB000704700BF80B485B000AF78604FF000037A
:101EC000FB604FF40C53C4F201035B68FB60FA68DB
:101ED00043F2E003CFF6FC731340FB607B681A68A3
:101EE0007B685B681A437B689B681A437B68DB6886
:101EF0001343FA681343FB604FF40C53C4F201031D
:101F0000FA685A6007F11407BD4680BC704700BFED
:101F100080B483B000AF78600B46FB70FB78002B79
:101F200006D07B689B6843F001027B689A6005E0FD
:101F30007B689B6823F001027B689A6007F10C07BD
:101F4000BD4680BC704700BF80B485B000AF7860EC
:101F5000F970BA707B704FF00003FB604FF0000324
:101F6000BB60FB78092B27D97B68DB68FB60FA78BC
:101F700013464FEA43039B18A3F11E034FF00702D9
:101F800002FA03F3BB60BB686FEA0303FA6813400D
:101F9000FB607978FA7813464FEA43039B18A3F164
:101FA0001E0301FA03F3BB60FA68BB681343FB60CE
:101FB0007B68FA68DA6022E07B681B69FB60FA786C
:101FC00013464FEA43039B184FF0070202FA03F34C
:101FD000BB60BB686FEA0303FA681340FB60797863
:101FE000FA7813464FEA43039B1801FA03F3BB60E8
:101FF000FA68BB681343FB607B68FA681A61BB78B8
:10200000062B27D87B685B6BFB60BB7803F1FF3244
:1020100013464FEA83039B184FF01F0202FA03F3A3
:10202000BB60BB686FEA0303FA681340FB60F97892
:10203000BB7803F1FF3213464FEA83039B1801FA82
:1020400003F3BB60FA68BB681343FB607B68FA6804
:102050005A6351E0BB780C2B27D87B681B6BFB6065
:10206000BA7813464FEA83039B18A3F123034FF07A
:102070001F0202FA03F3BB60BB686FEA0303FA684E
:102080001340FB60F978BA7813464FEA83039B1834
:10209000A3F1230301FA03F3BB60FA68BB6813439F
:1020A000FB607B68FA681A6326E07B68DB6AFB608A
:1020B000BA7813464FEA83039B18A3F141034FF00C
:1020C0001F0202FA03F3BB60BB686FEA0303FA68FE
:1020D0001340FB60F978BA7813464FEA83039B18E4
:1020E000A3F1410301FA03F3BB60FA68BB68134331
:1020F000FB607B68FA68DA6207F11407BD4680BCB2
:10210000704700BF80B58CB000AF4FF480604FF0D7
:102110000101FFF7B9FC48F28443C0F601035B6C90
:1021200018464FF00101FFF75BFC48F25C43C0F634
:1021300001035B8C3B604FF003033B714FF00003E6
:10214000FB7140F25003C2F200035A6C3B4610464A
:10215000194600F00FFB4FF00003BB604FF0000387
:10216000FB604FF000033B614FF4A0637B6107F11C
:1021700008031846FFF79EFE4FF08073BB614FF0D7
:1021800000033B774FF000037B774FF000033B6287
:102190004FF000033B624FF00003BB624FF00103BE
:1021A00087F82C3007F118034FF40850C4F20100EF
:1021B0001946FFF723FE4FF40850C4F201004FF018
:1021C0000B014FF001024FF00103FFF7BDFE4FF48A
:1021D0000850C4F201004FF00101FFF799FE07F12A
:1021E0003007BD4680BD00BF80B500AF4FF0040092
:1021F0004FF00101FFF71EFC41F65C13C2F2000331
:102200004FF6FF725A6041F65C13C2F200034FF0C2
:1022100000021A8041F65C13C2F200034FF0000284
:102220001A8141F65C13C2F200034FF000025A809B
:102230004FF40060C4F2000041F65C11C2F20001EC
:1022400002F0ECFE41F66813C2F200034FF06002A8
:102250001A8041F66813C2F200034FF000029A811F
:1022600041F66813C2F200034FF001025A8041F6B2
:102270006813C2F200034FF000029A604FF400604E
:10228000C4F2000041F66811C2F2000102F080FFC2
:102290004FF40060C4F200004FF0080103F08AF927
:1022A00041F66813C2F200034FF001025A8041F672
:1022B0006813C2F200034FF000029A604FF400600E
:1022C000C4F2000041F66811C2F2000102F0DEFF24
:1022D0004FF40060C4F200004FF0080103F086F9EB
:1022E00041F66813C2F200034FF001025A8041F632
:1022F0006813C2F200034FF000029A604FF40060CE
:10230000C4F2000041F66811C2F2000103F052F875
:102310004FF40060C4F200004FF0080103F086F9AA
:1023200041F66813C2F200034FF001025A8041F6F1
:102330006813C2F200034FF000029A604FF400608D
:10234000C4F2000041F66811C2F2000103F0C2F8C5
:102350004FF40060C4F200004FF0080103F082F96E
:102360004FF40060C4F200004FF0010102F0D0FE13
:102370004FF40060C4F200004FF0010102F0E8FEEB
:1023800080BD00BF80B584B002AF786039607B68E3
:10239000012B13D13A684FF6FF739A420ED14FF0DA
:1023A0000003009340F6B820C2F200004FF0000195
:1023B0004FF000024FF00003FEF7E8FF07F10807B7
:1023C000BD4680BD80B500AF4FF001004FF6FF71F4
:1023D000FFF7D8FF80BD00BF80B483B000AF0346D5
:1023E0003960FB713B684FF012021A8040F2BC0367
:1023F000C2F20003184607F10C07BD4680BC7047C7
:1024000080B483B000AF03463960FB713B684FF086
:1024100004021A8040F2DC03C2F20003184607F1FE
:102420000C07BD4680BC704780B582B000AF034644
:102430003960FB71FB79002B0BD148F22450C0F6B8
:10244000010041F67C11C2F200013A6801F0C8F9BE
:102450000AE048F24850C0F6010041F67C11C2F291
:1024600000013A6801F0BCF941F67C13C2F20003A6
:10247000184607F10807BD4680BD00BF80B582B091
:1024800000AF03463960FB7148F26C50C0F60100A2
:1024900041F67C11C2F200013A6801F0A1F941F65F
:1024A0007C13C2F20003184607F10807BD4680BD41
:1024B00080B582B000AF03463960FB71FB79002B19
:1024C0000BD148F28050C0F6010041F67C11C2F2F7
:1024D00000013A6801F084F90AE048F29050C0F631
:1024E000010041F67C11C2F200013A6801F078F96E
:1024F00041F67C13C2F20003184607F10807BD46F7
:1025000080BD00BF80B582B000AF03463960FB716B
:10251000FB79002B0BD148F2A050C0F6010041F628
:102520007C11C2F200013A6801F05AF90AE048F25F
:10253000A050C0F6010041F67C11C2F200013A68D9
:1025400001F04EF941F67C13C2F20003184607F180
:102550000807BD4680BD00BF80B582B000AF03460E
:102560003960FB71FB79002B0BD148F2AC50C0F6FF
:10257000010041F67C11C2F200013A6801F030F925
:102580000AE048F2AC50C0F6010041F67C11C2F2FC
:1025900000013A6801F024F941F67C13C2F200030D
:1025A000184607F10807BD4680BD00BF90B583B04F
:1025B00000AF786039603B68002B02D14FF0000318
:1025C0000DE07B681B6803F104031C68386805F0A4
:1025D000C5FE0346786839681A46A0470346184680
:1025E00007F10C07BD4690BD80B586B000AFF8601E
:1025F000B9607A604FF000037B610FE0FB681B68F5
:102600001B68BA681278B96801F10101B960F8680D
:102610001146984703467A69D3187B617B68002B83
:102620000CBF00230123DBB27A6802F1FF327A602B
:10263000002BE3D17B69184607F11807BD4680BD22
:1026400080B582B000AF78600B46FB707B681B687A
:102650001B68FA787868114698470346184607F1D0
:102660000807BD4680BD00BF80B584B000AFF860EC
:102670000B467A60FB72FB7AF86819467A6800F0BC
:1026800007F80346184607F11007BD4680BD00BF96
:1026900080B584B000AFF860B9607A607B68002BC9
:1026A00009D1FB681B681B68BA68D2B2F86811468A
:1026B0009847034607E07B68DBB2F868B9681A46BA
:1026C00000F006F80346184607F11007BD4680BD26
:1026D00080B590B000AFF860B9601346FB7107F1A8
:1026E000140303F12003FB63FB6B4FF000021A702D
:1026F000FB79012B02D84FF00A03FB71BB68BB6367
:10270000FB79BA68B2FBF3F3BB60BB6BDAB2BB68B0
:10271000DBB2F97901FB03F3DBB2D31A87F8373068
:10272000FB6B03F1FF33FB6397F83730092B05D8B8
:1027300097F8373003F13003DBB204E097F8373015
:1027400003F13703DBB2FA6B1370BB68002B0CBFCD
:1027500000230123DBB2002BD0D1F868F96BFFF71F
:1027600025FF034601E009F0E1FF184607F14007A5
:10277000BD4680BD80B487B000AF786039604FF04F
:1027800000037B614FF000033B614FF00003FB60EF
:102790004FF000037B6186E07B694FF0010202FA93
:1027A00003F33B613B681A683B691340FB60FA68BE
:1027B0003B699A4273D17B681A687B694FEA43038D
:1027C0004FF0030101FA03F36FEA03031A407B6839
:1027D0001A607B681A683B681B7919467B694FEA67
:1027E000430301FA03F31A437B681A603B681B79C1
:1027F000012B03D03B681B79022B34D17B689A688C
:102800007B694FEA43034FF0030101FA03F36FEAD8
:1028100003031A407B689A607B689A683B685B791F
:1028200019467B694FEA430301FA03F31A437B68B5
:102830009A607B685A687B699BB24FF0010101FA8C
:1028400003F36FEA03031A407B685A607B685A6897
:102850003B689B7919467B699BB201FA03F39BB2F3
:102860001A437B685A607B68DA687B699BB24FEADF
:1028700043034FF0030101FA03F36FEA03031A4025
:102880007B68DA607B68DA683B68DB7919467B69CC
:102890004FEA430301FA03F31A437B68DA607B696A
:1028A00003F101037B617B690F2B7FF675AF07F1A5
:1028B0001C07BD4680BC704780B483B000AF786011
:1028C0000B467B807B685A697B885A407B685A61DB
:1028D00007F10C07BD4680BC704700BF80B485B0CF
:1028E00000AF786039604FF00003FB601DE040F6F8
:1028F000E823C2F200031A687968FB68CB181978DC
:1029000041F6B833C2F20003995440F6E823C2F20C
:1029100000031B6803F1010240F6E823C2F2000342
:102920001A60FB6803F10103FB60FA683B689A4296
:10293000DDD340F6E823C2F200031B68B3F5006F55
:1029400006D140F6E823C2F200034FF000021A60FD
:102950004FF00003184607F11407BD4680BC7047CE
:1029600080B582B000AF7860396078683968FFF769
:10297000B5FF07F10807BD4680BD00BF80B500AFB9
:102980004FF46053C4F202034FF46052C4F20202E7
:10299000126842F001021A604FF46053C4F202035D
:1029A0004FF000029A604FF46053C4F202034FF4F8
:1029B0006052C4F20202126822F0847222F4803261
:1029C0001A604FF46053C4F2020343F21002C2F2E1
:1029D00000425A604FF46053C4F202034FF4605255
:1029E000C4F20202126822F480221A604FF460538B
:1029F000C4F202034FF00002DA6000F009F84FF46D
:102A00006D43CEF200034FF000629A6080BD00BFBC
:102A100080B483B000AF4FF000037B604FF0000341
:102A20003B604FF46053C4F202034FF46052C4F2AF
:102A30000202126842F480321A604FF46053C4F20A
:102A400002031B6803F400333B607B6803F101035E
:102A50007B603B68002B03D17B68B3F5A06FECD1A2
:102A60004FF46053C4F202031B6803F40033002BDD
:102A700003D04FF001033B6002E04FF000033B60E6
:102A80003B68012B40F082804FF46053C4F2020394
:102A90004FF46052C4F20202126C42F080521A6487
:102AA0004FF4E043C4F200034FF4E042C4F20002EA
:102AB000126842F480421A604FF46053C4F2020379
:102AC0004FF46052C4F2020292689A604FF460536D
:102AD000C4F202034FF46052C4F20202926842F45C
:102AE00000429A604FF46053C4F202034FF4605204
:102AF000C4F20202926842F4A0529A604FF460530A
:102B0000C4F2020345F21942C0F240725A604FF417
:102B10006053C4F202034FF46052C4F2020212681E
:102B200042F080721A6000BF4FF46053C4F2020397
:102B30001B6803F00073002BF6D04FF47053C4F2FF
:102B4000020340F205621A604FF46053C4F20203BC
:102B50004FF46052C4F20202926822F003029A60BB
:102B60004FF46053C4F202034FF46052C4F2020205
:102B7000926842F002029A6000BF4FF46053C4F2C0
:102B800002039B6803F00C03082BF6D107F10C0736
:102B9000BD4680BC704700BF80B485B000AF786090
:102BA00040F6C023C2F200031B68002B08D140F698
:102BB000C023C2F2000342F2D032C2F200021A6015
:102BC00040F6C023C2F200031B68FB6040F6C0233E
:102BD000C2F200031A687B68D21840F6C023C2F222
:102BE00000031A60FB68184607F11407BD4680BC55
:102BF000704700BF80B483B000AF78604FF0FF3300
:102C0000184607F10C07BD4680BC704780B483B0FE
:102C100000AF786039603B684FF400525A604FF063
:102C20000003184607F10C07BD4680BC704700BF83
:102C300080B483B000AF78604FF00103184607F10D
:102C40000C07BD4680BC704780B485B000AFF8600B
:102C5000B9607A604FF00003184607F11407BD46CB
:102C600080BC704780B485B000AFF860B9607A600E
:102C70004FF00003184607F11407BD4680BC7047AB
:102C800080B485B000AFF860B9607A607B681846A0
:102C900007F11407BD4680BC704700BF80B400AF89
:102CA000FEE700BF80B582B000AF78607B68184651
:102CB000FFF766F87B68064A1A607B684FF47A7201
:102CC0009A607B68184607F10807BD4680BD00BFC3
:102CD0003084010880B584B002AF786039607B68C9
:102CE000012B13D13A684FF6FF739A420ED14FF081
:102CF0000003009340F6C420C2F200004FF0000130
:102D00004FF000024FF00003FEF740FB07F1080709
:102D1000BD4680BD80B500AF4FF001004FF6FF719A
:102D2000FFF7D8FF80BD00BF80B485B000AF7860EA
:102D30004FF00003FB607A6813464FEA03139B1AB7
:102D40004FEAC3031A4644F62513C2F29243A3FB8B
:102D50000213D21A4FEA52029B184FEA9303BB6048
:102D600000E000BFFB6803F10103FB60FA68BB6889
:102D70009A42F6D900BF07F11407BD4680BC7047E0
:102D800080B584B002AF786039607B68012B13D1C5
:102D90003A684FF6FF739A420ED14FF0000300934A
:102DA00040F6CC20C2F200004FF000014FF00002CC
:102DB0004FF00003FEF7EAFA07F10807BD4680BDB1
:102DC00080B500AF4FF001004FF6FF71FFF7D8FF5D
:102DD00080BD00BF80B584B000AF786039604FF02F
:102DE0000003FB733B685B78092B3AD801A252F8C9
:102DF00023F000BF452E0008592E0008632E00085E
:102E00004F2E0008632E0008272E00081D2E0008F4
:102E1000632E00083B2E0008312E000878683968C0
:102E200000F052F922E07868396800F089FA1DE074
:102E30007868396800F0C4FA18E07868396800F0FA
:102E400059FB13E07868396800F088FB0EE0786879
:102E5000396800F0B7FB09E07868396800F022FCB7
:102E600004E07868396800F093FC00BFFB7B1846EB
:102E700007F11007BD4680BD80B584B000AF786013
:102E800039604FF00003FB737B6893F81231032B1A
:102E90001BD13B689B88DBB2012B11D87B68D3F830
:102EA000E0359B687868396898473B68DB88002B79
:102EB00010D1FB7B002B0DD1786802F003F809E0FC
:102EC0007868396800F064FC04E07868396800F0DC
:102ED0005FFC00E000BFFB7B184607F11007BD4612
:102EE00080BD00BF80B584B000AF786039604FF01E
:102EF0000003FB733B689B88BB733B685B78012BCB
:102F000039D0032B02D0002B6CD0D5E07B6893F82E
:102F10001231022B02D0032B0CD025E0BB7B002BFF
:102F200027D0BB7B802B24D0BB7B7868194601F06F
:102F3000E7FD1EE03B685B88002B0AD1BB7B002BC2
:102F400007D0BB7B802B04D0BB7B7868194601F08F
:102F5000D7FD7B68D3F8E0359B6878683968984777
:102F6000786801F0AFFF05E07868396800F010FC80
:102F700000E000BFA1E07B6893F81231022B02D081
:102F8000032B0CD025E0BB7B002B27D0BB7B802BF9
:102F900024D0BB7B7868194601F0B2FD1EE03B6887
:102FA0005B88002B1CD1BB7B002B0ED0BB7B802B06
:102FB0000BD0BB7B7868194601F0E4FD7B68D3F841
:102FC000E0359B68786839689847786801F07AFF3F
:102FD00006E07868396800F0DBFB02E000BF00E043
:102FE00000BF6AE07B6893F81231022B02D0032BFA
:102FF0000CD05AE0BB7B002B5CD0BB7B802B59D024
:10300000BB7B7868194601F07BFD53E0BB7B5BB26C
:10301000002B1FDABB7B03F07F02796813464FEA6F
:1030200083039B184FEAC303CB1803F58C739B787B
:10303000002B07D040F6D423C2F200034FF0010268
:103040001A6028E040F6D423C2F200034FF00002D9
:103050001A6020E0BB7B5BB2002B1CDBBA7B79687B
:1030600013464FEA83039B184FEAC303CB1803F5BB
:103070005C739B78002B07D040F6D423C2F2000388
:103080004FF001021A6006E040F6D423C2F20003BA
:103090004FF000021A60786840F6D421C2F20001B5
:1030A0004FF0020201F0BAFE05E07868396800F0DE
:1030B0006FFB00E000BF00E000BFFB7B184607F19C
:1030C0001007BD4680BD00BF80B584B000AF7860FA
:1030D00039603B685B884FEA13239BB203F1FF33EF
:1030E000062B00F20E8101A252F823F009310008EC
:1030F0003D31000893310008033300080333000812
:1031000065320008CB3200087B68D3F8E8351B68CD
:103110007A68917807F10A02084611469847F860E4
:103120003B68DB88402B05D07B6893F81231012B7C
:1031300040F0EC804FF008037B81E7E07B68D3F838
:10314000E0359B6A7A68917807F10A0208461146D1
:103150009847F8607B689B78012B0FD17B681B7ABE
:10316000012B0BD17B68D3F8E035DB6A7A68917864
:1031700007F10A02084611469847F860FB6803F118
:1031800001034FF002021A707B68FA68C3F8EC255D
:10319000BDE03B685B88DBB2052B5DD801A252F82D
:1031A00023F000BFBD310008D7310008F13100081D
:1031B0000B320008253200083F3200087B68D3F844
:1031C000E8355B687A68917807F10A02084611468B
:1031D0009847F86045E07B68D3F8E8359B687A68E3
:1031E000917807F10A02084611469847F86038E0DE
:1031F0007B68D3F8E835DB687A68917807F10A02D2
:10320000084611469847F8602BE07B68D3F8E8350C
:103210001B697A68917807F10A02084611469847B7
:10322000F8601EE07B68D3F8E8355B697A689178CE
:1032300007F10A02084611469847F86011E07B68DA
:10324000D3F8E8359B697A68917807F10A02084655
:1032500011469847F86004E07868396800F098FAF9
:103260006AE054E07B689B78002B29D17B68D3F817
:10327000E0359B6A7A68917807F10A0208461146A0
:103280009847F860FB689A7B40F2D003C2F20003D3
:103290001A71FB68DA7B40F2D003C2F200035A7164
:1032A000FB681A7C40F2D003C2F200039A7140F22C
:1032B000D003C2F20003FB604FF00A037B8126E0DB
:1032C0007868396800F064FA36E07B689B78002BF8
:1032D00012D17B68D3F8E035DB6A7A68917807F120
:1032E0000A02084611469847F860FB6803F101039B
:1032F0004FF007021A700AE07868396800F048FA5F
:103300001AE07868396800F043FA15E000BF7B895D
:10331000002B11D03B68DB88002B0DD03B68DA888E
:103320007B899A4238BF13469BB27B817B89786840
:10333000F9681A4601F072FD07F11007BD4680BD1D
:1033400080B584B000AF786039603B689B88002B03
:103350002ED13B68DB88002B2AD13B685B88DBB22F
:1033600003F07F03FB737B6893F81231032B04D1C6
:103370007868396800F00CFA1EE07B68FA7B83F805
:103380001321FB7B7868194601F03EFC786801F058
:1033900099FDFB7B002B05D07B684FF0020283F880
:1033A000122109E07B684FF0010283F8122103E04B
:1033B0007868396800F0ECF907F11007BD4680BD68
:1033C00080B582B000AF786039603B685B88DAB264
:1033D00040F6E023C2F200031A7040F6E023C2F286
:1033E00000031B78012B04D97868396800F0D0F904
:1033F0007CE07B6893F81231022B02D0032B25D09E
:103400006FE040F6E023C2F200031B78002B19D0D6
:1034100040F6E023C2F200031A787B6883F810219B
:103420007B684FF0030283F8122140F6E023C2F2DA
:1034300000031B7878681946FEF762FA786801F095
:1034400041FD53E0786801F03DFD4FE040F6E02398
:10345000C2F200031B78002B19D17B684FF00202E7
:1034600083F8122140F6E023C2F200031A787B6849
:1034700083F8102140F6E023C2F200031B7878683D
:103480001946FEF757FA786801F01CFD2EE07B68BC
:1034900093F8102140F6E023C2F200031B789A4211
:1034A0001BD07B6893F8103178681946FEF742FA12
:1034B00040F6E023C2F200031A787B6883F81021FB
:1034C00040F6E023C2F200031B7878681946FEF745
:1034D00017FA786801F0F6FC08E0786801F0F2FC71
:1034E00004E07868396800F053F900BF07F1080775
:1034F000BD4680BD80B582B000AF786039603B6862
:10350000DB88012B04D07868396800F041F920E0AD
:103510007B6893F81231022B02D0032B0AD013E000
:10352000786840F6D821C2F200014FF0010201F0A4
:1035300075FC0EE07B6803F58873786819464FF0D8
:10354000010201F06BFC04E07868396800F020F9B2
:1035500000BF07F10807BD4680BD00BF80B582B03F
:1035600000AF786039607B6893F81231A3F10203F1
:10357000012B1DD87B68D3F81431002B07D040F6FF
:10358000DC23C2F200034FF003021A6006E040F6AB
:10359000DC23C2F200034FF001021A60786840F6A3
:1035A000DC21C2F200014FF0010201F037FC04E01F
:1035B0007868396800F0ECF800BF07F10807BD46ED
:1035C00080BD00BF80B584B000AF786039604FF037
:1035D0000003FB733B685B88012B0FD17B684FF0C6
:1035E0000102C3F814217B68D3F8E0359B68786842
:1035F00039689847786801F065FC4FE03B685B8864
:10360000022B4BD13B689B88DBB2002B46D17B68F9
:103610001B695B68BB603B689B884FEA13239BB2C6
:10362000FB73FB7B03F1FF33042B30D801A252F86C
:1036300023F000BF493600085736000865360008F9
:103640007336000881360008BB684FF0010262F350
:103650000613BB601BE0BB684FF0020262F3061367
:10366000BB6014E0BB684FF0030262F30613BB605B
:103670000DE0BB684FF0040262F30613BB6006E086
:10368000BB684FF0050262F30613BB6000BF7B68A6
:103690001B69BA685A60786801F014FC07F11007DA
:1036A000BD4680BD80B582B000AF786039607B6870
:1036B00093F81231A3F10203012B13D83B685B8806
:1036C000012B15D17B684FF00002C3F814217B68F1
:1036D000D3F8E0359B68786839689847786801F0D6
:1036E000F1FB05E07868396800F052F800BF00E0AF
:1036F00000BF07F10807BD4680BD00BF80B483B09E
:1037000000AF786039607B6893F8C8253B681A7011
:103710007B6893F8C9253B685A707B6893F8CA3573
:103720001A467B6893F8CB354FEA03239BB2D31834
:103730009AB23B685A807B6893F8CC351A467B680E
:1037400093F8CD354FEA03239BB2D3189AB23B6866
:103750009A807B6893F8CE351A467B6893F8CF350C
:103760004FEA03239BB2D3189AB23B68DA803B68D6
:10377000DB881A467B68C3F83C217B684FF0010266
:1037800083F8112107F10C07BD4680BC704700BFCC
:1037900080B582B000AF786039603B681B78DBB2DF
:1037A0005BB2002B05DA78684FF0800101F0A8F9D0
:1037B0000EE03B68DB88002B05D178684FF0800174
:1037C00001F09EF904E078684FF0000101F098F9EB
:1037D0007868FDF7BDFA07F10807BD4680BD00BF58
:1037E00080B586B000AFF860B9607A604FF0000332
:1037F000FB75FB68002B3DD0F86800F03FF80346EE
:1038000003F101039BB24FEA43039AB27B681A802B
:10381000FB7DBA68D3187A681288D2B21A70FB7D21
:1038200003F10103FB75FB7DBA68D3184FF0030267
:103830001A70FB7D03F10103FB7517E0FB7DBA688D
:10384000D318FA6812781A70FB7D03F10103FB7537
:10385000FB6803F10103FB60FB7DBA68D3184FF0EE
:1038600000021A70FB7D03F10103FB75FB681B78F6
:10387000002BE3D107F11807BD4680BD80B485B0A9
:1038800000AF78604FF00003FB7307E0FB7B03F1B0
:103890000103FB737B6803F101037B607B681B788A
:1038A000002BF3D1FB7B184607F11407BD4680BC03
:1038B000704700BF80B584B000AF78607B689B6DB7
:1038C0009B68FB60FA687B681B69D3F884301340FF
:1038D000FB603B7B03F00103DBB2002B26D04FF0F3
:1038E0000003FB60FB6843F00103FB607B689B6D9A
:1038F000FA689A607B68DB78012B0DD17B689B6D41
:103900001B69BB607B68D3F8A023BB68C3F31203B9
:10391000D21A7B68C3F8B02340F24C03C2F2000312
:103920001B681B6878684FF0010198473B7B03F0E8
:103930000203DBB2002B0AD04FF00003FB60FB68F0
:1039400043F00203FB607B689B6DFA689A603B7BE7
:1039500003F00403DBB2002B0AD04FF00003FB603E
:10396000FB6843F00403FB607B689B6DFA689A6018
:103970004FF00103184607F11007BD4680BD00BF98
:1039800080B586B000AF78607B681B695B6C7B613B
:103990007B681B695B6B3B613B694FEA53034FEAF2
:1039A000C313DBB27A6913437B617B68DB699A6876
:1039B0007B691340BB603B7A03F00103DBB2002B51
:1039C00021D04FF00203FB607B681B697A681269A3
:1039D000516BFA686FEA02020A405A634FF0000323
:1039E000BB60BB6843F00103BB607B68DB69BA68FE
:1039F0009A6040F24C03C2F200031B685B6878686F
:103A00004FF0010198473B7A03F00403DBB2002B2F
:103A10000AD04FF00003BB60BB6843F00403BB60F7
:103A20007B68DB69BA689A603B7A03F00203DBB219
:103A3000002B0AD04FF00003BB60BB6843F00203C9
:103A4000BB607B68DB69BA689A603B7A03F0080365
:103A5000DBB2002B0AD04FF00003BB60BB6843F021
:103A60000803BB607B68DB69BA689A603B7A03F045
:103A70001003DBB2002B0AD04FF00003BB60BB6821
:103A800043F01003BB607B68DB69BA689A603B7ADD
:103A900003F02003DBB2002B0AD04FF00003BB6021
:103AA000BB6843F02003BB607B68DB69BA689A603F
:103AB0003B7A03F04003DBB2002B0AD04FF0000347
:103AC000BB60BB6843F04003BB607B68DB69BA68DE
:103AD0009A603B7A23F07F03DBB2002B0FD078682B
:103AE0004FF0010100F0F8FB4FF00003BB60BB6832
:103AF00043F08003BB607B68DB69BA689A604FF073
:103B00000103184607F11807BD4680BD80B586B091
:103B100000AF78604FF000037B617868FCF7B4FC7D
:103B20000346002B00F09E807868FCF7BFFC03463C
:103B30003B613B69002B02D14FF0000393E0BB7C5B
:103B400003F00803DBB2002B06D0786800F044FADB
:103B500003467A6913437B61BB7C03F00403DBB249
:103B6000002B06D0786800F021F903467A691343E8
:103B70007B613B7C03F00203DBB2002B0AD04FF0E9
:103B80000003FB60FB6843F00203FB607B68DB68BB
:103B9000FA685A61FB7C23F07F03DBB2002B06D06E
:103BA000786800F065F803467A6913437B617B7C93
:103BB00003F00803DBB2002B06D0786800F09EF813
:103BC00003467A6913437B613B7C03F00803DBB255
:103BD000002B06D0786800F0D7FA03467A691343C1
:103BE0007B613B7C03F01003DBB2002B06D07868CE
:103BF00000F0E8FA03467A6913437B617B7C03F0AB
:103C00001003DBB2002B06D0786800F0E5FB03461A
:103C10007A6913437B617B7C03F02003DBB2002BCA
:103C200006D0786800F098FC03467A6913437B61FC
:103C3000BB7C03F01003DBB2002B06D0786800F0E9
:103C4000CFFC03467A6913437B61BB7C03F02003FE
:103C5000DBB2002B06D0786800F0E0FC03467A69FE
:103C600013437B617B69184607F11807BD4680BD89
:103C700080B586B000AF78607B689B7A002B11D04E
:103C80007B6803F586731B68FB60FB686FF3410379
:103C9000FB60FB686FF30003FB607B68D3F80C31BB
:103CA000FA681A604FF000033B613B6943F001037F
:103CB0003B617B681B697A68126951683A696FEAEF
:103CC00002020A405A6040F24C03C2F200031B6831
:103CD0009B69786898474FF000037B617B6943F0EC
:103CE00000437B617B68DB687A695A614FF00103AE
:103CF000184607F11807BD4680BD00BF80B586B0E5
:103D000000AF786040F24C03C2F200031B685B69AD
:103D1000786898477B681B699B68FB604FF00003DD
:103D20007B617B6943F400637B617B68DB687A6954
:103D30005A617B689B7A002B30D03B7B03F00103F8
:103D4000DBB2002B2AD04FF000033B613B6943F00C
:103D500001033B617B68D3F80C317A68D2F80C21FF
:103D600011683A690A431A603B6943F002033B61F8
:103D70007B68D3F80C317A68D2F80C2111683A6963
:103D80000A431A604FF46D43CEF200034FF46D42C4
:103D9000CEF20002126942F006021A614FF00103EE
:103DA000184607F11807BD4680BD00BF80B586B034
:103DB00000AF78604FF000033B614FF00003BB6041
:103DC0007868FCF7ABFF7861FBE07B6903F00103E7
:103DD000002B00F0EE803B69DBB27868194600F0FA
:103DE0003BFC0346BB603B7A03F00103DBB2002BD4
:103DF0003AD03B694FF0010202FA03F3FB607B68A3
:103E00001B697A681269516BFA686FEA02020A400C
:103E10005A634FF00003BB60BB6843F00103BB6013
:103E20007A683B6903F104034FEA8303D3189B6864
:103E3000BA689A6040F24C03C2F200031B685B68E8
:103E40003A69D2B27868114698477B68DB78012BD3
:103E50000AD13B69002B07D17B6893F81131042B01
:103E600002D17868FCF774FF3B7A03F00403DBB2FD
:103E7000002B10D04FF00003BB60BB6843F004037D
:103E8000BB607A683B6903F104034FEA8303D318EC
:103E90009B68BA689A603B7A03F00803DBB2002B98
:103EA00010D04FF00003BB60BB6843F00803BB6059
:103EB0007A683B6903F104034FEA8303D3189B68D4
:103EC000BA689A603B7A03F01003DBB2002B10D083
:103ED0004FF00003BB60BB6843F01003BB607A681F
:103EE0003B6903F104034FEA8303D3189B68BA6864
:103EF0009A603B7A03F02003DBB2002B10D04FF026
:103F00000003BB60BB6843F02003BB607A683B6979
:103F100003F104034FEA8303D3189B68BA689A60DD
:103F20003B7A03F04003DBB2002B10D04FF00003CC
:103F3000BB60BB6843F04003BB607A683B6903F138
:103F400004034FEA8303D3189B68BA689A603B7AEC
:103F500003F00203DBB2002B10D04FF00003BB6074
:103F6000BB6843F00203BB607A683B6903F104035A
:103F70004FEA8303D3189B68BA689A603B7A23F0B0
:103F80007F03DBB2002B14D07868396900F0A4F904
:103F90004FF00003BB60BB6843F08003BB607A68EE
:103FA0003B6903F104034FEA8303D3189B68BA68A3
:103FB0009A603B6903F101033B617B694FEA53035C
:103FC0007B617B69002B7FF400AF4FF00103184643
:103FD00007F11807BD4680BD80B586B000AF786098
:103FE0004FF000033B614FF00003FB607868FCF783
:103FF0005FFE7861BDE07B6903F00103002B00F0F8
:10400000B0803B69DBB278681946FCF769FE03466D
:10401000FB603B7B03F00103DBB2002B54D04FF07D
:104020000003FB60FB6843F00103FB607A683B69B7
:1040300003F114034FEA8303D3185B68FA689A60AC
:104040007B68DB78012B25D17A683B6903F1140387
:104050004FEA8303D3185B681B69BB6079683A69D0
:1040600013464FEA83039B184FEAC303CB1803F5AB
:104070005E731A68BB68C3F31203D11A78683A6991
:1040800013464FEA83039B184FEAC303C31803F593
:104090006273196040F24C03C2F200031B681B6894
:1040A0003A69D2B27868114698477B68DB78012B71
:1040B0000AD13B69002B07D17B6893F81131052B9E
:1040C00002D17868FCF744FE3B7B03F00203DBB2CD
:1040D000002B10D04FF00003FB60FB6843F002039D
:1040E000FB607A683B6903F114034FEA8303D3183A
:1040F0005B68FA689A603B7B03F00403DBB2002B39
:1041000010D04FF00003FB60FB6843F00403FB603A
:104110007A683B6903F114034FEA8303D3185B68A1
:10412000FA689A603B7B03F00803DBB2002B18D0DF
:1041300040F24C03C2F200031B689B687868984702
:104140004FF00003FB60FB6843F00803FB607A68F4
:104150003B6903F114034FEA8303D3185B68FA68E1
:104160009A603B6903F101033B617B694FEA5303AA
:104170007B617B69002B7FF43EAF4FF00103184653
:1041800007F11807BD4680BD80B584B000AF7860E8
:1041900040F24C03C2F200031B68DB687868984762
:1041A0004FF00003FB60FB6843F00803FB607B6893
:1041B000DB68FA685A614FF00103184607F11007EF
:1041C000BD4680BD80B586B000AF78604FF000037B
:1041D0003B613B6943F010033B617B68DB687A68B5
:1041E000D26891693A696FEA02020A409A617B6873
:1041F000DB681B6AFB60FB68C3F30303DBB21A4690
:1042000013464FEA83039B184FEAC30303F55C731D
:104210007A68D3187B61FB68C3F34343DBB203F1D5
:10422000FF33052B46D801A252F823F0B54200080F
:1042300045420008B5420008B5420008B5420008F2
:104240008F420008BA8947F6F07313409BB2002BE7
:1042500032D07B69DA68FB68C3F30A139BB27868D3
:1042600011461A46FCF78CF87B69DA68FB68C3F3E1
:104270000A139BB2D2187B69DA607B699A69FB6882
:10428000C3F30A139BB2D2187B699A6114E07B686E
:1042900003F5B963786819464FF00802FCF770F827
:1042A0007B699A69FB68C3F30A139BB2D2187B69D6
:1042B0009A6102E000BF00E000BF7B68DB687A68BB
:1042C000D26891693A690A439A614FF0010318462E
:1042D00007F11807BD4680BD80B586B000AF786095
:1042E00039604FF000037B614FF00003BB603A6818
:1042F00013464FEA83039B184FEAC30303F58C73FD
:104300007A68D318FB60FB685A69FB689B69D31A0B
:104310007B61FB689A687B699A4202D2FB689B6862
:104320007B617B6903F103034FEA93033B617A6886
:104330003B6803F104034FEA8303D3189B689B692E
:10434000BB6032E0FB685A69FB689B69D31A7B61EA
:10435000FB689A687B699A4202D2FB689B687B6122
:104360007B6903F103034FEA93033B61FB68D96860
:104370003B68DAB27B699BB27868FBF7BFFFFB68EA
:10438000DA687B69D218FB68DA60FB689A697B6936
:10439000D218FB689A617A683B6803F104034FEA1C
:1043A0008303D3189B689B69BB603B891A463B69B2
:1043B0009A4209D9FB689A69FB685B699A4203D201
:1043C000FB685B69002BBDD14FF00103184607F174
:1043D0001807BD4680BD00BF80B58AB000AF7860C9
:1043E0004FF000033B614FF000033B624FF00003CE
:1043F000FB614FF00003BB614FF000037B614FF0A6
:104400000003FB603B6943F001033B617B681B6970
:104410007A68126951683A696FEA02020A405A6082
:1044200078684FF00001FBF7DFFF4FF000037B627D
:1044300019E07A687B6A03F104034FEA8303D31817
:104440009B684FF0FF029A607A687B6A03F114035D
:104450004FEA8303D3185B684FF0FF029A607B6AD0
:1044600003F101037B627B685B781A467B6A9A42A0
:10447000DFD87B681B694FF0FF329A613B6A4FF0CF
:10448000010262F30F033B623B6A4FF0010262F3E9
:104490001F433B627B681B693A6ADA61FB6943F040
:1044A0000803FB61FB6943F00103FB61FB6943F017
:1044B0000403FB61FB6943F00203FB617B681B693A
:1044C000FA695A617B681B69FA69C3F88420BB6981
:1044D00043F00103BB61BB6943F00803BB61BB69E7
:1044E00043F00203BB61BB6943F00403BB61BB69DA
:1044F00043F02003BB617B681B69BA691A617B6862
:104500001B69BA695A647B681B691B687B617B699C
:104510006FF30A137B617B681B697A691A6078689C
:10452000FCF716FC4FF00003FB60FB6843F480537C
:10453000FB607B68DB68FA685A6140F24C03C2F2A8
:1045400000031B681B69786898474FF00103184601
:1045500007F12807BD4680BD80B584B000AF786004
:104560007868FBF7E3FF7B68DB68DB68BB60786833
:10457000FBF7B4FF0346032B0ED17B684FF000021C
:104580009A707B684FF400729A80BB684FF0090202
:1045900062F38D23BB600DE07B684FF001029A70DF
:1045A0007B684FF040029A80BB684FF0050262F3CF
:1045B0008D23BB607B68DB68BA68DA604FF000036C
:1045C000FB60FB6843F40053FB607B68DB68FA68C0
:1045D0005A614FF00103184607F11007BD4680BD30
:1045E00080B584B000AF78604FF00003FB6040F20C
:1045F0004C03C2F200031B68DB6978689847FB68CC
:1046000043F48013FB607B68DB68FA685A614FF003
:104610000103184607F11007BD4680BD80B584B080
:1046200000AF78604FF00003FB6040F24C03C2F231
:1046300000031B681B6A78689847FB6843F4001303
:10464000FB607B68DB68FA685A614FF0010318462B
:1046500007F11007BD4680BD80B487B000AF786019
:104660000B46FB707B681B691B697B617B681B6960
:104670005B6B3B61FB783A6922FA03F34FEAC313A1
:10468000DBB27A6913437B61FB787A6803F1040338
:104690004FEA8303D3189B689A687B691340FB60D9
:1046A000FB68184607F11C07BD4680BC704700BF79
:1046B00080B485B000AF78604FF00003FB604FF42A
:1046C0007053C4F20103FB607B689B79002B78D0A8
:1046D0004FF47053C4F201034FF47052C4F201025C
:1046E00011687A6812686FEA02020A401A604FF491
:1046F0007053C4F201034FF47052C4F201025168C6
:104700007A6812686FEA02020A405A607B681B7975
:10471000FA68D318FB60FB68FA6811687A68126857
:104720000A431A604FF47053C4F201034FF47052FD
:10473000C4F2010291687A6812686FEA02020A40C4
:104740009A604FF47053C4F201034FF47052C4F2F4
:104750000102D1687A6812686FEA02020A40DA60E0
:104760007B685B79102B1AD14FF47053C4F20103AC
:104770004FF47052C4F2010291687A6812680A43D9
:104780009A604FF47053C4F201034FF47052C4F2B4
:104790000102D1687A6812680A43DA601FE04FF4B8
:1047A0007053C4F20103FB607B685B79FA68D3182D
:1047B000FB60FB68FA6811687A6812680A431A603D
:1047C0000DE07B681B79FA68D318FB60FB68FA6818
:1047D00011687A6812686FEA02020A401A6007F1EB
:1047E0001407BD4680BC704780B485B000AF7860C8
:1047F0004FF00003FB734FF00003BB604FF47053A6
:10480000C4F201031A687B681340BB604FF4705315
:10481000C4F201035A697B681340002B06D0BB68C1
:10482000002B03D04FF00103FB7302E04FF00003B5
:10483000FB73FB7B184607F11407BD4680BC70472D
:1048400080B483B000AF78604FF47053C4F20103BA
:104850007A685A6107F10C07BD4680BC704700BFFB
:1048600080B485B000AF78604FF00003FB734FF069
:104870000003BB734FF00F037B737B68DB78002B67
:1048800045D04FF46D43CEF20003DB686FEA0303BB
:1048900003F4E0634FEA1323FB73FB7BC3F10403D0
:1048A000BB737A7BFB7B42FA03F37B737B685B7899
:1048B0001A46BB7B02FA03F3FB737B689A787B7B17
:1048C0001340DAB2FB7B1343FB73FB7B4FEA03130A
:1048D000FB734FF46143CEF200037A6812789B18A1
:1048E000FA7B83F800234FF46143CEF200037A6829
:1048F00012784FEA5212D2B27968097801F01F019A
:104900004FF0010000FA01F143F8221014E04FF4D7
:104910006143CEF200037A6812784FEA5212D2B2A3
:104920007968097801F01F014FF0010000FA01F1E8
:1049300002F1200243F8221007F11407BD4680BCA3
:10494000704700BF80B584B000AF7860F9703A80DE
:10495000BB70FB785BB2002B0EDAFB7803F07F02B2
:1049600013464FEA83039B184FEAC30303F58C7386
:104970007A68D318FB600DE0FB7803F07F021346E2
:104980004FEA83039B184FEAC30303F55C737A680D
:10499000D318FB60FB7803F07F03DAB2FB681A7070
:1049A000FB784FEAD313DBB21A46FB685A703A8899
:1049B000FB689A60FB68BA78DA70FB685B78002B5A
:1049C00004D0FB681B781A46FB68DA80BB78022BA0
:1049D00003D1FB684FF000021A717868F968FBF7A1
:1049E000E5FD4FF00003184607F11007BD4680BDF6
:1049F00080B586B000AFF8607A600A46FA723B81F3
:104A0000FB7A03F07F0213464FEA83039B184FEAB9
:104A1000C30303F55C73FA68D3187B617B697A681A
:104A2000DA603A897B695A617B694FF000029A61CA
:104A30007B694FF000025A70FB7A03F07F03DAB211
:104A40007B691A70FB68DB78012B02D17A687B697D
:104A50001A617B691B78002B04D1F8687969FBF730
:104A60009BFF03E0F8687969FBF72EFE4FF0000327
:104A7000184607F11807BD4680BD00BF80B586B057
:104A800000AFF8607A603B600B46FB72FB7A03F084
:104A90007F0213464FEA83039B184FEAC30303F5D3
:104AA0008C73FA68D3187B617B694FF001025A70EE
:104AB000FB7A03F07F03DAB27B691A707B697A684C
:104AC000DA607A687B691A617B694FF000029A614B
:104AD0007B693A685A617B691B78002B04D1F868BE
:104AE0007969FBF759FF03E0F8687969FBF7ECFD9A
:104AF0004FF00003184607F11807BD4680BD00BF00
:104B000080B584B000AF78600B46FB70FB785BB279
:104B1000002B0EDAFB7803F07F0213464FEA830383
:104B20009B184FEAC30303F58C737A68D318FB60B4
:104B30000BE0FA7813464FEA83039B184FEAC3034E
:104B400003F55C737A68D318FB60FB684FF00102D1
:104B50009A70FB7803F07F03DAB2FB681A70FB7877
:104B60004FEAD313DBB21A46FB685A707868F968CB
:104B7000FCF712F84FF00003184607F11007BD4686
:104B800080BD00BF80B584B000AF78600B46FB707D
:104B9000FB785BB2002B0EDAFB7803F07F02134642
:104BA0004FEA83039B184FEAC30303F58C737A68BB
:104BB000D318FB600BE0FA7813464FEA83039B1887
:104BC0004FEAC30303F55C737A68D318FB60FB6894
:104BD0004FF000029A70FB7803F07F03DAB2FB68B3
:104BE0001A70FB784FEAD313DBB21A46FB685A708F
:104BF0007868F968FCF71AF84FF00003184607F1D7
:104C00001007BD4680BD00BF80B485B000AF78609E
:104C10000B46FB704FF00003FB60FB7803F07F0353
:104C2000DAB2FB6862F30A13FB607B681B697A687F
:104C300012691168FA680A431A6007F11407BD4641
:104C400080BC704780B400AFBD4680BC704700BFD9
:104C500080B500AF41F20410C2F2000000F03EF84F
:104C60000346002B0CBF00230123DBB2002B01D035
:104C7000FFF7E8FF80BD00BF80B582B000AF78606D
:104C80007B681846FEF70EF87B68084A1A6040F603
:104C90000430C2F200004FF47A71FCF7D9FA7B6855
:104CA000184607F10807BD4680BD00BFF88501081A
:104CB00080B582B000AF78607B68074A1A6040F622
:104CC0000430C2F20000FCF7DFFA7B68184607F1F7
:104CD0000807BD4680BD00BFF885010880B582B0D9
:104CE00000AF786040F60430C2F20000FCF712FB1F
:104CF0000346184607F10807BD4680BD80B483B05F
:104D000000AF78604FF00003184607F10C07BD466E
:104D100080BC704780B582B000AF786040F6043048
:104D2000C2F20000FCF7BEFA0346012B14BF0023B9
:104D30000123DBB2002B02D04FF0000306E040F667
:104D40000430C2F20000FCF7BFFA0346184607F130
:104D50000807BD4680BD00BF80B582B000AF786057
:104D600005E040F60430C2F20000FCF7ADFA40F670
:104D70000430C2F20000FCF795FA0346012B0CBF89
:104D800000230123DBB2002BEBD107F10807BD465E
:104D900080BD00BF80B582B000AF78600B46FB706D
:104DA00007F1030318464FF00101FDF7D9FD4FF05D
:104DB0000103184607F10807BD4680BD80B582B0E3
:104DC00000AF786039607B68012B18D13A684FF6E4
:104DD000FF739A4213D141F20410C2F20000FFF7B0
:104DE0004BFF41F20410C2F2000044F6B141C0F69C
:104DF000000140F20002C2F2000202F0CFF907F116
:104E00000807BD4680BD00BF80B500AF4FF0010070
:104E10004FF6FF71FFF7D2FF80BD00BF80B586B0AF
:104E200000AFF860B9601346FB804FF00003FB75DC
:104E3000FA88FB68C3F83821FA88FB68C3F8342184
:104E4000FB684FF0020283F81121FB88F8684FF0ED
:104E50000001BA68FFF712FEFB7D184607F118073C
:104E6000BD4680BD80B586B000AFF860B96013461E
:104E7000FB804FF00003FB75FB88F8684FF00001E2
:104E8000BA68FFF7FBFDFB7D184607F11807BD4622
:104E900080BD00BF80B586B000AFF860B960134632
:104EA000FB804FF00003FB75FB88F8684FF00001B2
:104EB000BA68FFF79DFDFB7D184607F11807BD4650
:104EC00080BD00BF80B584B000AF78604FF00003B4
:104ED000FB737B684FF0040283F8112178684FF070
:104EE00000014FF000024FF00003FFF7C7FD7868A4
:104EF000FBF72EFFFB7B184607F11007BD4680BD70
:104F000080B584B000AF78604FF00003FB737B681E
:104F10004FF0050283F8112178684FF000014FF03F
:104F200000024FF00003FFF763FD7868FBF710FF06
:104F3000FB7B184607F11007BD4680BD80B400AF6B
:104F400040F2F403C2F2000342F2B832C2F20002AD
:104F50005A6040F2F403C2F2000342F2C832C2F2D5
:104F60000002DA6040F2F403C2F2000342F2C432FB
:104F7000C2F200025A6140F2F403C2F2000342F2AC
:104F8000BC32C2F20002DA61BD4680BC704700BF8D
:104F900080B483B000AF78600B467B807A8840F2A3
:104FA000F403C2F2000333F8323099B27B8840F246
:104FB000F402C2F200024FEAC303D3185B889BB22B
:104FC000994226D27B8840F2F402C2F200024FEAF4
:104FD000C303D3185A68798840F2F403C2F200037D
:104FE00033F831309BB24FEA8303D3187A681A60E2
:104FF0007A8840F2F403C2F2000333F832309BB2F5
:1050000003F1010399B240F2F403C2F2000323F862
:10501000321007F10C07BD4680BC704780B485B0E4
:1050200000AF786039604FF00003FB817B681B881C
:10503000FB817A684FF00003C4F201039A421FD04B
:105040007A684FF48063C4F201039A4218D07B68F7
:10505000B3F1804F14D07A684FF48063C4F2000338
:105060009A420DD07A684FF40063C4F200039A426A
:1050700006D07A684FF44063C4F200039A4208D124
:10508000FB8923F07003FB813B685A88FB8913433B
:10509000FB817A684FF48053C4F200039A420FD028
:1050A0007A684FF4A053C4F200039A4208D0FB89F7
:1050B00023F44073FB813B681A89FB891343FB810E
:1050C0007B68FA891A803B685A687B68DA623B68B9
:1050D0001A887B681A857A684FF00003C4F20103CE
:1050E0009A4206D07A684FF48063C4F201039A4270
:1050F00004D13B689B7A1A467B681A867B684FF01E
:1051000001029A8207F11407BD4680BC704700BFB8
:1051100080B483B000AF78600B46FB70FB78002B47
:1051200008D07B681B889BB243F080039AB27B68EF
:105130001A8007E07B681B889BB223F080039AB239
:105140007B681A8007F10C07BD4680BC704700BF22
:1051500080B483B000AF78600B46FB70FB78002B07
:1051600008D07B681B889BB243F001039AB27B682E
:105170001A8007E07B681B889BB223F001039AB278
:105180007B681A8007F10C07BD4680BC704700BFE2
:1051900080B485B000AF786039604FF000037B8148
:1051A0004FF00003FB814FF00003BB817B681B8C39
:1051B0009BB223F001039AB27B681A847B681B8C34
:1051C000FB817B689B88BB817B681B8B7B817B8998
:1051D00023F070037B817B8923F003037B813B6891
:1051E0001A887B8913437B81FB8923F00203FB81AF
:1051F0003B689A89FB891343FB813B685A88FB898A
:105200001343FB817A684FF00003C4F201039A4212
:1052100006D07A684FF48063C4F201039A4223D126
:10522000FB8923F00803FB813B68DA89FB89134380
:10523000FB81FB8923F00403FB813B689A88FB898F
:105240001343FB81BB8923F48073BB81BB8923F4A7
:105250000073BB813B681A8ABB891343BB813B68DF
:105260005A8ABB891343BB817B68BA899A807B6861
:105270007A891A833B689A687B685A637B68FA89E3
:105280001A8407F11407BD4680BC704780B485B00E
:1052900000AF786039604FF000037B814FF000036E
:1052A000FB814FF00003BB817B681B8C9BB223F01A
:1052B00010039AB27B681A847B681B8CFB817B6825
:1052C0009B88BB817B681B8B7B817B8923F4E043BC
:1052D0007B817B8923F440737B813B681B884FEA89
:1052E00003239AB27B8913437B81FB8923F020033C
:1052F000FB813B689B894FEA03139AB2FB891343F6
:10530000FB813B685B884FEA03139AB2FB89134326
:10531000FB817A684FF00003C4F201039A4206D081
:105320007A684FF48063C4F201039A422FD1FB895B
:1053300023F08003FB813B68DB894FEA03139AB2B9
:10534000FB891343FB81FB8923F04003FB813B680E
:105350009B884FEA03139AB2FB891343FB81BB89F5
:1053600023F48063BB81BB8923F40063BB813B686A
:105370001B8A4FEA83039AB2BB891343BB813B6804
:105380005B8A4FEA83039AB2BB891343BB817B6874
:10539000BA899A807B687A891A833B689A687B68A5
:1053A0009A637B68FA891A8407F11407BD4680BCAA
:1053B000704700BF80B485B000AF786039604FF0AF
:1053C00000037B814FF00003FB814FF00003BB81A2
:1053D0007B681B8C9BB223F480739AB27B681A841F
:1053E0007B681B8CFB817B689B88BB817B689B8B6C
:1053F0007B817B8923F070037B817B8923F003030E
:105400007B813B681A887B8913437B81FB8923F46A
:105410000073FB813B689B894FEA03239AB2FB89A7
:105420001343FB813B685B884FEA03239AB2FB89F5
:105430001343FB817A684FF00003C4F201039A42E0
:1054400006D07A684FF48063C4F201039A422FD1E8
:10545000FB8923F40063FB813B68DB894FEA03236C
:105460009AB2FB891343FB81FB8923F48063FB81A0
:105470003B689B884FEA03239AB2FB891343FB8165
:10548000BB8923F48053BB81BB8923F40053BB81C8
:105490003B681B8A4FEA03139AB2BB891343BB8153
:1054A0003B685B8A4FEA03139AB2BB891343BB8103
:1054B0007B68BA899A807B687A899A833B689A6804
:1054C0007B68DA637B68FA891A8407F11407BD46A2
:1054D00080BC704780B485B000AF786039604FF011
:1054E0000003BB814FF000037B814FF00003FB8181
:1054F0007B681B8C9BB223F480539AB27B681A841E
:105500007B681B8C7B817B689B88FB817B689B8B8A
:10551000BB81BB8923F4E043BB81BB8923F4407387
:10552000BB813B681B884FEA03239AB2BB891343B4
:10553000BB817B8923F400537B813B689B894FEAC5
:1055400003339AB27B8913437B813B685B884FEAC4
:1055500003339AB27B8913437B817A684FF000034F
:10556000C4F201039A4206D07A684FF48063C4F211
:1055700001039A420BD1FB8923F48043FB813B68F2
:105580001B8A4FEA83139AB2FB891343FB817B6822
:10559000FA899A807B68BA899A833B689A687B68A3
:1055A0001A647B687A891A8407F11407BD4680BCA7
:1055B000704700BF80B485B000AF78600B467B8039
:1055C0004FF00003FB817B681B8BFB81FB8923F081
:1055D0000803FB81FA897B881343FB817B68FA8986
:1055E0001A8307F11407BD4680BC704780B485B0AC
:1055F00000AF78600B467B804FF00003FB817B6837
:105600001B8BFB81FB8923F40063FB817B884FEAC2
:1056100003239AB2FB891343FB817B68FA891A83BF
:1056200007F11407BD4680BC704700BF80B485B049
:1056300000AF78600B467B804FF00003FB817B68F6
:105640009B8BFB81FB8923F00803FB81FA897B8814
:105650001343FB817B68FA899A8307F11407BD46DF
:1056600080BC704780B485B000AF78600B467B800B
:105670004FF00003FB817B689B8BFB81FB8923F44C
:105680000063FB817B884FEA03239AB2FB891343B3
:10569000FB817B68FA899A8307F11407BD4680BCB9
:1056A000704700BF0B4661B1B1F1004F09D04FF612
:1056B000FF72A3F58011C7F6DF72914205D804206E
:1056C00070470028F3D10220704703F1FF4101F534
:1056D000E0019142F3D94FF6FF72C0F20F029342FC
:1056E00001D80320704703F100419142F9D900220B
:1056F000C7F6F072934204D013F5801F01D000204A
:105700007047D0F1010038BF0020704781F00041A0
:1057100002E000BF83F0004330B54FEA41044FEA96
:10572000430594EA050F08BF90EA020F1FBF54EA31
:10573000000C55EA020C7FEA645C7FEA655C00F0CD
:10574000E2804FEA5454D4EB5555B8BF6D420CDD9E
:105750002C4480EA020281EA030382EA000083EA21
:10576000010180EA020281EA0303362D88BF30BDC1
:1057700011F0004F4FEA01314FF4801C4CEA113117
:1057800002D0404261EB410113F0004F4FEA033376
:105790004CEA133302D0524263EB430394EA050F01
:1057A00000F0A780A4F10104D5F1200E0DDB02FA70
:1057B0000EFC22FA05F2801841F1000103FA0EF204
:1057C000801843FA05F359410EE0A5F120050EF1CA
:1057D000200E012A03FA0EFC28BF4CF0020C43FAFB
:1057E00005F3C01851EBE37101F0004507D54FF008
:1057F000000EDCF1000C7EEB00006EEB0101B1F558
:10580000801F1BD3B1F5001F0CD349085FEA30009D
:105810004FEA3C0C04F101044FEA445212F5800FA8
:1058200080F09A80BCF1004F08BF5FEA500C50F145
:10583000000041EB045141EA050130BD5FEA4C0C28
:10584000404141EB010111F4801FA4F10104E9D1B1
:1058500091F0000F04BF01460020B1FA81F308BFA8
:105860002033A3F10B03B3F120020CDA0C3208DD74
:1058700002F1140CC2F10C0201FA0CF021FA02F14F
:105880000CE002F11402D8BFC2F1200C01FA02F1BF
:1058900020FA0CFCDCBF41EA0C019040E41AA2BFE4
:1058A00001EB0451294330BD6FEA04041F3C1CDAAC
:1058B0000C340EDC04F11404C4F1200220FA04F0CC
:1058C00001FA02F340EA030021FA04F345EA030176
:1058D00030BDC4F10C04C4F1200220FA02F001FA38
:1058E00004F340EA0300294630BD21FA04F02946BA
:1058F00030BD94F0000F83F4801306BF81F4801153
:105900000134013D4EE77FEA645C18BF7FEA655CC5
:1059100029D094EA050F08BF90EA020F05D054EA97
:10592000000C04BF1946104630BD91EA030F1EBF9C
:105930000021002030BD5FEA545C05D140004941A0
:1059400028BF41F0004130BD14F580043CBF01F593
:10595000801130BD01F0004545F0FE4141F4700179
:105960004FF0000030BD7FEA645C1ABF1946104654
:105970007FEA655C1CBF0B46024650EA013406BF55
:1059800052EA033591EA030F41F4002130BD00BF14
:1059900090F0000F04BF0021704730B54FF48064D1
:1059A00004F132044FF000054FF0000150E700BF52
:1059B00090F0000F04BF0021704730B54FF48064B1
:1059C00004F1320410F0004548BF40424FF000019E
:1059D0003EE700BF42004FEAE2014FEA31014FEAE1
:1059E00002701FBF12F07F4393F07F4F81F0605130
:1059F000704792F0000F14BF93F07F4F704730B59F
:105A00004FF4607401F0004521F0004120E700BF31
:105A100050EA010208BF704730B54FF000050AE0B8
:105A200050EA010208BF704730B511F0004502D5B9
:105A3000404261EB41014FF4806404F132045FEABB
:105A4000915C3FF4DCAE4FF003025FEADC0C18BF60
:105A500003325FEADC0C18BF033202EBDC02C2F156
:105A6000200300FA03FC20FA02F001FA03FE40EAE8
:105A70000E0021FA02F11444C1E600BF70B54FF0E8
:105A8000FF0C4CF4E06C1CEA11541DBF1CEA1355CA
:105A900094EA0C0F95EA0C0F00F0DEF82C4481EA32
:105AA000030621EA4C5123EA4C5350EA013518BF52
:105AB00052EA033541F4801143F4801338D0A0FB3F
:105AC00002CE4FF00005E1FB02E506F00042E0FBEC
:105AD00003E54FF00006E1FB03569CF0000F18BFF2
